:10000000002000206D01000099010000990100000E
:100010009901000099010000990100009901000078
:100020009901000099010000990100009901000068
:10003000990100009901000099010000E17400009D
:100040009901000099010000990100009901000048
:100050009901000099010000990100009901000038
:1000600015770000990100008177000099010000D8
:100070009901000099010000990100009901000018
:10008000990100000D77000099010000990100001E
:100090009901000010B5064C2378002B07D1054BC1
:1000A000002B02D0044800E000BF0123237010BDE4
:1000B000780000200000000028B9000008B5084BB7
:1000C000002B03D00748084900E000BF0748036839
:1000D000002B00D108BD064B002BFBD09847F9E759
:1000E0000000000028B900007C00002074000020FF
:1000F00000000000164B002B00D1144B9D464022FF
:1001000092029A1A924600218B460F461348144ACF
:10011000121A09F0BAFF0F4B002B00D098470E4B74
:10012000002B00D098470020002104000D000D484E
:10013000002802D00C4800E000BF09F077FF200043
:10014000290006F0DDFB09F05BFFC0460000080057
:1001500000200020000000000000000078000020C7
:10016000F40D002000000000000000000648804759
:100170000649074A074B9B1A03DD043BC858D05079
:10018000FBDCFFF7B7FF0000E502000034B9000018
:100190000000002078000020FEE7C04680B582B055
:1001A00000AF00F01FF8031C7B60084B5B680F2258
:1001B00013401A1C7B68D3407B60054B7A681A6039
:1001C0007B68181CBD4602B080BDC04600800C4054
:1001D000B809002080B500AF014B181CBD4680BD9A
:1001E00000366E0180B582B000AF344BDB6A344A12
:1001F000134080225201934215D080225201934233
:1002000004D880221201934211D017E0802292017B
:10021000934204D08022D20493420CD00EE0294BAA
:100220001B687B6039E080231B027B6035E0264B36
:100230001B687B6031E0254B7B602EE01F4BDA684A
:10024000E023DB00134080229200934218D08022EA
:100250009200934206D8002B18D08022520093427D
:1002600011D016E0C0229200934206D08022D20024
:1002700093420ED1164B7B600EE0164B7B600BE079
:10028000154B7B6008E0154B7B6005E0144B7B60F1
:1002900002E000237B60C046C046084B1A68E0239A
:1002A0005B0213409B0B01337868191C07F0D8FAE6
:1002B000031C181CBD4602B080BDC04600800C4027
:1002C000003C0004040000200000002000366E0105
:1002D000406F4001809FD500C0D8A70040B56400A2
:1002E000804F120080B500AFBD4680BD80B500AF25
:1002F00080231B02181CBD4680BDC04680B500AFE0
:10030000FA239B00181CBD4680BDC04680B500AFD7
:10031000024B1B68181CBD4680BDC046040000206F
:1003200080B586B000AFB960111C7B600F23FB184D
:10033000021C1A700C23FB180A1C1A800F23FB18CE
:100340001B78BA68101C191C07F0BEF9031C7B61EE
:100350007B69002B00DA15E00C23FB181B88002BAF
:1003600010D07B68002B0DD00C23FB181B887A68FB
:10037000101C191C07F0A8F9031C7B617B69002B7A
:1003800000DAC046BD4606B080BDC046B0B588B0F4
:1003900002AF1723FB1800221A703B1C00221A60C0
:1003A00000225A60C54B181C042107F0FDF9031CFC
:1003B0003B613B69002B03DA01235B4200F0A2FBA7
:1003C000BE4B1B689BB2072213409BB21B0299B223
:1003D000BA4B1A68FF231B0213401B0A9AB20E2362
:1003E000FB180A431A800E23FB181B88002B0FD022
:1003F0000E23FB181B88B24A101C191C07F0D4F9F5
:10040000031C3B613B69002B02DA01235B4279E369
:10041000AA4BBB60A94B1B68AA4A1340AA4A934245
:1004200000D11CE1A84A934235D8A84A934200D192
:10043000FEE2A64A934216D8A54A934200D175E03F
:10044000A34A934206D8A02B00D1C8E2A14A934206
:1004500059D056E3A04A934200D19DE29F4A93426D
:1004600000D122E14DE39E4A934200D1C8E19C4A6B
:10047000934208D89B4A934200D1D6E09A4A9342CD
:1004800000D17AE23DE3994A934260D0984A934280
:1004900000D1B3E035E3974A934200D194E2954A04
:1004A000934218D8944A934200D13CE2924A934234
:1004B00008D8924A934200D10DE2914A934200D16A
:1004C00058E11EE38F4A934200D1E5E08E4A934201
:1004D00000D1C9E115E38D4A934200D174E08B4A03
:1004E000934208D88A4A934200D101E3894A934251
:1004F00000D1FBE105E3884A93424DD0874A9342FD
:1005000000D131E2FDE2864B181C09F0C7FD854B96
:1005100000221A71834B844A1A60844B1C68814BF9
:100520000520191C00220023A047EAE2804B181C7A
:1005300009F0B4FD7F4BFF221A707E4B00225A70E7
:100540007D4B181C0021082209F09FFDD9E27B4B4E
:10055000181C09F0A3FD7A4B181C09F0B9FD031C07
:10056000DAB2704B1A716F4B1B7901331A0A6D4B5B
:100570001B7901331B021B041B0C1343664A1A43ED
:10058000684B1A60694B1C68664B1B799AB26549C7
:100590006B4B0520A047B4E2BB689B881A1C694BD3
:1005A000181C111C09F07AFD5E4BA822D2005A607B
:1005B0005C4B654A1A605D4B1C685A4B0820191C3D
:1005C00000220023A0479CE2BB689B881A1C5F4B5B
:1005D000181C111C09F062FD524B00221A71514B7C
:1005E00003225A714F4B5A4A1A60504B1C684D4BAC
:1005F0000620191C00220023A04782E2BB689B88CA
:100600001A1C544B181C111C09F048FD454B0122C3
:100610001A71444B504A1A60444B1C68414B0520E8
:10062000191C00220023A0476BE2BB689B881A1CA0
:100630004A4B181C111C09F031FD3A4B05221A7166
:10064000384B00225A71374B454A1A60374B1C68A9
:10065000344B0620191C00220023A04751E2BB683E
:100660009B881A1C3F4B181C111C09F017FD2D4BC1
:1006700001221A712B4B01225A712A4B00229A71C6
:10068000284B394A1A60294B1C68264B0720191C35
:1006900000220023A04734E2BB689B881A1C334B1E
:1006A000181C111C09F0FAFC2BE2BB689B881A1C71
:1006B0002F4B181C111C09F0F1FC22E298000020BD
:1006C0009C000020F800FFFF20001301A0000C0098
:1006D000A000010020000100A000070020000C0085
:1006E000A000130020000F00A0000F00A0000101D7
:1006F00020000F01A0000F03A0000F0220000B023A
:10070000A0000B0220000203A0000B032000010642
:1007100020001303A00013032000010820000F098C
:1007200034AF0000440D002020010101600D0020C5
:1007300050AF0000BC090020BE0900206CAF0000D3
:1007400090AF0000A0AF000020040106D0AF000071
:1007500020020F0108B0000020010F0030B000009F
:100760002002130160B000002003020390B00000DB
:10077000BCB00000BB681B79191CBB685A68120A20
:100780001B7A1B0613431D1CBB685B7A5CB2BB68FB
:100790009B7A1A1CDD4B0092181C2A1C231C09F0A2
:1007A0007DFCBB685A68120A1B7A1B0613431A1C8D
:1007B00080231B019A4222D1BB689B7A1A1C022318
:1007C00013401CD0BB681B79DAB2D14B1A70D04BE6
:1007D00001225A70CF4B32225A60CE4B00221A723D
:1007E000CC4B00225A72CB4BCB4A1A60CB4B1C68C5
:1007F000C84B0A20191C00220023A04781E180E198
:10080000BB681B791A1CC64B181C111C09F046FC4E
:10081000BB680522995C981840780002014398183B
:100820008078000401439818C07800060143002036
:10083000081C9B181A795B791B021A4300231204C7
:10084000120C1B0C1B041343191C00F091F9B54B3F
:10085000181C09F023FCBB680533B34A101C191C93
:10086000062209F009FC4CE1BB689B79191CBB68A6
:100870009B881A1CAD4B181C09F010FCBB689A79B8
:10088000A44B1A71A34BAA4A1A60A44B1C68A14B33
:100890000520191C00220023A047BB689B791A1C65
:1008A0009B4B1B785BB29A4214D19A4B00225A6040
:1008B000984B00221A72974B01225A72954B964A16
:1008C0001A60964B1C68934B0A20191C00220023C7
:1008D000A04716E115E1BB689B79191CBB689B8892
:1008E0001A1C944B181C09F0D9FB0AE1BB681B7950
:1008F000191CBB685B791A1C8F4B181C09F0CEFBC6
:10090000834B1B785BB2BA68127993420AD1BB68F9
:100910005B79052B06D17E4BFF221A707C4B00229F
:100920005A70EEE0EDE0BB681B79191CBB685A6891
:10093000120A1B7A1B0613431A1C804B181C09F061
:10094000ADFBBB681A79734B1A71724B01225A7155
:10095000704B7B4A1A60714B1C686E4B0620191C49
:1009600000220023A047CCE0BB689B881A1C754B73
:10097000181C111C09F092FBC3E0BB681B79191C01
:10098000BB685A68120A1B7A1B0613431A1C6E4B6B
:10099000181C09F083FBB4E06C4B181C09F07EFBBB
:1009A000BB685868996800F0E3F8BB689B7A191C2B
:1009B000BB68DB7A1A1CBB681B7B1C1C644B181CB5
:1009C000231C09F06BFB9CE0BB681B79191CBB68FE
:1009D0005B791A1C5F4B181C09F060FB91E0BB6847
:1009E0005B685D4A101C191C09F058FB5B4B1B78B7
:1009F000002B0ED0474B00225A60464B584A1A60D3
:100A0000464B1C68434B0820191C00220023A047BA
:100A100077E0404B00221A713E4B524A1A603F4B1E
:100A20001C683C4B0520191C00220023A04768E0ED
:100A3000BB681B79002B00D063E01723FC1805F07E
:100A40008BFF031C23701723FB181B78002B4DD042
:100A50003B1C1722BA1812789A702D4B1B78DAB209
:100A60002C4B1A712B4B01225A712A4B08229A7176
:100A7000284B9B7903331A0A264B9B7903331B02BD
:100A80001B041B0C1343384A1A43224B1A60234B96
:100A90001C68204B9B799AB21E493B1C0720A0473B
:100AA0003B1C00229A701A4B1B78DAB2194B1A7150
:100AB000184B01225A71174B08229A71154B9B79DA
:100AC00003331A0A134B9B7903331B021B041B0CC1
:100AD0001343254A1A430F4B1A60104B1C680D4BE9
:100AE0009B799AB20B493B1C0720A047C04608E0FF
:100AF000BB689B881A1C1D4B181C111C09F0CEFAF0
:100B0000C0460023181CBD4606B0B0BDF0B00000C2
:100B1000BC090020440D002020060C00600D0020C0
:100B200038B1000064B10000C609002068B10000BF
:100B300020010B029CB10000D0B1000008B20000FF
:100B400020020F0948B2000078B20000B8B20000DD
:100B5000E0B2000010B3000048B300009400002091
:100B60002004000120010101200013035CB30000F8
:100B700080B584B000AF3B1C186059600523FB6052
:100B800013E03A1CFB68D3181B781A1C0A4B181C7C
:100B9000111C09F083FAFB68002B03DD074B181CBE
:100BA00009F07CFAFB68013BFB60FB68002BE8DA8C
:100BB000BD4604B080BDC04690B3000098B30000AD
:100BC00080B586B000AFF860B9607A60FB681B68DA
:100BD0007B61BB6801229A40131CDB431A1C7B69B2
:100BE0001A407B6801211940BB6899400B1C1A43CD
:100BF000FB681A60BD4606B080BDC04680B582B0B5
:100C000000AF786039607B681A683B68DA40131C73
:100C100001221340181CBD4602B080BD80B500AF54
:100C2000034BDB6C1B0EDBB2181CBD4680BDC046FF
:100C3000B081E00F80B582B000AF224B5A69E0234B
:100C4000DB0013408022920093421ED0802292004B
:100C5000934206D8002B26D08022520093421FD008
:100C600027E0C0229200934204D0E022D2009342B7
:100C70001CD01EE0FFF7D2FF031E122B02D9124B2D
:100C80007B6019E0114B7B6016E0FFF7C7FF031E86
:100C9000122B02D90E4B7B600EE00E4B7B600BE0FB
:100CA0000D4B7B6008E00D4B7B6005E00C4B7B60DF
:100CB00002E000237B60C0467B68181CBD4602B082
:100CC00080BDC04600800C40804F120040420F00A3
:100CD00040B56400C0CF6A00C0D8A700809FD5008F
:100CE000406F400190B583B000AFFC1C0E4B181C48
:100CF00000F01AFA031C2370FB1C1B78072B06D08C
:100D0000082B09D1FFF76EFA031C7B6007E0FFF7A1
:100D100091FF031C7B6002E000237B60C0467B6880
:100D2000181CBD4603B090BD06000C0080B584B011
:100D300000AF7860174BDA6B0B23FB18511E8A410A
:100D40001A70144B144ADA63124B5B680722134083
:100D5000FB607B68114A934206D87B68104A934235
:100D600002D90123FB6001E00023FB60094B094A23
:100D7000526807218A43111CFA680A435A600B2300
:100D8000FB181B78002B02D0024B0022DA63BD4611
:100D900004B080BD00000C40711B00000048E80159
:100DA0000024F40080B500AFFFF714FA031C181CF0
:100DB000FFF7BCFFBD4680BD80B584B000AF786052
:100DC0000023BB607B68364A934206D0354A934283
:100DD00003D0354A934200D000E0C0467B68181C1F
:100DE00000F0A2F9031CFB607B682D4A93420CD0F3
:100DF0002C4A934210D02C4A934200D013E02B4B44
:100E00009B6A03221340FB600DE0284B9B6A0C2277
:100E100013409B08FB6006E0244B9B6A3022134082
:100E20001B09FB60C046FB68012B05D014D3022BC5
:100E300007D0032B0AD02BE0FFF758FA031CBB6046
:100E400029E0FFF763FA031CBB6024E0FFF7A6F973
:100E5000031C5B08BB601EE00023BB607B68124A7A
:100E6000934203D07B680E4A934210D10F4B9A6A8B
:100E70007B680D498B4201D1102300E01423DA4036
:100E8000131E04D0FFF73AFA031CBB6003E002E034
:100E90000023BB60C046BB68181CBD4604B080BDC3
:100EA00003001A0004001C000200180000800C401F
:100EB00080B582B000AF7860074B5B6D01221340B4
:100EC00000D005E0C046044B1B6D7A681340FAD190
:100ED000BD4602B080BDC04600800C4090B583B0D6
:100EE00000AFFC1C124B181C00F01EF9031C2370F1
:100EF000FB1C1B78032B08D0082B0BD0022B0ED128
:100F0000FFF704FA031C7B600CE0FFF7EFF9031C0A
:100F10007B6007E0FFF766F9031C7B6002E00023BB
:100F20007B60C0467B68181CBD4603B090BDC046C0
:100F30000733200080B586B000AF78600A1CFB1C28
:100F40001A7000233B617B681B0A0F2213400A2B97
:100F500036D89A001C4BD3181B689F461B4B7B61ED
:100F600018E01B4B7B6115E01A4B7B6112E01A4BBA
:100F70007B6101233B610DE0184B7B6110233B61DA
:100F800008E0174B7B6180235B003B6102E0154B5F
:100F90007B61C0467B681B0B1F221340FB603B69D3
:100FA000002B03D03B69181CFFF782FFFB1C1B784A
:100FB0007969FA68081C111C1A1CFFF701FE00E091
:100FC000C046BD4606B080BD9CB3000040800C40CA
:100FD00008800C4044800C4058800C4060800C40DD
:100FE00064800C4078800C4080B584B000AF78609D
:100FF0007A68F8239B031340E0221203934200D146
:1010000079E0E0221203934213D8802292029342A5
:101010003BD080229202934202D8002B23D074E06E
:101020008022D202934223D0C022120393425DD089
:101030006BE0C022520393422CD0C0225203934251
:1010400008D88022520393422BD0A022520393420D
:101050003DD05AE0D0225203934231D080229203F5
:1010600093424DD051E0FFF7BDF8031CFB604FE009
:10107000FFF7B8F8031CFB60284B9B680F22134056
:101080001A1CFB68D340FB6042E0FFF787F8031CA3
:10109000FB603DE0224B181CFFF78EFE031CFB603B
:1010A00036E01F4B181CFFF787FE031CFB601B4B31
:1010B0009B6E0F2213401A1CFB68D340FB6027E095
:1010C000184B181CFFF778FE031CFB6020E0154B43
:1010D000181CFFF771FE031CFB60104B1B6F0322F3
:1010E00013401A1CFB68D340FB6011E0FFF7FAFDC8
:1010F000031CFB600CE0FFF79DFD031CFB6007E099
:10110000FFF7ECFE031CFB6002E00023FB60C0461F
:10111000FB68181CBD4604B080BDC04600800C4072
:101120000200180003001A0080B584B000AF786098
:101130000F23FB1801221A707B680F221340BB603B
:10114000BB68072B00D9CAE0BB689A006A4BD3186A
:101150001B689F46694BDB6A694A13408022520133
:10116000934216D080225201934204D88022120169
:10117000934213D01CE080229201934204D080223B
:10118000D20493420FD013E00F23FB1802221A70EF
:1011900013E00F23FB1803221A700EE00F23FB1835
:1011A00004221A7009E00F23FB180A221A7004E0C7
:1011B0000F23FB1805221A70C04695E04F4B9B6A1F
:1011C00003221340022B08D0032B0BD0012B0ED18E
:1011D0000F23FB1803221A7015E00F23FB180222BD
:1011E0001A7010E00F23FB1806221A700BE0434B15
:1011F0009A6A80235B02134004D00F23FB180B2252
:101200001A7000E0C0466FE03C4B9B6A0C22134012
:10121000082B08D00C2B0BD0042B0ED10F23FB185E
:1012200003221A7015E00F23FB1802221A7010E037
:101230000F23FB1806221A700BE0304B9A6A8023AA
:101240005B03134004D00F23FB180B221A7000E03D
:10125000C04649E0294B9B6A30221340102B02D034
:10126000202B05D009E00F23FB1803221A7009E098
:101270000F23FB1802221A7004E00F23FB1801222F
:101280001A70C04630E00F23FB1807221A702BE0BB
:101290001A4BDA6AE023DB02134080229202934267
:1012A00012D08022D202934204D080225202934272
:1012B00005D00EE00F23FB1809221A700EE00F2351
:1012C000FB1802221A7009E00F23FB1803221A7080
:1012D00004E00F23FB1801221A70C04604E00F231C
:1012E000FB1800221A70C0460F23FB181B78181C2D
:1012F000BD4604B080BDC046C8B3000000800C40AD
:10130000003C000480B588B000AF78600A1CFB1C6C
:101310001A700323FB611B23FB1803221A7000239E
:101320003B617B680F221340FB60FB68072B00D9F1
:10133000F2E0FB689A007C4BD3181B689F46FB1CAD
:101340001B780B2B00D9E9E09A00784BD3181B6867
:101350009F460423FB611B23FB1800221A701BE02D
:101360000323FB611B23FB1801221A7014E00223E4
:10137000FB611B23FB1802221A700DE00123FB61A5
:101380001B23FB1803221A7006E00523FB611B23B5
:10139000FB1805221A70C0461B23FB181B78181C6B
:1013A0000121012200F0CEF8FFF7FCFC604BFA6946
:1013B0005A6200F033F9FEF7F1FE031CBB60BB6814
:1013C000181CFFF7B3FCACE0FB1C1B780B2B00D9FF
:1013D000A6E09A00574BD3181B689F4600237B61F9
:1013E0001DE000200121012200F0ACF802237B6106
:1013F00015E001200121012200F0A4F801237B6106
:101400000DE04D4B181C02210122FFF7D9FB0323ED
:101410007B6104E000237B6101233B61C046FB68E4
:10142000022B0BD1424B424A926A444911407A69DD
:1014300011433A6912040A439A6272E03C4B3C4AF7
:10144000926A3F4911407A69920011433A69120544
:101450000A439A6265E0FB1C1B78022B07D0032B22
:101460000DD0012B00D05CE000237B610FE0002059
:101470000121012200F066F802237B6107E00120D0
:101480000121012200F05EF801237B61C046284B58
:10149000274A926A30218A43111C7A6912010A4351
:1014A0009A623EE0FB1C1B78032B14D0092B22D040
:1014B000022B00D035E000200121012200F042F88B
:1014C0001B4B40225A62C046194BDA6A80235B02EA
:1014D0001340F9D01FE001200121012200F032F871
:1014E000134B60225A62C046114BDA6A80239B027A
:1014F0001340F9D00FE005200121012200F022F86D
:101500000B4B80225A62C046094BDA6A8023DB0209
:101510001340F9D0C04604E0C04602E0C04600E0F7
:10152000C046BD4608B080BDE8B3000008B4000066
:1015300000800C4038B4000040800C40FCFFFEFFEF
:10154000F3FFEFFF90B587B000AF041C081C111C1F
:10155000FB1D221C1A70BB1D021C1A707B1D0A1C6D
:101560001A70FB1D1B78052B4DD89A00284BD318F9
:101570001B689F4601233B610223FB6001237B61C3
:1015800026E004233B610823FB6003237B611FE00B
:1015900010233B612023FB6005237B6118E040237F
:1015A0003B618023FB6007237B6111E080235B00AC
:1015B0003B6180239B00FB6009237B6108E0802363
:1015C000DB003B6180231B01FB6016237B61C0466F
:1015D000BB1D1B78002B10D00E4B3A691A627B1D85
:1015E0001B78002B0CD0C0460B4A7B69101C191CC1
:1015F000FFF704FB031EF7D002E0064BFA681A62FD
:1016000000F00CF800E0C046BD4607B090BDC046F3
:1016100068B4000000800C402C800C4080B500AF06
:10162000024BDA6A024B1A60BD4680BD00800C4056
:101630009C08002080B586B000AFF860B9607A6081
:10164000FB681B687B61BB6801229A40131CDB436B
:101650001A1C7B691A407B6801211940BB689940BC
:101660000B1C1A43FB681A60BD4606B080BDC0461D
:1016700080B584B000AFF860B9607A60FB681B6821
:10168000BA68D2431A407B681A43FB681A60BD46A9
:1016900004B080BD90B589B000AFF860B9607A60E1
:1016A0001A1CFB1C1A707B68002B00D166E0FB68DB
:1016B0001B68344A1A40FB681A60FA68FB1C1B78E6
:1016C0001B021C1CC0239B00101C191C221CFFF7B2
:1016D000CFFFBB68002B05D12B4B181CFFF784FCF8
:1016E000031CBB6001235B42BB61FB681B680222D9
:1016F000134012D0FB1C1B78012B07D0022B08D003
:10170000002B00D01AE0214BBB6105E0204BBB61F0
:1017100002E0204BBB61C04610E0FB1C1B78012B94
:1017200006D0022B07D0002B08D11B4BBB6105E074
:101730001A4BBB6102E01A4BBB61C046FB1C1B7815
:10174000184AD35C7B617B689B00BA68D11A7B69BD
:101750007A685343081C191C06F082F8031C013BED
:10176000FB61FB681B680222134004D0FB69002B5D
:1017700001D10123FB61FA69FB681A61BD4609B01A
:1017800090BDC046FFFCFFFF4081040040164000B2
:10179000C0D8A7008050740180841E004054890086
:1017A000002D310180B4000080B582B000AF7860B8
:1017B00039607B6800225A637B68114A1A637A6831
:1017C0003B685B78002B01D0002300E00123101C54
:1017D00001211A1CFFF72EFF3B6859683B689A6885
:1017E0003B681B7B7868FFF755FF7A683B681B787E
:1017F000101C00211A1CFFF71DFFBD4602B080BD62
:10180000CFFF010080B588B000AF78607B68BD4A2B
:10181000934205D1BC4BBB61BB699B687B6101E016
:10182000FC23EBE17B689B6A3B613A69C023DB00E8
:10183000134014D03A6980239B00134003D0BB6946
:10184000FD225A7007E03A698023DB00134002D082
:10185000BB69FE225A70BB6909221A70BAE1BB69E2
:101860001B78082B00D9ADE19A00A84BD3181B6850
:101870009F467B695B881A1C102313400AD07B6942
:101880001B881B0A9BB21A1C06231340F022134329
:10189000FB610FE07B691B881A1CFE231340FB6170
:1018A0007B695B881A1C0223134003D0FB69012269
:1018B0001343FB61BB6901221A707B68FA695A62A3
:1018C0007B6801225A6085E13B69802213400CD07D
:1018D0007B6880221A63BB69FF225A70BB690822A9
:1018E0001A707B6802225A6030E03B694022134044
:1018F0002CD07B6840221A637B695B881A1C1023FA
:1019000013400AD0BB6902221A707B691B881A1C1B
:10191000FF231A407B685A6218E07B695B881A1CB7
:10192000022313400ED0BB6907221A70BB691B79D2
:101930007A69DB00D3181B89012B07D17B68082249
:101940005A6047E1BB6905221A7042E142E13B69F6
:10195000802213400CD07B6880221A63BB69FF226F
:101960005A70BB6908221A707B6802225A6014E020
:101970003B694022134010D07B6840221A637B6988
:101980005B881A1C0223134003D0BB6903221A7020
:101990001FE1BB6905221A701BE11BE17B695B88B3
:1019A0001A1C102313400AD07B691B881B0A9BB2A8
:1019B0001A1C06231340F0221343FB6105E07B69E8
:1019C0001B881A1CFE231340FB617B695B881A1C71
:1019D0000423134003D0FB6901221343FB61BB695D
:1019E00004221A707B6801225A607B68FA695A6285
:1019F000F0E03B69802213400CD07B6880221A63A0
:101A0000BB69FF225A70BB6908221A707B680222E8
:101A10005A6014E03B694022134010D07B6840229A
:101A20001A637B695B881A1C0423134003D0BB69CB
:101A300007221A7003E0BB6905221A70C9E0C9E0E9
:101A4000BB695A88BB691B797969DB00CB181B8994
:101A50009A4224D3BB6900225A80BB691B790133A7
:101A6000DAB2BB691A717B695B881A1C04231340C4
:101A700003D0BB6903221A70ABE07B695B881A1C38
:101A80000123134003D1BB691B79012B06D9BB6924
:101A900008221A707B6802225A609BE099E0BB69B9
:101AA0001B797A69DB00D3185A68BB695B88591CBB
:101AB00088B2B9694880D3181B781A1C7B685A62AF
:101AC000BB6906221A7085E03B69802213400CD066
:101AD0007B6880221A63BB69FF225A70BB690822A7
:101AE0001A707B6802225A600AE03B694022134068
:101AF00006D07B6840221A63BB6905221A7068E031
:101B000068E0C04600A00040A008002084B40000A7
:101B10003B692022134046D0BB691B797A69DB0000
:101B2000D3181B89FB607B68DA690B23FB181A70DA
:101B3000BB695B881A1EFB689A4210D2BB691B798D
:101B40007A69DB00D3185A68BB695B88591C88B274
:101B5000B9694880D3180B22BA1812781A70BB6979
:101B60005B881A1EFB689A420CD3FB68012B02D1DA
:101B70007B6808225A60BB6908221A707B680222BF
:101B80005A6010E07B6804225A60FB68012B0AD976
:101B9000BB695B881A1CFB68013B9A4203D17B68D6
:101BA00008225A6016E015E03A6980235B00134072
:101BB00007D07B68802252001A63BB6909221A7021
:101BC00008E007E0BB69FB225A70BB6909221A7062
:101BD00000E027E6BB691B78092B0BD17B6800224C
:101BE0005A63BB695B785BB2012B05D1BB690022EC
:101BF0005A7001E0012301E0BB695B785BB2181CFD
:101C0000BD4608B080BDC04680B584B000AF7860E6
:101C100039607B68274A934207D1274BFB607B687A
:101C20009B680122134005D001E0FC233DE07B6866
:101C300020225A603B685B881A1C0223134003D0A1
:101C40003B681B89002B09D03B685B881A1C042366
:101C5000134005D03B681B8A002B01D1FC2324E0F4
:101C6000FB6800221A70FB6801225A70FB68002290
:101C70005A80FB6800221A71FB683A689A607B6898
:101C8000C0225A607B689B6A2022134001D07B6887
:101C9000DB697B68094A1A637B68FC22D2005A63BD
:101CA0007B68181CFFF7AEFD031C5BB2181CBD4619
:101CB00004B080BD00A00040A0080020CFFF0100BC
:101CC00080B582B000AF78600A1CFB1C1A70FB1C48
:101CD0001B78002B06D07B681B6F01221A437B68A0
:101CE0001A6706E07B681B6F012293431A1C7B680E
:101CF0001A67BD4602B080BD80B582B000AF786083
:101D00007B6880229B58181CBD4602B080BDC0462F
:101D100080B582B000AF786039607B6884213A6812
:101D20005A50BD4602B080BD80B582B000AF786029
:101D300039607B68384A934207D07B68374A9342C0
:101D400003D07B68364A934200D1C0463B681B787B
:101D500001225340DBB2002B02D07B6802225A6082
:101D60007B6800225A623B689B781A063B68DB78E6
:101D70001B041A433B689B799B021A433B68DB793F
:101D80001B0213433A68127A1A433B685B78002BB4
:101D900001D0402300E000231A433B685B7A002B0C
:101DA00001D0802300E000231A433B689B7A002B7C
:101DB00001D0202300E000231A433B68DB7A002B8C
:101DC00001D0102300E000231A433B681B79002B4D
:101DD00002D080239B0100E000231A433B685B791B
:101DE000002B02D080235B0500E000231A433B68F0
:101DF0001B7B002B01D0082300E000231A437B68E3
:101E00001A603B681B78002B02D07B6801225A6065
:101E1000BD4602B080BDC046000001400004014044
:101E20000008014080B584B000AFF860B9607A6006
:101E3000FB68284A934207D0FB68274A934203D0A5
:101E4000FB68264A934200D1C0467B681B789A06FD
:101E50007B685B781B061A437B689B781B041A43DC
:101E60007B68DB781B031A437B681B799B021A4350
:101E70007B685B791B0213437A6892791A437B680B
:101E8000DB79002B02D080239B0300E000231A4360
:101E90007B681B7A002B02D080235B0300E00023C9
:101EA0001A437B685B7A002B01D0102300E00023EB
:101EB0001A437B689B7A002B01D0042300E00023A7
:101EC0001A43111CFB68BA6803321201D150BD4697
:101ED00004B080BD00000140000401400008014042
:101EE00080B582B000AF786039607B68181C002133
:101EF000FFF7E6FE3B68DB78002B01D0022200E012
:101F000000223B685B78002B01D0042300E0002313
:101F10001A433B689B78002B01D0082300E0002384
:101F20001A433B681B79002B02D080235B0400E03E
:101F300000231A433B685B791B011A437B681A67CD
:101F40003B689B791A1C3B689B681B021A433B68E1
:101F5000DB681B041A437B685A673B681B7D002BB8
:101F600002D080231A0500E000223B685B7D002B35
:101F700002D08023DB0400E000231A433B689B7DF2
:101F8000002B02D080235B0400E000231A433B684F
:101F90001B7E002B02D080239B0400E000231A4309
:101FA0003B689B7E1B0413433A68D27D1A433B680F
:101FB0005B7E1B021A437B689A673B681A697B68E1
:101FC000DA677B68181CFFF797FE021C7B68181CF9
:101FD000111CFFF79DFE3B681B787A68101C191CCA
:101FE000FFF76EFEBD4602B080BDC04680B586B02C
:101FF00000AFF860B9607A601A1CFB1C1A70BB68ED
:10200000002B05D1294B181CFEF7EEFF031CBB600B
:10201000FB1C1B78202B0BD002DC002B05D041E0F1
:10202000402B08D0602B0ED03CE010237B610DE0EC
:1020300008237B610AE0BB68181C062105F010FC30
:1020400006237B6102E004237B61C046BB689A00E3
:102050007B6979684B435B08D3183B617B697A687D
:1020600053433869191C05F0FBFB031C3B613B69BA
:10207000043B3B613B699B013B613B690C4A13405C
:102080003B61FB681B68602293431A1CFB681A6063
:10209000FB681A68FB1C1B781A43FB681A60FB6814
:1020A0003A695A61BD4606B080BDC0464081040011
:1020B000C0FF1F0080B582B000AF786039607B68D8
:1020C0001F4A934203D07B681E4A934200D1C04608
:1020D0007B68181C00F066F83B689B7C002B06D0E0
:1020E0007B681B688022D2051A437B681A603B68B4
:1020F000DB7C002B07D03B681B7D10221343DBB237
:102100001A1C7B689A653B685B7B1A1C3B681B8AC0
:1021100013433A68D2891A437B685A603B6859680E
:102120003B689A683B681B7B7868FFF75FFF3B68FA
:102130001B781A1C7B68DA60BD4602B080BDC046C1
:1021400000C0004000C4004080B584B000AF78609B
:1021500039607B689B6877229343FB603B681B7800
:10216000002B03D0FB6840221343FB603B689B7845
:10217000002B03D0FB6820221343FB603B685B7895
:10218000002B03D0FB6810221343FB603B68DB7815
:102190001A1CFB681343FB607B68FA689A60BD46B3
:1021A00004B080BD80B582B000AF78607B681E4A05
:1021B000934203D07B681D4A934200D1C0467B689E
:1021C0001B4ADA607B6800221A607B68194A5A60F1
:1021D0007B6800229A607B6800225A617B6800223B
:1021E000DA647B68144A9A647B6800225A657B68CB
:1021F0000D4A934203D07B680C4A934202D17B681C
:1022000000221A657B6800229A657B68064A934221
:1022100003D07B68054A934202D17B680022DA65CD
:10222000BD4602B080BDC04600C0004000C40040B2
:10223000AA0E000005100000F91F000080B582B052
:1022400000AF7860C0467B681B6980221340FAD0DB
:102250007B68DB69DBB2181CBD4602B080BDC0469E
:1022600080B582B000AF78600A1CFB1C1A70C046B3
:102270007B681B6940221340FAD0FB1C1A787B68EC
:102280005A63BD4602B080BD80B500AF00F00CF8C7
:1022900000F03CF800F090F800F0E4F800F006F9E7
:1022A00000F0DEFABD4680BD80B500AF11200521EB
:1022B000FFF728F80F4B181C0121FEF73BFE0E4BD1
:1022C000181C0121FEF736FE0C4B181C0121FEF7ED
:1022D00031FE0B4B181C0121FEF72CFE094B181C7C
:1022E0000121FEF727FE084B181C0121FEF722FEF4
:1022F000BD4680BD4081040000B20400000204001D
:1023000000320400004204000082040090B589B04D
:1023100000AF0823FB18264A13CA13C313CA13C3FA
:102320000823FB18E12252029A600823FB180522B9
:102330005A730823FB180022DA810823FB18802235
:1023400052011A820823FB1800221A730823FB1873
:1023500000229A740823FB180022DA740823FB1861
:1023600000221A75134A0823FB18101C191CFFF7CA
:10237000A1FE3B1D00221A703B1D00225A703B1D1E
:1023800000229A703B1D0022DA703B1D00225A7019
:102390003B1D00229A703B1D0022DA70054A3B1D4E
:1023A000101C191CFFF7D0FEBD4609B090BDC046F9
:1023B000A8B4000000C0004090B589B000AF082369
:1023C000FB18264A13CA13C313CA13C30823FB18E6
:1023D000E12252029A600823FB1805225A7308234F
:1023E000FB180022DA810823FB18802252011A828E
:1023F0000823FB1800221A730823FB1800229A7482
:102400000823FB180022DA740823FB1800221A752F
:10241000134A0823FB18101C191CFFF74BFE3B1D29
:1024200000221A703B1D00225A703B1D00229A7038
:102430003B1D0022DA703B1D00225A703B1D00221A
:102440009A703B1D0022DA70054A3B1D101C191CB6
:10245000FFF77AFEBD4609B090BDC046A8B40000A3
:1024600000C4004090B585B000AF3B1C0C4A13CAB5
:1024700013C312681A603B1C01221A703B1C012214
:102480005A703B1C074A9A603B1C00221A73064A8A
:102490003B1C101C191CFFF787F9BD4605B090BD09
:1024A000C0B40000486B010000A0004090B595B09A
:1024B00000AF4023FB1801221A704023FB180022B2
:1024C0005A704023FB1800229A704023FB18002208
:1024D000DA704023FB1800221A714023FB180022F7
:1024E0005A714023FB1800229A714023FB180022E6
:1024F000DA714023FB1800221A724023FB180022D5
:102500005A724023FB1800229A724023FB180022C3
:10251000DA724023FB1800221A734023FB180122B1
:102520001A704023FB1800225A704023FB18002227
:102530005A724023FB1800221A734023FB18002212
:10254000DA704023FB1800229A704023FB18002207
:102550009A714023FB180022DA714023FB180022F5
:102560001A724023FB1800229A724023FB180022A3
:10257000DA724023FB1800221A714023FB18002254
:102580005A71B54A4023FB18101C191CFFF7CCFBED
:102590003423FB1800221A703423FB1800225A70CF
:1025A0003423FB1800229A703423FB180022DA70BF
:1025B0003423FB1800221A713423FB1800225A71AD
:1025C0003423FB1800229A713423FB180022DA719D
:1025D0003423FB1800221A723423FB1800225A728B
:1025E0003423FB1800229A723423FB1800221A723B
:1025F0003423FB1800229A703423FB1800225A70EF
:102600003423FB1800229A713423FB1800221A701D
:102610003423FB180022DA713423FB1800221A71CC
:102620003423FB180022DA703423FB1800225A717D
:102630003423FB1800225A723423FB1800229A72AA
:10264000854A3423FB18101C00211A1CFFF7EAFBF3
:102650002823FB1800221A702823FB1800225A7026
:102660002823FB1800229A702823FB180022DA7016
:102670002823FB1800221A712823FB1800225A7104
:102680002823FB1800229A712823FB180022DA71F4
:102690002823FB1800221A722823FB1800225A72E2
:1026A0002823FB1800229A722823FB1800221A7292
:1026B0002823FB1800229A702823FB1800225A7046
:1026C0002823FB1800229A712823FB1800221A7075
:1026D0002823FB180022DA712823FB1800221A7124
:1026E0002823FB180022DA702823FB1800225A71D5
:1026F0002823FB1800225A722823FB1800229A7202
:10270000554A2823FB18101C01211A1CFFF78AFBCD
:102710001C23FB1800221A701C23FB1800225A707D
:102720001C23FB1800229A701C23FB180022DA706D
:102730001C23FB1800221A711C23FB1800225A715B
:102740001C23FB1800229A711C23FB180022DA714B
:102750001C23FB1800221A721C23FB1800225A7239
:102760001C23FB1800229A721C23FB1800221A72E9
:102770001C23FB1800229A701C23FB1800225A709D
:102780001C23FB1800229A711C23FB1800221A70CC
:102790001C23FB180022DA711C23FB1800221A717B
:1027A0001C23FB180022DA701C23FB1800225A712C
:1027B0001C23FB1800225A721C23FB1800229A7259
:1027C000254A1C23FB18101C02211A1CFFF72AFBA8
:1027D0003B1C224A13CA13C313CA13C312681A60DC
:1027E0003B1C00221A703B1C00225A703B1C00222A
:1027F0009A703B1C0022DA703B1C00221A713B1CB1
:1028000000225A713B1C00229A713B1C01229A60E3
:102810003B1C0122DA603B1C01221A753B1C012281
:102820005A753B1C0022DA753B1C0022DA753B1CF2
:1028300000225A763B1C00225A763B1C01229A76D3
:102840003B1C00221A61044A3B1C101C191CFFF798
:1028500047FBBD4615B090BD00000140D0B400005C
:1028600080B500AF354B354AD26C0F218A43042125
:102870000A43DA64314B314AD26CF0218A43102189
:102880000A43DA642D4B2D4A126F2D490A40B021BC
:1028900009050A431A67294B284A126F12011209C7
:1028A000B02109060A431A672449244A9823D358B9
:1028B000244A13408022D200134398228B501F4990
:1028C0001E4A9823D358204A1340802252011343B2
:1028D00098228B501949194A9823D3581B4A134000
:1028E0008022D202134398228B501449134A982312
:1028F000D358174A13408022D203134398228B5097
:10290000144B144A926B14490A40802149000A432F
:102910009A63104B0F4A926B03210A439A630F4B41
:102920000E4A526D03210A435A650D4B0C4A526DF3
:1029300003210A435A65BD4680BDC0460060004081
:10294000FFFFFFF0FFF0FFFFFF0FFFFFFFFFF0FFB4
:10295000FFFF0FFF00A00040FFF8FFFF00C0004096
:1029600000C40040F0B5CFB000AFE94B9C2252004C
:102970009446BC44634400221A60E54B9C225200FA
:102980009446BC44634400225A60E14B9C225200AE
:102990009446BC44634400229A6000239A22520069
:1029A000BA1813606EE0002398225200BA18136020
:1029B0003BE0D74B9C2252009446BC4463449A228D
:1029C0005200BA1812689200D458D2499A235B0078
:1029D000FB181A68131C9B009B189B00982252003E
:1029E000BA1812689B185B005B5A1BB2181C05F0E2
:1029F000A5FF031C201C191C05F062F9031C191CFF
:102A0000C34B9C2252009446BC4463449A22520019
:102A1000BA1812689200D15098235B00FB181B680B
:102A2000013398225200BA18136098235B00FB18F8
:102A30001B68132BBDDDB64B9C2252009446BC4450
:102A400063449A225200BA1812689200D358181C94
:102A5000B14905F0B1FA031C191CAD4B9C22520080
:102A60009446BC4463449A225200BA1812689200F9
:102A7000D1509A235B00FB181B6801339A22520045
:102A8000BA1813609A235B00FB181B68052B8ADDBC
:102A900000239A225200BA18136021E100239822E1
:102AA0005200BA1813600BE19C499A235B00FB1893
:102AB0001A68131C5B009B185B0098225200BA181E
:102AC00012689B189B0000225A50954B9C22520082
:102AD000BA18D1189A235B00FB181A68131C5B0004
:102AE0009B185B0098225200BA1812689B189B0032
:102AF00000225A508A4B9C225200BA18D1189A23AD
:102B00005B00FB181A68131C5B009B185B00982283
:102B10005200BA1812689B189B0058589C23F91849
:102B20009A235B00FB181A68131C5B009B185B0060
:102B300098225200BA1812689B189B005850002324
:102B400096225200BA18136082E09C23F9189A2347
:102B50005B00FB181A68131C5B009B185B00982233
:102B60005200BA1812689B189B005C5869499A2356
:102B70005B00FB181A68131C9B009B189B00962295
:102B80005200BA1812689B185B005B5A1BB2181CE3
:102B900005F0D4FE011C5E4B9C2252009446BC44BE
:102BA00063449A225200BA1812689200D358081C43
:102BB000191C05F025FD031C1D1C564998235B00BC
:102BC000FB181A68131C9B009B189B00962252004E
:102BD000BA1812689B185B005B5A1BB2181C05F0F0
:102BE000ADFE011C4A4B9C2252009446BC446344F7
:102BF00098225200BA1812689200D358081C191C67
:102C000005F0FEFC031C281C191C05F0C7FB031C67
:102C1000201C191C05F054F8031C181C9C23F918DF
:102C20009A235B00FB181A68131C5B009B185B005F
:102C300098225200BA1812689B189B00585096238D
:102C40005B00FB181B68013396225200BA18136010
:102C500096235B00FB181B68132B00DC75E79C2395
:102C6000F9189A235B00FB181A68131C5B009B1869
:102C70005B0098225200BA1812689B189B005B58A0
:102C8000181C254905F098F9031C181C9C23F918F9
:102C90009A235B00FB181A68131C5B009B185B00EF
:102CA00098225200BA1812689B189B00585098231B
:102CB0005B00FB181B68013398225200BA1813609E
:102CC00098235B00FB181B68052B00DCECE69A23BD
:102CD0005B00FB181B6801339A225200BA1813607C
:102CE0009A235B00FB181B68052B00DCD6E600234B
:102CF0009A225200BA18136034E19A235B00FB1841
:102D00001B68013398225200BA1813601AE1C046BA
:102D1000C8FEFFFFCC0900200000A041B40C002039
:102D2000D4FEFFFF9C23F9189A235B00FB181A6856
:102D3000131CDB009B1A9B0058589C23F9189823FE
:102D40005B00FB181A68131CDB009B1A9B005B5886
:102D5000191C05F023FB031C181C002104F04CFF78
:102D6000031E59D19C23F9189A235B00FB181A689B
:102D7000131C5B009B185B0098225200BA18126863
:102D80009B189B005B58181C07F052F8051C0E1C82
:102D90009C23F9189A235B00FB181A68131CDB00AC
:102DA0009B1A9B0058589C23F91898235B00FB182A
:102DB0001A68131CDB009B1A9B005B58191C05F05A
:102DC000EDFA031C181C04F063FF031C181C03F02D
:102DD00023FD031C0C1C281C311C1A1C231C06F090
:102DE0001DF9031C0C1C181C211C07F075F8624B04
:102DF0009C225200BA18D1189A235B00FB181A685B
:102E0000131C5B009B185B0098225200BA181268D2
:102E10009B189B00585014E0574B9C225200BA1844
:102E2000D1189A235B00FB181A68131C5B009B18CF
:102E30005B0098225200BA1812689B189B0000226F
:102E40005A504D4B9C225200BA18D1189A235B005D
:102E5000FB181A68131C5B009B185B009822520039
:102E6000BA1812689B189B005B58181CFC21890536
:102E700004F0C8FE031E30D03F4B9C225200BA180B
:102E8000D1189A235B00FB181A68131C5B009B186F
:102E90005B0098225200BA1812689B189B005B587E
:102EA000181CBF21090604F0C1FE031E15D0324BC9
:102EB0009C225200BA18D1189A235B00FB181A689A
:102EC000131C5B009B185B0098225200BA18126812
:102ED0009B189B0000225A502BE0274B9C2252004B
:102EE000BA18D1189A235B00FB181A68131C5B00F0
:102EF0009B185B0098225200BA1812689B189B001E
:102F00005B58181C1D4905F049FA031C181C05F0F4
:102F1000F5FC1B499A235B00FB181A68131C5B0025
:102F20009B185B0098225200BA1812689B189B00ED
:102F3000585098235B00FB181B68013398225200FD
:102F4000BA18136098235B00FB181B68052B00DC84
:102F5000E8E69A235B00FB181B6801339A225200B3
:102F6000BA1813609A235B00FB181B68052B00DC62
:102F7000C3E6BD464FB0F0BDD4FEFFFF0000C8421F
:102F8000B40C002090B5EB4CA54400AF78609423BE
:102F90009B00FB1800221A6094239B00FB18002260
:102FA0005A6000239B229200BA18136000239722D4
:102FB0009200BA181360E04B96229200BA18136080
:102FC00092239B00FB18DD4A03CA03C3DC4B9C22FF
:102FD00092009446BC4463441A1C90235B00101C6E
:102FE00000211A1C07F051F8D54B9C229200944600
:102FF000BC4463443D225A60D14B9C2292009446CB
:10300000BC44634404221A62CD4B9C229200944635
:10301000BC446344942251219950C94B9C22920094
:103020009446BC44634498223B219950C44B9C2253
:1030300092009446BC446344B0211F2252425A502D
:10304000C04B9C2292009446BC4463441A1C9023BB
:103050005B00101C00211A1C07F017F8B94B9C22CA
:1030600092009446BC44634403225A60B54B9C22B0
:1030700092009446BC44634404221A62B14B9C22E1
:1030800092009446BC446344942212219950AD4B63
:103090009C2292009446BC44634498220521995096
:1030A000A84B9C2292009446BC446344B0220C215D
:1030B000995000239A229200BA18136014E1002359
:1030C00099229200BA1813609DE099239B00FB1887
:1030D0001B68013398229200BA18136083E0994B61
:1030E0009C229200BA18D01899239B00FB181B68E9
:1030F0009A229200BA1811681A1C5200D218530072
:103100001A1C0B1CDB005B189B00D21898239B0039
:10311000FB181B68D3189B001A58131C9B009A18A5
:1031200092239B00FB189A2189007918096889006D
:10313000CB589A424EDD844999239B00FB181A68AC
:10314000131C5B009B185B0098229200BA1812684F
:103150009B189B0058587A4B9C229200BA18D4189E
:1031600099239B00FB181B689A229200BA181168D9
:103170001A1C5200D21853001A1C0B1CDB005B18DF
:103180009B00D21898239B00FB181B68D3189B0048
:103190001B59C31A181C06F02FFF011C94239B0017
:1031A000FB189A229200BA1812689200D358591844
:1031B00094239B00FB189A229200BA18126892007E
:1031C000D15097239B00FB181B6801339722920074
:1031D000BA18136098239B00FB181B6801339822D0
:1031E0009200BA18136098239B00FB181B68052BEC
:1031F00000DC74E799239B00FB181B6801339922BC
:103200009200BA18136099239B00FB181B68052BCA
:1032100000DC5AE797239B00FB181B68002B08D1A2
:1032200097239B00FB181B68013397229200BA1862
:10323000136094239B00FB189A229200BA1812681C
:103240009200D358181C97239B00FB18196804F0B0
:1032500097FB031C191C94239B00FB189A229200D5
:10326000BA1812689200D150002397229200BA181F
:10327000136094239B00FB189A229200BA181268DC
:103280009200D358002B26D094239B00FB189A223F
:103290009200BA1812689200D358181C05F04EFB21
:1032A000031C181C96239B00FB18196804F0AAFC49
:1032B000031E10D094239B00FB189A229200BA1888
:1032C00012689200D358181C05F038FB031C962294
:1032D0009200BA1813609A239B00FB181B680133F5
:1032E0009A229200BA1813609A239B00FB181B685D
:1032F000012B00DCE3E694239B00FB181A6894235F
:103300009B00FB185B689A4222DA7B680F4A1340E5
:1033100004D5013B0222524213430133012B02D157
:103320007B68013B00E07B689B229200BA18136027
:1033300021E0C0468CFDFFFF00401C460CB500009C
:10334000B8FEFFFF98FDFFFFB40C002001000080D5
:103350007B68154A134004D5013B022252421343B5
:103360000133012B02D07B68013300E07B689B2294
:103370009200BA18136094239B00FB1819689423D9
:103380009B00FB185A6809489B239B00FB181B688D
:1033900006F084FE9B239B00FB181B68181CBD468F
:1033A0009D239B009D4490BD01000080ECB4000073
:1033B00080B586B000AF7860284B181C0021D82259
:1033C00006F063FE00237B6142E000233B6139E0AD
:1033D0000A23FB1800221A800023FB6017E03A69D9
:1033E000FB68D0181E497A69131C9B009B189B0030
:1033F0001B185B005B5A9AB20A23FB181B88D31870
:103400009AB20A23FB181A80FB680133FB60FB6841
:10341000022BE4DD0A23FB1800229B5E181C03210B
:1034200004F0AEFA031C98B20C497A69131CDB0055
:103430009B185B003A699B185B00021C5A523B695F
:1034400001333B613B69112BC2DD7B6901337B6139
:103450007B69052BB9DDBD4606B080BDDC0B0020C5
:10346000CC090020F0B5E44CA54400AFF860B96089
:103470007A603B600023E14ABA1813600023A1225E
:10348000D200BA181360F5239B00FB18181C00210A
:10349000302206F0FAFDDA4BFB18181C0021182226
:1034A00006F0F3FDEF239B00FB18181C00211822E7
:1034B00006F0EBFDE3239B00FB18181C00213022D3
:1034C00006F0E3FDD7239B00FB18181C00213022D7
:1034D00006F0DBFDCB4BFB18181C0021D82206F0B0
:1034E000D4FDBB68002B11DCFB68C44ABA1813601A
:1034F0000023A122D200BA181360C24BFA18C24BA3
:10350000101C191CD82206F0B7FD10E01223BB4A8C
:10351000BA181360BB68A122D200BA181360B94B65
:10352000FA18BA4B101C191CD82206F0A5FD00236E
:10353000B74ABA18136071E00023A022D200BA186B
:10354000136039E0B34BA222D2009446BC446344DA
:10355000AF4ABA1812689200D458AA4BF918AC4B6B
:10356000FB181A68131CDB009B185B00A022D2001A
:10357000BA1812689B185B005B5A1BB2181C05F046
:10358000DDF9031C201C191C04F09AFB031C191CF8
:10359000A04BA222D2009446BC4463449C4ABA1871
:1035A00012689200D150A023DB00FB181B68013386
:1035B000A022D200BA181360A023DB00FB181A68FF
:1035C0008E4BFB181B689A42BCDB924BA222D200A6
:1035D0009446BC4463448E4ABA1812689200D45888
:1035E000864BFB18186805F0A9F9031C201C191C50
:1035F00004F0E2FC031C191C864BA222D200944664
:10360000BC446344824ABA1812689200D150804B7D
:10361000FB181B6801337E4ABA1813607C4BFB18F9
:103620001B68052B88DD0023794ABA1813606CE10A
:103630000023794ABA181360A123DB00FB181B682A
:10364000A022D200BA181360C6E0A023DB00FB184A
:103650001A68A123DB00FB181B68D01A694BF91804
:103660006B4BFB181A68131CDB009B185B001B18C4
:103670005B005B5A1BB2181C05F060F9011C654B1E
:10368000A222D2009446BC446344614ABA1812682C
:103690009200D358081C191C04F0B2FF031C5E4AA8
:1036A000BA18136000235D4ABA18136061E05C4BDE
:1036B000A222D200BA18D118584BFB181A68131C52
:1036C0005B009B185B00524ABA1812689B189B005B
:1036D0005C58524BFB181B68D822520053437A683F
:1036E000D1184B4BFB181A68131CDB009B185B00AE
:1036F000A022D200BA1812689B189B005958474B59
:10370000FB181A68131C5B009B18DB001A1C3B6833
:103710009B183F4ABA1812689200D358081C191C0B
:1037200004F06EFF031C181C3B4BFB18196804F0D7
:1037300035FE031C201C191C04F0C2FA031C181CC3
:10374000374BA222D200BA18D118344BFB181A6892
:10375000131C5B009B185B002D4ABA1812689B185B
:103760009B0058502D4BFB181B6801332B4ABA188D
:1037700013602A4BFB181B68012B98DD294BA222F2
:10378000D2009446BC446344214ABA18126892009D
:10379000D458214BFB1818681F4BFB18196804F00C
:1037A000FDFD031C201C191C04F08AFA031C191CC3
:1037B0001C4BA222D2009446BC446344144ABA185B
:1037C00012689200D150A023DB00FB181B68013364
:1037D000A022D200BA181360A023DB00FB181A68DD
:1037E000064BFB181B689A4200DA2EE700230B4AAF
:1037F000BA18136055E0C046ECFAFFFF0C05000054
:10380000040400001C040000C40A0020DC0B00209B
:1038100004050000F4FEFFFFF4040000FC040000B7
:10382000C4FEFFFFACFEFFFFE64BA222D200BA1897
:10383000D118E54BFB181A68131C5B009B185B0042
:10384000E24ABA1812689B189B005C58E04BFB18C0
:103850001A68A123DB00FB181B68D31A181C05F09B
:103860006DF8031C201C191C04F0A6FB031C181C7B
:10387000D44BA222D200BA18D118D34BFB181A6825
:10388000131C5B009B185B00D04ABA1812689B1887
:103890009B005850CC4BFB181B680133CA4ABA181E
:1038A0001360C94BFB181B68012BBDDDC94BA2225D
:1038B000D2009446BC446344C44ABA1812689200C9
:1038C000D458C34BFB181A68A123DB00FB181B68F4
:1038D000D31A181C05F032F8031C201C191C04F024
:1038E0006BFB031C191CBB4BA222D2009446BC44A8
:1038F0006344B64ABA1812689200D150B34BFB1811
:103900001B680133B14ABA181360B04BFB181B682F
:10391000052B00DC8CE6D5239B00FB18181C00212E
:10392000082206F0B2FB0023A84ABA18136087E108
:103930000023A022D200BA18136021E1A54BA222D5
:10394000D2009446BC446344A022D200BA18126844
:103950009200D1589D4BFB181A68131C5B009B18F2
:10396000DB001A1CA523DB00FB181B689B18A02298
:10397000D200BA1812689200D358081C191C04F01F
:103980000DFD031C181C002104F036F9031E64D140
:103990008C4BA222D200BA18D1188C4BFB181A6893
:1039A000131C5B009B185B00A022D200BA1812689F
:1039B0009B189B005B58181C06F03AFA051C0E1C5D
:1039C000844BA222D2009446BC446344A022D2007D
:1039D000BA1812689200D1587C4BFB181A68131C55
:1039E0005B009B18DB001A1CA523DB00FB181B687F
:1039F0009B18A022D200BA1812689200D358081C53
:103A0000191C04F0CBFC031C181C04F041F9031C26
:103A1000181C02F001FF031C0C1C281C311C1A1C72
:103A2000231C05F0FBFA031C0C1C181C211C06F0BF
:103A300053FA694BA222D200BA18D118634BFB1873
:103A40001A68131C5B009B185B00A022D200BA18F6
:103A500012689B189B00585013E05F4BA222D200C3
:103A6000BA18D118594BFB181A68131C5B009B1825
:103A70005B00A022D200BA1812689B189B0000229B
:103A80005A50554BA222D200BA18D1184F4BFB18EE
:103A90001A68131C5B009B185B00A022D200BA18A6
:103AA00012689B189B005B58181C4C4904F076FC6C
:103AB000031C181C04F022FF031C181C04F03EFF1A
:103AC000474BA222D200BA18D118404BFB181A68F3
:103AD000131C5B009B185B00A022D200BA1812686E
:103AE0009B189B0058503F4BA222D2009446BC44E6
:103AF0006344364ABA1812689200D458384BA2224E
:103B0000D200BA18D118314BFB181A68131C5B008D
:103B10009B185B00A022D200BA1812689B189B0069
:103B20005D58314AA023DB00FB181B68D3181B78B3
:103B30005BB2181C04F002FF031C281C191C04F0C3
:103B40002DFC031C181C04F0D9FE031C181C642156
:103B500003F016FF031CE118224BA222D200944668
:103B6000BC446344194ABA1812689200D150A02389
:103B7000DB00FB181B680133A022D200BA181360C7
:103B8000A023DB00FB181B68052B00DCD6E6154BD9
:103B9000A222D2009446BC4463440C4ABA1812686C
:103BA0009200D358132B21DC0E4BA222D200944654
:103BB000BC446344054ABA18126892000021D150EF
:103BC00037E0C046C4FEFFFFFC040000040500000F
:103BD0000C050000ACFEFFFF7CFEFFFF0000C842AA
:103BE0004CFEFFFF44FEFFFFBC0A00207D4BA222DB
:103BF000D2009446BC4463447B4ABA1812689200CF
:103C0000D358784AA221C9008C46BC446244764904
:103C10007918096889008A585A43111C714BA222ED
:103C2000D2009446BC4463446F4ABA1812689200AA
:103C3000D1506D4BFB181B6801336B4ABA181360E7
:103C4000694BFB181B68012B00DC71E6EA235B0063
:103C5000FA18C0235B00101C00211A1C06F015FA8C
:103C60005423FA18C0235B00101C00211A1C06F014
:103C70000CFA1423FB18181C0021402206F005FA48
:103C80000023594ABA181360A6E10023A022D200EB
:103C9000BA18136092E1A123DB00FB181B68534A9A
:103CA000BA18136060E0504BFB181B68D822520012
:103CB00053437A68D118A023DB00FB181A68131C41
:103CC000DB009B185B00494ABA1812689B189B00DE
:103CD0005B58181C464904F061FB031C181C04F0D7
:103CE0000DFE444BF918A023DB00FB181A68131CC7
:103CF000DB009B185B003D4ABA1812689B185B00FA
:103D00005B5A1BB2C31A181C06F076F93A4BA22272
:103D1000D200BA18D118344BFB181A68131C5B0078
:103D20009B185B00A022D200BA1812689B189B0057
:103D30005B581818304BA222D200BA18D1182A4B5F
:103D4000FB181A68131C5B009B185B00A022D200B2
:103D5000BA1812689B189B005850244BFB181B681C
:103D60000133224ABA181360204BFB181A68234B00
:103D7000FB181B689A4296DB1F4BA222D200BA188E
:103D8000D118194BFB181A68131C5B009B185B00B9
:103D9000A022D200BA1812689B189B005B58181C0E
:103DA000164BFB18196803F0EBFD031C181C124B93
:103DB000A222D200BA18D1180B4BFB181A68131C98
:103DC0005B009B185B00A022D200BA1812689B18F7
:103DD0009B005850A123DB00FB181B68034ABA184C
:103DE000136082E044FEFFFF04050000FC040000B5
:103DF00000007A441C040000C4FCFFFF0C05000016
:103E0000A94BFB181B68D822520053437A68D1187B
:103E1000A023DB00FB181A68131CDB009B185B0057
:103E2000A24ABA1812689B189B005B58181CA0493C
:103E300004F0B4FA031C181C04F060FD9D4BF91843
:103E4000A023DB00FB181A68131CDB009B185B0027
:103E5000964ABA1812689B185B005B5A1BB2C11ACB
:103E6000954BA222D200BA18D0188F4BFB181A68B3
:103E7000131C5B009B185B00A022D200BA181268CA
:103E80009B189B001B58CB1A181C06F0B5F88B4BDF
:103E9000A222D200BA18D118834BFB181A68131C3F
:103EA0005B009B185B00A022D200BA1812689B1816
:103EB0009B005B581818814BA222D200BA18D11867
:103EC000794BFB181A68131C5B009B185B00A0223F
:103ED000D200BA1812689B189B005850734BFB18FD
:103EE0001B680133714ABA181360704BFB181A68CB
:103EF000734BFB181B689A4282DB704BA222D200E4
:103F0000BA18D118684BFB181A68131C5B009B1871
:103F10005B00A022D200BA1812689B189B005B5865
:103F2000181C674BFB18196803F02AFD031C181CAA
:103F3000624BA222D200BA18D1185B4BFB181A6848
:103F4000131C5B009B185B00A022D200BA181268F9
:103F50009B189B0058505B4BA222D2009446BC4455
:103F60006344514ABA1812689200D158534BA222A6
:103F7000D200BA18D0184C4BFB181A68131C5B00FF
:103F80009B185B00A022D200BA1812689B189B00F5
:103F90001B58C9184B4BA222D2009446BC44634420
:103FA000414ABA1812689200D150A023DB00FB18D6
:103FB0001B680133A022D200BA181360A023DB00D3
:103FC000FB181B68052B00DC65E6374BFB181B68EC
:103FD0000133354ABA181360334BFB181B68012BA9
:103FE00000DC52E60023304ABA18136052E0364B28
:103FF000A222D2009446BC4463442B4ABA181268E9
:104000009200D358002B23DD2F4BA222D2009446DE
:10401000BC446344244ABA1812689200D358FA2266
:1040200092005A43111C274BA222D2009446BC4452
:1040300063441D4ABA1812689200D358081C191C10
:1040400003F09EFC031C9F22D200BA18136004E008
:1040500000239F22D200BA1813601C4B124ABA18D0
:1040600012689200D2589F23DB00FB181B689A420B
:1040700009DA164B0C4ABA18126892009F21C9003F
:1040800079180968D150084BFB181B680133064AA0
:10409000BA181360044BFB181B68012BA7DDBD4643
:1040A0000B4B9D44F0BDC04604050000FC0400001D
:1040B00000007A441C040000C4FCFFFF44FBFFFF27
:1040C0000C05000004FBFFFF44FEFFFF9C0B0020DB
:1040D0001405000080B584B000AF78600023FB6059
:1040E00035E00023BB602CE0FA68131C9B009B1892
:1040F000DB001A1C7B689B18BA685200D35A1BB2AB
:10410000181C04F01BFC031C181C144903F054FF7A
:10411000031C181C124904F041F9031C181C04F07C
:10412000EDFB031C98B20F49FA68131C9B009B1807
:104130009B00BA689B185B00021C5A52BB68013393
:10414000BB60BB68132BCFDDFB680133FB60FB68F2
:10415000052BC6DDBD4604B080BDC04600FEFF464F
:1041600000007A44CC09002090B58DB002AFF86011
:10417000B9607A600023FB610023BB6100237B618F
:104180005A4B181C0021042205F07FFF584B0022D7
:104190005A60574B5A68564B1A6003235B427B6246
:1041A0005FE000233B6248E03A6A7B6AD21A514BD7
:1041B0005200D15A4D4B3A6A5200D1523A6A7B6A48
:1041C000D21A4C4B12325200D15A484B3A6A123230
:1041D0005200D1523A6A7B6AD21A464B24325200BC
:1041E000D15A424B3A6A24325200D1523A6A7B6A1F
:1041F000D21A404B36325200D15A3C4B3A6A3632D0
:104200005200D1523A6A7B6AD21A3A4B4832520073
:10421000D15A364B3A6A48325200D1523A6A7B6AD6
:10422000D21A344B5A325200D15A304B3A6A5A326F
:104230005200D1523B6A01333B627B6A12331A1E31
:104240003B6A9A42B0DC7B6A1233181C796AFA68BE
:10425000BC687B680093231CFFF704F97B6A013379
:104260007B627B6A002B9CDD01237B620BE0796A19
:10427000FA68BC687B6800931220231CFFF7F2F8F1
:104280007B6A01337B627B6A022BF0DD00237B6259
:1042900019E0174B7A6A9200D358174A101C191C60
:1042A00005F0FCFE124B7A6A9200D258FB699A42E2
:1042B00006DD0F4B7A6A9200D358FB617B6ABB61C3
:1042C0007B6A01337B627B6A012BE2DD084B1B6852
:1042D000074A5268D80FD1179A424841031CDBB2F3
:1042E0007B617B69181CBD460BB090BDC40A0020E1
:1042F0009C0B0020DC0B002014B5000080B5FE4FA5
:10430000BD4400AFFD4B181C05F0C8FEFC4BF2226B
:1043100092009446BC4463441A1CD8239B00101C92
:1043200000211A1C05F0B1FEF54BF22292009446D2
:10433000BC446344F34A1A60F14BF2229200944663
:10434000BC446344F04A5A60ED4BF222920094461A
:10435000BC446344ED4A9A60E94BF22292009446D1
:10436000BC446344EA4ADA60E54BF2229200944688
:10437000BC446344E74A1A61E14BF222920094463E
:10438000BC446344E44A5A61DD4BF22292009446F5
:10439000BC446344E14A9A61D94BF22292009446AC
:1043A000BC446344DE4ADA61D54BF2229200944663
:1043B000BC446344DB4A1A62D14BF2229200944619
:1043C000BC446344D84A5A62CD4BF22292009446D0
:1043D000BC446344D54A9A62C94BF2229200944687
:1043E000BC446344D24ADA62C54BF222920094463E
:1043F000BC446344CF4A1A63C14BF22292009446F4
:10440000BC446344CC4A5A63BD4BF22292009446AA
:10441000BC446344C94A9A63B94BF2229200944661
:10442000BC446344C64ADA63B54BF2229200944618
:10443000BC446344C34A1A64B14BF22292009446CE
:10444000BC446344C04A5A64AD4BF2229200944685
:10445000BC446344BD4A9A64A94BF222920094463C
:10446000BC446344BA4ADA64A54BF22292009446F3
:10447000BC446344B74A1A65A14BF22292009446A9
:10448000BC446344B44A5A659D4BF2229200944660
:10449000BC446344B14A9A65994BF2229200944617
:1044A000BC446344AE4ADA65954BF22292009446CE
:1044B000BC446344AB4A1A66914BF2229200944684
:1044C000BC446344A84A5A668D4BF222920094463B
:1044D000BC446344A54A9A66894BF22292009446F2
:1044E000BC446344A24ADA66854BF22292009446A9
:1044F000BC4463449F4A1A67814BF222920094465F
:10450000BC4463449C4A5A677D4BF2229200944615
:10451000BC446344994A9A67794BF22292009446CC
:10452000BC446344964ADA67754BF2229200944683
:10453000BC446344802293499950714BF22292000B
:104540009446BC44634484228F4999506C4BF222B8
:1045500092009446BC44634488228C499950684B2D
:10456000F22292009446BC4463448C2288499950BC
:10457000634BF22292009446BC44634490228549E6
:1045800099505F4BF22292009446BC4463449422BB
:10459000814999505A4BF22292009446BC4463449C
:1045A00098227E499950564BF22292009446BC4480
:1045B00063449C227A499950514BF22292009446CE
:1045C000BC446344A022774999504D4BF22292009B
:1045D0009446BC446344A42273499950484BF22248
:1045E00092009446BC446344A82270499950444BBD
:1045F000F22292009446BC446344AC226C49995028
:104600003F4BF22292009446BC446344B022694975
:1046100099503B4BF22292009446BC446344B4222E
:1046200065499950364BF22292009446BC4463444B
:10463000B82262499950324BF22292009446BC440F
:104640006344BC225E4999502D4BF222920094465D
:10465000BC446344C0225B499950294BF22292002A
:104660009446BC446344C42257499950244BF222D7
:1046700092009446BC446344C82254499950204B4C
:10468000F22292009446BC446344CC225049995093
:104690001B4BF22292009446BC446344D0224D4905
:1046A0009950174BF22292009446BC446344D422A2
:1046B00049499950124BF2229200BA18D218D823C5
:1046C0005B004649D1500E4BF2229200BA18D21824
:1046D000DA235B004249D150094BF2229200BA180A
:1046E000D218DC235B003F49D150054BF2229200E7
:1046F000BA18D218DE2377E038FCFFFF18B50000A7
:104700009CFCFFFFA69B44BC6891EDBC83C0CABD66
:104710007B14AEBDBC7413BD6DE7FB3D986E123EBD
:10472000C520B03DEC51383D77BE9F3DBA490C3EA7
:10473000D9CEF73DB6F37D3D6891ED3C96438B3C79
:104740004260653C6F12033C7F6ABCBC8FC2F53C83
:10475000A245B63DD9CE773E9318C43E3BDFCF3E4F
:104760001904563E6891EDBD6ABCB4BEF0A7C6BE42
:10477000A69B84BEA01A2FBE31082CBE7B142EBE71
:104780009EEFA7BDBC74133C9A99993D1B2FDD3D4C
:104790008716D93D9CC4003FE5D0023F2FDDE43EA3
:1047A000F853033F6DE7FB3ED7A3103F23DBF93EF1
:1047B000B072E83E52B8DE3E77BEDF3E355EFA3E6E
:1047C000DD24063F7F6AFC3EFCA9F13EFA7EEA3E0C
:1047D0008941003F2FDD043F3789013FE3A51B3DA1
:1047E000B81E853D2506813D5B00FD49D150FD4B3E
:1047F000F2229200BA18D218E0235B00FA49D15095
:10480000F84BF2229200BA18D218E2235B00F74963
:10481000D150F44BF2229200BA18D218E4235B0074
:10482000F349D150EF4BF2229200BA18D218E62386
:104830005B00F049D150EB4BF2229200BA18D2182B
:10484000E8235B00EC49D150E64BF2229200BA1803
:10485000D218EA235B00E949D150E24BF2229200E0
:10486000BA18D218EC235B00E549D150DD4BF22297
:104870009200BA18D218EE235B00E249D150D94B0E
:10488000F2229200BA18D218F0235B00DE49D15010
:10489000D44BF2229200BA18D218F2235B00DB4903
:1048A000D150D04BF2229200BA18D218F4235B00F8
:1048B000D749D150CB4BF2229200BA18D218F62326
:1048C0005B00D249D150C74BF2229200BA18D218DD
:1048D000F8235B00CF49D150C24BF2229200BA18A4
:1048E000D218FA235B00C249D150BE4BF22292008B
:1048F000BA18D218FC235B00C749D150B94BF22239
:104900009200BA18D218FE235B00C449D150B54BAF
:10491000F2229200BA18D21880239B00C049D150CD
:10492000B04BF2229200BA18D21881239B00BD49E5
:10493000D150AC4BF2229200BA18D21882239B00BD
:10494000B949D150A74BF2229200BA18D21883234A
:104950009B00A549D150A34BF2229200BA18D2185D
:1049600084239B00B149D1509E4BF2229200BA1889
:10497000D21885239B00AE49D1509A4BF222920067
:10498000BA18D21886239B00AA49D150954BF2221F
:104990009200BA18D21887239B00A749D150914B97
:1049A000F2229200BA18D21888239B00A349D15052
:1049B0008C4BF2229200BA18D21889239B00A0498E
:1049C000D150884BF2229200BA18D2188A239B0049
:1049D0009C49D150834BF2229200BA18D2188B23F3
:1049E0009B009949D1507F4BF2229200BA18D218FD
:1049F0008C239B009549D1507A4BF2229200BA1831
:104A0000D2188D239B009249D150764BF22292000E
:104A1000BA18D2188E239B008E49D150714BF222C6
:104A20009200BA18D2188F239B008649D1506D4B43
:104A3000F2229200BA18D21890239B008649D150D6
:104A4000684BF2229200BA18D21891239B00834936
:104A5000D150644BF2229200BA18D21892239B00D4
:104A60007F49D1505F4BF2229200BA18D21893239B
:104A70009B007C49D1505B4BF2229200BA18D218AD
:104A800094239B007849D150564BF2229200BA18D9
:104A9000D21895239B007549D150524BF2229200B7
:104AA000BA18D21896239B007149D1504D4BF2226F
:104AB0009200BA18D21897239B006E49D150494BE7
:104AC000F2229200BA18D21898239B006A49D1505A
:104AD000444BF2229200BA18D21899239B006749DE
:104AE000D150404BF2229200BA18D2189A239B0060
:104AF0006349D1503B4BF2229200BA18D2189B2343
:104B00009B006049D150374BF2229200BA18D2185C
:104B10009C239B005C49D150324BF2229200BA1880
:104B2000D2189D239B005949D1502E4BF22292005E
:104B3000BA18D2189E239B005549D150294BF22216
:104B40009200BA18D2189F239B005249D150254B8E
:104B5000F2229200BA18D218A0239B004149D150EA
:104B6000204BF2229200BA18D218A1239B003C4994
:104B7000D150494BF22292009446BC446344002237
:104B80001A6000225A6000229A600022DA60002235
:104B90001A6100225A6100229A610022DA61002221
:104BA0001A6200225A6200229A620022DA623A4BAA
:104BB000F22292009446BC446344384A1A60364B51
:104BC000F22292009446BC446344354A5A60324B08
:104BD000F22292009446BC446344324A9A6063E0F5
:104BE000C1CAA13D9CFCFFFFB81E853D1283403D1C
:104BF000A69B443CB6F3FDBCCDCC4CBD736891BDC7
:104C000060E550BD7F6ABCBC0AD7A33B6F12833CF2
:104C10000AD7A33CF4FD543CA69BC4BCF853E3BDA7
:104C20001F856BBECFF793BECDCC4CBEB29DAF3EC1
:104C300054E3E53EE7FBA93E508D173EEC51383D6D
:104C4000A69BC43C5839B43C0AD7233C6F12033BA3
:104C5000A69BC43B4260653C6F12033F022B073F9B
:104C60004A0C023FD34D023FE7FBE93ED9CEF73E67
:104C70006ABCF43E7F6AFC3E0AD7033FB29D0F3FF9
:104C8000986E123F2731083FA470FD3E8195033F87
:104C9000CBA1053F1D5A043F6CFCFFFF26E4033DFA
:104CA000348037BB8885FA3E474BF2229200944607
:104CB000BC446344454A9A61434BF22292009446B5
:104CC000BC446344424ADA613F4BF222920094466C
:104CD000BC4463443F4A1A623F4BF222920094461E
:104CE000BC44634400221A6000225A6000229A6089
:104CF0000022DA6000221A6100225A6100229A61C1
:104D00000022DA6100221A6200225A6200229A62AC
:104D10000022DA62304BF22292009446BC44634493
:104D20002E4A1A602C4BF22292009446BC446344F3
:104D30002B4A5A60284BF22292009446BC446344AA
:104D4000284A9A60244BF22292009446BC44634461
:104D5000254A9A61204BF22292009446BC44634457
:104D6000224ADA611C4BF22292009446BC4463440E
:104D70001F4A1A626423F9183423FA183B1D081CD1
:104D8000111C1A1CFFF7F0F9031CF1229200BA184B
:104D90001360F1239B00FB181B68002B05D0032335
:104DA000F1229200BA18136004E00223F12292006B
:104DB000BA181360F1239B00FB181B68181CBD4632
:104DC000F2239B009D4480BD6CFCFFFFCDCC4C3C8E
:104DD0004DF30E3DE10B033F3CFCFFFF2BFBAE3BD5
:104DE00021CD583D0D6C953AF758FA3AFF04173D1E
:104DF000795D3F3A80B5FE4FBD4400AFFD4B181CB6
:104E000005F04CF9FC4BF22292009446BC446344FA
:104E10001A1CD8239B00101C00211A1C05F035F920
:104E2000F54BF22292009446BC446344F34A1A6064
:104E3000F14BF22292009446BC446344F04A5A601B
:104E4000ED4BF22292009446BC446344ED4A9A60D2
:104E5000E94BF22292009446BC446344EA4ADA6089
:104E6000E54BF22292009446BC446344E74A1A613F
:104E7000E14BF22292009446BC446344E44A5A61F6
:104E8000DD4BF22292009446BC446344E14A9A61AD
:104E9000D94BF22292009446BC446344DE4ADA6164
:104EA000D54BF22292009446BC446344DB4A1A621A
:104EB000D14BF22292009446BC446344D84A5A62D1
:104EC000CD4BF22292009446BC446344D54A9A6288
:104ED000C94BF22292009446BC446344D24ADA623F
:104EE000C54BF22292009446BC446344CF4A1A63F5
:104EF000C14BF22292009446BC446344CC4A5A63AC
:104F0000BD4BF22292009446BC446344C94A9A6362
:104F1000B94BF22292009446BC446344C64ADA6319
:104F2000B54BF22292009446BC446344C34A1A64CF
:104F3000B14BF22292009446BC446344C04A5A6486
:104F4000AD4BF22292009446BC446344BD4A9A643D
:104F5000A94BF22292009446BC446344BA4ADA64F4
:104F6000A54BF22292009446BC446344B74A1A65AA
:104F7000A14BF22292009446BC446344B44A5A6561
:104F80009D4BF22292009446BC446344B14A9A6518
:104F9000994BF22292009446BC446344AE4ADA65CF
:104FA000954BF22292009446BC446344AB4A1A6685
:104FB000914BF22292009446BC446344A84A5A663C
:104FC0008D4BF22292009446BC446344A24A9A66F6
:104FD000894BF22292009446BC4463449D4ADA66AF
:104FE000854BF22292009446BC4463449D4A1A6762
:104FF000814BF22292009446BC4463449A4A5A6719
:105000007D4BF22292009446BC446344974A9A67CF
:10501000794BF22292009446BC446344944ADA6786
:10502000754BF22292009446BC446344802291491D
:105030009950714BF22292009446BC4463448422FE
:105040008D4999506C4BF22292009446BC446344C3
:1050500088228A499950684BF22292009446BC44B7
:1050600063448C2285499950634BF2229200944606
:10507000BC4463449022824999505F4BF2229200D3
:105080009446BC44634494227E4999505A4BF22280
:1050900092009446BC44634498227B499950564BF5
:1050A000F22292009446BC4463449C227749995072
:1050B000514BF22292009446BC446344A0227449AE
:1050C00099504D4BF22292009446BC446344A42272
:1050D00070499950484BF22292009446BC44634474
:1050E000A8226D499950444BF22292009446BC4448
:1050F0006344AC22694999503F4BF2229200944696
:10510000BC446344B022664999503B4BF222920062
:105110009446BC446344B42262499950364BF2220F
:1051200092009446BC446344B8225F499950324B84
:10513000F22292009446BC446344BC225B499950DD
:105140002D4BF22292009446BC446344C022504945
:105150009950294BF22292009446BC446344C422E5
:1051600053499950244BF22292009446BC44634424
:10517000C82250499950204BF22292009446BC44D8
:105180006344CC224C4999501B4BF2229200944626
:10519000BC446344D02249499950174BF2229200F3
:1051A0009446BC446344D42245499950124BF222A0
:1051B0009200BA18D218D8235B004249D1500E4B46
:1051C000F2229200BA18D218DA235B003E49D1507D
:1051D000094BF2229200BA18D218DC235B003B493B
:1051E000D150054BF2229200BA18D218DE236FE09C
:1051F00038FCFFFF2CB500009CFCFFFF1B2F5D3D22
:105200003333333EE5D0A23E9318C43E2B87963EFF
:105210007368913DC52030BEE3A59BBEA8C68BBE7A
:105220002B8716BE4260E5BCCDCCCC3CBC74133D94
:105230000AD7233D60E5503D6F12833D508D973D69
:1052400077BE9F3D8FC275BCF4FD543C1B2FDD3CE7
:1052500031082C3DA69B44BCE3A59BBD986E12BEB5
:105260004C3709BE6F12033DC520303D022B073D70
:105270000AD7A33C5839B43C4260E53CE3A51B3D4A
:105280005C8F023F713D0A3F21B0123F39B4083FA5
:1052900091EDFC3E986ED23E7D3FF53E4260053F6B
:1052A0008FC2153F31080C3FA69B043FA470FD3E02
:1052B000AE47013F0AD7033F8195033F3789013F3E
:1052C0008941003FBC74133CEC51B8BDFED478BE9C
:1052D0005B00FD49D150FD4BF2229200BA18D21862
:1052E000E0235B00FA49D150F84BF2229200BA1841
:1052F000D218E2235B00F749D150F44BF22292001E
:10530000BA18D218E4235B00F349D150EF4BF222D4
:105310009200BA18D218E6235B00F049D150EB4B4B
:10532000F2229200BA18D218E8235B00EC49D1505F
:10533000E64BF2229200BA18D218EA235B00FA2157
:105340008905D150E14BF2229200BA18D218EC2311
:105350005B00E449D150DD4BF2229200BA18D2181A
:10536000EE235B00E049D150D84BF2229200BA18EC
:10537000D218F0235B00DD49D150D44BF2229200C9
:10538000BA18D218F2235B00D949D150CF4BF22280
:105390009200BA18D218F4235B00D649D150CB4BF7
:1053A000F2229200BA18D218F6235B00D249D150EB
:1053B000C64BF2229200BA18D218F8235B00CF49EC
:1053C000D150C24BF2229200BA18D218FA235B00D5
:1053D000CB49D150BD4BF2229200BA18D218FC230F
:1053E0005B00C849D150B94BF2229200BA18D218CA
:1053F000FE235B00BF49D150B44BF2229200BA1891
:10540000D21880239B00C049D150B04BF2229200A9
:10541000BA18D21881239B00BC49D150AB4BF22261
:105420009200BA18D21882239B00B949D150A74BD9
:10543000F2229200BA18D21883239B00B549D150AA
:10544000A24BF2229200BA18D21884239B00B249D0
:10545000D1509E4BF2229200BA18D21885239B009D
:10546000AE49D150994BF2229200BA18D218862335
:105470009B00AB49D150954BF2229200BA18D2183A
:1054800087239B00A749D150904BF2229200BA1873
:10549000D21888239B00A449D1508C4BF222920051
:1054A000BA18D21889239B00A049D150874BF22209
:1054B0009200BA18D2188A239B009D49D150834B81
:1054C000F2229200BA18D2188B239B009949D1502E
:1054D0007E4BF2229200BA18D2188C239B00964978
:1054E000D1507A4BF2229200BA18D2188D239B0029
:1054F0008D49D150754BF2229200BA18D2188E23E2
:105500009B008E49D150714BF2229200BA18D218EA
:105510008F239B008449D1506C4BF2229200BA1821
:10552000D21890239B008649D150684BF2229200FA
:10553000BA18D21891239B008249D150634BF222B2
:105540009200BA18D21892239B007F49D1505F4B2A
:10555000F2229200BA18D21893239B007B49D150B3
:105560005A4BF2229200BA18D21894239B00784921
:10557000D150564BF2229200BA18D21895239B00B4
:105580007449D150514BF2229200BA18D218962386
:105590009B007149D1504D4BF2229200BA18D2189B
:1055A00097239B006D49D150484BF2229200BA18C4
:1055B000D21898239B006A49D150444BF2229200A2
:1055C000BA18D21899239B006649D1503F4BF2225A
:1055D0009200BA18D2189A239B006349D1503B4BD2
:1055E000F2229200BA18D2189B239B005F49D15037
:1055F000364BF2229200BA18D2189C239B005C49C9
:10560000D150324BF2229200BA18D2189D239B003F
:105610005849D1502D4BF2229200BA18D2189E232D
:105620009B00FC218905D150284BF2229200BA1828
:10563000D2189F239B005049D150244BF222920054
:10564000BA18D218A0239B004C49D1501F4BF2220C
:105650009200BA18D218A1239B004949D150494B56
:10566000F22292009446BC44634400221A60002255
:105670005A6000229A600022DA6000221A61002239
:105680005A6100229A610022DA6100221A62002225
:105690005A6200229A620022DA623A4BF2229200A7
:1056A0009446BC446344384A1A60364BF222920056
:1056B0009446BC446344354A5A60324BF22292000D
:1056C0009446BC44634463E0871699BE9CFCFFFF8C
:1056D0007F6A3CBE1283403D3789813E6DE7BB3E09
:1056E000FED4B83E4260E53DB6F3FD3C4260653C09
:1056F000A69B443C6F12833C3108AC3C6F12033DC7
:10570000508D173D6F12033B7F6A3CBD0AD7A3BD86
:10571000355EBABDBC7413BD5839B43CCDCC4C3DDC
:105720004260653D1B2FDD3CA69BC4BCC52030BD3F
:105730000AD723BD77BE1FBD6F1203BD5839B4BC55
:105740005C8F023F4260053FE926113FA01A0F3FE0
:10575000F0A7063FE926F13E643BDF3E6891ED3E4F
:10576000FED4F83EB6F3FD3EAE47013F3789013F18
:10577000C3F5083F2FDD043FC1CA013F0AD7033FED
:10578000DD24063F6CFCFFFF7958283DD734EFBB82
:10579000484A9A60484BF22292009446BC446344C3
:1057A000464A9A61444BF22292009446BC446344B8
:1057B000434ADA61404BF22292009446BC4463446F
:1057C000404A1A62404BF22292009446BC44634421
:1057D00000221A6000225A6000229A600022DA60D9
:1057E00000221A6100225A6100229A610022DA61C5
:1057F00000221A6200225A6200229A620022DA62B1
:10580000314BF22292009446BC4463442F4A1A6002
:105810002D4BF22292009446BC4463442C4A5A60B9
:10582000294BF22292009446BC446344294A9A6070
:10583000254BF22292009446BC446344264A9A6166
:10584000214BF22292009446BC446344234ADA611D
:105850001D4BF22292009446BC446344204A1A62D3
:105860006423F9183423FA183B1D081C111C1A1C58
:10587000FEF77AFC031CF1229200BA181360F123A0
:105880009B00FB181B68002B05D00123F12292001E
:10589000BA18136004E00023F1229200BA181360D2
:1058A000F1239B00FB181B68181CBD46F2239B00CC
:1058B0009D4480BD2F6E033F6CFCFFFFFDBC293D66
:1058C0002B1895BC6519023F3CFCFFFF287E0C3D60
:1058D000FAED6B3B3480B73A3D61093D17B7D13AD9
:1058E0006F12833A80B5FE4FBD4400AFFD4B181CCC
:1058F00004F0D4FBFC4BF22292009446BC44634477
:105900001A1CD8239B00101C00211A1C04F0BDFB9C
:10591000F54BF22292009446BC446344F34A1A6069
:10592000F14BF22292009446BC446344F04A5A6020
:10593000ED4BF22292009446BC446344ED4A9A60D7
:10594000E94BF22292009446BC446344EA4ADA608E
:10595000E54BF22292009446BC446344E74A1A6144
:10596000E14BF22292009446BC446344E44A5A61FB
:10597000DD4BF22292009446BC446344E14A9A61B2
:10598000D94BF22292009446BC446344DE4ADA6169
:10599000D54BF22292009446BC446344DB4A1A621F
:1059A000D14BF22292009446BC446344D84A5A62D6
:1059B000CD4BF22292009446BC446344D54A9A628D
:1059C000C94BF22292009446BC446344CC4ADA624A
:1059D000C54BF22292009446BC446344CE4A1A63FB
:1059E000C14BF22292009446BC446344CB4A5A63B2
:1059F000BD4BF22292009446BC446344C04A9A6371
:105A0000B94BF22292009446BC446344C44ADA6320
:105A1000B54BF22292009446BC446344C14A1A64D6
:105A2000B14BF22292009446BC446344BE4A5A648D
:105A3000AD4BF22292009446BC446344BB4A9A6444
:105A4000A94BF22292009446BC446344B84ADA64FB
:105A5000A54BF22292009446BC446344B54A1A65B1
:105A6000A14BF22292009446BC446344B24A5A6568
:105A70009D4BF22292009446BC446344AF4A9A651F
:105A8000994BF22292009446BC446344AC4ADA65D6
:105A9000954BF22292009446BC446344A94A1A668C
:105AA000914BF22292009446BC446344904A5A6659
:105AB0008D4BF22292009446BC446344A24A9A66FB
:105AC000894BF22292009446BC4463449F4ADA66B2
:105AD000854BF22292009446BC4463449C4A1A6768
