S0180000676573747572655F6274313231202832292E73333771
S1130000002000206D01000099010000990100000A
S11300109901000099010000990100009901000074
S11300209901000099010000990100009901000064
S1130030990100009901000099010000413C000071
S11300409901000099010000990100009901000044
S11300509901000099010000990100009901000034
S1130060853E000099010000F13E00009901000066
S11300709901000099010000990100009901000014
S1130080990100007D3E00009901000099010000E3
S11300909901000010B5064C2378002B07D1054BBD
S11300A0002B02D0044800E000BF0123237010BDE0
S11300B084000020000000005069000008B5084BCF
S11300C0002B03D00748084900E000BF0748036835
S11300D0002B03D0064B002B00D0984708BDC04628
S11300E0000000005069000088000020800000200B
S11300F000000000164B002B00D1144B9D464022FB
S113010092029A1A924600218B460F461348144ACB
S1130110121A04F040FB0F4B002B00D098470E4BF3
S1130120002B00D098470020002104000D000D484A
S1130130002802D00C4800E000BF04F0FDFA2000C3
S1130140290002F031FF04F0E1FAC0460000080083
S113015000200020000000000000000084000020B7
S1130160F40B002000000000000000000648804757
S11301700649074A074B9B1A03DD043BC858D05075
S1130180FBDCFFF7B7FF0000E90200005C69000038
S11301900000002084000020FEE7C04680B582B045
S11301A000AF00F021F8031C7B60094B5B681A1C4C
S11301B00F2313407A68111CD9400B1C7B60054B3C
S11301C07A681A607B68181CBD4602B080BDC046C0
S11301D000800C405809002080B500AF014B181C6A
S11301E0BD4680BD00366E0180B582B000AF344B91
S11301F0DA6A344B134080225201934215D0802294
S11302005201934204D880221201934211D017E084
S113021080229201934204D08022D20493420CD0D3
S11302200EE0294B1B687B6039E080231B027B6056
S113023035E0264B1B687B6031E0254B7B602EE06C
S11302401F4BDA68E023DB001340802292009342C4
S113025018D080229200934206D8002B18D0802216
S11302605200934211D016E0C0229200934206D06D
S11302708022D20093420ED1164B7B600EE0164BC7
S11302807B600BE0154B7B6008E0154B7B6005E061
S1130290144B7B6002E000237B60C046C046084BE1
S11302A01A68E0235B0213409B0B01337868191C26
S11302B003F08CFE031C181CBD4602B080BDC04672
S11302C000800C40003C00040400002000000020DA
S11302D000366E01406F4001809FD500C0D8A70052
S11302E040B56400804F120080B500AFBD4680BDAC
S11302F080B500AF80231B02181CBD4680BDC046DC
S113030080B500AFFA239B00181CBD4680BDC046D3
S113031080B500AF024B1B68181CBD4680BDC046AB
S11303200400002090B589B002AFB9607B603B1C2B
S11303300F33011C19703B1C0C331A803B1C0F3308
S11303401A783B1C0C331B881648B9687C680094E7
S113035004F02AFA3B1C0F331B78BA68101C191CD2
S113036003F06AFD031C7B617B69002B00DA15E056
S11303703B1C0C331B88002B10D07B68002B0DD04A
S11303803B1C0C331B887A68101C191C03F054FDA9
S1130390031C7B617B69002B00DAC046BD4607B0B5
S11303A090BDC0461456000090B589B002AF3B1C06
S11303B0173300221A703B1C00221A6000225A6074
S11303C0C34B181C042103F0A7FD031C3B613B69CC
S11303D0002B03DA01235B4200F0EFFBBC4B1B68EC
S11303E09AB2072313409BB21B0299B2B84B1A6806
S11303F0FF231B0213401B0A9AB23B1C0E330A4311
S11304001A803B1C0E331B88002B10D03B1C0E3370
S11304101B88B04A101C191C03F07EFD031C3B61B1
S11304203B69002B03DA01235B4200F0C6FBA84BB7
S1130430BB60A74B1A68A84B1340A84A934200D14B
S113044019E1A64A934236D8A54A934200D11BE348
S1130450A34A934217D8A34A934200D176E0A14A13
S1130460934207D8A02B00D1E5E29F4A93425AD089
S113047000F0A2FB9D4A934200D1BBE29C4A934206
S113048000D11CE198E39B4A934200D1BFE1994A11
S1130490934208D8984A934200D1D3E0974A9342B2
S11304A000D197E288E3964A934260D0954A9342FA
S11304B000D1B1E080E3944A934200D1AFE2924A82
S11304C0934218D8914A934200D159E28F4A9342F9
S11304D008D88F4A934200D105E28E4A934200D154
S11304E052E169E38C4A934200D1E0E08B4A9342A3
S11304F000D1C0E160E38A4A934200D173E0884AA4
S1130500934208D8874A934200D14DE3864A9342E6
S113051000D1F4E150E3854A93424DD0844A93429A
S113052000D14FE248E3834B181C04F03DF9824BA1
S113053000221A71804B814A1A60814B1C687E4BE1
S11305400520191C00220023A04735E37D4B181C0D
S113055004F02AF97C4BFF221A707B4B00225A705C
S11305607A4B181C0021082204F015F924E3784B77
S1130570181C04F019F9774B181C04F02FF9031C0C
S1130580DAB26D4B1A716C4B1B7901331A0A6A4B40
S11305901B7901331B021B041B0C1343634A1A43CC
S11305A0654B1A60664B1C68634B1B791A1C6249C5
S11305B0684B0520A047FFE2BB689B88664A101C75
S11305C0191C04F0F1F85C4BA822D2005A605A4B73
S11305D0624A1A605A4B1C68574B0820191C0022A7
S11305E00023A047E8E2BB689B885D4A101C191CE5
S11305F004F0DAF8504B00221A714F4B03225A715F
S11306004D4B584A1A604E4B1C684B4B0620191C24
S113061000220023A047CFE2BB689B88524A101CEB
S1130620191C04F0C1F8444B01221A71424B4F4A81
S11306301A60434B1C68404B0520191C0022002300
S1130640A047B9E2BB689B88494A101C191C04F0F6
S1130650ABF8394B05221A71374B00225A71364BCD
S1130660444A1A60364B1C68334B0620191C00227E
S11306700023A047A0E2BB689B883F4A101C191CBA
S113068004F092F82C4B01221A712B4B01225A715F
S1130690294B00229A71284B384A1A60284B1C684F
S11306A0254B0720191C00220023A04784E2BB68C5
S11306B09B88334A101C191C04F076F87CE2BB6852
S11306C09B88304A101C191C04F06EF874E2C04672
S11306D0A4000020A8000020F800FFFF2000130160
S11306E0A0000C00A000010020000100A0000700F1
S11306F020000C00A000130020000F00A0000F0039
S1130700A000010120000F01A0000F03A0000F02B0
S113071020000B02A0000B0220000203A0000B0328
S11307202000010620001303A00013032000010889
S113073020000F095C560000440B00202001010139
S1130740600B002078560000E0090020E209002038
S113075094560000B8560000C85600002004010654
S1130760F856000020020F013057000020010F004E
S11307705857000020021301885700002003020389
S1130780B8570000E4570000BB681B79191CBB680C
S11307905A68120A1B7A1B0613431A1CBB685B7A3D
S11307A05BB2B868807A041CE748009403F0FCFF4D
S11307B0BB685A68120A1B7A1B0613431A1C80234F
S11307C01B019A4222D1BB689B7A1A1C0223134054
S11307D01CD0BB681B79DAB2DC4B1A70DB4B0122EC
S11307E05A70DB4B32225A60D94B00221A72D84B12
S11307F000225A72D64BD74A1A60D74B1C68D44B86
S11308000A20191C00220023A047D5E1D4E1BB68CB
S11308101B79D24A101C191C03F0C6FFBA680523C1
S1130820D15CD018407800020143D01880780004CD
S11308300143D018C078000608430021011CD318D6
S11308401A795B791B021A4300231204120C1B0C45
S11308501B041343081C191C00F0B6F9C04B181CE8
S113086003F0A2FFBB680533BE4A101C191C062204
S113087003F088FFA0E1BB689B791A1CBB689B88C6
S1130880B949081C111C1A1C03F08EFFBB689A7925
S1130890AF4B1A71AE4BB54A1A60AF4B1C68AC4BE8
S11308A00520191C00220023A047BB689B791A1C51
S11308B0A64B1B785BB29A4214D1A54B00225A6016
S11308C0A34B00221A72A24B01225A72A04BA14AD6
S11308D01A60A14B1C689E4B0A20191C002200239D
S11308E0A04769E168E1BB689B791A1CBB689B88D7
S11308F09F49081C111C1A1C03F056FF5CE1BB68DD
S11309001B791A1CBB685B799A49081C111C1A1CB8
S113091003F04AFF8D4B1B785AB2BB681B799A428D
S11309202DD1BB685B79052B29D1BB689A79884B9B
S11309301A71874B8D4A1A60874B1C68844B0520BB
S1130940191C00220023A047814B00225A60804BCF
S113095000221A727E4B01225A727D4B7D4A1A6024
S11309607D4B1C687A4B0A20191C00220023A047E7
S1130970764BFF221A70754B00225A701CE11BE162
S1130980BB681B791A1CBB685968090A1B7A1B06C9
S11309900B437949081C111C1A1C03F005FFBB68A2
S11309A01A796B4B1A716A4B01225A71684B734A5C
S11309B01A60694B1C68664B0620191C0022002330
S11309C0A047F9E0BB689B886D4A101C191C03F012
S11309D0EBFEF1E0BB681B791A1CBB685968090A75
S11309E01B7A1B060B436749081C111C1A1C03F0D5
S11309F0DBFEE1E0644B181C03F0D6FEBB685868CC
S1130A00996800F0E1F8BB689B7A191CBB68DB7A33
S1130A101A1CBB681B7B5D4803F0C6FECCE0BB68B8
S1130A201B791A1CBB685B795949081C111C1A1CD8
S1130A3003F0BAFEC0E0BB685B68564A101C191C80
S1130A4003F0B2FE544B1B78002B0ED0404B002217
S1130A505A603F4B514A1A603F4B1C683C4B08207C
S1130A60191C00220023A047A6E0394B00221A716A
S1130A70374B4B4A1A60384B1C68354B0520191C00
S1130A8000220023A04797E0BB681B79002B00D00D
S1130A9092E03C1C173402F0C7FA031C23703B1C81
S1130AA017331B78002B4DD03B1C3A1C173212789D
S1130AB09A70264B1B78DAB2254B1A71244B01220B
S1130AC05A71234B08229A71214B9B7903331A0ADA
S1130AD01F4B9B7903331B021B041B0C1343314A2A
S1130AE01A431B4B1A601C4B1C68194B9B791A1C2C
S1130AF017493B1C0720A0473B1C00229A70134B4C
S1130B001B78DAB2124B1A71114B01225A71104B35
S1130B1008229A710E4B9B7903331A0A0C4B9B796A
S1130B2003331B021B041B0C13431E4A1A43084BBA
S1130B301A60094B1C68064B9B791A1C04493B1C20
S1130B400720A047C04637E018580000E0090020FD
S1130B50440B002020060C00600B002060580000AD
S1130B608C580000EA0900209058000020010B0274
S1130B70C4580000F85800003059000020020F0942
S1130B8070590000A0590000E0590000085A000004
S1130B90385A0000705A0000A00000202004000110
S1130BA02001010120001303BB689B88054A101C27
S1130BB0191C03F0F9FDC0460023181CBD4607B0FC
S1130BC090BDC046845A000080B584B000AF3B1C81
S1130BD0186059600523FB6012E03A1CFB68D318C7
S1130BE01B780A4A101C191C03F0DEFDFB68002B5D
S1130BF003DD074B181C03F0D7FDFB68013BFB60CA
S1130C00FB68002BE9DABD4604B080BDB85A000089
S1130C10C05A000080B586B000AFF860B9607A6051
S1130C20FB681B687B61BB680122101C9840031C95
S1130C30DB437A691A40796801231940BB68081CB0
S1130C409840031C1A43FB681A60BD4606B080BD79
S1130C5080B582B000AF786039607B681A683B6801
S1130C60DA4001231340181CBD4602B080BDC046C3
S1130C7080B500AF034BDB6C1B0EDBB2181CBD460A
S1130C8080BDC046B081E00F80B582B000AF224B7A
S1130C905A69E023DB0013408022920093421ED065
S1130CA080229200934206D8002B26D08022520044
S1130CB093421FD027E0C0229200934204D0E02246
S1130CC0D20093421CD01EE0FFF7D2FF031C122B6C
S1130CD002D9124B7B6019E0114B7B6016E0FFF7E1
S1130CE0C7FF031C122B02D90E4B7B600EE00E4B88
S1130CF07B600BE00D4B7B6008E00D4B7B6005E0F7
S1130D000C4B7B6002E000237B60C0467B68181CB0
S1130D10BD4602B080BDC04600800C40804F12002A
S1130D2040420F0040B56400C0CF6A00C0D8A7009D
S1130D30809FD500406F400190B583B000AFFC1C8C
S1130D400E4B181C00F024FA031C2370FB1C1B78A8
S1130D50072B06D0082B09D1FFF746FA031C7B604A
S1130D6007E0FFF791FF031C7B6002E000237B6038
S1130D70C0467B68181CBD4603B090BD06000C003D
S1130D8080B584B000AF7860184BDA6B3B1C0B3332
S1130D90511E8A411A70154B154ADA63134B5A686F
S1130DA007231340FB607A68124B9A4206D87A688C
S1130DB0114B9A4202D90123FB6001E00023FB603E
S1130DC00A4B0A4A52680721101C8843011CFA681E
S1130DD00A435A603B1C0B331B78002B02D0034B95
S1130DE00022DA63BD4604B080BDC04600000C405A
S1130DF0711B00000048E8010024F40080B500AF36
S1130E00FFF7EAF9031C181CFFF7BAFFBD4680BDC3
S1130E1080B584B000AF78600023BB607B68374A3C
S1130E20934206D0364A934203D0364A934200D0C6
S1130E3000E0C0467B68181C00F0AAF9031CFB60A4
S1130E407B682E4A93420CD02D4A934210D02D4AEF
S1130E50934200D013E02C4B9A6A03231340FB60A7
S1130E600DE0294B9A6A0C2313409B08FB6006E0B3
S1130E70254B9A6A302313401B09FB60C046FB686C
S1130E80012B05D014D3022B07D0032B0AD02DE05D
S1130E90FFF72EFA031CBB602BE0FFF739FA031CA3
S1130EA0BB6026E0FFF77AF9031C5B08BB6020E017
S1130EB00023BB607A68134B9A4203D07A680F4BC5
S1130EC09A4212D1104B9A6A79680E4B994201D119
S1130ED0102300E01423111CD9400B1C002B04D058
S1130EE0FFF70EFA031CBB6003E002E00023BB60C3
S1130EF0C046BB68181CBD4604B080BD03001A0080
S1130F0004001C000200180000800C4080B582B070
S1130F1000AF7860074B5A6D0123134000D005E001
S1130F20C046044B1B6D7A681340FAD1BD4602B02B
S1130F3080BDC04600800C4090B583B000AFFC1C5F
S1130F40124B181C00F024F9031C2370FB1C1B78A3
S1130F50032B08D0082B0BD0022B0ED1FFF7D8F9A6
S1130F60031C7B600CE0FFF7C3F9031C7B6007E004
S1130F70FFF73AF9031C7B6002E000237B60C04664
S1130F807B68181CBD4603B090BDC04607332000E3
S1130F9080B586B000AF78600A1CFB1C1A70002371
S1130FA03B617B681A0A0F2313400A2B36D89A0038
S1130FB01C4BD3181B689F461B4B7B6118E01B4BD3
S1130FC07B6115E01A4B7B6112E01A4B7B610123B4
S1130FD03B610DE0184B7B6110233B6108E0174B2C
S1130FE07B6180235B003B6102E0154B7B61C04663
S1130FF07B681A0B1F231340FB603B69002B03D053
S11310003B69181CFFF782FFFB1C1B787969FA689F
S1131010081C111C1A1CFFF7FDFD00E0C046BD466C
S113102006B080BDC45A000040800C4008800C40CB
S113103044800C4058800C4060800C4064800C401C
S113104078800C4080B584B000AF78607A68F8236B
S11310509B031340E0221203934200D17FE0E0227D
S11310601203934213D88022920293423DD08022ED
S11310709202934202D8002B23D07AE08022D2023B
S1131080934223D0C0221203934263D071E0C02262
S1131090520393422ED0C0225203934208D8802296
S11310A0520393422DD0A0225203934241D060E0D8
S11310B0D0225203934235D080229203934253D0DC
S11310C057E0FFF791F8031CFB6055E0FFF78CF83D
S11310D0031CFB602B4B9B681A1C0F231340FA68FC
S11310E0111CD9400B1CFB6046E0FFF757F8031CAA
S11310F0FB6041E0244B181CFFF78AFE031CFB60D5
S11311003AE0214B181CFFF783FE031CFB601D4BC8
S11311109B6E1A1C0F231340FA68111CD9400B1C38
S1131120FB6029E0194B181CFFF772FE031CFB60DF
S113113022E0164B181CFFF76BFE031CFB60114BDF
S11311401B6F1A1C03231340FA68111CD9400B1C93
S1131150FB6011E0FFF7F0FD031CFB600CE0FFF700
S113116093FD031CFB6007E0FFF7E6FE031CFB6036
S113117002E00023FB60C046FB68181CBD4604B0B7
S113118080BDC04600800C400200180003001A0015
S113119080B584B000AF78603B1C0F3301221A7015
S11311A07A680F231340BB60BB68072B00D9CAE0E1
S11311B0BB689A006A4BD3181B689F46694BDA6A6E
S11311C0694B134080225201934216D0802252016F
S11311D0934204D880221201934213D01CE080224F
S11311E09201934204D08022D20493420FD013E0A0
S11311F03B1C0F3302221A7013E03B1C0F330322F3
S11312001A700EE03B1C0F3304221A7009E03B1CD9
S11312100F330A221A7004E03B1C0F3305221A70A4
S1131220C04695E04F4B9A6A03231340022B08D023
S1131230032B0BD0012B0ED13B1C0F3303221A704E
S113124015E03B1C0F3302221A7010E03B1C0F33D5
S113125006221A700BE0434B9A6A80235B02134008
S113126004D03B1C0F330B221A7000E0C0466FE021
S11312703C4B9A6A0C231340082B08D00C2B0BD040
S1131280042B0ED13B1C0F3303221A7015E03B1CB8
S11312900F3302221A7010E03B1C0F3306221A701F
S11312A00BE0304B9A6A80235B03134004D03B1C51
S11312B00F330B221A7000E0C04649E0294B9A6AAA
S11312C030231340102B02D0202B05D009E03B1C07
S11312D00F3303221A7009E03B1C0F3302221A70E9
S11312E004E03B1C0F3301221A70C04630E03B1C63
S11312F00F3307221A702BE01A4BDA6AE023DB0261
S1131300134080229202934212D08022D20293424E
S113131004D080225202934205D00EE03B1C0F33CE
S113132009221A700EE03B1C0F3302221A7009E0E6
S11313303B1C0F3303221A7004E03B1C0F330122C1
S11313401A70C04604E03B1C0F3300221A70C046DA
S11313503B1C0F331B78181CBD4604B080BDC0462F
S1131360F05A000000800C40003C000480B588B0B6
S113137000AF78600A1CFB1C1A700323FB613B1C42
S11313801B3303221A7000233B617A680F23134036
S1131390FB60FB68072B00D9F3E0FB689A007D4BE8
S11313A0D3181B689F46FB1C1B780B2B00D9EAE063
S11313B09A00794BD3181B689F460423FB613B1C9E
S11313C01B3300221A701BE00323FB613B1C1B33FD
S11313D001221A7014E00223FB613B1C1B3302221E
S11313E01A700DE00123FB613B1C1B3303221A70AE
S11313F006E00523FB613B1C1B3305221A70C04623
S11314003B1C1B331B78181C0121012200F0D0F86F
S1131410FFF7F4FC614BFA695A6200F02FF9FEF70A
S1131420BDFE031CBB60BB68181CFFF7A9FCADE044
S1131430FB1C1B780B2B00D9A7E09A00584BD31840
S11314401B689F4600237B611DE0002001210122CF
S113145000F0AEF802237B6115E001200121012296
S113146000F0A6F801237B610DE04E4B181C02210D
S11314700122FFF7CFFB03237B6104E000237B61A0
S113148001233B61C046FB68022B0BD1434B434A0B
S1131490916A454A11407A6911433A6912040A4330
S11314A09A6273E03D4B3D4A916A404A11407A6921
S11314B0920011433A6912050A439A6266E0FB1CE2
S11314C01B78022B07D0032B0DD0012B00D05DE03D
S11314D000237B610FE000200121012200F068F865
S11314E002237B6107E001200121012200F060F862
S11314F001237B61C046294B284A926A3021101C83
S11315008843011C7A6912010A439A623EE0FB1C7B
S11315101B78032B14D0092B22D0022B00D035E0EA
S113152000200121012200F043F81C4B40225A62A2
S1131530C0461A4BDA6A80235B021340F9D01FE0DD
S113154001200121012200F033F8144B60225A6279
S1131550C046124BDA6A80239B021340F9D00FE095
S113156005200121012200F023F80C4B80225A624D
S1131570C0460A4BDA6A8023DB021340F9D0C04626
S113158004E0C04602E0C04600E0C046BD4608B0E4
S113159080BDC046105B0000305B000000800C4042
S11315A0605B000040800C40FCFFFEFFF3FFEFFF98
S11315B080B586B000AFFB1D1870BB1D19707B1D74
S11315C01A70FB1D1B78052B4ED89A00284BD31894
S11315D01B689F4601233B610223FB6001237B615F
S11315E026E004233B610823FB6003237B611FE0A7
S11315F010233B612023FB6005237B6118E040231B
S11316003B618023FB6007237B6111E080235B0047
S11316103B6180239B00FB6009237B6108E08023FE
S1131620DB003B6180231B01FB6016237B61C0460A
S1131630BB1D1B78002B11D00E4B3A691A627B1D1F
S11316401B78002B0DD0C0460B4A7B69101C191C5B
S1131650FFF7FEFA031C002BF6D002E0054BFA68F4
S11316601A6200F00BF800E0C046BD4606B080BD2B
S1131670905B000000800C402C800C4080B500AFD3
S1131680024BDA6A024B1A60BD4680BD00800C40F2
S1131690A808002080B586B000AFF860B9607A6011
S11316A0FB681B687B61BB680122101C9840031C0B
S11316B0DB437A691A40796801231940BB68081C26
S11316C09840031C1A43FB681A60BD4606B080BDEF
S11316D080B584B000AFF860B9607A60FB681B68BD
S11316E0BA68D2431A407B681A43FB681A60BD4645
S11316F004B080BD80B588B000AFF860B9607A608E
S11317001A1CFB1C1A707B68002B00D165E0FB6877
S11317101A68334B1A40FB681A60F968FB1C1B7883
S11317201B02C0229200081C111C1A1CFFF7D0FFD8
S1131730BB68002B05D12B4B181CFFF783FC031C43
S1131740BB6001235B42BB61FB681A680223134040
S113175012D0FB1C1B78012B07D0022B08D0002BC6
S113176000D01AE0204BBB6105E0204BBB6102E0D6
S11317701F4BBB61C04610E0FB1C1B78012B06D03D
S1131780022B07D0002B08D11A4BBB6105E01A4B82
S1131790BB6102E0194BBB61C046FB1C1B78184AB5
S11317A0D35C7B617B689B00BA68D21A7B697968D9
S11317B04B43101C191C02F009FC031C013BFB6188
S11317C0FB681A680223134004D0FB69002B01D183
S11317D00123FB61FA69FB681A61BD4608B080BD4C
S11317E0FFFCFFFF4081040040164000C0D8A70062
S11317F08050740180841E0040548900002D310102
S1131800A85B000080B582B000AF786039607B6867
S113181000225A637B68114A1A637A683B685B78D2
S1131820002B01D0002300E00123101C01211A1C0D
S1131830FFF730FF3B6859683B689A683B681B7B3D
S11318407868FFF757FF7A683B681B78101C002103
S11318501A1CFFF71FFFBD4602B080BDCFFF010079
S113186080B588B000AF78607A68BD4B9A4205D1E4
S1131870BC4BBB61BB699B687B6101E0FC23ECE171
S11318807B689B6A3B613A69C023DB00134014D038
S11318903A6980239B00134003D0BB69FD225A7030
S11318A007E03A698023DB00134002D0BB69FE22C3
S11318B05A70BB6909221A70BBE1BB691B78082BFB
S11318C000D9AEE19A00A84BD3181B689F467B69E8
S11318D05B881A1C102313400AD07B691B881B0ADF
S11318E09BB21A1C06231340F0221343FB610FE042
S11318F07B691B881A1CFE231340FB617B695B8890
S11319001A1C0223134003D0FB6901221343FB6119
S1131910BB6901221A707B68FA695A627B680122EA
S11319205A6086E13A69802313400CD07B68802298
S11319301A63BB69FF225A70BB6908221A707B685C
S113194002225A6030E03A69402313402CD07B686D
S113195040221A637B695B881A1C102313400AD047
S1131960BB6902221A707B691B881A1CFF231A4068
S11319707B685A6218E07B695B881A1C0223134057
S11319800ED0BB6907221A70BB691B797A69DB0028
S1131990D3181B89012B07D17B6808225A6048E1C0
S11319A0BB6905221A7043E143E13A69802313407D
S11319B00CD07B6880221A63BB69FF225A70BB6912
S11319C008221A707B6802225A6014E03A694023A4
S11319D0134010D07B6840221A637B695B881A1C11
S11319E00223134003D0BB6903221A7020E1BB69B0
S11319F005221A701CE11CE17B695B881A1C102308
S1131A0013400AD07B691B881B0A9BB21A1C06234D
S1131A101340F0221343FB6105E07B691B881A1C09
S1131A20FE231340FB617B695B881A1C042313406B
S1131A3003D0FB6901221343FB61BB6904221A70C2
S1131A407B6801225A607B68FA695A62F1E03A695C
S1131A50802313400CD07B6880221A63BB69FF2269
S1131A605A70BB6908221A707B6802225A6014E01B
S1131A703A694023134010D07B6840221A637B6983
S1131A805B881A1C0423134003D0BB6907221A7015
S1131A9003E0BB6905221A70CAE0CAE0BB695A8830
S1131AA0BB691B797969DB00CB181B899A4224D363
S1131AB0BB6900225A80BB691B790133DAB2BB6966
S1131AC01A717B695B881A1C0423134003D0BB6919
S1131AD003221A70ACE07B695B881A1C0123134053
S1131AE003D1BB691B79012B06D9BB6908221A7083
S1131AF07B6802225A609CE09AE0BB691B797A6990
S1131B00DB00D31804331A68BB695B88591C88B29C
S1131B10B9694880D3181B781A1C7B685A62BB6960
S1131B2006221A7085E03A69802313400CD07B6842
S1131B3080221A63BB69FF225A70BB6908221A709B
S1131B407B6802225A600AE03A694023134006D0B7
S1131B507B6840221A63BB6905221A7068E068E05A
S1131B6000A00040AC080020AC5B00003A692023D0
S1131B70134047D0BB691B797A69DB00D3181B89F2
S1131B80FB607B68DA693B1C0B331A70BB695B88AA
S1131B901A1CFB689A4211D2BB691B797A69DB0073
S1131BA0D31804331A68BB695B88591C88B2B969B5
S1131BB04880D3183A1C0B3212781A70BB695B88C0
S1131BC01A1CFB689A420CD3FB68012B02D17B6878
S1131BD008225A60BB6908221A707B6802225A6084
S1131BE010E07B6804225A60FB68012B0AD9BB69A8
S1131BF05B881A1CFB68013B9A4203D17B6808226C
S1131C005A6016E015E03A6980235B00134007D060
S1131C107B68802252001A63BB6909221A7008E0AB
S1131C2007E0BB69FB225A70BB6909221A7000E005
S1131C3026E6BB691B78092B0BD17B6800225A630B
S1131C40BB695B785BB2012B05D1BB6900225A707A
S1131C5001E0012301E0BB695B785BB2181CBD465F
S1131C6008B080BD80B584B000AF786039607A6810
S1131C70274B9A4207D1274BFB607B689A68012364
S1131C80134005D001E0FC233DE07B6820225A602C
S1131C903B685B881A1C0223134003D03B681B89F2
S1131CA0002B09D03B685B881A1C0423134005D021
S1131CB03B681B8A002B01D1FC2324E0FB68002233
S1131CC01A70FB6801225A70FB6800225A80FB6874
S1131CD000221A71FB683A689A607B68C0225A60D5
S1131CE07B689A6A2023134001D07B68DB697B6898
S1131CF0094A1A637B68FC22D2005A637B68181C69
S1131D00FFF7AEFD031C5BB2181CBD4604B080BDDA
S1131D1000A00040AC080020CFFF010080B582B0D5
S1131D2000AF78600A1CFB1C1A70FB1C1B78002B8C
S1131D3006D07B681B6F01221A437B681A6707E091
S1131D407B681B6F0122191C91430A1C7B681A676C
S1131D50BD4602B080BDC04680B582B000AF786099
S1131D607A688023D358181CBD4602B080BDC04693
S1131D7080B582B000AF786039607A6884233968AE
S1131D80D150BD4602B080BD80B582B000AF78604E
S1131D9039607A68384B9A4207D07A68374B9A424E
S1131DA003D07A68364B9A4200D1C0463B681B7810
S1131DB001225340DBB2002B02D07B6802225A601E
S1131DC07B6800225A623B689B781A063B68DB7882
S1131DD01B041A433B689B799B021A433B68DB79DB
S1131DE01B021A433B681B7A1A433B685B78002B3F
S1131DF001D0402300E000231A433B685B7A002BA8
S1131E0001D0802300E000231A433B689B7A002B17
S1131E1001D0202300E000231A433B68DB7A002B27
S1131E2001D0102300E000231A433B681B79002BE8
S1131E3002D080239B0100E000231A433B685B79B6
S1131E40002B02D080235B0500E000231A433B688B
S1131E501B7B002B01D0082300E000231A437B687E
S1131E601A603B681B78002B02D07B6801225A6001
S1131E70BD4602B080BDC0460000014000040140E0
S1131E800008014080B584B000AFF860B9607A60A2
S1131E90FA68284B9A4207D0FA68274B9A4203D033
S1131EA0FA68264B9A4200D1C0467B681B789A0692
S1131EB07B685B781B061A437B689B781B041A4378
S1131EC07B68DB781B031A437B681B799B021A43EC
S1131ED07B685B791B021A437B689B791A437B6896
S1131EE0DB79002B02D080239B0300E000231A43FC
S1131EF07B681B7A002B02D080235B0300E0002365
S1131F001A437B685B7A002B01D0102300E0002386
S1131F101A437B689B7A002B01D0042300E0002342
S1131F20111C1943FB68BA6803321201D150BD4633
S1131F3004B080BD000001400004014000080140DD
S1131F4080B582B000AF786039607B68181C0021CE
S1131F50FFF7E4FE3B68DB78002B01D0022200E0AF
S1131F6000223B685B78002B01D0042300E00023AF
S1131F701A433B689B78002B01D0082300E0002320
S1131F801A433B681B79002B02D080235B0400E0DA
S1131F9000231A433B685B791B011A437B681A6769
S1131FA03B689B791A1C3B689B681B021A433B687D
S1131FB0DB681B041A437B685A673B681B7D002B54
S1131FC002D080231A0500E000223B685B7D002BD1
S1131FD002D08023DB0400E000231A433B689B7D8E
S1131FE0002B02D080235B0400E000231A433B68EB
S1131FF01B7E002B02D080239B0400E000231A43A5
S11320003B689B7E1B041A433B68DB7D1A433B6899
S11320105B7E1B021A437B689A673B681A697B687C
S1132020DA677B68181CFFF797FE031C7A68101C9C
S1132030191CFFF79DFE3B681B787A68101C191C5D
S1132040FFF76CFEBD4602B080BDC04680B586B0C9
S113205000AFF860B9607A601A1CFB1C1A70BB6888
S1132060002B05D1294B181CFEF7ECFF031CBB60A9
S1132070FB1C1B78202B0BD002DC002B05D042E08C
S1132080402B08D0602B0ED03DE010237B610DE087
S113209008237B610AE0BB68181C062101F096FF47
S11320A006237B6102E004237B61C046BB689A007F
S11320B07B6979684B435B08D3183B617B697A6819
S11320C053433869191C01F081FF031C3B613B69D0
S11320D0043B3B613B699B013B613A690C4B1340F8
S11320E03B61FB681B686022191C91430A1CFB6856
S11320F01A60FB681A68FB1C1B781A43FB681A6099
S1132100FB683A695A61BD4606B080BD408104004F
S1132110C0FF1F0080B582B000AF786039607A6874
S11321201F4B9A4203D07A681E4B9A4200D1C04694
S11321307B68181C00F066F83B689B7C002B06D07B
S11321407B681B688022D2051A437B681A603B684F
S1132150DB7C002B07D03B681B7D10221343DBB2D2
S11321601A1C7B689A653B685B7B1A1C3B681B8A5C
S11321701A433B68DB891A437B685A603B68596899
S11321803B689A683B681B7B7868FFF75FFF3B6896
S11321901B781A1C7B68DA60BD4602B080BDC0465D
S11321A000C0004000C4004080B584B000AF786037
S11321B039607B689B6877229343FB603B681B789C
S11321C0002B03D0FB6840221343FB603B689B78E1
S11321D0002B03D0FB6820221343FB603B685B7831
S11321E0002B03D0FB6810221343FB603B68DB78B1
S11321F0FA681343FB607B68FA689A60BD4604B0D2
S113220080BDC04680B582B000AF78607A681E4B4E
S11322109A4203D07A681D4B9A4200D1C0467B682B
S11322201B4ADA607B6800221A607B68194A5A608C
S11322307B6800229A607B6800225A617B680022D6
S1132240DA647B68144A9A647B6800225A657A6867
S11322500D4B9A4203D07A680C4B9A4202D17B68A8
S113226000221A657B6800229A657A68064B9A42B6
S113227003D07A68054B9A4202D17B680022DA6562
S1132280BD4602B080BDC04600C0004000C400404E
S1132290AA0E000005100000F91F000080B582B0EE
S11322A000AF7860C0467B681A6980231340FAD077
S11322B07B68DB69DBB2181CBD4602B080BDC0463A
S11322C080B582B000AF78600A1CFB1C1A70C0464F
S11322D07B681A6940231340FAD0FB1C1A787B6888
S11322E05A63BD4602B080BD80B500AF00F00CF863
S11322F000F03CF800F090F800F0E4F800F006F983
S113230000F0DEFABD4680BD80B500AF1120052186
S1132310FFF72CF80F4B181C0121FEF739FE0E4B6A
S1132320181C0121FEF734FE0C4B181C0121FEF78A
S11323302FFE0B4B181C0121FEF72AFE094B181C1B
S11323400121FEF725FE084B181C0121FEF720FE93
S1132350BD4680BD4081040000B2040000020400B8
S113236000320400004204000082040090B589B0E9
S113237000AF3B1C0833264A13CA13C313CA13C342
S11323803B1C0833E12252029A603B1C08330522AD
S11323905A733B1C08330022DA813B1C0833802229
S11323A052011A823B1C083300221A733B1C083367
S11323B000229A743B1C08330022DA743B1C083355
S11323C000221A75134A3B1C0833101C191CFFF712
S11323D0A1FE3B1D00221A703B1D00225A703B1DBA
S11323E000229A703B1D0022DA703B1D00225A70B5
S11323F03B1D00229A703B1D0022DA70054A3B1DEA
S1132400101C191CFFF7D0FEBD4609B090BDC04694
S1132410D05B000000C0004090B589B000AF3B1C09
S11324200833264A13CA13C313CA13C33B1C083305
S1132430E12252029A603B1C083305225A733B1C6A
S113244008330022DA813B1C0833802252011A82AD
S11324503B1C083300221A733B1C083300229A7475
S11324603B1C08330022DA743B1C083300221A7523
S1132470134A3B1C0833101C191CFFF74BFE3B1D71
S113248000221A703B1D00225A703B1D00229A70D4
S11324903B1D0022DA703B1D00225A703B1D0022B6
S11324A09A703B1D0022DA70054A3B1D101C191C52
S11324B0FFF77AFEBD4609B090BDC046D05B000070
S11324C000C4004090B585B000AF3B1C0C4A13CA51
S11324D013C312681A603B1C01221A703B1C0122B0
S11324E05A703B1C074A9A603B1C00221A73064A26
S11324F03B1C101C191CFFF785F9BD4605B090BDA7
S1132500E85B0000486B010000A0004090B595B066
S113251000AF3B1C403301221A703B1C40330022A5
S11325205A703B1C403300229A703B1C40330022FB
S1132530DA703B1C403300221A713B1C40330022EA
S11325405A713B1C403300229A713B1C40330022D9
S1132550DA713B1C403300221A723B1C40330022C8
S11325605A723B1C403300229A723B1C40330022B7
S1132570DA723B1C403300221A733B1C40330122A5
S11325801A703B1C403300225A703B1C403300221B
S11325905A723B1C403300221A733B1C4033002206
S11325A0DA703B1C403300229A703B1C40330022FB
S11325B09A713B1C40330022DA713B1C40330022E9
S11325C01A723B1C403300229A723B1C4033002297
S11325D0DA723B1C403300221A713B1C4033002248
S11325E05A71B54A3B1C4033101C191CFFF7CCFB35
S11325F03B1C343300221A703B1C343300225A70C3
S11326003B1C343300229A703B1C34330022DA70B2
S11326103B1C343300221A713B1C343300225A71A0
S11326203B1C343300229A713B1C34330022DA7190
S11326303B1C343300221A723B1C343300225A727E
S11326403B1C343300229A723B1C343300221A722E
S11326503B1C343300229A703B1C343300225A70E2
S11326603B1C343300229A713B1C343300221A7011
S11326703B1C34330022DA713B1C343300221A71C0
S11326803B1C34330022DA703B1C343300225A7171
S11326903B1C343300225A723B1C343300229A729E
S11326A0854A3B1C3433101C00211A1CFFF7EAFB3B
S11326B03B1C283300221A703B1C283300225A701A
S11326C03B1C283300229A703B1C28330022DA700A
S11326D03B1C283300221A713B1C283300225A71F8
S11326E03B1C283300229A713B1C28330022DA71E8
S11326F03B1C283300221A723B1C283300225A72D6
S11327003B1C283300229A723B1C283300221A7285
S11327103B1C283300229A703B1C283300225A7039
S11327203B1C283300229A713B1C283300221A7068
S11327303B1C28330022DA713B1C283300221A7117
S11327403B1C28330022DA703B1C283300225A71C8
S11327503B1C283300225A723B1C283300229A72F5
S1132760554A3B1C2833101C01211A1CFFF78AFB15
S11327703B1C1C3300221A703B1C1C3300225A7071
S11327803B1C1C3300229A703B1C1C330022DA7061
S11327903B1C1C3300221A713B1C1C3300225A714F
S11327A03B1C1C3300229A713B1C1C330022DA713F
S11327B03B1C1C3300221A723B1C1C3300225A722D
S11327C03B1C1C3300229A723B1C1C3300221A72DD
S11327D03B1C1C3300229A703B1C1C3300225A7091
S11327E03B1C1C3300229A713B1C1C3300221A70C0
S11327F03B1C1C330022DA713B1C1C3300221A716F
S11328003B1C1C330022DA703B1C1C3300225A711F
S11328103B1C1C3300225A723B1C1C3300229A724C
S1132820254A3B1C1C33101C02211A1CFFF72AFBEF
S11328303B1C224A13CA13C313CA13C312681A6077
S11328403B1C00221A703B1C00225A703B1C0022C5
S11328509A703B1C0022DA703B1C00221A713B1C4C
S113286000225A713B1C00229A713B1C01229A607F
S11328703B1C0122DA603B1C01221A753B1C01221D
S11328805A753B1C0022DA753B1C0022DA753B1C8E
S113289000225A763B1C00225A763B1C01229A766F
S11328A03B1C00221A61044A3B1C101C191CFFF734
S11328B047FBBD4615B090BD00000140F85B000029
S11328C080B500AF354B354AD26C0F218A430421C1
S11328D00A43DA64314B314AD26CF0218A43102125
S11328E00A43DA642D4B2D4A116F2D4A0A40B02158
S11328F009050A431A67294B284A126F1201120963
S1132900B02109060A431A67244A24499823C9585E
S1132910244B0B408021C90019439823D1501F4AEE
S11329201E499823C958204B0B4080214901194363
S11329309823D150194A19499823C9581B4B0B4065
S11329408021C90219439823D150144A134998236A
S1132950C958174B0B408021C90319439823D15000
S1132960144B144A916B144A0A40802149000A43CB
S11329709A63104B0F4A926B03210A439A630F4BDD
S11329800E4A526D03210A435A650D4B0C4A526D8F
S113299003210A435A65BD4680BDC046006000401D
S11329A0FFFFFFF0FFF0FFFFFF0FFFFFFFFFF0FF50
S11329B0FFFF0FFF00A00040FFF8FFFF00C0004032
S11329C000C4004080B586B000AF7860284B181C66
S11329D000216C2201F0DFFE00237B6142E0002332
S11329E03B6139E03B1C0A3300221A800023FB6060
S11329F017E03A69FB68D0181E497A69131C9B00DA
S1132A009B189B001B185B005B5A9AB23B1C0A3351
S1132A101B88D3189AB23B1C0A331A80FB68013313
S1132A20FB60FB68022BE4DD3B1C0A3300229B5E47
S1132A30181C032101F018FB031C98B20C497A6995
S1132A40131CDB009B185B003A699B185B00021C9B
S1132A505A523B6901333B613B69112BC2DD7B69EF
S1132A6001337B617B69022BB9DDBD4606B080BDB5
S1132A70D80A0020F009002080B584B000AF786047
S1132A800023FB6034E00023BB602BE0FA68131CD6
S1132A909B009B18DB007A68D318BA685200D35A9B
S1132AA01BB2181C01F0D2FD031C181C134901F0C1
S1132AB05BFB031C181C124901F07CFC031C181C52
S1132AC001F0A4FD031C98B20E49FA68131C9B0084
S1132AD09B189B00BA689B185B00021C5A52BB6887
S1132AE00133BB60BB68132BD0DDFB680133FB6093
S1132AF0FB68022BC7DDBD4604B080BD00FEFF4667
S1132B0000007A44F009002090B5A7B000AF7860C7
S1132B103B1C6433DC4A13CA13C33B1C5833DB4AE3
S1132B2013CA13C33B1C4C3300221A603B1C4C33A6
S1132B3000225A603B1C4C3300229A603B1C4033F9
S1132B4000221A603B1C403300225A603B1C403375
S1132B5000229A603B1C343300221A603B1C34333D
S1132B6000225A603B1C343300229A603B1C97338A
S1132B7000221A7000238820C0190360C44B181C5B
S1132B800221032201F007FE7B68181CFFF774FF83
S1132B907B68181CFFF716FF3B1C763300221A8053
S1132BA03B1C283300221A6000225A6000229A60DB
S1132BB03B1C873300221A7000239021C9190B6033
S1132BC0F3E000238C22D2191360A3E03B1C64338E
S1132BD09024E41922689200D158AE489023DB195E
S1132BE01A68131CDB009B185B008C24E419226810
S1132BF09B185B001B5A1BB2994227DDA549902004
S1132C00C0190268131CDB009B185B008C24E419B8
S1132C1022689B185B005B5A19B23B1C64339020FA
S1132C20C01902689200D1503B1C34339021C91959
S1132C300A689200D3580122111C19433B1C3433F7
S1132C409024E41922689200D1503EE03B1C583392
S1132C509020C01902689200D1588E489023DB1945
S1132C601A68131CDB009B185B008C24E41922688F
S1132C709B185B001B5A1BB2994226DA85499020A7
S1132C80C0190268131CDB009B185B008C24E41938
S1132C9022689B185B005B5A19B23B1C5833902086
S1132CA0C01902689200D1503B1C40339021C919CD
S1132CB00A689200D3580122111C19433B1C40336B
S1132CC09024E41922689200D1503B1C34339020A4
S1132CD0C01902689200D35859003B1C3433902425
S1132CE0E41922689200D1503B1C40339020C01953
S1132CF002689200D35859003B1C40339024E419D5
S1132D0022689200D1508C20C019036801338C21B1
S1132D10C9190B608C22D2191368112B00DC55E7FA
S1132D203B1C58339024E41922689200D2583B1C6F
S1132D3064339020C01901688900CB58D11A3B1C18
S1132D404C339024E41922689200D1503B1C4C333C
S1132D509020C01902689200D258AF235B009A42B7
S1132D6015DD3B1C97333A1C9732127801210A4334
S1132D701A703B1C87331A783B1C873301321A7054
S1132D80434A9021C9190B68D3185A221A703A1C65
S1132D9097323B1C97331B78DB1813709022D2199F
S1132DA0136801339024E41923609020C019036848
S1132DB0022B00DC05E73B1C87331B78032B5DD11A
S1132DC000238021C9190B60FA23DB00FB67002371
S1132DD0BB6700238022D21913601CE03B1C4C33D8
S1132DE08024E41922689200D258FB6F9A420BDACD
S1132DF08020C0190368BB673B1C4C338021C91970
S1132E000A689200D358FB678022D21913680133F1
S1132E108024E41923608020C0190368022BDDDDBF
S1132E20BB6F012B08D0022B17D0002B26D13B1CE3
S1132E30973306221A7021E03B1C97330A221A703A
S1132E40134ABB6FD3180A221A703B1C87331A78B3
S1132E503B1C8733013A1A7010E03B1C97330C2259
S1132E601A700B4ABB6FD3180A221A703B1C8733A3
S1132E701A783B1C8733013A1A70C046002390210C
S1132E80C9190B6025E0C046906600009C660000EE
S1132E90680A0020D80A0020324A9024E4192368E2
S1132EA0D3181B785AB23B1C87331B78101C191C8F
S1132EB001F0DAF8031CDAB22A499020C019036839
S1132EC0CB181A709021C9190B6801339022D219BA
S1132ED013609024E4192368022BDDDD3B1C973337
S1132EE01B78002B04D114238820C019036030E020
S1132EF000233B673B1C0833181C0021202201F0EF
S1132F004AFC3B1C97331A780E231340022B17D02C
S1132F1002DC002B05D018E0042B07D0082B0AD0C4
S1132F2013E014238821C9190B6012E002238822BC
S1132F30D21913600DE000238824E419236008E00B
S1132F4004238820C019036003E006238821C919DB
S1132F500B608822D2191368DBB2181CBD4627B057
S1132F6090BDC046680A002080B582B000AF094B0E
S1132F701B687B607B681B0E812B08D8064B074AB5
S1132F801A60074B064A1168064A0A401A60BD4691
S1132F9002B080BDFC81E00F18600C400500000405
S1132FA0E4800C40FFFFFFFE98B500AFFFF7DCFFA5
S1132FB0FFF79AF900F050FE114B181C00F02CFE9C
S1132FC0104B114A1A6000F06DFB00F0E7FF0F4B45
S1132FD00F4A1A600B4B1C680C4B0420191C00226E
S1132FE00023A0470B4B0C4A1A800C4BC822D2007A
S1132FF01A800B4B0B4A1A80FDF7D6F9FCE7C04642
S1133000B80B0000600B002025030000440B0020D7
S113301020000100DE0900200CFEFFFFDC09002077
S1133020B409002068C5FFFF80B500AF00F004F8C4
S1133030031C181CBD4680BDB0B586B002AF3B1C56
S11330400F3300221A70AA4B1B685A1CA84B1A6033
S1133050A74B1B68012B00D0D0E2A64B1A88A64BC5
S11330601A80A64B1A88A64B1A80A64B1A88A64B20
S11330701A809F4B00221A609E48A049A14AA34B84
S1133080A34C0094A34C019400F0E6FBA24B1B68F4
S1133090002B06D0A04B1B685A1E9F4B1A600023BE
S11330A0AFE29E4B1B68002B00D08BE0914B1B883A
S11330B01AB29B4B1B881BB29A495B189A4209DCD3
S11330C08C4B1B881AB2964B1B881BB296495B1813
S11330D09A421ADA874B1B881BB2181C01F012FBA8
S11330E0041C854B1B881BB2181C01F00BFB031C32
S11330F0E31A181C01F006FB021CFA23DB009A42B7
S113310003DD864B01221A605CE07C4B1B881AB2FB
S1133110864B1B881BB283495B189A4209DC774BA8
S11331201B881AB2814B1B881BB27F495B189A42D9
S11331301ADA724B1B881BB2181C01F0E3FA041C48
S11331406F4B1B881BB2181C01F0DCFA031CE31A3A
S1133150181C01F0D7FA021CFA23DB009A4203DDA3
S11331606E4B01221A602DE0664B1B881AB2704B1D
S11331701B881BB26B495B189A4209DC614B1B88A4
S11331801AB26B4B1B881BB267495B189A4219DA57
S11331905C4B1B881BB2181C01F0B4FA041C5A4B7C
S11331A01B881BB2181C01F0ADFA031CE31A181C8F
S11331B001F0A8FA021CFA23DB009A4202DD574B05
S11331C001221A60554B1B68012B00D0F8E0594BC3
S11331D01B68042B43DD3B1C0C3300221A8038E0AF
S11331E03B1C0A3300221A8027E03B1C0C331A884C
S11331F03B1C0A331C883B1C0C3319884D4B1B6841
S1133200181F3B1C0A331B88C5184B480B1C9B001A
S11332105B189B005B195B00185A4749131C9B0001
S11332209B189B001B195B00021C5A523B1C0A335F
S11332301A883B1C0A3301321A803B1C0A331B8850
S1133240032BD2D93B1C0C331A883B1C0C330132A0
S11332501A803B1C0C331B88022BC1D9AAE0354BC6
S11332601B68032B00DDA5E03B1C0C3300221A80F5
S11332709AE03B1C0A3301221A8028E03B1C0C33E1
S11332801A883B1C0A331B880421CC1A3B1C0C33C0
S11332901988284B18683B1C0A331B88C51A264812
S11332A00B1C9B005B189B005B195B00185A22499E
S11332B0131C9B009B189B001B195B00021C5A5299
S11332C03B1C0A331A883B1C0A3301321A803B1C0C
S11332D00A331A88174B1B689A42CFDD154B1B68BB
S11332E00422D31A7B603B1C0A3300221A804EE06E
S11332F0BC080020080000200A0000200C00002068
S11333000E0000201000002012000020C008002041
S1133310C2080020C4080020C8080020CC080020EF
S1133320DE090020B80B000048F4FFFFDC09002090
S1133330B4090020D0080020D40800203B1C0C3322
S11333401A883B1C0A331B887968CB1A5C1E3B1C09
S11333500C3319883B1C0A331B881320C51AAB484D
S11333600B1C9B005B189B005B195B00185AA74958
S1133370131C9B009B189B001B195B00021C5A52D8
S11333803B1C0A331A883B1C0A3301321A803B1C4B
S11333900A331A887B689A42D0DB3B1C0C331A88A8
S11333A03B1C0C3301321A803B1C0C331B88022B50
S11333B000D85EE7964B04221A60964B02221A60EC
S11333C0934B1A68944B1988904B5200D152904BEE
S11333D01A68924B19888D4B14325200D1528C4B7F
S11333E01B68591C8A4A11608D4A1188874A283300
S11333F05B009952864B1B68142B00D0FEE0844B73
S113340000221A60834B1B68002B00D1EAE0814B39
S113341000221A603C1C0F347C4B181CFFF774FB11
S1133420031C23707F4B181C01F0BEF93B1C0F33A7
S11334301B78142B00D9C1E09A007B4BD3181B686E
S11334409F467A4B181C01F0AFF93B1C0F33002246
S11334501A70C0E0764B181C01F0A6F93B1C0F3320
S11334601F221A70B7E0734B181C01F09DF93B1C26
S11334700F3350221A70AEE03B1C0F331E221A7019
S11334806D4B181C01F090F9A5E06C4B181C01F071
S11334908BF93B1C0F332A221A709CE0684B181CD2
S11334A001F082F93B1C0F3320221A7093E0654B24
S11334B0181C01F079F93B1C0F3351221A708AE071
S11334C0614B181C01F070F93B1C0F3358221A7021
S11334D081E05E4B181C01F067F93B1C0F334D2251
S11334E01A7078E05A4B181C01F05EF93B1C0F333C
S11334F029221A706FE0574B181C01F055F93B1C38
S11335000F332B221A7066E0534B181C01F04CF950
S11335103B1C0F3300221A705DE0504B181C01F065
S113352043F93B1C0F3300221A7054E04C4B181C17
S113353001F03AF93B1C0F3300221A704BE0494B5F
S1133540181C01F031F93B1C0F3300221A7042E0C1
S1133550454B181C01F028F93B1C0F3300221A704C
S113356039E0424B181C01F01FF93B1C0F330022B9
S11335701A7030E03E4B181C01F016F93B1C0F3357
S113358000221A7027E03B4B181C01F00DF93B1C7C
S11335900F3300221A701EE0374B181C01F004F997
S11335A03B1C0F3300221A7015E0344B181C01F039
S11335B0FBF83B1C0F3300221A700CE03B1C0F334A
S11335C01B782F4A101C191C01F0EEF83B1C0F331A
S11335D000221A70C0462B4B181C01F0E5F82A4B48
S11335E00A221A60294B1A88294B1A80294B1A88F7
S11335F0294B1A80294B1A88294B1A803B1C0F33FC
S11336001B78181CBD4604B0B0BDC046D4080020C9
S1133610D0080020CC080020080000200C00002066
S113362010000020A8660000E0670000B4660000F7
S1133630C0660000C8660000D0660000D8660000BE
S1133640E0660000E8660000F0660000F86600002E
S1133650086700001467000020670000306700005E
S11336603C67000048670000546700006067000082
S11336706C670000786700008467000090670000B2
S11336809C670000B0670000C8080020DE09002025
S11336900A000020DC0900200E000020B4090020EC
S11336A01200002080B582B000AF00F093F8031C34
S11336B07A6813437B60FB1C41221A70FB1CD020E8
S11336C01A211A1C012300F077F9031C7A681343AA
S11336D07B60FB1C31221A70FB1CD02019211A1CA0
S11336E0012300F069F9031C7A6813437B60FB1C17
S11336F000221A70FB1CD0201B211A1C012300F08D
S11337005BF9031C7A6813437B60FB1C00221A706C
S1133710FB1CD0201C211A1C012300F04DF9031CB2
S11337207A6813437B60FB1C08221A70FB1CD020B0
S11337301D211A1C012300F03FF9031C7A6813436E
S11337407B60FB1C00221A70FB1CD02023211A1C56
S1133750012300F031F9031C7A6813437B60FB1CDE
S113376000221A70FB1CD0206A211A1C012300F0CD
S113377023F9031C7A6813437B60FB1C80221A70B4
S1133780FB1CD0201E211A1C012300F015F9031C78
S11337907A6813437B60FB1C00221A70FB1CD02048
S11337A06C211A1C012300F007F9031C7A681343E7
S11337B07B60FB1C01221A70FB1CD0206B211A1C9D
S11337C0012300F0F9F8031C7A6813437B60BD46BB
S11337D002B080BD80B584B000AF0023BB60FA2383
S11337E09B00FB60FB1D80221A70FB1DD0206B2107
S11337F01A1C012300F0E0F8031CBA681343BB60F1
S1133800BB68002B01D0BB6821E0322000F004FA31
S1133810FB1DD0206B211A1C012300F01BF9031C93
S1133820BB60BB68002B01D0BB6810E0012000F036
S1133830F3F9FB68013BFB60FB68002B02DA04230D
S11338405B4204E0FB1D1B78412BE1D10023181CD3
S1133850BD4604B080BDC04680B58AB000AFF860F4
S1133860B9607A603B6000237B623B1C23330022F7
S11338701A703B1C1C3300221A6000229A803B1CE5
S1133880143300221A6000229A803B1C1C33D0207F
S11338903B211A1C022300F0DDF8031C7A6A13434F
S11338A07B623B1C1C330233D0203D211A1C0223B3
S11338B000F0D0F8031C7A6A13437B623B1C1C3370
S11338C00433D0203F211A1C022300F0C3F8031C48
S11338D07A6A13437B623B1C1433D02043211A1CA5
S11338E0022300F0B7F8031C7A6A13437B623B1C83
S11338F014330233D02045211A1C022300F0AAF805
S1133900031C7A6A13437B623B1C14330433D020B8
S113391047211A1C022300F09DF8031C7A6A134302
S11339207B623B1C1C331B781B029AB23B1C1C336E
S11339305B7813439AB2FB681A803B1C1C339B7858
S11339401B029AB23B1C1C33DB7813439AB2BB684C
S11339501A803B1C1C331B791B029AB23B1C1C3380
S11339605B7913439AB27B681A803B1C14331B782F
S11339701B029AB23B1C14335B7813439AB23B6824
S11339801A803B1C14339B781B029AB23B1C1433E1
S1133990DB7813439AB23B6B1A803B1C14331B79BC
S11339A01B029AB23B1C14335B7913439AB27B6BB0
S11339B01A80BD460AB080BD90B58BB000AFBA6026
S11339C07B603B1C0F33021C1A703B1C0E330A1C19
S11339D01A703B1C0F331B789AB23B1C10331A80AD
S11339E03B1C103308225A803B1C10333A1C0E3205
S11339F05A603B1C103301221A813B1C1033BA68F5
S1133A00DA607B689AB23B1C10331A823C1C273460
S1133A100F4A3B1C1033101C191CFEF723F9031C1E
S1133A20237007E03C1C2734094B181CFDF718FFD2
S1133A30031C23703B1C27331B785BB2012BF1D092
S1133A403B1C27331B785BB2181CBD460BB090BDE2
S1133A5000A0004090B58BB000AFBA607B603B1C07
S1133A600F33021C1A703B1C0E330A1C1A703B1CC9
S1133A700F331B789AB23B1C10331A803B1C103353
S1133A8004225A803B1C10333A1C0E325A603B1CF1
S1133A90103301221A813B1C1033BA68DA607B6848
S1133AA09AB23B1C10331A823C1C27340F4A3B1C2D
S1133AB01033101C191CFEF7D5F8031C237007E003
S1133AC03C1C2734094B181CFDF7CAFE031C237049
S1133AD03B1C27331B785BB2012BF1D03B1C2733F3
S1133AE01B785BB2181CBD460BB090BD00A0004013
S1133AF0B0B582B000AF021C3960FB1D1A70FB1D0B
S1133B001B787F2B32D93049FB1D1B781A1C0F23DD
S1133B101340083B98082C4AFB1D1B781C1C0F23E0
S1133B202340083B9B0806339B00D3185B68FA1DAF
S1133B301278141C03222240D200FF24251C954035
S1133B402A1CD2431A403B689C01FF231C40FB1DE6
S1133B501B781D1C03232B40DB00251C9D402B1CC4
S1133B601A43831D9B00CB185A6029E0174BFA1D9A
S1133B70127852B292081549F81D007840B28008B4
S1133B80C03080004158F81D0078041C03202040F8
S1133B90C000FF24251C8540281CC0430840396808
S1133BA08C01FF210C40F91D09780D1C03212940CB
S1133BB0C900251C8D40291C0143C0329200D150FC
S1133BC0BD4602B0B0BDC04600ED00E000E100E03B
S1133BD080B582B000AF78607B685A1E0C4B9A4265
S1133BE001D9012310E00B4B7A68013A5A60012392
S1133BF05B42181C0321FFF77BFF064B00229A60EF
S1133C00044B07221A600023181CBD4602B080BD75
S1133C10FFFFFF0010E000E080B584B000AF7860E3
S1133C20064B1B68FB60C046044B1A68FB68D21A3B
S1133C307B689A42F8D3BD4604B080BD640B002073
S1133C4080B500AF034B1B685A1C024B1A60BD467B
S1133C5080BDC046640B002080B500AF094B181C22
S1133C60FDF7F0F9031C181CFA23990000F0AEF9D3
S1133C70031C181CFFF7ACFF031C002B00D0FEE74D
S1133C80BD4680BD5000020080B582B000AF021C6A
S1133C90FB1D1A70064BFA1D1278111C1F220A40D4
S1133CA00121081C9040021C1A60BD4602B080BD70
S1133CB000E100E080B582B000AF021CFB1D1A7069
S1133CC0064AFB1D1B78191C1F230B400121994038
S1133CD0C0235B00D150BD4602B080BD00E100E0CE
S1133CE080B582B000AF786039607B683A689A64C6
S1133CF0BD4602B080BDC04680B582B000AF7860DA
S1133D0039607B68DA6C3B681A437B68DA64BD46C9
S1133D1002B080BD90B585B000AF021CB9603B1CF9
S1133D200F331A703B1C0F331B78002B11D03B1C34
S1133D300F331B78012B0CD03B1C0F331B78022B49
S1133D4007D03B1C0F331B78032B02D03B1C0F33D3
S1133D501B780A483B1C0F331A78BB6801210C1CE2
S1133D609C40231C191C131CDB009B189B00C318CC
S1133D7018331960BD4605B090BDC04600600040D0
S1133D8080B500AF72B6074B1B68013304D0054BF6
S1133D901B685A1C034B1A60024B1B68181CBD4657
S1133DA080BDC046B808002080B582B000AF0B4B80
S1133DB01B68002B0DD0094B1B685A1E074B1A6059
S1133DC0064B1B687B607B68002B00D162B67B6866
S1133DD000E00023181CBD4602B080BDB8080020D6
S1133DE080B586B000AFF860B9607A6000237B616B
S1133DF000237B6114E0BB681B780A2B04D10D4BB4
S1133E00181C0D21FEF75CFABB685A1CBA601B78BB
S1133E10084A101C191CFEF753FA7B6901337B61B5
S1133E207A697B689A42E6DB7B68181CBD4606B05B
S1133E3080BDC04600C0004080B584B000AF78604B
S1133E4039600023FB600023FB600BE0FB687A68A9
S1133E50D3181B78084A101C191CFEF731FAFB68AA
S1133E600133FB60FA683B689A42EFDB3B68181C3D
S1133E70BD4604B080BDC04600C4004080B500AF5C
S1133E80BD4680BD90B583B000AF174B7B60042066
S1133E900C21FFF73FFFFC1C144B181CFEF7FEF926
S1133EA0031C23707B689B887F2B19D87B681B8835
S1133EB07968FA1CCB1812789A717B681B880133D5
S1133EC09AB27B681A807B689B8801339AB27B68BC
S1133ED09A807B681B887F2B02D97B6800221A801A
S1133EE0BD4603B090BDC046680B002000C400402E
S1133EF080B500AFBD4680BD80B500AF054B002244
S1133F009A80044B00225A80024B00221A80BD463C
S1133F1080BDC046680B002080B584B000AF7860D7
S1133F20396002E00A20FFF777FE1B4B9B881A1CBE
S1133F303B689A42F6DBFFF723FF3B68BB60002334
S1133F40FB601EE0FB687A68D318134A5288124952
S1133F508A1892791A70104B9B88013B9AB20E4BC7
S1133F609A800D4B5B8801339AB20B4B5A800A4BF3
S1133F705B887F2B02D9084B00225A80FB680133EF
S1133F80FB60FA68BB689A42DCDBFFF70DFFBB6895
S1133F90181CBD4604B080BD680B002080B500AF7E
S1133FA0094B181C0421FFF79BFE0820FFF782FE33
S1133FB0054B181C0421FFF79FFE0820FFF764FE41
S1133FC0FFF79AFFBD4680BD00C40040002934D0ED
S1133FD00123002210B488422CD301242407A142D7
S1133FE004D2814202D209011B01F8E7E400A14294
S1133FF004D2814202D249005B00F8E7884201D32F
S1134000401A1A434C08A04202D3001B5C08224306
S11340108C08A04202D3001B9C082243CC08A04277
S113402002D3001BDC082243002803D01B0901D063
S11340300909E3E7101C10BC7047002801D00020D8
S1134040C04307B4024802A14018029003BDC04611
S1134050D90000000029F0D003B5FFF7B9FF0EBC6A
S11340604243891A1847C046002941D010B4041CA1
S11340704C40A44601230022002900D549420028CF
S113408000D5404288422CD301242407A14204D203
S1134090814202D209011B01F8E7E400A14204D2E3
S11340A0814202D249005B00F8E7884201D3401AFA
S11340B01A434C08A04202D3001B5C0822438C081C
S11340C0A04202D3001B9C082243CC08A04202D386
S11340D0001BDC082243002803D01B0901D0090976
S11340E0E3E7101C6446002C00D5404210BC704726
S11340F0002806D003DB0020C043400801E08020F4
S1134100000607B4024802A14018029003BDC0464D
S1134110190000000029EBD003B5FFF7A7FF0EBC80
S11341204243891A1847C0467047C0461C210123E0
S11341301B04984201D3000C10391B0A984201D386
S1134140000A08391B09984201D30009043902A264
S1134150105C40187047C0460403020201010101CB
S11341600000000000000000F0B55F4656464D46D2
S11341704446F0B446024500C00F85B00F1C760AD1
S11341802D0E804641D0FF2D26D08024240400210A
S11341902643F6007F3D89468B46F90F7C02780062
S11341A0640A000E00918A463CD0FF2834D0802354
S11341B01B041C430023E4007F380193009F434603
S11341C0019A7B4049469C4611430F2900D970E06F
S11341D0754F89007F58BF46002E3ED10822022326
S11341E091469B46D9E75A46341CC246019201992E
S11341F0022937D0032900D1CEE0012900D0AAE05A
S113420053460B400022002632E0002E19D104212F
S1134210012289469346C0E7221C531E9A4102326A
S11342200192CBE701270197002CC7D0201CFFF790
S11342307DFF431F9C4076235B420021181A0191A5
S1134240BCE7301CFFF772FF7625431F9E406D428A
S113425000232D1A99469B469FE70C230321994678
S11342608B469AE7D446012367463B40FF2200264B
S11342707602D205700ADB071043184305B03CBC34
S113428090469946A246AB46F0BD0023474EFF2216
S1134290EEE700220026EBE78020C00306423BD075
S11342A0044239D1061C26437602760A009BFF227B
S11342B0DEE7281A039076016401A64239D3361B3F
S11342C01A2201230120311C5B007600002901DB46
S11342D0B44201D8361B0343013A002AF3DC741EAE
S11342E0A641341C1C43039A7F32002A27DD63074E
S11342F004D00F232340042B00D00434270103D51A
S11343002B4B039A1C408032FE2A0BDD01236146AD
S11343100B40FF220026ABE706437602760A4346AB
S1134320FF22A5E7A40101236746660AD2B23B40F7
S11343309EE7039F1B22013F03970023C2E77E23CE
S1134340039F5B42DB1B1B2B07DD012361460B40F4
S1134350002200268CE7D446C5E7221CDA40039BE2
S11343609E339C40231C5C1EA34113435A0704D074
S11343700F221A40042A00D004335F0105D501231B
S113438061460B400122002672E79E01624601232A
S11343901340760A00226BE78026F6032643760252
S11343A0760A5346FF2263E734680000FFFF7F006C
S11343B0FFFFFFF7F0B55F4656464D464446F0B45E
S11343C04402460083B00F1C640A360EC50F002E4B
S11343D041D0FF2E22D080231B0400201C43E40084
S11343E07F3E82468046391C4B007F02C90F7F0AFC
S11343F01B0E8B463BD0FF2B34D080221204174374
S1134400FF007F3B00215A466A40019252460A430C
S11344100F2A62D87A48920082589746002C3FD1DE
S11344200822022392469846DDE701954046022879
S11344302AD1019A01251540FF2300246402DB05DB
S1134440600AED071843284303B03CBC90469946E4
S1134450A246AB46F0BD002C27D10420012282469F
S11344609046C0E7391C4A1E91410231CBE7012135
S1134470002FC8D0381CFFF759FE431F9F407623F6
S11344805B421B1A0021BEE7032800D1ADE00128DE
S11344904ED1019842461040C5B200230024CDE716
S11344A00C2303209A4680469DE7201CFFF73EFE1E
S11344B07626431F9C4076420023361A9A46984635
S11344C091E700254F4CFF23B8E75B463C1C019362
S11344D08846ABE73C1C8846A8E7250C24043A0C24
S11344E0240C3F04F6183F0C211C231C794353432E
S11344F06F435543FB180A0C9B18B1469F4202D9DF
S113450080225202AD1809041A04090C52189401AD
S11345101B0C611E8C41920EED181443AD012C430B
S1134520230105D5012263080120144081441C4362
S11345304B467F33002B2DDD600704D00F22224031
S1134540042A00D00434220103D52F4B1C404B46CF
S11345508033FE2B17DD019B01251D400024FF2322
S11345606CE78020C003044208D0074206D1041C33
S11345703C436402640A5D46FF235FE7044364022C
S1134580640AFF235AE70198A4010125640ADBB2F7
S1134590054053E77E235B424A469B1A1B2B05DDED
S11345A0019B01251D400024002347E7221CDA401B
S11345B04B469E339C40231C5C1EA3411343580767
S11345C004D00F221A40042A00D004335A0105D51E
S11345D0019B01251D40002401232FE701989C0124
S11345E00125640A0540002328E78027FF03019B77
S11345F03C43640201251D40640AFF231EE7C046B4
S113460074680000FFFF7F00FFFFFFF74302590AB1
S11346104300C20F1B0E00207E2B0DDD9D2B0CDCF6
S1134620802000040143952B0ADC9620C31AD9404C
S11346304842002A00D1081C7047034BD018FBE7FE
S1134640963B9940F4E7C046FFFFFF7F70B5041E18
S11346503CD0C60F00D04442201CFFF767FD9E23C8
S1134660251C1B1A962B0CDC083884406402640A4F
S1134670DBB2321C6402DB05600AD2071843104324
S113468070BD992B0ADD0522121A211CD1400A1C87
S1134690011C1B318D40691E8D411543052801DD28
S11346A0421F9540164C2C406A0704D00F22154037
S11346B0042D00D0043461010CD59F23181AFF285F
S11346C01AD0A401640AC3B2321CD3E70022002327
S11346D00024CFE7E408FF2B04D06402640ADBB2B1
S11346E0321CC7E7002C04D08020C00304436402BA
S11346F0640A321CFF23BDE7321CFF230024B9E700
S1134700FFFFFFFBC317C01858407047084B10B594
S1134710041C002B02D0002100E000BF054B1868E8
S1134720836A002B00D09847201C00F065FFC04628
S113473000000000B868000070B50E4B0E4D002458
S1134740ED1AAD101E1CAC4204D0A300F3589847D8
S11347500134F8E700F052FF084B094D0024ED1A2C
S1134760AD101E1CAC4204D0A300F358984701348A
S1134770F8E770BD78000020780000207800002061
S11347807C00002010B50023934203D0CC5CC454B9
S11347900133F9E710BD031C8218934202D019704B
S11347A00133FAE7704700000FB40B4B13B51C68D4
S11347B0002C05D0A369002B02D1201C00F0A2FC20
S11347C005ABA168201C049A019300F035F816BCCF
S11347D008BC04B01847C046740000200023C25C23
S11347E00133002AFBD1581E7047936810B5013B72
S11347F09360002B05DA9469A34208DBCBB20A2B41
S113480005D01368581C10601970C8B201E000F09C
S1134810A5FA10BDF8B5061C0F1C141CD518AC4223
S113482008D02178301C3A1CFFF7DFFF0134431C09
S1134830F5D100E00020F8BDF0B59FB0061C0F1CB8
S113484003920593002804D08169002901D100F066
S113485059FC754B9F4201D1776808E0734B9F4226
S113486001D1B76803E0724B9F4200D1F768BB895E
S11348701A070AD53B69002B07D006AD00236B61EC
S113488020236B763023AB763BE0301C391C00F0E0
S1134890BDFA0028F1D001204042C2E0059A111D62
S11348A012680591002A76DB0992013423782E2BB5
S11348B000D181E021785F48032200F0E3FC002866
S11348C007D05C492A68431A402098401043286066
S11348D001342178631C584806220393297600F09A
S11348E0D1FC002800D18AE0544B002B7ED1059BDB
S11348F0072207339343083305936A6904995318CD
S11349006B61039C2378002B04D10399611A0291F3
S113491010D003E0252BF8D00134F3E7301C391C08
S1134920039A029BFFF776FF013075D06A690299FA
S113493053186B612378002B6ED0012252426A60B7
S11349406A4600235B3201342B60EB60AB6013706A
S1134950AB6521783A48052200F094FC002808D081
S1134960374A0134831A012098402B681843286081
S1134970EFE72B68D90603D56A4620215B32117014
S11349801A0703D56A462B215B32117022782A2A32
S113499084D0099B05E05242EA60022213432B6053
S11349A083E72278303A092A04D80A214B43013498
S11349B09B18F6E7099379E763782A2B09D1059BBD
S11349C002341A1D1B680592002B0DDA01235B4289
S11349D00AE0013400232278303A092A04D80A2153
S11349E04B4301349B18F6E7079363E705AB009349
S11349F0301C291C3A1C134B00E000BF07E005AB38
S1134A000093301C291C3A1C0E4B00F091F80490C2
S1134A100499013100D070E7BB895A0600D53AE702
S1134A200B981FB0F0BDC046F0680000106900008C
S1134A3030690000C2680000C66800000000000081
S1134A40BC68000015480000F7B5151C01930A69FD
S1134A508B68061C0C1C934200DA131C221C2B606E
S1134A6043321278002A01D001332B60206880067B
S1134A7002D52B6802332B60216806270F401FD014
S1134A80231C43331B785A1E9341226892061FD578
S1134A90E11840313020C870211C5A1C4531097876
S1134AA0A21840320233D17012E0221C301C01994A
S1134AB019320123089FB847013011D0009F0137F4
S1134AC00097E0682968009F431A9F42EDDBD7E70F
S1134AD0221C301C01994332089FB847013002D18F
S1134AE00120404223E0206806212B68E26801404F
S1134AF00025042903D1D51AEB43DB171D40A26816
S1134B0023699A4201DDD31AED1800270097009F0C
S1134B10AF420BDA221C301C01991A320123089F80
S1134B20B8470130DCD0009F0137EFE70020FEBD1D
S1134B30F0B58BB007930D1C0B7E433506920590A0
S1134B400C1C109A04956E2B00D1A7E011D8632B8E
S1134B5022D009D8002B00D1B0E0582B00D0C0E0FF
S1134B6045310B707B4D4EE0642B1CD0692B1AD061
S1134B70B7E0732B00D1A5E009D86F2B29D0702B97
S1134B8000D0AEE00E68202333430B6036E0752B73
S1134B901FD0782B32D0A4E013680D1C191D4235A8
S1134BA011601B689FE0216813680E0603D5191D68
S1134BB011601E6805E04806F9D5191D1160002131
S1134BC05E5E644B002E3BDA049D2D2276422A70F1
S1134BD036E0216813680E0603D5191D11601E689E
S1134BE004E04806F9D5191D1E881160594B227E30
S1134BF0039308276F2A1ED00A271CE0231C782160
S1134C004533554D197011682368081D03951060CC
S1134C101E0601D50E6802E05806FBD50E88D9079A
S1134C2002D52022134323601027002E03D12268CB
S1134C3020239A432260231C002243331A7001E08C
S1134C4003930A276368A360002B03DB256804220F
S1134C5095432560002E02D1049D002B0ED0049DA7
S1134C60301C391CFFF7F6F90398013D435C301CF6
S1134C702B70391CFFF7AAF9061EF1D1082F09D1B0
S1134C802168C90706D5626823699A4202DC013D9E
S1134C9030232B70049E731B23612AE00868136879
S1134CA04969050604D5181D10601B68196005E0E4
S1134CB04606F8D5181D10601B681980002323616F
S1134CC0049D16E01368191D11601D68281CFFF768
S1134CD085FD63682061984200D923612069606082
S1134CE004E0251C42352B7001232361049E00231C
S1134CF03370079E05980096211C09AA069BFFF7AE
S1134D00A3FE013002D10120404221E02A1C059873
S1134D1006992369079DA8470130F4D02668B60791
S1134D2005D4099BE068984212DA181C10E00025AB
S1134D30E0680999431A9D42F3DA221C0598069902
S1134D4019320123079EB0470130DCD00135EFE76B
S1134D500BB0F0BDCD680000DE68000070B5051C26
S1134D600E1C141C002804D08269002A01D100F012
S1134D70C9F9234B9C4201D16C6808E0214B9C4249
S1134D8001D1AC6803E0204B9C4200D1EC68A369DC
S1134D90A360A3891A070AD52369002B07D02268C8
S1134DA02369F6B2D01A626990420FDB08E0281C2E
S1134DB0211C00F02BF80028F1D0012040421DE016
S1134DC0281C211C00F01EF90028F6D1A36801302C
S1134DD0013BA36023685A1C22601E7063699842D9
S1134DE005D0A389301CDA0708D50A2E06D1281C61
S1134DF0211C00F007F90028DFD1301C70BDC0462B
S1134E00F06800001069000030690000344B70B590
S1134E101D68061C0C1C002D05D0A969002902D1AF
S1134E20281C00F06FF92F4B9C4201D16C6808E0FC
S1134E302D4B9C4201D1AC6803E02C4B9C4200D129
S1134E40EC68A28993B2190721D4D90605D40923A1
S1134E50336040231A43A2813FE05A0713D5616BA4
S1134E60002908D0231C4433994202D0301C00F09E
S1134E7015FA00236363A38924229343A3810023A7
S1134E80636023692360A38908221343A3812169F2
S1134E9000290BD1A389A02292001A4080239B00F1
S1134EA09A4203D0301C211C00F09CF9A3890122F2
S1134EB01A4005D061690022A2604A42A26103E05F
S1134EC0990700D46269A26022690020824206D157
S1134ED0190604D540221343A3810120404270BD2A
S1134EE074000020F06800001069000030690000C0
S1134EF0F7B58B89051C0C1C19075ED46268002A5F
S1134F0002DC276C002F1ADDE76A002F17D000227D
S1134F102E682A60802252011A4001D0626D15E089
S1134F20281C216A0123B847021C411C0ED12B689E
S1134F30002B0BD01D2B01D0162B02D12E6000208C
S1134F405EE0A38940210B43A38159E0A3895F0755
S1134F5006D56168636B521A002B01D0276CD21BF3
S1134F60281C216A0023E76AB847A289411C06D19C
S1134F702B68002B03D01D2B01D0162B19D1002335
S1134F80636023692360D70405D5411C02D12A68D4
S1134F90002A00D16065616B2E600029CFD0231CEC
S1134FA04433994202D0281C00F078F90020606351
S1134FB026E040231A43A28122E02669002EBED0B7
S1134FC027680022BF1B01972660990700D16269F8
S1134FD0A260019F002FB2DD281C216A321C019BB4
S1134FE0A76AB847002806DCA3894022134301209E
S1134FF0A381404204E0019F36183F1A0197E8E775
S1135000FEBD00000A6938B5051C0C1C002A01D13C
S113501000201CE0002804D08369002B01D100F09B
S113502071F80B4B9C4201D16C6808E0094B9C421F
S113503001D1AC6803E0084B9C4200D1EC680C221F
S1135040A35E002BE4D0281C211CFFF751FF38BDC0
S1135050F06800001069000030690000F8B5041C15
S1135060071C4834002C12D0A5686668013E0CD495
S1135070AB89012B07D90E22AB5E013303D0381C58
S1135080291CFFF7BFFF6835F0E72468EAE7F8BD9D
S1135090002310B5041C0360436083608181436670
S11350A0C281036143618361191C08225C30FFF7EC
S11350B072FB054B24626362044BA362044BE362FC
S11350C0044B236310BDC046F95300002154000073
S11350D0595400008554000070B54B1E68255D438B
S11350E00E1C291C743100F021F9041E08D0002183
S11350F0016046602A1C0C30A0606832FFF74BFB4D
S1135100201C70BD836913B5041C002B27D1836454
S1135110C3640365124B134A1B688262984201D12F
S113512001238361201C00F01FF86060201C00F044
S11351301BF8A060201C00F017F80421E060002296
S11351406068FFF7A5FFA06809210122FFF7A0FF0F
S1135150E06812210222FFF79BFF0123A36113BD24
S1135160B86800005D500000F8B51D4B071C1E68B0
S1135170B269002A02D1301CFFF7C4FF4836B46874
S11351807368013B05D40C22A55E002D10D0683451
S1135190F7E73368002B06D1381C0421FFF79CFF86
S11351A03060002801D03668E9E70C233B6016E044
S11351B001235B42E381201C0123A38165662560F2
S11351C0A560656025616561A5615C30291C0822C4
S11351D0FFF7E1FA6563A563A564E564201CF8BDE7
S11351E0B8680000F0B58B8991B0051C0C1C9A07B7
S11351F025D40E23C95E002906DAA78980231F401F
S11352000FD0002740260EE001AA00F067F900281D
S1135210F3DB029BF0273F02184A1F40BF187B4272
S11352205F418026F600281C311C00F07FF800281E
S11352300CD1A3899A051FD402221343A381231CF2
S11352404733236023610123636115E00C4B802203
S1135250AB62A38920601343A38120616661002FA0
S11352600AD00E23E15E281C00F04AF9002803D07E
S1135270A38901221343A38111B0F0BD00E0FFFF15
S11352805D500000C9B28218904204D003788B426A
S113529002D00130F8E700207047000030B5002943
S11352A040D004390B68002B00DAC9181E4A136871
S11352B0141C002B02D14B60116033E099420FD2D1
S11352C008680A189A4205D113685268C018086021
S11352D04A6000E04B60216024E08A4203D8131C3A
S11352E05A68002AF9D11D685C198C420BD10968EF
S11352F0691858181960904214D114685268091931
S113530019605A600EE08C4202D90C23036009E054
S113531008680C18944203D1146852680019086094
S11353204A60596030BDC0465009002070B503235F
S1135330CD1C9D430835061C0C2D01D20C2501E023
S1135340002D3FDB8D423DD3204B1C681A1C211CD1
S1135350002913D00868431B0DD40B2B02D90B6012
S1135360CC181EE08C4202D1636813601AE04868CE
S113537060600C1C16E00C1C4968E9E7144C2068BA
S1135380002803D1301C00F025F82060301C291CB3
S113539000F020F8431C15D0C41C03239C43844212
S11353A00AD12560201C0B300722231D9043C31A09
S11353B00BD05A42E25008E0211A301C00F00AF8DF
S11353C00130EED10C233360002070BD5009002061
S11353D04C09002038B5074C0023051C081C236029
S11353E000F0F0F8431C03D12368002B00D02B609D
S11353F038BDC046F00B002038B50C1C0E25495FA3
S113540000F0A4F8002803DB626D1318636503E061
S1135410A289024B1340A38138BDC046FFEFFFFFB2
S1135420F8B51E1C8B89051C0C1C171CDA0505D548
S11354300E23C95E0022022300F074F8A289054BF2
S1135440281C1340A3810E22A15E331C3A1C00F0D9
S11354501FF8F8BDFFEFFFFF38B50C1C0E25495FA0
S113546000F060F8A389421C03D1054A1340A381CC
S113547004E0802252011343A381606538BDC04615
S1135480FFEFFFFF08B50E23C95E00F015F808BD55
S113549038B5084C051C00202060081C111C1A1C7F
S11354A0FEF79EFC431C03D12368002B00D02B6025
S11354B038BDC046F00B002038B5074C0023051C4E
S11354C0081C236000F056F8431C03D12368002B0A
S11354D000D02B6038BDC046F00B002038B5074C17
S11354E00023051C081C111C236000F04BF8431C0E
S11354F003D12368002B00D02B6038BDF00B0020B3
S113550038B5074C0023051C081C236000F042F842
S1135510431C03D12368002B00D02B6038BDC04648
S1135520F00B002038B5084C051C00202060081C36
S1135530111C1A1C00F036F8431C03D12368002BFD
S113554000D02B6038BDC046F00B002038B5084CA5
S1135550051C00202060081C111C1A1C00F02AF8ED
S1135560431C03D12368002B00D02B6038BDC046F8
S1135570F00B0020024B5822012040421A60704771
S1135580F00B0020024B5822012040421A60704761
S1135590F00B0020024B582200201A607047C046CE
S11355A0F00B0020024B5822012040421A60704741
S11355B0F00B0020024B5822012040421A60704731
S11355C0F00B0020094A1368002B0CD01818694608
S11355D0884202D81060181C7047054B0C22012029
S11355E01A604042F8E7034B1360EFE754090020C8
S11355F0F00B0020F80B0020FEE7C046F8B5C046CB
S1135600F8BC08BC9E467047F8B5C046F8BC08BC58
S11356109E4670473C3C206F6E5F6D657373616797
S1135620655F73656E642829206D73675F446174D8
S1135630613A25642C206D73675F6C656E25642C5C
S113564020646174615F6C656E3A25642C2064612A
S113565074613A2564203E3E0A00000064756D6F53
S11356605F7273705F73797374656D5F68656C6C7A
S11356706F5F69640A00000064756D6F5F6576741E
S11356805F73797374656D5F626F6F745F696428AB
S1135690290A000064756D6F5F6576745F737973B2
S11356A074656D5F696E697469616C697A65645F5C
S11356B0696428290A0000004B4554492D4B65793B
S11356C0626F61726400000064756D6F5F72737065
S11356D05F73797374656D5F7365745F6C6F636119
S11356E06C5F6E616D655F69642C20726573756CA7
S11356F0743D253034780A0064756D6F5F72737081
S11357005F73797374656D5F7365745F636C6173E4
S1135710735F6F665F6465766963655F69642C2097
S1135720726573756C743D253034780A000000008E
S113573064756D6F5F7273705F736D5F636F6E66B8
S113574069677572655F69642C20726573756C7422
S11357503D253034780A000064756D6F5F72737094
S11357605F736D5F7365745F626F6E6461626C65B5
S11357705F6D6F64655F69642C20726573756C740A
S11357803D253034780A000064756D6F5F72737064
S11357905F62745F6869645F73746172745F736578
S11357A0727665725F69642C20726573756C743DE2
S11357B0253034780A00000064756D6F5F72737071
S11357C05F62745F6761705F7365745F6D6F64655A
S11357D05F69642C20726573756C743D2530347870
S11357E00A00000064756D6F5F7273705F686172A8
S11357F064776172655F7365745F736F66745F74F9
S1135800696D65725F69642C20726573756C743D93
S1135810253034780A00000064756D6F5F65767416
S11358205F656E64706F696E745F737461747573B1
S11358305F69642C206570203D20253032782C204F
S1135840747970653D253038782C206465703D2569
S11358503032782C20666C61673D253032780A003E
S113586064756D6F5F6576745F62745F6869645FA9
S11358706F70656E65645F69642C206570203D20DF
S1135880253032782C20616464723D000A000000E7
S113589064756D6F5F6576745F656E64706F696E55
S11358A0745F636C6F73696E675F69642C206570E5
S11358B03D253032782C20726561736F6E3D253042
S11358C034780A0064756D6F5F7273705F656E641F
S11358D0706F696E745F636C6F73655F69642C20AD
S11358E065703D253032782C20726573756C743D7B
S11358F0253034780A00000064756D6F5F65767436
S11359005F62745F6869645F73746174655F636820
S1135910616E6765645F69642C2065703D25303273
S1135920782C207374617465203D253032780A0028
S113593064756D6F5F6576745F736D5F636F6E66BC
S113594069726D5F706173736B65795F69642C2034
S1135950636F6E6E656374696F6E3D253032782CAB
S113596020706173736B65793D253038780A0000C7
S113597064756D6F5F7273705F736D5F7061737365
S11359806B65795F636F6E6669726D5F69642C2005
S1135990726573756C743D253034780A000000001C
S11359A064756D6F5F6576745F736D5F706173733B
S11359B06B65795F646973706C61795F69642C20CD
S11359C0636F6E6E656374696F6E3D253032782C3B
S11359D020706173736B65793D253038780A000057
S11359E064756D6F5F6576745F62745F636F6E6E0E
S11359F0656374696F6E5F6F70656E65645F69641B
S1135A002C20616464723D002C206D617374657296
S1135A103D253032782C20636F6E6E656374696F38
S1135A206E3D253032782C20626F6E64696E673D5E
S1135A30253032780A00000064756D6F5F657674F6
S1135A405F736D5F626F6E6465645F69642C20636D
S1135A506F6E6E656374696F6E3D253032782C20ED
S1135A60626F6E64696E673D253032780A0000000B
S1135A704446552076657273696F6E203D20256417
S1135A800A00000064756D6F5F7273705F62745F0B
S1135A906869645F73656E645F696E7075745F7264
S1135AA065706F72745F69642C20726573756C74B1
S1135AB03D253034780A000025303278000000009B
S1135AC03A0000001C100000BE0F0000C40F0000CC
S1135AD0B80F00001C1000001C100000CA0F0000CA
S1135AE0D40F0000DE0F00001C100000EA0F0000BD
S1135AF046130000BC1100002412000070120000C4
S1135B00BC12000046130000EE120000F812000060
S1135B1082150000A61300003014000030140000A9
S1135B20BE14000082150000821500000E1500004E
S1135B308615000086150000BA130000C813000083
S1135B40D6130000E413000086150000861500003B
S1135B508615000086150000F2130000861500006B
S1135B608A150000441400004A1400005A1400006E
S1135B708A1500008A1500006A1400008A150000C6
S1135B808A1500008A1500008A1500007C140000A4
S1135B900C160000FE150000E2150000D4150000EC
S1135BA0F01500001E16000008091108CE180000A8
S1135BB024190000AA190000F81900004E1A000068
S1135BC09C1A0000261B00006C1B0000061C000031
S1135BD0050000000000000000C2010000050000F4
S1135BE0001000000000000001010000000000009F
S1135BF0486B0100000000000100000000000000EC
S1135C000000000000000000090000000101000085
S1135C10000001003C25642076732E2025643E207C
S1135C20636F727220726573756C742069732025BA
S1135C3064200A00160000001B00000000000000A1
S1135C403D00000000000000000000000000000013
S1135C50040000000000000000000000000000003C
S1135C6000000000510000003B00000000000000A4
S1135C7000000000E1FFFFFF000000000000000042
S1135C80000000000000000003000000000000000D
S1135C9000000000000000000400000000000000FC
S1135CA000000000000000000000000012000000DE
S1135CB00500000000000000000000000C000000CF
S1135CC000000000000000000000000025642076B1
S1135CD0732E2025642020000A61737369676E2087
S1135CE044422046726F6E740A000000A69BC43BB7
