:10000000002000203D5D0000695D0000695D00008A
:10001000695D0000695D0000695D0000695D0000C8
:10002000695D0000695D0000695D0000695D0000B8
:10003000695D0000695D0000695D00009D3A000097
:10004000695D0000695D0000695D0000695D000098
:10005000695D0000695D0000695D0000695D000088
:10006000695D0000695D0000695D0000695D000078
:10007000695D0000695D0000695D0000695D000068
:10008000695D0000695D0000695D0000695D000058
:10009000695D000010B5064C2378002B07D1054B95
:1000A000002B02D0044800E000BF0123237010BDE4
:1000B0007C0000200000000014EA000008B5084B96
:1000C000002B03D00748084900E000BF0748036839
:1000D000002B03D0064B002B00D0984708BDC0462C
:1000E0000000000014EA00008000002078000020DA
:1000F00000000000164B002B00D1144B9D464022FF
:1001000092029A1A924600218B460F461348144ACF
:10011000121A08F08CFE0F4B002B00D098470E4BA4
:10012000002B00D098470020002104000D000D484E
:10013000002802D00C4800E000BF08F049FE200073
:10014000290003F067FD08F02DFEC04600000800FE
:100150000020002000000000000000007C000020C3
:1001600038040020000000000000000080B500AF4F
:1001700000F008F800F024F800F078F800F09AF8A1
:10018000BD4680BD80B500AF1120052105F026F8E1
:10019000084B181C012104F01DFE074B181C0121FF
:1001A00004F018FE054B181C012104F013FEBD4697
:1001B00080BDC04600B2040000420400008204007A
:1001C00090B589B000AF3B1C0833264A13CA13C34D
:1001D00013CA13C33B1C0833E12252029A603B1C32
:1001E000083305225A733B1C08330022DA813B1C7A
:1001F0000833802252011A823B1C083300221A73F2
:100200003B1C083300229A743B1C08330022DA742A
:100210003B1C083300221A75134A3B1C0833101C80
:10022000191C05F0C7FC3B1D00221A703B1D002263
:100230005A703B1D00229A703B1D0022DA703B1D54
:1002400000225A703B1D00229A703B1D0022DA707A
:10025000054A3B1D101C191C05F0F6FCBD4609B0F3
:1002600090BDC046C09C000000C4004090B585B061
:1002700000AF3B1C0C4A13CA13C312681A603B1C24
:1002800001221A703B1C01225A703B1C074A9A60DB
:100290003B1C00221A73064A3B1C101C191C05F05B
:1002A00099F9BD4605B090BDD89C0000486B01008F
:1002B00000A0004080B500AF304B304AD26C0F2117
:1002C0008A4304210A43DA642C4B2C4AD26CF02175
:1002D0008A4340210A43DA64284B284AD16C284AD1
:1002E0000A40802149000A43DA64244B234A116FF3
:1002F000244A0A40B02109050A431A671F4B1F4AC6
:10030000126F12011209B02109060A431A671B4A2B
:100310001A499823C9581A4B0B408021C900194328
:100320009823D150154A15499823C958164B0B40AC
:100330008021490119439823D150144B134A916BE2
:10034000134A0A40802149000A439A630F4B0F4A1F
:10035000926B03210A439A630E4B0E4A916A0C4A30
:100360000A409A620C4B0C4A516D094A0A40C0215E
:10037000C9000A435A65BD4680BDC04600600040C2
:10038000FFF0FFFFFFFFFFF0FF0FFFFF00A00040A7
:10039000FFF8FFFF0060084000C00040F0B5D3B098
:1003A00000AFEF4BA4204000C019C31800221A6010
:1003B000EB4BA4214900C919CB1800225A60E84B25
:1003C000A4225200D219D31800229A60E44BA4242C
:1003D0006400E419E3180022DA60E14BA420400035
:1003E000C019C31800221A61DD4BA4214900C919A4
:1003F000CB1800225A610023A2225200D2191360A6
:100400006AE00023A0246400E419236039E0D44B9F
:10041000A4204000C019C318A2214900C9190A68C4
:100420009200D458CF49A2235B00DB191A68131C31
:100430009B009B189B00A0204000C01902689B18DD
:100440005B005B5A1BB2181C06F0EEFD031C201C5F
:10045000191C05F0DDFF031C191CC14BA42252001E
:10046000D219D318A2246400E41922689200D15052
:10047000A0204000C01903680133A0214900C91918
:100480000B60A0225200D2191368132BBFDDB44BAE
:10049000A4246400E419E318A2204000C0190268F3
:1004A0009200D358181CB04906F01EF9031C191C01
:1004B000AB4BA4225200D219D318A2246400E41931
:1004C00022689200D150A2204000C0190368013375
:1004D000A2214900C9190B60A2225200D219136847
:1004E000052B8EDD0023A2246400E41923601FE1A4
:1004F0000023A0204000C019036009E19B49A2230A
:100500005B00DB191A68131C5B009B185B00A024BE
:100510006400E41922689B189B0000225A50944BF7
:10052000A4204000C019C118A2235B00DB191A687F
:10053000131C5B009B185B00A0246400E419226874
:100540009B189B0000225A50894BA4204000C019E0
:10055000C118A2235B00DB191A68131C5B009B18EF
:100560005B00A0246400E41922689B189B00585883
:10057000391CAC31A2235B00DB191A68131C5B0029
:100580009B185B00A0246400E41922689B189B0060
:10059000585000239E204000C019036080E0391CA1
:1005A000AC31A2235B00DB191A68131C5B009B189B
:1005B0005B00A0246400E41922689B189B005C582F
:1005C0006849A2204000C0190268131C9B009B18B8
:1005D0009B009E204000C01902689B185B005B5A7C
:1005E0001BB2181C06F020FD021C5D4BA421490023
:1005F000C919CB18A2204000C01901688900CB5846
:10060000101C191C06F07AFB031C1D1C5549A02365
:100610005B00DB191A68131C9B009B189B009E2033
:100620004000C01902689B185B005B5A1BB2181C83
:1006300006F0FAFC021C4A4BA4214900C919CB1848
:10064000A0204000C01901688900CB58101C191C5B
:1006500006F054FB031C281C191C06F023FA031C8B
:10066000201C191C05F0D4FE031C181C391CAC31CD
:10067000A2235B00DB191A68131C5B009B185B004C
:10068000A0246400E41922689B189B0058509E2007
:100690004000C019036801339E214900C9190B604D
:1006A0009E225200D2191368132B00DC77E7391C05
:1006B000AC31A2235B00DB191A68131C5B009B188A
:1006C0005B00A0246400E41922689B189B005B581F
:1006D000181C254906F008F8031C181C391CAC31FD
:1006E000A2235B00DB191A68131C5B009B185B00DC
:1006F000A0246400E41922689B189B005850A02095
:100700004000C01903680133A0214900C9190B60DA
:10071000A0225200D2191368052B00DCEEE6A224B9
:100720006400E41923680133A2204000C01903606B
:10073000A2214900C9190B68052B00DCD8E600236B
:10074000A2225200D21913603BE1A2246400E419F2
:1007500023680133A0204000C019036021E1C04696
:10076000BCFEFFFFB80000200000A041A003002055
:10077000D4FEFFFF391CAC31A2235B00DB191A68E1
:10078000131CDB009B1A9B005958381CAC30A0246A
:100790006400E4192268131CDB009B1A9B001B58A1
:1007A000081C191C06F07EF9031C181C002105F01A
:1007B00001FE031C002B5CD1391CAC31A22040008F
:1007C000C0190268131C5B009B185B00A024640026
:1007D000E41922689B189B005B58181C08F0DCF990
:1007E000051C0E1C391CAC31A2204000C019026847
:1007F000131CDB009B1A9B005958381CAC30A023FB
:100800005B00DB191A68131CDB009B1A9B001B584A
:10081000081C191C06F046F9031C181C08F0BCF94A
:10082000031C0C1C181C211C05F052FB031C0C1C87
:10083000281C311C1A1C231C06F076FF031C0C1C00
:10084000181C211C08F0FAF9634BA4246400E41975
:10085000E118A2235B00DB191A68131C5B009B18CC
:100860005B00A0246400E41922689B189B00585088
:1008700014E0594BA4204000C019C118A2235B000A
:10088000DB191A68131C5B009B185B00A024640032
:10089000E41922689B189B0000225A504E4BA4205A
:1008A0004000C019C118A2235B00DB191A68131C91
:1008B0005B009B185B00A0246400E41922689B186D
:1008C0009B005B58181CFC21890505F079FD031C71
:1008D000002B31D0404BA4204000C019C118A223E6
:1008E0005B00DB191A68131C5B009B185B00A024DB
:1008F0006400E41922689B189B005B58181CBF21F8
:10090000090605F071FD031C002B15D0324BA42005
:100910004000C019C118A2235B00DB191A68131C20
:100920005B009B185B00A0246400E41922689B18FC
:100930009B0000225A502BE0274BA4204000C019F6
:10094000C118A2235B00DB191A68131C5B009B18FB
:100950005B00A0246400E41922689B189B005B588C
:10096000181C1E4906F09EF8031C181C06F03CFBE0
:100970001B49A2235B00DB191A68131C5B009B1840
:100980005B00A0246400E41922689B189B00585067
:10099000A0204000C01903680133A0214900C919F3
:1009A0000B60A0225200D2191368052B00DCE1E68F
:1009B000A2246400E41923680133A2204000C01976
:1009C0000360A2214900C9190B68052B00DCBCE6B5
:1009D000BD4653B0F0BDC046D4FEFFFF0000C84284
:1009E000A0030020B0B5CF4CA54400AF78609420A0
:1009F00080003B1800221A60942189007B18002295
:100A00005A6000239B229200D21913600023972082
:100A10008000C0190360C44B96218900C9190B607E
:100A200092229200BB18C14A03CA03C3C04B9C2048
:100A30008000C019C218BF4B111C1A1C90235B0008
:100A4000081C111C1A1C08F0E9F9BB4B9C218900F9
:100A5000C919CA18B94B111C1A1C90235B00081C39
:100A6000111C1A1C08F0DAF900239A229200D219FC
:100A7000136015E1002399208000C01903609DE0F8
:100A800099218900C9190B68013398229200D21963
:100A9000136083E0A84B9C218900C919C8189922CA
:100AA0009200D21913689A229200D21911681A1C66
:100AB0005200D21853001A1C0B1CDB005B189B0061
:100AC000D21898218900C9190B68D3189B001A58AD
:100AD000131C9B009A18922080003B189A208000DB
:100AE000C01901688900CB589A424EDD94218900D3
:100AF0007B189A208000C01902689200D45890494F
:100B000099239B00DB191A68131C5B009B185B0080
:100B100098208000C01902689B189B005858844B8D
:100B20009C218900C919CD1899229200D219136805
:100B30009A229200D21911681A1C5200D21853003E
:100B40001A1C0B1CDB005B189B00D2189821890033
:100B5000C9190B68D3189B005B59C31A181C08F0FD
:100B600017F9031CE11894229200BB189A20800008
:100B7000C01902689200D15097218900C9190B68E9
:100B8000013397229200D219136098208000C01977
:100B90000368013398218900C9190B6098229200DB
:100BA000D2191368052B00DC74E799208000C01966
:100BB0000368013399218900C9190B6099229200B9
:100BC000D2191368052B00DC5AE797208000C01962
:100BD0000368002B08D197218900C9190B680133DC
:100BE00097229200D2191360942080003B189A211A
:100BF0008900C9190A689200D358181C97229200DC
:100C0000D219116805F02AFB031C191C94208000DE
:100C10003B189A208000C01902689200D15000232E
:100C200097218900C9190B6094229200BB189A2061
:100C30008000C01902689200D358002B27D094215D
:100C400089007B189A208000C01902689200D3584E
:100C5000181C06F0E9F9031C181C96229200D21900
:100C6000116805F0ADFB031C002B10D09420800010
:100C70003B189A218900C9190A689200D358181C98
:100C800006F0D2F9031C96229200D21913609A2022
:100C90008000C019036801339A218900C9190B60CB
:100CA0009A229200D2191368012B00DCE2E694200C
:100CB00080003B181A68942189007B185B689A426F
:100CC00013DA7A681F4B134004D5013B02225242CB
:100CD00013430133012B02D17B68013B00E07B68A9
:100CE0009B229200D219136012E07A68154B1340D0
:100CF00004D5013B0222524213430133012B02D09F
:100D00007B68013300E07B689B208000C019036092
:100D10009B218900C9190B68181CBD469C239B00A8
:100D20009D44B0BD90FDFFFF00401C46E89C0000C4
:100D3000B8FEFFFFF09C000098FDFFFF109E000032
:100D4000A00300200100008080B586B000AF78606D
:100D5000284B181C0021D82208F069F800237B6179
:100D600042E000233B6139E03B1C0A3300221A8039
:100D70000023FB6017E03A69FB68D0181E497A69C6
:100D8000131C9B009B189B001B185B005B5A9AB2BC
:100D90003B1C0A331B88D3189AB23B1C0A331A80B7
:100DA000FB680133FB60FB68022BE4DD3B1C0A336C
:100DB00000229B5E181C032105F050FA031C98B218
:100DC0000C497A69131CDB009B185B003A699B187D
:100DD0005B00021C5A523B6901333B613B69112B9A
:100DE000C2DD7B6901337B617B69052BB9DDBD46C3
:100DF00006B080BDC8020020B8000020F0B5E04C6D
:100E0000A54400AFF860B9607A603B600023DD481C
:100E1000C01903600023A121C900C9190B60F52284
:100E20009200BB18181C0021302208F000F8D64CA4
:100E30003B19181C0021182207F0F9FFEF25AD001F
:100E40007B19181C0021182207F0F1FFE320800015
:100E50003B18181C0021302207F0E9FFD721890038
:100E60007B18181C0021302207F0E1FFC74ABB188D
:100E7000181C0021D82207F0DAFFBB68002B11DC18
:100E8000FB68C04CE41923600023A125ED00ED1997
:100E90002B60BE483A18BE4B101C191CD82207F014
:100EA000BDFF10E01223B749C9190B60BB68A1222E
:100EB000D200D2191360B54BFA18B64B101C191C8E
:100EC000D82207F0ABFF0023B34CE41923606DE098
:100ED0000023A025ED00ED192B6037E0AF4BA220D9
:100EE000C000C019C318AC49C9190A689200D45887
:100EF000A64AB918A84BDB191A68131CDB009B180B
:100F00005B00A025ED00ED192A689B185B005B5A79
:100F10001BB2181C06F088F8031C201C191C05F0D5
:100F200077FA031C191C9D4BA220C000C019C318DE
:100F3000994CE41922689200D150A025ED00ED19DA
:100F40002B680133A020C000C0190360A021C90094
:100F5000C9190A688B4CE41923689A42BEDB8F4B8F
:100F6000A225ED00ED19EB188B48C019026892001C
:100F7000D4588449C919086806F056F8031C201C87
:100F8000191C05F0B1FB031C191C844BA222D200D2
:100F9000D219D318804CE41922689200D1507E4DAA
:100FA000ED192B6801337C48C01903607A49C919CF
:100FB0000B68052B8CDD0023774AD219136066E19C
:100FC0000023774CE4192360A125ED00ED192B686F
:100FD000A020C000C0190360C2E0A021C900C91947
:100FE0000A68A124E400E4192368D01A674D79192E
:100FF000694BDB191A68131CDB009B185B001B187C
:101000005B005B5A1BB2181C06F00EF8021C634B07
:10101000A224E400E419E3185F4DED192968890062
:10102000CB58101C191C05F069FE031C5C48C01944
:10103000036000235B49C9190B6060E05A4BA22290
:10104000D200D219D118574BDB191A68131C5B0058
:101050009B185B00504CE41922689B189B005C585D
:10106000504DED192B68D822520053437A68D1189D
:101070004948C0190268131CDB009B185B00A025BF
:10108000ED00ED192A689B189B0059584548C01976
:101090000268131C5B009B18DB003A68D3183E4DB6
:1010A000ED192A689200D358081C191C05F026FE79
:1010B000031C181C3A4AD219116805F0F3FC031CF2
:1010C000201C191C05F0A4F9031C181C364BA22483
:1010D000E400E419E118334DED192A68131C5B0094
:1010E0009B185B002C4CE41922689B189B005850FD
:1010F0002C4DED192B6801332A48C019036029498A
:10110000C9190B68012B99DD284BA222D200D219F4
:10111000D318214CE41922689200D458204DED19BF
:1011200028681F4AD219116805F0BCFC031C201C5A
:10113000191C05F06DF9031C191C1C4BA224E400BA
:10114000E419E318144DED192A689200D150A0203B
:10115000C000C01903680133A021C900C9190B6080
:10116000A023DB00DB191A68064CE41923689A42B5
:1011700000DA32E700230B4DED192B6055E0C04635
:10118000ECFAFFFF0C050000040400001C04000042
:10119000B0010020C802002004050000F4FEFFFF9B
:1011A000F4040000FC040000C4FEFFFFACFEFFFFDF
:1011B000E24BA220C000C019C118E14BDB191A682C
:1011C000131C5B009B185B00DE4CE41922689B1823
:1011D0009B005C58DC4DED192A68A120C000C019A5
:1011E0000368D31A181C05F01FFF031C201C191CD0
:1011F00005F07AFA031C181CD04BA222D200D21997
:10120000D118CF4BDB191A68131C5B009B185B00CD
:10121000CC4CE41922689B189B005850C84DED191E
:101220002B680133C648C0190360C549C9190B684A
:10123000012BBDDDC54BA222D200D219D318C14C5F
:10124000E41922689200D458BF4DED192A68A120F4
:10125000C000C0190368D31A181C05F0E5FE031C72
:10126000201C191C05F040FA031C191CB74BA222C4
:10127000D200D219D318B34CE41922689200D1508D
:10128000B04DED192B680133AE48C0190360AD496C
:10129000C9190B68052B00DC92E6D5229200BB1819
:1012A000181C0021082207F0C2FD0023A54CE419F8
:1012B00023607EE10023A025ED00ED192B601EE1E7
:1012C000A24BA220C000C019C318A021C900C9198F
:1012D0000A689200D1589B4BDB191A68131C5B00FB
:1012E0009B18DB00A524E400E4192268D318A0258C
:1012F000ED00ED192A689200D358081C191C05F05E
:10130000D1FB031C181C002105F054F8031C002B12
:1013100064D18A4BA220C000C019C118894BDB19C7
:101320001A68131C5B009B185B00A024E400E419FE
:1013300022689B189B005B58181C07F02DFC051CAD
:101340000E1C824BA220C000C019C318A021C900E6
:10135000C9190A689200D1587A4BDB191A68131C14
:101360005B009B18DB00A524E400E4192268D31875
:10137000A020C000C01902689200D358081C191C94
:1013800005F090FB031C181C07F006FC031C0C1C4A
:10139000181C211C04F09CFD031C0C1C281C311C77
:1013A0001A1C231C06F0C0F9031C0C1C181C211C61
:1013B00007F044FC664BA222D200D219D118614B2F
:1013C000DB191A68131C5B009B185B00A024E40067
:1013D000E41922689B189B00585013E05C4BA2252F
:1013E000ED00ED19E9185748C0190268131C5B009D
:1013F0009B185B00A024E400E41922689B189B0062
:1014000000225A50524BA225ED00ED19E9184D4823
:10141000C0190268131C5B009B185B00A024E40049
:10142000E41922689B189B005B58181C494905F079
:1014300039FB031C181C05F0D7FD031C181C05F014
:10144000F3FD454BA225ED00ED19E9183D4BDB19E5
:101450001A68131C5B009B185B00A024E400E419CD
:1014600022689B189B0058503C4BA225ED00ED19BB
:10147000EB183448C01902689200D458364BA222A7
:10148000D200D219D1182F4BDB191A68131C5B003C
:101490009B185B00A025ED00ED192A689B189B00A6
:1014A0005D582F4AA020C000C0190368D3181B78CC
:1014B0005BB2181C05F0B8FD031C281C191C05F0B4
:1014C000F1FA031C181C05F08FFD031C181C642185
:1014D00004F0C4FE031CE118204BA222D200D21952
:1014E000D318184CE41922689200D150A025ED00C1
:1014F000ED192B680133A020C000C0190360A021A2
:10150000C900C9190B68052B00DCD9E6134BA222D0
:10151000D200D219D3180B4CE41922689200D35888
:10152000132B1FDC0D4BA225ED00ED19EB18054820
:10153000C019026892000021D15033E0C4FEFFFFC1
:10154000FC040000040500000C050000ACFEFFFFD9
:101550007CFEFFFF0000C8424CFEFFFF44FEFFFF81
:10156000A80100207D4BA221C900C919CB187C4CD1
:10157000E41922689200D358784AA225ED00ED19AB
:10158000AA187748C019016889008A58111C594364
:10159000724BA222D200D219D318714CE4192268DE
:1015A0009200D1506E4DED192B6801336C48C01973
:1015B00003606B49C9190B68012B00DC7AE6EA234A
:1015C0005B00FA18C0235B00101C00211A1C07F0F6
:1015D0002EFC3A1C5432C0235B00101C00211A1C44
:1015E00007F025FC3B1C1433181C0021402207F097
:1015F0001EFC00235A4CE4192360AAE10023A02515
:10160000ED00ED192B6096E1A120C000C019036820
:101610005449C9190B6062E0534BA222D200D2197F
:10162000D1184F4BDB191A68131C5B009B185B0029
:10163000A024E400E41922689B189B005C58484DE4
:10164000ED192B68D822520053437A68D118A02094
:10165000C000C0190268131CDB009B185B00414DE1
:10166000ED192A689B189B005B58181C3F4905F030
:1016700019FA031C181C05F0B7FC011C3C4AB818E9
:10168000A023DB00DB191A68131CDB009B185B002E
:10169000344DED192A689B185B001B5A1BB2CB1AFC
:1016A000181C07F075FB031CE0182F4BA222D20078
:1016B000D219D1182A4BDB191A68131C5B009B182E
:1016C0005B00A024E400E41922689B189B0058509A
:1016D000244DED192B6801332248C01903602149BC
:1016E000C9190A68234CE41923689A4294DB1E4BFB
:1016F000A225ED00ED19E9181948C0190268131C5C
:101700005B009B185B00A024E400E41922689B188E
:101710009B005B58181C174DED19296804F09EFDBD
:10172000031C181C104BA222D200D219D1180C4B4A
:10173000DB191A68131C5B009B185B00A024E400F3
:10174000E41922689B189B005850A125ED00ED1963
:101750002B680448C019036085E0C04644FEFFFFC3
:1017600004050000FC040000C4FCFFFF00007A44F4
:101770001C0400000C050000A74BA222D200D219C5
:10178000D118A64BDB191A68131C5B009B185B0071
:10179000A024E400E41922689B189B005C589F4D2C
:1017A000ED192B68D822520053437A68D118A02033
:1017B000C000C0190268131CDB009B185B00984D29
:1017C000ED192A689B189B005B58181C954905F079
:1017D00069F9031C181C05F007FC011C924AB81893
:1017E000A023DB00DB191A68131CDB009B185B00CD
:1017F0008B4DED192A689B185B001B5A1BB2C91A46
:101800008A4BA222D200D219D018844BDB191A6855
:10181000131C5B009B185B00A025ED00ED192A68E6
:101820009B189B001B58CB1A181C07F0B1FA031C1D
:10183000E018794BA222D200D219D118774BDB19CC
:101840001A68131C5B009B185B00A024E400E419D9
:1018500022689B189B005850714DED192B6801337D
:101860006F48C01903606E49C9190A68704CE419C1
:1018700023689A4200DA7FE7674BA225ED00ED1955
:10188000E9186648C0190268131C5B009B185B00CE
:10189000A024E400E41922689B189B005B58181CE4
:1018A000634DED19296804F0D9FC031C181C5A4B30
:1018B000A222D200D219D118584BDB191A68131C76
:1018C0005B009B185B00A024E400E41922689B18CD
:1018D0009B005850574BA225ED00ED19EB184F48CF
:1018E000C01902689200D1584B4BA222D200D219E3
:1018F000D0184A4BDB191A68131C5B009B185B005D
:10190000A024E400E41922689B189B001B58C91806
:10191000484BA225ED00ED19EB184048C0190268AC
:101920009200D150A021C900C9190B680133A0222F
:10193000D200D2191360A024E400E4192368052B17
:1019400000DC61E6354DED192B6801333348C019D1
:1019500003603249C9190B68012B00DC4EE60023F5
:101960002E4AD21913604EE0334BA224E400E4194E
:10197000E3182A4DED192A689200D358002B20DD78
:101980002D4BA220C000C019C3182449C9190A68E8
:101990009200D358FA2292005A43264BA224E40024
:1019A000E419E3181D4DED1929688900CB58101C66
:1019B000191C04F053FC031C9F20C000C0190360D5
:1019C00004E000239F21C900C9190B601B4B134C75
:1019D000E41922689200D2589F25ED00ED192B687A
:1019E0009A4209DA154B0D48C019026892009F24EB
:1019F000E400E4192168D150084DED192B6801333A
:101A00000648C01903600549C9190B68012BABDDF5
:101A1000BD460B4B9D44F0BD44FBFFFF0405000099
:101A2000FC04000000007A441C040000C4FCFFFF1A
:101A30000C05000004FBFFFF44FEFFFF88020020AE
:101A40001405000080B584B000AF78600023FB600F
:101A500034E00023BB602BE0FA68131C9B009B184A
:101A6000DB007A68D318BA685200D35A1BB2181C2C
:101A700005F0DAFA031C181C134904F035FE031CA8
:101A8000181C124905F00EF8031C181C05F0ACFADE
:101A9000031C98B20E49FA68131C9B009B189B000C
:101AA000BA689B185B00021C5A52BB680133BB60CA
:101AB000BB68132BD0DDFB680133FB60FB68052B93
:101AC000C7DDBD4604B080BD00FEFF4600007A447D
:101AD000B800002090B58DB002AFF860B9607A60B0
:101AE0000023FB610023BB6100237B615E4B181C5C
:101AF0000021042207F09BF95C4B00225A605B4BEB
:101B00005A685A4B1A6002235B427B625EE00023F4
:101B10003B6248E03A6A7B6AD21A554B5200D15A6E
:101B2000514B3A6A5200D1523A6A7B6AD21A504BF0
:101B300012325200D15A4C4B3A6A12325200D152F0
:101B40003A6A7B6AD21A4A4B24325200D15A464B27
:101B50003A6A24325200D1523A6A7B6AD21A444B12
:101B600036325200D15A404B3A6A36325200D15284
:101B70003A6A7B6AD21A3E4B48325200D15A3A4BEB
:101B80003A6A48325200D1523A6A7B6AD21A384BCA
:101B90005A325200D15A344B3A6A5A325200D15218
:101BA0003B6A01333B627B6A1A1C12323B6A9A42DF
:101BB000B0DC7B6A181C1230796AFA68BB687C68F2
:101BC0000094FFF71BF97B6A01337B627B6A002B71
:101BD0009DDD01237B620AE0796AFA68BB68786858
:101BE00000901220FFF70AF97B6A01337B627B6A5F
:101BF000012BF1DD1F4B181C07F022F900237B623B
:101C000019E01A4B7A6A9200D3581B4A101C191C0F
:101C100007F016F9154B7A6A9200D258FB699A427E
:101C200006DD124B7A6A9200D358FB617B6ABB6176
:101C30007B6A01337B627B6A012BE2DD0F4B181C50
:101C400007F0FEF8094B1B68084A5268D80FD117F5
:101C5000041C9A424C41231CDBB27B617B69181C3B
:101C6000BD460BB090BDC046B001002088020020E8
:101C7000C8020020309F0000409F0000449F0000E9
:101C800090B52E4CA54400AF2D4B181C07F0D8F88A
:101C90002C4BF2208000C019C2182B4B111C1A1CAF
:101CA000D8239B00081C111C1A1C07F0B7F8274BFF
:101CB000F2218900C919CB18254A13CA13C313CAC4
:101CC00013C313CA13C313CA13C3224BF2229200C5
:101CD000D219D318204A13CA13C313CA13C313CA81
:101CE00013C313CA13C3391C64313A1C34323B1D6D
:101CF000081C111C1A1CFFF7EDFE031CF1229200B8
:101D0000D2191360F124A400E4192368002B05D034
:101D10000323F1208000C019036004E00223F121B5
:101D20008900C9190B60F1229200D2191368181C9E
:101D3000BD46F3239B009D4490BDC04634FCFFFF8D
:101D4000489F00009CFCFFFF5C9F00006CFCFFFFB5
:101D5000BCA200003CFCFFFFECA2000090B52E4CA2
:101D6000A54400AF2D4B181C07F06AF82C4BF2204D
:101D70008000C019C2182B4B111C1A1CD8239B00C1
:101D8000081C111C1A1C07F049F8274BF221890086
:101D9000C919CB18254A13CA13C313CA13C313CACC
:101DA00013C313CA13C3224BF2229200D219D318C1
:101DB000204A13CA13C313CA13C313CA13C313CAC3
:101DC00013C3391C64313A1C34323B1D081C111CEE
:101DD0001A1CFFF77FFE031CF1229200D219136038
:101DE000F124A400E4192368002B05D00123F1207D
:101DF0008000C019036004E00023F1218900C919A3
:101E00000B60F1229200D2191368181CBD46F3230F
:101E10009B009D4490BDC04634FCFFFF1CA3000006
:101E20009CFCFFFF30A300006CFCFFFF90A60000AD
:101E30003CFCFFFFC0A6000090B52E4CA54400AFAF
:101E40002D4B181C06F0FCFF2C4BF2208000C01913
:101E5000C2182B4B111C1A1CD8239B00081C111CE8
:101E60001A1C06F0DBFF274BF2218900C919CB1899
:101E7000254A13CA13C313CA13C313CA13C313CAFD
:101E800013C3224BF2229200D219D318204A13CA4C
:101E900013C313CA13C313CA13C313CA13C3391CFE
:101EA00064313A1C34323B1D081C111C1A1CFFF70C
:101EB00011FE031CF1229200D2191360F124A40038
:101EC000E4192368002B05D00523F1208000C019F8
:101ED000036004E00423F1218900C9190B60F12299
:101EE0009200D2191368181CBD46F3239B009D4431
:101EF00090BDC04634FCFFFFF0A600009CFCFFFF35
:101F000000A700006CFCFFFF60AA00003CFCFFFF84
:101F100090AA000090B52E4CA54400AF2D4B181C84
:101F200006F08EFF2C4BF2208000C019C2182B4BFC
:101F3000111C1A1CD8239B00081C111C1A1C06F02B
:101F40006DFF274BF2218900C919CB18254A13CA06
:101F500013C313CA13C313CA13C313CA13C3224B25
:101F6000F2229200D219D318204A13CA13C313CAFB
:101F700013C313CA13C313CA13C3391C64313A1CE5
:101F800034323B1D081C111C1A1CFFF7A3FD031C57
:101F9000F1229200D2191360F124A400E4192368FD
:101FA000002B05D00723F1208000C019036004E056
:101FB0000623F1218900C9190B60F1229200D21980
:101FC0001368181CBD46F3239B009D4490BDC0467A
:101FD00034FCFFFFC0AA00009CFCFFFFD0AA000059
:101FE0006CFCFFFF30AE00003CFCFFFF60AE000069
:101FF00090B52E4CA54400AF2D4B181C06F020FFC9
:102000002C4BF2208000C019C2182B4B111C1A1C3B
:10201000D8239B00081C111C1A1C06F0FFFE274B3E
:10202000F2218900C919CB18254A13CA13C313CA50
:1020300013C313CA13C313CA13C3224BF222920051
:10204000D219D318204A13CA13C313CA13C313CA0D
:1020500013C313CA13C3391C64313A1C34323B1DF9
:10206000081C111C1A1CFFF735FD031CF1229200FD
:10207000D2191360F124A400E4192368002B05D0C1
:102080000923F1208000C019036004E00823F12136
:102090008900C9190B60F1229200D2191368181C2B
:1020A000BD46F3239B009D4490BDC04634FCFFFF1A
:1020B00090AE00009CFCFFFFA0AE00006CFCFFFF98
:1020C00000B200003CFCFFFF30B2000090B52E4C87
:1020D000A54400AF2D4B181C06F0B2FE2C4BF2208D
:1020E0008000C019C2182B4B111C1A1CD8239B004E
:1020F000081C111C1A1C06F091FE274BF2218900C6
:10210000C919CB18254A13CA13C313CA13C313CA58
:1021100013C313CA13C3224BF2229200D219D3184D
:10212000204A13CA13C313CA13C313CA13C313CA4F
:1021300013C3391C64313A1C34323B1D081C111C7A
:102140001A1CFFF7C7FC031CF1229200D21913607E
:10215000F124A400E4192368002B05D00B23F120FF
:102160008000C019036004E00A23F1218900C91925
:102170000B60F1229200D2191368181CBD46F3239C
:102180009B009D4490BDC04634FCFFFF60B2000040
:102190009CFCFFFF74B200006CFCFFFFD4B5000094
:1021A0003CFCFFFF04B6000090B52E4CA54400AFE8
:1021B0002D4B181C06F044FE2C4BF2208000C01959
:1021C000C2182B4B111C1A1CD8239B00081C111C75
:1021D0001A1C06F023FE274BF2218900C919CB18DF
:1021E000254A13CA13C313CA13C313CA13C313CA8A
:1021F00013C3224BF2229200D219D318204A13CAD9
:1022000013C313CA13C313CA13C313CA13C3391C8A
:1022100064313A1C34323B1D081C111C1A1CFFF798
:1022200059FC031CF1229200D2191360F124A4007E
:10223000E4192368002B05D01523F1208000C01974
:10224000036004E01423F1218900C9190B60F12215
:102250009200D2191368181CBD46F3239B009D44BD
:1022600090BDC04634FCFFFF34B600009CFCFFFF6D
:1022700050B600006CFCFFFFB0B900003CFCFFFF53
:10228000E0B9000090B52E4CA54400AF2D4B181CB2
:1022900006F0D6FD2C4BF2208000C019C2182B4B43
:1022A000111C1A1CD8239B00081C111C1A1C06F0B8
:1022B000B5FD274BF2218900C919CB18254A13CA4D
:1022C00013C313CA13C313CA13C313CA13C3224BB2
:1022D000F2229200D219D318204A13CA13C313CA88
:1022E00013C313CA13C313CA13C3391C64313A1C72
:1022F00034323B1D081C111C1A1CFFF7EBFB031C9E
:10230000F1229200D2191360F124A400E419236889
:10231000002B05D01723F1208000C019036004E0D2
:102320001623F1218900C9190B60F1229200D219FC
:102330001368181CBD46F3239B009D4490BDC04606
:1023400034FCFFFF10BA00009CFCFFFF2CBA000019
:102350006CFCFFFF8CBD00003CFCFFFFBCBD00001F
:1023600090B52E4CA54400AF2D4B181C06F068FD0F
:102370002C4BF2208000C019C2182B4B111C1A1CC8
:10238000D8239B00081C111C1A1C06F047FD274B84
:10239000F2218900C919CB18254A13CA13C313CADD
:1023A00013C313CA13C313CA13C3224BF2229200DE
:1023B000D219D318204A13CA13C313CA13C313CA9A
:1023C00013C313CA13C3391C64313A1C34323B1D86
:1023D000081C111C1A1CFFF77DFB031CF122920044
:1023E000D2191360F124A400E4192368002B05D04E
:1023F0001823F1208000C019036004E01923F121A3
:102400008900C9190B60F1229200D2191368181CB7
:10241000BD46F3239B009D4490BDC04634FCFFFFA6
:10242000ECBD00009CFCFFFF08BE00006CFCFFFF41
:1024300068C100003CFCFFFF98C1000090B52E4C25
:10244000A54400AF2D4B181C06F0FAFC2C4BF220D3
:102450008000C019C2182B4B111C1A1CD8239B00DA
:10246000081C111C1A1C06F0D9FC274BF22189000C
:10247000C919CB18254A13CA13C313CA13C313CAE5
:1024800013C313CA13C3224BF2229200D219D318DA
:10249000204A13CA13C313CA13C313CA13C313CADC
:1024A00013C3391C64313A1C34323B1D081C111C07
:1024B0001A1CFFF70FFB031CF1229200D2191360C4
:1024C000F124A400E4192368002B05D01A23F1207D
:1024D0008000C019036004E01B23F1218900C919A1
:1024E0000B60F1229200D2191368181CBD46F32329
:1024F0009B009D4490BDC04634FCFFFFC8C1000056
:102500009CFCFFFFE4C100006CFCFFFF44C5000021
:102510003CFCFFFF74C5000090B52E4CA54400AFF5
:102520002D4B181C06F08CFC2C4BF2208000C0199F
:10253000C2182B4B111C1A1CD8239B00081C111C01
:102540001A1C06F06BFC274BF2218900C919CB1825
:10255000254A13CA13C313CA13C313CA13C313CA16
:1025600013C3224BF2229200D219D318204A13CA65
:1025700013C313CA13C313CA13C313CA13C3391C17
:1025800064313A1C34323B1D081C111C1A1CFFF725
:10259000A1FA031CF1229200D2191360F124A400C5
:1025A000E4192368002B05D00C23F1208000C0190A
:1025B000036004E00D23F1218900C9190B60F122A9
:1025C0009200D2191368181CBD46F3239B009D444A
:1025D00090BDC04634FCFFFFA4C500009CFCFFFF7B
:1025E000C0C500006CFCFFFF20C900003CFCFFFFE1
:1025F00050C9000090B52E4CA54400AF2D4B181CBF
:1026000006F01EFC2C4BF2208000C019C2182B4B88
:10261000111C1A1CD8239B00081C111C1A1C06F044
:10262000FDFB274BF2218900C919CB18254A13CA93
:1026300013C313CA13C313CA13C313CA13C3224B3E
:10264000F2229200D219D318204A13CA13C313CA14
:1026500013C313CA13C313CA13C3391C64313A1CFE
:1026600034323B1D081C111C1A1CFFF733FA031CE3
:10267000F1229200D2191360F124A400E419236816
:10268000002B05D00E23F1208000C019036004E068
:102690000F23F1218900C9190B60F1229200D21990
:1026A0001368181CBD46F3239B009D4490BDC04693
:1026B00034FCFFFF80C900009CFCFFFF9CC90000A8
:1026C0006CFCFFFFFCCC00003CFCFFFF2CCD0000AD
:1026D00090B52E4CA54400AF2D4B181C06F0B0FB56
:1026E0002C4BF2208000C019C2182B4B111C1A1C55
:1026F000D8239B00081C111C1A1C06F08FFB274BCB
:10270000F2218900C919CB18254A13CA13C313CA69
:1027100013C313CA13C313CA13C3224BF22292006A
:10272000D219D318204A13CA13C313CA13C313CA26
:1027300013C313CA13C3391C64313A1C34323B1D12
:10274000081C111C1A1CFFF7C5F9031CF12292008A
:10275000D2191360F124A400E4192368002B05D0DA
:102760001023F1208000C019036004E01123F1213F
:102770008900C9190B60F1229200D2191368181C44
:10278000BD46F3239B009D4490BDC04634FCFFFF33
:102790005CCD00009CFCFFFF78CD00006CFCFFFFCF
:1027A000D8D000003CFCFFFF08D1000090B52E4CB3
:1027B000A54400AF2D4B181C06F042FB2C4BF22019
:1027C0008000C019C2182B4B111C1A1CD8239B0067
:1027D000081C111C1A1C06F021FB274BF221890052
:1027E000C919CB18254A13CA13C313CA13C313CA72
:1027F00013C313CA13C3224BF2229200D219D31867
:10280000204A13CA13C313CA13C313CA13C313CA68
:1028100013C3391C64313A1C34323B1D081C111C93
:102820001A1CFFF757F9031CF1229200D21913600A
:10283000F124A400E4192368002B05D01223F12011
:102840008000C019036004E01323F1218900C91935
:102850000B60F1229200D2191368181CBD46F323B5
:102860009B009D4490BDC04634FCFFFF38D1000062
:102870009CFCFFFF50D100006CFCFFFFB0D40000B7
:102880003CFCFFFFE0D4000090B52E4CA54400AF07
:102890002D4B181C06F0D4FA2C4BF2208000C019E6
:1028A000C2182B4B111C1A1CD8239B00081C111C8E
:1028B0001A1C06F0B3FA274BF2218900C919CB186C
:1028C000254A13CA13C313CA13C313CA13C313CAA3
:1028D00013C3224BF2229200D219D318204A13CAF2
:1028E00013C313CA13C313CA13C313CA13C3391CA4
:1028F00064313A1C34323B1D081C111C1A1CFFF7B2
:10290000E9F8031CF1229200D2191360F124A4000B
:10291000E4192368002B05D01D23F1208000C01985
:10292000036004E01C23F1218900C9190B60F12226
:102930009200D2191368181CBD46F3239B009D44D6
:1029400090BDC04634FCFFFF10D500009CFCFFFF8B
:102950002CD500006CFCFFFF8CD800003CFCFFFF76
:10296000BCD8000090B52E4CA54400AF2D4B181CD0
:1029700006F066FA2C4BF2208000C019C2182B4BCF
:10298000111C1A1CD8239B00081C111C1A1C06F0D1
:1029900045FA274BF2218900C919CB18254A13CAD9
:1029A00013C313CA13C313CA13C313CA13C3224BCB
:1029B000F2229200D219D318204A13CA13C313CAA1
:1029C00013C313CA13C313CA13C3391C64313A1C8B
:1029D00034323B1D081C111C1A1CFFF77BF8031C2A
:1029E000F1229200D2191360F124A400E4192368A3
:1029F000002B05D01F23F1208000C019036004E0E4
:102A00001E23F1218900C9190B60F1229200D2190D
:102A10001368181CBD46F3239B009D4490BDC0461F
:102A200034FCFFFFECD800009CFCFFFF08D900003D
:102A30006CFCFFFF68DC00003CFCFFFF98DC000042
:102A400090B52E4CA54400AF2D4B181C06F0F8F99C
:102A50002C4BF2208000C019C2182B4B111C1A1CE1
:102A6000D8239B00081C111C1A1C06F0D7F9274B11
:102A7000F2218900C919CB18254A13CA13C313CAF6
:102A800013C313CA13C313CA13C3224BF2229200F7
:102A9000D219D318204A13CA13C313CA13C313CAB3
:102AA00013C313CA13C3391C64313A1C34323B1D9F
:102AB000081C111C1A1CFFF70DF8031CF1229200D0
:102AC000D2191360F124A400E4192368002B05D067
:102AD0002123F1208000C019036004E02023F121AC
:102AE0008900C9190B60F1229200D2191368181CD1
:102AF000BD46F3239B009D4490BDC04634FCFFFFC0
:102B0000C8DC00009CFCFFFFE4DC00006CFCFFFF65
:102B100044E000003CFCFFFF74E0000090B52E4C48
:102B2000A54400AF2D4B181C06F08AF92C4BF2205F
:102B30008000C019C2182B4B111C1A1CD8239B00F3
:102B4000081C111C1A1C06F069F9274BF221890098
:102B5000C919CB18254A13CA13C313CA13C313CAFE
:102B600013C313CA13C3224BF2229200D219D318F3
:102B7000204A13CA13C313CA13C313CA13C313CAF5
:102B800013C3391C64313A1C34323B1D081C111C20
:102B90001A1CFEF79FFF031CF1229200D21913604A
:102BA000F124A400E4192368002B05D02323F1208D
:102BB0008000C019036004E02223F1218900C919B3
:102BC0000B60F1229200D2191368181CBD46F32342
:102BD0009B009D4490BDC04634FCFFFFA4E0000074
:102BE0009CFCFFFFBCE000006CFCFFFF1CE400004D
:102BF0003CFCFFFF4CE4000090B5C7B000AF78602C
:102C00003B1CDC33964A13CA13C313CA13C33B1CC1
:102C1000C433944A13CA13C313CA13C33B1CAC3343
:102C2000914A13CA13C313CA13C33B1C94338E4A6D
:102C300013CA13C313CA13C33B1C7C3300221A608C
:102C40003B1C7C3300225A603B1C7C3300229A6080
:102C50003B1C7C330022DA603B1C7C3300221A616F
:102C60003B1C7C3300225A613B1C643300221A60F7
:102C70003B1C643300225A603B1C643300229A6080
:102C80003B1C64330022DA603B1C643300221A616F
:102C90003B1C643300225A613B1C4C3300221A60F7
:102CA0003B1C4C3300225A603B1C4C3300229A6080
:102CB0003B1C4C330022DA603B1C4C3300221A616F
:102CC0003B1C4C3300225A611820FF303B18002275
:102CD0001A70002384214900C9190B60634B181C2A
:102CE0000021402206F0A3F8614B181C02210622A5
:102CF00006F09DF87B68181CFEF7A4FE7B68181C84
:102D0000FEF722F8002388225200D219136037E020
:102D1000002386246400E41923601EE0882040001C
:102D2000C0190268131C9B009B18DB007A68D3183B
:102D300086214900C9190A685200D35A1BB24D4A6C
:102D4000101C191C06F07CF886225200D219136858
:102D5000013386246400E419236086204000C019F2
:102D60000368052BDADD444B181C06F069F888214E
:102D70004900C9190B68013388225200D219136027
:102D800088246400E4192368132BC1DD3A4B181C16
:102D900006F056F80820FF303B1800221A70002376
:102DA00088214900C9190B6090E100238622520056
:102DB000D2191360E2E03B1CDC3388246400E41980
:102DC00022689200D1582D4888235B00DB191A68CD
:102DD000131CDB009B185B0086246400E419226846
:102DE0009B185B001B5A1BB2994249DD234988207E
:102DF0004000C0190268131CDB009B185B0086248E
:102E00006400E41922689B185B005B5A19B23B1CF2
:102E1000DC3388204000C01902689200D1503B1C6E
:102E20004C3388214900C9190A689200D3580122FD
:102E3000111C19433B1C4C3388246400E41922689C
:102E40009200D1503B1CAC3388204000C01902686E
:102E5000920086246400E4192168D15063E0C046E2
:102E6000A0E40000B8E40000D0E4000088020020E4
:102E7000A8010020409F0000449F0000C8020020DD
:102E80003B1CC43388204000C01902689200D1580E
:102E9000E64888235B00DB191A68131CDB009B18CB
:102EA0005B0086246400E41922689B185B001B5AAF
:102EB0001BB2994237DADD4988204000C019026808
:102EC000131CDB009B185B0086246400E419226855
:102ED0009B185B005B5A19B23B1CC433882040002E
:102EE000C01902689200D1503B1C6433882149000C
:102EF000C9190A689200D3580122111C19433B1CBE
:102F0000643388246400E41922689200D1503B1C89
:102F1000943388204000C01902689200862464001F
:102F2000E4192168D1503B1C4C3388204000C01963
:102F300002689200D35859003B1C4C33882464002B
:102F4000E41922689200D1503B1C64338820400071
:102F5000C01902689200D35859003B1C643388247E
:102F60006400E41922689200D15086204000C01904
:102F70000368013386214900C9190B60862252007B
:102F8000D2191368112B00DC15E73B1CAC338824E5
:102F90006400E41922689200D2583B1C94338820C4
:102FA0004000C01901688900CB589A4225DD3B1CBE
:102FB000AC3388214900C9190A689200D358FC2211
:102FC000D21913603B1C943388246400E4192268EE
:102FD0009200D1583B1CAC3388204000C0190268D5
:102FE0009200D1503B1C943388214900C9190A68CA
:102FF0009200FC24E4192168D1503B1CAC3388209A
:103000004000C01902689200D2583B1C94338824B7
:103010006400E41921688900CB588548882464003D
:10302000E419216805F00CFF3B1CC43388204000E4
:10303000C01902689200D2583B1CDC33882464001B
:10304000E41921688900CB58D11A3B1C7C338820B5
:103050004000C01902689200D1503B1C7C3388218B
:103060004900C9190A689200D258C8235B009A42E5
:103070001ADD1822FF32BB181824FF343A191278CF
:1030800001210A431A700820FF303B181A780821E2
:10309000FF317B1801321A70664A88246400E419F3
:1030A0002368D3185A221A701820FF303A181821B2
:1030B000FF317B181B78DB18137088225200D2195D
:1030C0001368013388246400E419236088204000D9
:1030D000C0190368052B00DC67E60023882149003E
:1030E000C9190B6021E0534A88246400E41923685D
:1030F000D3181B785AB20820FF303B181B78101CDD
:10310000191C03F0ABF8031CDAB24A4988246400A6
:10311000E4192368CB181A7088204000C01903688E
:10312000013388214900C9190B6088225200D21945
:103130001368052BD7DD1824FF343B191B78002BAF
:1031400006D1242384204000C019036000F0B2FBA4
:103150000023791CFF310B600023F822D219136081
:103160003B1C0C33181C0021402205F060FE182483
:10317000FF343B191A7870231340702B3ED13B1C4F
:103180007C3319683B1C7C335A680123914200DC74
:103190000023DBB2F420C01903603B1C7C33F42114
:1031A000C9190A689200D2583B1C7C339B689A422A
:1031B0000ADD1822FF32BB181824FF343A1911789F
:1031C0006F220A401A7019E0F420C0190368002B1E
:1031D0000AD01821FF317B181824FF343A191178CE
:1031E0005F220A401A7009E01820FF303B181821AE
:1031F000FF317A1811783F220A401A701822FF32E4
:10320000BB181A7870231340302B00D1F0E104DC96
:10321000102B21D0202B0FD0D0E2502B24D0602BAC
:1032200000D107E1402B0FD0C8E2C046C802002001
:103230007CE40000A8010020FEF722FD031C84248A
:103240006400E419236035E3FEF788FD031C842045
:103250004000C01903602DE3FEF7EEFD031C84213E
:103260004900C9190B6025E33B1C94331A683B1CC9
:10327000AC339B68D31A012B07DD3B1CAC331A68B7
:103280003B1CAC339B689A4210DD3B1C94339A681C
:103290003B1CAC331B68D31A012B17DD3B1CAC3332
:1032A0009A683B1CAC331B689A420FDC06238422CD
:1032B0005200D2191360FDF771F80620FDF792FB5A
:1032C000031C84246400E4192360B2E03B1CAC338B
:1032D0001A683B1CAC339B689A4255DBFFF71CF91C
:1032E000021CD84B8C204000C019C3185A60D64B22
:1032F0001A68D54B1A63D44B5A68D34B5A63FFF7FD
:1033000079F9021CCF4B8C214900C919CB189A605E
:10331000CD4B1A68CC4B9A63CB4B5A68CA4BDA63D5
:103320000C2388225200D219136026E0C64B882451
:103330006400E41922689200D258781CFF300368B8
:103340009A4211DDC04B88214900C9190A689200D0
:10335000D3587A1CFF32136088246400E419236870
:1033600084204000C019036088214900C9190B68F6
:10337000013388225200D219136088246400E419B2
:1033800023680F2BD2DD95E2FFF7A2F9021CAD4BAB
:103390008C204000C019C318DA60AB4B1A68AA4BE6
:1033A0001A64A94B5A68A84B5A64FFF7FFF9021C2C
:1033B000A44B8C214900C919CB181A61A24B1A6879
:1033C000A14B9A64A04B5A689F4BDA641023882261
:1033D0005200D219136026E09B4B88246400E41944
:1033E00022689200D258781CFF3003689A4211DD9F
:1033F000954B88214900C9190A689200D3587A1C54
:10340000FF32136088246400E4192368842040009C
:10341000C019036088214900C9190B68013388224B
:103420005200D219136088246400E4192368132B16
:10343000D2DD3FE23B1C94331A683B1CAC335B6823
:10344000D31A012B07DD3B1CAC331A683B1CAC3391
:103450005B689A4210DD3B1C94335A683B1CAC33CA
:103460001B68D31A012B0FDD3B1CAC335A683B1C85
:10347000AC331B689A4207DCFEF7BAFD031C8420BC
:103480004000C0190360B2E03B1CAC331A683B1C1F
:10349000AC335B689A4255DBFEF786FE021C694B33
:1034A0008C214900C919CB185A60674B1A68664BC2
:1034B0001A65654B5A68644B5A65FEF7E3FE021CB9
:1034C000604B8C246400E419E3189A605E4B1A6820
:1034D0005D4B9A655C4B5A685B4BDA651423882018
:1034E0004000C019036026E0574B88214900C919E4
:1034F0000A689200D2587C1CFF3423689A4211DD7E
:10350000514B88204000C01902689200D358791CA2
:10351000FF310B6088225200D219136884246400A2
:10352000E419236088204000C01903680133882112
:103530004900C9190B6088225200D2191368172B51
:10354000D2DDB7E1FEF70CFF021C3E4B8C24640079
:10355000E419E318DA603C4B1A683B4B1A663A4BA5
:103560005A68394B5A66FEF769FF021C354B8C20AE
:103570004000C019C3181A61334B1A68324B9A665F
:10358000314B5A68304BDA66182388214900C91933
:103590000B6026E02C4B88246400E419226892001A
:1035A000D258781CFF3003689A4211DD264B8821DF
:1035B0004900C9190A689200D3587A1CFF32136077
:1035C00088246400E419236884204000C019036043
:1035D00088214900C9190B68013388225200D21989
:1035E000136088246400E41923681B2BD2DD61E199
:1035F0003B1C94335A683B1CAC339B68D31A012B99
:1036000007DD3B1CAC335A683B1CAC339B689A42C9
:1036100010DD3B1C94339A683B1CAC335B68D31AB7
:10362000012B13DD3B1CAC339A683B1CAC335B684D
:103630009A420BDCFEF74AFD031C84204000C019AF
:103640000360BAE0F4FEFFFF880200203B1CAC33AD
:103650005A683B1CAC339B689A4255DBFFF714F960
:10366000021CAE4B8C214900C919CB185A60AC4BD7
:103670001A68AB4B1A67AA4B5A68A94B5A67FFF7EF
:1036800071F9021CA54B8C246400E419E3189A60BC
:10369000A34B1A68A24B9A67A14B5A68A04BDA67F2
:1036A0001C2388204000C019036026E09C4B882121
:1036B0004900C9190A689200D2587C1CFF3423685B
:1036C0009A4211DD964B88204000C0190268920092
:1036D000D358791CFF310B6088225200D21913682D
:1036E00084246400E419236088204000C019036822
:1036F000013388214900C9190B6088225200D21970
:1037000013681F2BD2DDD5E0FFF79AF9021C834B1B
:103710008C246400E419E318DA60814B1968804A4C
:103720008023D1507E4B59687D4A8423D150FFF7C6
:10373000F5F9021C794B8C204000C019C3181A619E
:10374000774B1968764A8823D150754B5968744A6B
:103750008C23D150202388214900C9190B6026E011
:103760006F4B88246400E41922689200D258781CB8
:10377000FF3003689A4211DD694B88214900C9195D
:103780000A689200D3587A1CFF32136088246400C0
:10379000E419236884204000C0190360882149008F
:1037A000C9190B68013388225200D219136088248A
:1037B0006400E4192368232BD2DD7BE0FEF7AAFB2B
:1037C000021C564B8C204000C019C3181A60544B81
:1037D0001A68534B9A61524B5A68514BDA61FEF7A3
:1037E00007FC021C4D4B8C214900C919CB185A60AB
:1037F0004B4B1A684A4B1A62494B5A68484B5A62FB
:10380000FEF764FC021C454B8C246400E419E318A9
:103810009A60434B1A68424B9A62414B5A68404B3C
:10382000DA62002388204000C01903603BE03B4B74
:103830008C214900C919CB1888246400E419226836
:103840009200D258364B9200D258781CFF30036851
:103850009A421FDD314B8C214900C919CB188824AD
:103860006400E41922689200D2582D4B9200D3587C
:10387000781CFF300360294B8C214900C919CB18F3
:1038800088246400E41922689200D3588420400000
:10389000C019036088214900C9190B6801338822C7
:1038A0005200D219136088246400E4192368022BA3
:1038B000BDDDC0461B4B181C05F0C2FA0023882052
:1038C0004000C019036015E0174A88214900C91952
:1038D0000B68D3181B785BB2144A101C191C05F036
:1038E000AFFA88225200D219136801338824640089
:1038F000E419236088204000C0190368052BE3DD2C
:103900000B4B181C05F09CFA84214900C9190B685F
:10391000DBB2181CBD4647B090BDC046F4FEFFFFA9
:10392000880200208CE40000A801002098E4000038
:103930009CE40000B0B582B000AF021C3960FB1DF2
:103940001A70FB1D1B787F2B32D93049FB1D1B7869
:103950001A1C0F231340083B98082C4AFB1D1B78A8
:103960001C1C0F232340083B9B0806339B00D318E5
:103970005B68FA1D1278141C03222240D200FF2437
:10398000251C95402A1CD2431A403B689C01FF230A
:103990001C40FB1D1B781D1C03232B40DB00251C3A
:1039A0009D402B1C1A43831D9B00CB185A6029E0B5
:1039B000174BFA1D127852B292081549F81D00787B
:1039C00040B28008C03080004158F81D0078041CC7
:1039D00003202040C000FF24251C8540281CC04334
:1039E000084039688C01FF210C40F91D09780D1C35
:1039F00003212940C900251C8D40291C0143C032E8
:103A00009200D150BD4602B0B0BDC04600ED00E00E
:103A100000E100E080B582B000AF78607B685A1E9C
:103A20000C4B9A4201D9012310E00B4B7A68013A02
:103A30005A6001235B42181C0321FFF77BFF064BF2
:103A400000229A60044B07221A600023181CBD460E
:103A500002B080BDFFFFFF0010E000E080B582B043
:103A600000AF094B1B687B607B681B0E812B08D85D
:103A7000064B074A1A60074B064A1168064A0A4075
:103A80001A60BD4602B080BDFC81E00F18600C409A
:103A900005000004E4800C40FFFFFFFE80B500AF8E
:103AA000034B1B685A1C024B1A60BD4680BDC046C2
:103AB0009800002080B584B000AF7860064B1B688A
:103AC000FB60C046044B1A68FB68D21A7B689A42B6
:103AD000F8D3BD4604B080BD9800002090B58BB0EF
:103AE00000AFBA607B603B1C0F33021C1A703B1C9A
:103AF0000E330A1C1A703B1C0F331B789AB23B1C06
:103B000010331A803B1C103308225A803B1C1033A0
:103B10003A1C0E325A603B1C103301221A813B1CA6
:103B20001033BA68DA607B689AB23B1C10331A8291
:103B30003C1C27340F4A3B1C1033101C191C01F08D
:103B400079FF031C237007E03C1C2734094B181C29
:103B500001F06EFD031C23703B1C27331B785BB206
:103B6000012BF1D03B1C27331B785BB2181CBD46E0
:103B70000BB090BD00A0004090B58BB000AFBA6014
:103B80007B603B1C0F33021C1A703B1C0E330A1C5B
:103B90001A703B1C0F331B789AB23B1C10331A80EF
:103BA0003B1C103304225A803B1C10333A1C0E324B
:103BB0005A603B1C103301221A813B1C1033BA6837
:103BC000DA607B689AB23B1C10331A823C1C2734A3
:103BD0000F4A3B1C1033101C191C01F02BFF031C57
:103BE000237007E03C1C2734094B181C01F020FD12
:103BF000031C23703B1C27331B785BB2012BF1D0D5
:103C00003B1C27331B785BB2181CBD460BB090BD24
:103C100000A0004090B5CDB000AF00238A20400046
:103C2000C01903602821FF317B1800221A70FFF7AA
:103C300015FFFCF79BFA094B181C01F025F9031C32
:103C4000181CFA23990002F0BBFA031C181CFFF79A
:103C5000E1FE031C002B03D0FEE7C046500002002B
:103C60003B1CF03300221A701422FF32BC183B1C9C
:103C7000F033D02019211A1C0123FFF72FFF031C5A
:103C800023701424FF343B191B785BB2002B0AD03D
:103C90001420FF303B181B785BB2EE4A101CD02179
:103CA0001A1C05F0CDF83B1CF03301221A701421C8
:103CB000FF317C183B1CF033D0201A211A1C012341
:103CC000FFF70CFF031C23701422FF32BB181B7874
:103CD0005BB2002B0AD01424FF343B191B785BB273
:103CE000DC4A101CD0211A1C05F0AAF83B1CF0334A
:103CF00010221A701420FF303C183B1CF033D020E7
:103D00001B211A1C0123FFF7E9FE031C2370142159
:103D1000FF317B181B785BB2002B0AD01422FF32D4
:103D2000BB181B785BB2CB4A101CD0211A1C05F0C3
:103D300087F83B1CF03300221A701423FF33FC1861
:103D40003B1CF033D0201C211A1C0123FFF7C6FEB8
:103D5000031C23701424FF343B191B785BB2002B27
:103D60000AD01420FF303B181B785BB2B94A101CF4
:103D7000D0211A1C05F064F83B1CF03300221A70A5
:103D80001421FF317C183B1CF033D02023211A1C56
:103D90000123FFF7A3FE031C23701422FF32BB187C
:103DA0001B785BB2002B0AD01424FF343B191B781C
:103DB0005BB2A84A101CD0211A1C05F041F83B1C2C
:103DC000F03302221A701420FF303C183B1CF033F1
:103DD000D02037211A1C0123FFF780FE031C23701B
:103DE0001421FF317B181B785BB2002B0AD0142200
:103DF000FF32BB181B785BB2964A101CD0211A1CEC
:103E000005F01EF83B1CF03300221A701423FF3318
:103E1000FC183B1CF033D02038211A1C0123FFF77B
:103E20005DFE031C23701424FF343B191B785BB226
:103E3000002B0AD01420FF303B181B785BB2854A58
:103E4000101CD0211A1C04F0FBFF3B1CF033002295
:103E50001A701421FF317C183B1CF033D0206A21EA
:103E60001A1C0123FFF73AFE031C23701422FF32B1
:103E7000BB181B785BB2002B0AD01424FF343B190B
:103E80001B785BB2734A101CD0211A1C04F0D8FFB7
:103E90003B1CF03300221A701420FF303C183B1CEE
:103EA000F033D0206B211A1C0123FFF717FE031CEF
:103EB00023701421FF317B181B785BB2002B0AD0D2
:103EC0001422FF32BB181B785BB2624A101CD0214F
:103ED0001A1C04F0B5FFFA239B00181CFFF7EAFD3B
:103EE0005D4B1B688A246400E41923608A2040002B
:103EF000C019036886214900C9190B608622520047
:103F0000D219136884246400E4192360524B1A68A0
:103F100084204000C0190368D31A322B00D89DE0DA
:103F20001421FF317C183B1CF033D0203B211A1C9C
:103F30000623FFF721FE031C23701422FF32BB1857
:103F40001B785BB2002B0AD01424FF343B191B787A
:103F50005BB2404A101CD0211A1C04F071FF3B1CBC
:103F6000F0331B781B0299B23B1CF0335B781A1CB0
:103F7000922040003B180A431A803B1CF0339B7888
:103F80001B0299B23B1CF033DB781A1C91246400AD
:103F90003B190A431A803B1CF0331B791B0299B270
:103FA0003B1CF0335B791A1C902040003B180A43FD
:103FB0001A801421FF317C183B1CF033D0204321A0
:103FC0001A1C0623FFF7D8FD031C23701422FF32AE
:103FD000BB181B785BB2002B0AD01424FF343B19AA
:103FE0001B785BB21B4A101CD0211A1C04F028FF5E
:103FF0003B1CF0331B781B0299B23B1CF0335B78FF
:104000001A1C8F2040003B180A431A803B1CF033D7
:104010009B781B0299B23B1CF033DB781A1C8E2470
:1040200064003B190A431A803B1CF0331B791B02C6
:1040300099B23B1CF0335B791A1C8D2040003B1871
:104040000A431A80044B1B6884214900C9190B607C
:1040500004E0C046E8E40000980000208D225200F1
:10406000BB1800221A808E2464003B198D2040006A
:104070003A1812881A808F2149007B188E24640018
:104080003A1912881A80902040003B188F2149006D
:104090007A1812881A8091225200BB18902464006A
:1040A0003A1912881A80922040003B189121490049
:1040B0007A1812881A80FB1DFF3300221A807B1D9C
:1040C000FF33FA1DFF3212881A80FB1CFF337A1D62
:1040D000FF3212881A807B1CFF33FA1CFF321288D1
:1040E0001A803B1CFE337A1CFF3212881A803B1C5C
:1040F000FC333A1CFE3212881A801A22FF32BB1897
:1041000000221A702824FF343B1900221A70EE4B4B
:10411000181C04F095FE3B1CFC33922040003A181A
:1041200012881A803B1CFE33912149007A181288AC
:104130001A807B1CFF33902464003A1912881A807D
:10414000FB1CFF338F2040003A1812881A807B1D19
:10415000FF338E2149007A1812881A80FB1DFF3325
:104160008D2464003A1912881A808D2040003B1873
:1041700000221A808E2149007B188D2464003A1990
:1041800012881A808F2040003B188E2149007A182F
:1041900012881A8090225200BB188F2464003A19AA
:1041A00012881A80912040003B18902149007A180B
:1041B00012881A8092225200BB18912464003A1986
:1041C00012881A801420FF303C183B1CF033D0209A
:1041D0003B211A1C0123FFF7CFFC031C23703B1C5F
:1041E000F0331B781A02922149007B181A8014229E
:1041F000FF32BC183B1CF033D0203C211A1C012399
:10420000FFF7BAFC031C23703B1CF0331B78191C0E
:10421000922464003B19922040003A1812880A4305
:104220001A801421FF317C183B1CF033D0203D2133
:104230001A1C0123FFF7A0FC031C23703B1CF03366
:104240001B781A02912464003B191A801420FF3055
:104250003C183B1CF033D0203E211A1C0123FFF7F1
:104260008BFC031C23703B1CF0331B78191C912220
:104270005200BB18912464003A1912880A431A802C
:104280001420FF303C183B1CF033D0203F211A1C77
:104290000123FFF771FC031C23703B1CF0331B78D8
:1042A0001A02902149007B181A801422FF32BC1890
:1042B0003B1CF033D02040211A1C0123FFF75CFC8B
:1042C000031C23703B1CF0331B78191C90246400E2
:1042D0003B19902040003A1812880A431A80142192
:1042E000FF317C183B1CF033D02043211A1C0123E2
:1042F000FFF742FC031C23703B1CF0331B781A02AF
:104300008F2464003B191A801420FF303C183B1C9A
:10431000F033D02044211A1C0123FFF72DFC031C8D
:1043200023703B1CF0331B78191C8F225200BB18E2
:104330008F2464003A1912880A431A801420FF302F
:104340003C183B1CF033D02045211A1C0123FFF7F9
:1043500013FC031C23703B1CF0331B781A028E21C4
:1043600049007B181A801422FF32BC183B1CF03322
:10437000D02046211A1C0123FFF7FEFB031C2370EB
:104380003B1CF0331B78191C8E2464003B198E20D3
:1043900040003A1812880A431A801421FF317C1811
:1043A0003B1CF033D02047211A1C0123FFF7E4FB0C
:1043B000031C23703B1CF0331B781A028D2464000D
:1043C0003B191A801420FF303C183B1CF033D020DE
:1043D00048211A1C0123FFF7CFFB031C23703B1C51
:1043E000F0331B78191C8D225200BB188D246400F9
:1043F0003A1912880A431A802820FF303B181B788C
:10440000002B00D099E0922149007B1800241A5F0C
:104410002E4B9A4207DC922040003B1800215A5E46
:104420002B4B9A421FDA92225200BB1800241B5FCA
:10443000181C04F0ADFC041C3B1CFC3300201B5E6C
:10444000181C04F0A5FC031CE31A181C04F0A0FCC3
:10445000021CFA23DB009A4205DD2821FF317B187C
:1044600001221A7069E091225200BB1800241A5FE1
:10447000184B9A4207DC912040003B1800215A5EFD
:10448000154B9A422ADA91225200BB1800241B5F76
:10449000181C04F07DFC041C3B1CFE3300201B5E3A
:1044A000181C04F075FC031CE31A181C04F070FCC3
:1044B000021CFA23DB009A4210DD2821FF317B1811
:1044C00001221A7039E0C04608E50000D417000048
:1044D00090E8FFFF88130000A8E4FFFF902252003D
:1044E000BB1800241A5F7B4B9A4207DC90204000E7
:1044F0003B1800215A5E784B9A421EDC90225200F3
:10450000BB1800241B5F181C04F042FC041C7B1C1D
:10451000FF3300201B5E181C04F03AFC031CE31A56
:10452000181C04F035FC021CFA23DB009A4204DD5F
:104530002821FF317B1801221A702822FF32BB1874
:104540001B78012B00D027E11A24FF343B191B787C
:10455000032B59D9002396204000C01903604CE07A
:10456000002394214900C9190B6037E01A22FF3259
:10457000BB181B78DA1E94246400E4192368D01851
:10458000564B98225200D219D11896235B00DB19A2
:104590001A68131C9B009B189B001B185B00585A41
:1045A0004E4B98246400E419E11896235B00DB1954
:1045B0001A68131C9B009B189B0094246400E41948
:1045C00022689B185B00021C5A5294204000C019BC
:1045D0000368013394214900C9190B6094225200E9
:1045E000D2191368022BC1DD96246400E4192368F4
:1045F000013396204000C019036096214900C91973
:104600000B68052BACDDBDE01A22FF32BB181B780E
:10461000022B00D9B6E0002396246400E41923603D
:10462000A9E0012394204000C019036038E09421E0
:104630004900C9190B680322D41A1A22FF32BB1889
:104640001A7894204000C0190368D01A234B98228E
:104650005200D219D11896235B00DB191A68131C7B
:104660009B009B189B001B185B00585A1B4B982201
:104670005200D219D11896235B00DB191A68131C5B
:104680009B009B189B001B195B00021C5A52942430
:104690006400E4192368013394204000C0190360CA
:1046A0001A21FF317B181A7894246400E4192368D6
:1046B0009A42BCDA1A20FF303B181B780322D31A27
:1046C000F821C9190B60002394225200D2191360FB
:1046D0003FE0C046D8590000F72A0000D0FEFFFF97
:1046E000F823DB191A6894246400E4192368D31AA8
:1046F0005C1E94204000C01903681322D01AD64BC8
:1047000098225200D219D11896235B00DB191A683F
:10471000131C9B009B189B001B185B00585ACE4B28
:1047200098225200D219D11896235B00DB191A681F
:10473000131C9B009B189B001B195B00021C5A5208
:1047400094246400E4192368013394204000C019C4
:10475000036094214900C9190A68F824E419236800
:104760009A42BDDB96204000C019036801339621B0
:104770004900C9190B6096225200D2191368052B03
:1047800000DC4EE71A24FF343B1903221A7028205C
:10479000FF303B1802221A701A21FF317B181A7859
:1047A000AD4B98246400E419E318520092204000B5
:1047B00039180988D1521A21FF317B181A78A64B73
:1047C00098246400E419E318143252009120400048
:1047D00039180988D1521A21FF317B181A789E4B5B
:1047E00098246400E419E318283252009020400015
:1047F00039180988D1521A21FF317B181A78964B43
:1048000098246400E419E3183C3252008F204000E1
:1048100039180988D1521A21FF317B181A788E4B2A
:1048200098246400E419E318503252008E204000AE
:1048300039180988D1521A21FF317B181B781A24A4
:10484000FF343A19591C11701A1C834B98204000F0
:10485000C019C318643252008D24640039190988C4
:10486000D1521A20FF303B181B78142B00D0EDE0FA
:104870001A21FF317B1800221A702822FF32BB1840
:104880001B78002B00D1E1E02824FF343B190022E3
:104890001A703C1CF7343B1C181CFEF7ADF9031CC6
:1048A00023706E4B181C04F0CBFA3B1CF7331B78BB
:1048B000242B00D9BDE09A00694BD3181B689F4692
:1048C000684B181C04F0BCFABCE0674B181C04F0E1
:1048D000B7FAB7E0654B181C04F0B2FAB2E0644BCB
:1048E000181C04F0ADFAADE0624B181C04F0A8FAF5
:1048F000A8E0614B181C04F0A3FAA3E05F4B181C5E
:1049000004F09EFA9EE05E4B181C04F099FA99E0C0
:104910005C4B181C04F094FA94E05B4B181C04F0F8
:104920008FFA8FE0594B181C04F08AFA8AE0584B32
:10493000181C04F085FA85E0564B181C04F080FA28
:1049400080E0554B181C04F07BFA7BE0534B181C9D
:1049500004F076FA76E0524B181C04F071FA71E01C
:10496000504B181C04F06CFA6CE04F4B181C04F010
:1049700067FA67E04D4B181C04F062FA62E04C4B9A
:10498000181C04F05DFA5DE04A4B181C04F058FA5C
:1049900058E0494B181C04F053FA53E0474B181CDD
:1049A00004F04EFA4EE0464B181C04F049FA49E078
:1049B000444B181C04F044FA44E0434B181C04F028
:1049C0003FFA3FE0414B181C04F03AFA3AE0404B02
:1049D000181C04F035FA35E03E4B181C04F030FA90
:1049E00030E03D4B181C04F02BFA2BE03B4B181C1D
:1049F00004F026FA26E03A4B181C04F021FA21E0D4
:104A0000384B181C04F01CFA1CE0374B181C04F03F
:104A100017FA17E0354B181C04F012FA12E0344B69
:104A2000181C04F00DFA0DE0324B181C04F008FAC3
:104A300008E03B1CF7331B782F4A101C191C04F0AC
:104A4000FFF9C0462D4B181C04F0FAF93220FFF78D
:104A500031F8FFF760FBC046D0FEFFFF10E5000015
:104A6000CCE600001CE5000028E5000030E5000071
:104A700038E5000040E5000048E5000050E5000092
:104A800058E5000060E5000070E500007CE50000EE
:104A900088E5000098E50000A4E50000ACE5000012
:104AA000B4E50000C0E50000CCE50000D8E500005A
:104AB000E4E50000F0E50000FCE5000008E6000089
:104AC00014E6000020E600002CE6000038E60000B6
:104AD00044E6000050E600005CE6000064E60000EA
:104AE0006CE6000078E6000084E6000090E6000036
:104AF0009CE60000A8E60000B4E60000C8E600005E
:104B000080B586B000AFF860B9607A60FB681B685A
:104B10007B61BB680122101C9840031CDB437A694F
:104B20001A40796801231940BB68081C9840031C8F
:104B30001A43FB681A60BD4606B080BD80B584B0DC
:104B400000AF7860184BDA6B3B1C0B33511E8A4167
:104B50001A70154B154ADA63134B5A680723134032
:104B6000FB607A68124B9A4206D87A68114B9A42D7
:104B700002D90123FB6001E00023FB600A4B0A4AD3
:104B800052680721101C8843011CFA680A435A60C6
:104B90003B1C0B331B78002B02D0034B0022DA6343
:104BA000BD4604B080BDC04600000C40711B000033
:104BB0000048E8010024F40080B582B000AF044B47
:104BC0007B607B68181CFFF7B9FFBD4602B080BD53
:104BD00040787D0190B583B000AFFC1C124B181CCF
:104BE00000F00AFA031C2370FB1C1B78032B08D06F
:104BF000082B0BD0022B0ED101F05EF9031C7B6059
:104C00000CE001F049F9031C7B6007E001F0CCF8EF
:104C1000031C7B6002E000237B60C0467B68181C9D
:104C2000BD4603B090BDC0460733200080B582B0BA
:104C300000AF1A4B5A69E023DB0013408022920038
:104C4000934216D080229200934206D8002B16D0B1
:104C50008022520093420FD017E0C022920093426C
:104C600004D0E022D20093420CD00EE00C4B7B60CB
:104C70000EE00C4B7B600BE00B4B7B6008E00B4BBA
:104C80007B6005E00A4B7B6002E000237B60C0464E
:104C90007B68181CBD4602B080BDC04600800C4039
:104CA00040420F00C0CF6A00C0D8A700809FD50047
:104CB000406F400190B583B000AFFC1C154B181C31
:104CC00000F09AF9031C2370FB1C1B78072B13D0F0
:104CD000082B16D101F068F8031C7B600E4B1A6894
:104CE000E0235B0213409B0B01337868191C01F031
:104CF00067FA031C7B6007E0FFF798FF031C7B60EB
:104D000002E000237B60C0467B68181CBD4603B0F0
:104D100090BDC04606000C0000800C4080B584B0F9
:104D200000AF78607B68002B02D07B68012B00D13C
:104D3000C0461C4B9A6A7B685B00DA400323134031
:104D4000012B05D014D3022B07D0032B0AD021E06E
:104D500001F0A2F8031CFB601FE001F0ADF8031C9A
:104D6000FB601AE001F002F8031C5B08FB6014E032
:104D70000C4B9A6A7B6804339B00111CD9400B1CB6
:104D8000002B04D001F090F8031CFB6005E0002329
:104D9000FB6002E00023FB60C046FB68181CBD46B8
:104DA00004B080BD00800C4080B582B000AF786058
:104DB000074B5A6D0123134000D005E0C046044B59
:104DC0001B6D7A681340FAD1BD4602B080BDC04663
:104DD00000800C4080B586B000AF78600A1CFB1CD8
:104DE0001A7000233B617B681A0A0F2313400A2BB9
:104DF00036D89A001C4BD3181B689F461B4B7B610F
:104E000018E01B4B7B6115E01A4B7B6112E01A4BDB
:104E10007B6101233B610DE0184B7B6110233B61FB
:104E200008E0174B7B6105E0164B7B6180235B003C
:104E30003B61C0467B681A0B1F231340FB603B6934
:104E4000002B03D03B69181CFFF7AEFFFB1C1B783F
:104E50007969FA68081C111C1A1CFFF751FE00E062
:104E6000C046BD4606B080BD60E7000008800C402B
:104E700044800C4040800C4058800C4060800C40C6
:104E800078800C4064800C4080B584B000AF7860BE
:104E90007A68F8239B031340E0221203934200D167
:104EA00096E0E0221203934214D8802292029342A9
:104EB00058D080229202934202D8002B24D091E055
:104EC0008022D202934231D0C0221203934200D1F9
:104ED00079E087E0C0225203934248D0C0225203B7
:104EE000934208D880225203934246D0A022520314
:104EF000934258D076E0D022520393424DD0802284
:104F00009203934269D06DE000F04EFF031CFB60FA
:104F1000384B1A68E0235B0213409B0B0133F8689F
:104F2000191C01F04DF9031CFB605EE000F03CFF32
:104F3000031CFB602F4B1A68E0235B0213409B0BA2
:104F40000133F868191C01F03BF9031CFB60294B85
:104F50009B681A1C0F231340FA68111CD9400B1CC4
:104F6000FB6042E000F002FF031CFB603DE000201C
:104F7000FFF7D4FE031CFB6037E00020FFF7CEFEF6
:104F8000031CFB601B4B9B6E1A1C0F231340FA681B
:104F9000111CD9400B1CFB6027E00120FFF7BEFE6F
:104FA000031CFB6021E00120FFF7B8FE031CFB603F
:104FB000104B1B6F1A1C03231340FA68111CD940B5
:104FC0000B1CFB6011E0FFF775FE031CFB600CE09F
:104FD000FFF72CFE031CFB6007E0FFF7FBFD031C43
:104FE000FB6002E00023FB60C046FB68181CBD4666
:104FF00004B080BD00800C4080B586B000AF786002
:105000003B1C173301221A70714B3B617A680F23E6
:105010001340FB60FB68072B00D9CDE0FB689A00CA
:105020006C4BD3181B689F466B4BDB6A3A69134085
:1050300080225201934216D080225201934204D81A
:1050400080221201934213D01CE0802292019342ED
:1050500004D08022D20493420FD013E03B1C1733BC
:1050600002221A7013E03B1C173303221A700EE061
:105070003B1C173304221A7009E03B1C17330A2229
:105080001A7004E03B1C173305221A70C04698E0E2
:10509000514B9A6A03231340022B08D0032B0BD0E9
:1050A000012B0ED13B1C173303221A7015E03B1C59
:1050B000173302221A7010E03B1C173306221A70B5
:1050C0000BE0454B9A6A80235B02134004D03B1CE3
:1050D00017330B221A7000E0C04672E03E4B9A6A0A
:1050E0000C231340082B08D00C2B0BD0042B0ED113
:1050F0003B1C173303221A7015E03B1C17330222A6
:105100001A7010E03B1C173306221A700BE0324B6A
:105110009A6A80235B03134004D03B1C17330B2295
:105120001A7000E0C0464CE02B4B9A6A30231340C3
:10513000102B02D0202B05D009E03B1C1733032293
:105140001A7009E03B1C173302221A7004E03B1C62
:10515000173301221A70C04633E03B1C1733072275
:105160001A703B1C173307221A702AE01A4BDA6AAE
:10517000E023DB0213408022920293420CD0802273
:10518000D20293420DD08022520293420ED13B1C98
:10519000173302221A700EE03B1C173303221A70D9
:1051A00009E03B1C173309221A7004E03B1C17333B
:1051B00001221A70C04604E03B1C173300221A700B
:1051C000C0463B1C17331B78181CBD4606B080BD7B
:1051D000003C00048CE7000000800C4080B588B0E3
:1051E00000AF78600A1CFB1C1A700323FB613B1C98
:1051F0001B3303221A7000237B617A680F2313404C
:10520000FB60FB68072B00D9F4E0FB689A007D4B3C
:10521000D3181B689F46FB1C1B780B2B00D9EBE0B7
:105220009A00794BD3181B689F460423FB613B1CF3
:105230001B3300221A701CE00323FB613B1C1B3351
:1052400001221A7015E00223FB613B1C1B33022272
:105250001A700EE00123FB613B1C1B3303221A7002
:1052600007E00523FB613B1C1B3305221A7000E09D
:10527000C0463B1C1B331B78181C0121012200F087
:10528000CFF8FFF799FC614BFA695A6200F02CF9EC
:1052900000F06CFD031CBB60BB68181CFFF74EFCE4
:1052A000ADE0FB1C1B780B2B00D9A7E09A00584BF4
:1052B000D3181B689F4600233B611DE0002001219D
:1052C000012200F0ADF802233B6115E0012001212D
:1052D000012200F0A5F801233B610DE04D4B181CA5
:1052E00002210122FFF70CFC03233B6104E00023B1
:1052F0003B6101237B61C046FB68022B0BD1434B12
:10530000424A916A444A11403A6911437A69120447
:105310000A439A6273E03D4B3C4A916A3F4A11400E
:105320003A69920011437A6912050A439A6266E06B
:10533000FB1C1B78022B07D0032B0DD0012B00D0B8
:105340005DE000233B610FE000200121012200F01D
:1053500067F802233B6107E001200121012200F0F0
:105360005FF801233B61C046284B284A926A3021EE
:10537000101C8843011C3A6912010A439A623EE0FC
:10538000FB1C1B78032B14D0092B22D0022B00D03E
:1053900035E000200121012200F042F81B4B4022A1
:1053A0005A62C046194BDA6A80235B021340F9D077
:1053B0001FE001200121012200F032F8134B60228E
:1053C0005A62C046114BDA6A80239B021340F9D01F
:1053D0000FE005200121012200F022F80B4B802272
:1053E0005A62C046094BDA6A8023DB021340F9D0C7
:1053F000C04604E0C04602E0C04600E0C046BD46EC
:1054000008B080BDACE70000CCE7000000800C4095
:10541000FCE7000040800C40FCFFFEFFF3FFEFFFC5
:1054200080B586B000AFFB1D1870BB1D19707B1DC9
:105430001A70FB1D1B78062B4CD89A00284BD318EA
:105440001B689F4601233B610223FB6002237B61B3
:1054500028E004233B610823FB6008237B6121E0F3
:1054600010233B612023FB6020237B611AE0402353
:105470003B618023FB6080237B6113E080235B0022
:105480003B6180239B00FB6080239B007B6109E0E4
:105490008023DB003B6180231B01FB608023DB0357
:1054A0007B61C046BB1D1B78002B0DD00D4B3A69AC
:1054B0001A627B1D1B78002B09D0C046094BDB6AA2
:1054C0007A691340FAD002E0064BFA681A6200F0DB
:1054D0000BF802E0C04600E0C046BD4606B080BD05
:1054E0002CE8000000800C4080B500AF024BDA6A67
:1054F000024B1A60BD4680BD00800C409C0000201D
:1055000080B586B000AFF860B9607A60FB681B6850
:105510007B61BB680122101C9840031CDB437A6945
:105520001A40796801231940BB68081C9840031C85
:105530001A43FB681A60BD4606B080BD80B586B0D0
:1055400000AFF860B9607A601A1CFB1C1A707B68A7
:10555000002B00D135E0FB681A681B4B1A40FB6832
:105560001A60FB681A68FB1C1B781B021A43FB6855
:105570001A60BB68002B05D1144B181CFFF784FC84
:10558000031CBB60FB1C1B78114AD35C3B617B682E
:105590009B00BA68D21A3B6979684B43101C191CEE
:1055A00000F00EFE031C7B61FB681A6802231340A7
:1055B00004D07B69002B01D101237B61FB687A69F0
:1055C0001A61BD4606B080BDFFFCFFFF40810400AC
:1055D00048E8000080B582B000AF786039607B6831
:1055E00000225A637B68114A1A637A683B685B78C9
:1055F000002B01D0002300E00123101C01211A1C04
:10560000FFF77EFF3B6859683B689A683B681B7BE5
:105610007868FFF793FF7A683B681B78101C0021BD
:105620001A1CFFF76DFFBD4602B080BDCFFF010021
:1056300080B588B000AF78607A68BD4B9A4205D1DA
:10564000BC4BBB61BB699B687B6101E0FC23ECE167
:105650007B689B6A3B613A69C023DB00134014D02E
:105660003A6980239B00134003D0BB69FD225A7026
:1056700007E03A698023DB00134002D0BB69FE22B9
:105680005A70BB6909221A70BBE1BB691B78082BF1
:1056900000D9AEE19A00A84BD3181B689F467B69DE
:1056A0005B881A1C102313400AD07B691B881B0AD5
:1056B0009BB21A1C06231340F0221343FB610FE038
:1056C0007B691B881A1CFE231340FB617B695B8886
:1056D0001A1C0223134003D0FB6901221343FB6110
:1056E000BB6901221A707B68FA695A627B680122E1
:1056F0005A6086E13A69802313400CD07B6880228F
:105700001A63BB69FF225A70BB6908221A707B6852
:1057100002225A6030E03A69402313402CD07B6863
:1057200040221A637B695B881A1C102313400AD03D
:10573000BB6902221A707B691B881A1CFF231A405E
:105740007B685A6218E07B695B881A1C022313404D
:105750000ED0BB6907221A70BB691B797A69DB001E
:10576000D3181B89012B07D17B6808225A6048E1B6
:10577000BB6905221A7043E143E13A698023134073
:105780000CD07B6880221A63BB69FF225A70BB6908
:1057900008221A707B6802225A6014E03A6940239A
:1057A000134010D07B6840221A637B695B881A1C07
:1057B0000223134003D0BB6903221A7020E1BB69A6
:1057C00005221A701CE11CE17B695B881A1C1023FE
:1057D00013400AD07B691B881B0A9BB21A1C062344
:1057E0001340F0221343FB6105E07B691B881A1C00
:1057F000FE231340FB617B695B881A1C0423134062
:1058000003D0FB6901221343FB61BB6904221A70B8
:105810007B6801225A607B68FA695A62F1E03A6952
:10582000802313400CD07B6880221A63BB69FF225F
:105830005A70BB6908221A707B6802225A6014E011
:105840003A694023134010D07B6840221A637B6979
:105850005B881A1C0423134003D0BB6907221A700B
:1058600003E0BB6905221A70CAE0CAE0BB695A8826
:10587000BB691B797969DB00CB181B899A4224D359
:10588000BB6900225A80BB691B790133DAB2BB695C
:105890001A717B695B881A1C0423134003D0BB690F
:1058A00003221A70ACE07B695B881A1C0123134049
:1058B00003D1BB691B79012B06D9BB6908221A7079
:1058C0007B6802225A609CE09AE0BB691B797A6986
:1058D000DB00D31804331A68BB695B88591C88B293
:1058E000B9694880D3181B781A1C7B685A62BB6957
:1058F00006221A7085E03A69802313400CD07B6839
:1059000080221A63BB69FF225A70BB6908221A7091
:105910007B6802225A600AE03A694023134006D0AD
:105920007B6840221A63BB6905221A7068E068E050
:1059300000A00040A00000204CE800003A692023AD
:10594000134047D0BB691B797A69DB00D3181B89E8
:10595000FB607B68DA693B1C0B331A70BB695B88A0
:105960001A1CFB689A4211D2BB691B797A69DB0069
:10597000D31804331A68BB695B88591C88B2B969AB
:105980004880D3183A1C0B3212781A70BB695B88B6
:105990001A1CFB689A420CD3FB68012B02D17B686E
:1059A00008225A60BB6908221A707B6802225A607A
:1059B00010E07B6804225A60FB68012B0AD9BB699E
:1059C0005B881A1CFB68013B9A4203D17B68082262
:1059D0005A6016E015E03A6980235B00134007D057
:1059E0007B68802252001A63BB6909221A7008E0A2
:1059F00007E0BB69FB225A70BB6909221A7000E0FC
:105A000026E6BB691B78092B0BD17B6800225A6301
:105A1000BB695B785BB2012B05D1BB6900225A7070
:105A200001E0012301E0BB695B785BB2181CBD4655
:105A300008B080BD80B584B000AF786039607A6806
:105A4000274B9A4207D1274BFB607B689A6801235A
:105A5000134005D001E0FC233DE07B6820225A6022
:105A60003B685B881A1C0223134003D03B681B89E8
:105A7000002B09D03B685B881A1C0423134005D017
:105A80003B681B8A002B01D1FC2324E0FB68002229
:105A90001A70FB6801225A70FB6800225A80FB686A
:105AA00000221A71FB683A689A607B68C0225A60CB
:105AB0007B689A6A2023134001D07B68DB697B688E
:105AC000094A1A637B68FC22D2005A637B68181C5F
:105AD000FFF7AEFD031C5BB2181CBD4604B080BDD1
