:1000000000200020D11F0000FD1F0000FD1F000088
:10001000FD1F0000FD1F0000FD1F0000FD1F000070
:10002000FD1F0000FD1F0000FD1F0000FD1F000060
:10003000FD1F0000FD1F0000FD1F00001505000052
:10004000FD1F0000FD1F0000FD1F0000FD1F000040
:10005000FD1F0000FD1F0000FD1F0000FD1F000030
:10006000FD1F0000FD1F0000FD1F0000FD1F000020
:10007000FD1F0000FD1F0000FD1F0000FD1F000010
:10008000FD1F0000FD1F0000FD1F0000FD1F000000
:10009000FD1F000010B5064C2378002B07D1054B3F
:1000A000002B02D0044800E000BF0123237010BDE4
:1000B0007800002000000000EC32000008B5084B7A
:1000C000002B03D00748084900E000BF0748036839
:1000D000002B03D0064B002B00D0984708BDC0462C
:1000E00000000000EC3200007C00002074000020C2
:1000F00000000000164B002B00D1144B9D464022FF
:1001000092029A1A924600218B460F461348144ACF
:10011000121A02F0BAF80F4B002B00D098470E4B82
:10012000002B00D098470020002104000D000D484E
:10013000002802D00C4800E000BF02F077F8200051
:10014000290000F0CFFA02F05BF8C046000008007A
:1001500000200020000000000000000078000020C7
:10016000BC000020000000000000000080B500AFCF
:1001700000F008F800F024F800F078F800F09AF8A1
:10018000BD4680BD80B500AF5120052101F05AF970
:10019000084B181C012100F051FF074B181C0121CE
:1001A00000F04CFF054B181C012100F047FFBD4635
:1001B00080BDC04600B20200003202000082020090
:1001C00090B589B000AF3B1C0833264A13CA13C34D
:1001D00013CA13C33B1C0833E12252029A603B1C32
:1001E000083305225A733B1C08330022DA813B1C7A
:1001F0000833802252011A823B1C083300221A73F2
:100200003B1C083300229A743B1C08330022DA742A
:100210003B1C083300221A75134A3B1C0833101C80
:10022000191C01F0FDFD3B1D00221A703B1D002230
:100230005A703B1D00229A703B1D0022DA703B1D54
:1002400000225A703B1D00229A703B1D0022DA707A
:10025000054A3B1D101C191C01F02CFEBD4609B0BF
:1002600090BDC0460C31000000C0004090B585B084
:1002700000AF3B1C0C4A13CA13C312681A603B1C24
:1002800001221A703B1C01225A703B1C074A9A60DB
:100290003B1C00221A73064A3B1C101C191C01F05F
:1002A000CFFABD4605B090BD2431000050C3000018
:1002B00000A0004080B500AF334B334AD26C0F2111
:1002C0008A4304210A43DA642F4B2F4AD26CF0216F
:1002D0008A4310210A43DA642B4B2B4A116F2B4AB5
:1002E0000A40A02109050A431A67274B264A126FC4
:1002F00012011209A02109060A431A67224A22495B
:100300009823C958224B0B408021C90019439823D8
:10031000D1501D4A1C499823C9581E4B0B408021BF
:10032000490119439823D1501B4B1B4A916B1B4A1F
:100330000A40802149000A439A63174B164A926B80
:1003400003210A439A63164B154A916A134A0A40DD
:100350009A62144B134A516D104A0A40A021C900F9
:100360000A435A650F4B0F4A526D03210A435A65DF
:100370000D4B0D4A516D094A0A40A021C9000A439C
:100380005A65BD4680BDC04600600040FFFFFFF0DB
:10039000FFF0FFFFFF0FFFFF00A00040FFF8FFFF8F
:1003A0000060084000C0004000C40040B0B582B00A
:1003B00000AF021C3960FB1D1A70FB1D1B787F2BE0
:1003C00032D93049FB1D1B781A1C0F231340083B00
:1003D00098082C4AFB1D1B781C1C0F232340083B4C
:1003E0009B0806339B00D3185B68FA1D1278141C17
:1003F00003222240D200FF24251C95402A1CD24310
:100400001A403B689C01FF231C40FB1D1B781D1CF0
:1004100003232B40DB00251C9D402B1C1A43831D0E
:100420009B00CB185A6029E0174BFA1D127852B284
:1004300092081549F81D007840B28008C03080004D
:100440004158F81D0078041C03202040C000FF2400
:10045000251C8540281CC043084039688C01FF21B9
:100460000C40F91D09780D1C03212940C900251CE9
:100470008D40291C0143C0329200D150BD4602B0CC
:10048000B0BDC04600ED00E000E100E080B582B004
:1004900000AF78607B685A1E0C4B9A4201D9012349
:1004A00010E00B4B7A68013A5A6001235B42181C3A
:1004B0000321FFF77BFF064B00229A60044B0722C3
:1004C0001A600023181CBD4602B080BDFFFFFF006C
:1004D00010E000E080B582B000AF094B1B687B6084
:1004E0007B681B0E812B08D8064B074A1A60074B06
:1004F000064A1168064A0A401A60BD4602B080BD2D
:10050000FC81E00F18600C4005000004E4800C4002
:10051000FFFFFFFE80B500AF034B1B685A1C024B68
:100520001A60BD4680BDC0469400002080B584B0EE
:1005300000AF7860064B1B68FB60C046044B1A682E
:10054000FB68D21A7B689A42F8D3BD4604B080BDDE
:100550009400002080B586B000AFF860B9607A6082
:1005600000237B6100237B6114E0BB681B780A2BAE
:1005700004D10D4B181C0D2101F016FDBB685A1C4F
:10058000BA601B78084A101C191C01F00DFD7B692C
:1005900001337B617A697B689A42E6DB7B68181CD1
:1005A000BD4606B080BDC04600C0004090B58BB0CF
:1005B00000AFBA607B603B1C0F33021C1A703B1CFF
:1005C0000E330A1C1A703B1C0F331B789AB23B1C6B
:1005D00010331A803B1C103308225A803B1C103306
:1005E0003A1C0E325A603B1C103301221A813B1C0C
:1005F0001033BA68DA607B689AB23B1C10331A82F7
:100600003C1C27340F4A3B1C1033101C191C01F0F2
:1006100047FB031C237007E03C1C2734094B181CC4
:1006200001F03CF9031C23703B1C27331B785BB2A1
:10063000012BF1D03B1C27331B785BB2181CBD4645
:100640000BB090BD00A0004090B58BB000AFBA6079
:100650007B603B1C0F33021C1A703B1C0E330A1CC0
:100660001A703B1C0F331B789AB23B1C10331A8054
:100670003B1C103304225A803B1C10333A1C0E32B0
:100680005A603B1C103301221A813B1C1033BA689C
:10069000DA607B689AB23B1C10331A823C1C273408
:1006A0000F4A3B1C1033101C191C01F0F9FA031CF3
:1006B000237007E03C1C2734094B181C01F0EEF8AE
:1006C000031C23703B1C27331B785BB2012BF1D03A
:1006D0003B1C27331B785BB2181CBD460BB090BD8A
:1006E00000A0004090B597B000AFFFF7F3FEFFF712
:1006F0003DFD094B181C00F0FBFC031C181CFA23E1
:10070000990001F02DFD031C181CFFF7BFFE031C10
:10071000002B03D0FEE7C046200004003B1C4833FA
:1007200000221A703C1C4F343B1C4833D020192146
:100730001A1C0123FFF73AFF031C23703B1C4F33A5
:100740001B785BB2002B09D03B1C4F331B785BB28C
:10075000E34A101CD0211A1C01F0A0FD3C1C4F34B0
:100760003B1C4833D22019211A1C0123FFF71EFF1E
:10077000031C23703B1C4F331B785BB2002B09D04A
:100780003B1C4F331B785BB2D54A101CD2211A1C7C
:1007900001F084FD3B1C483301221A703C1C4F348D
:1007A0003B1C4833D0201A211A1C0123FFF7FEFE00
:1007B000031C23703B1C4F331B785BB2002B09D00A
:1007C0003B1C4F331B785BB2C54A101CD0211A1C4E
:1007D00001F064FD3C1C4F343B1C4833D2201A21ED
:1007E0001A1C0123FFF7E2FE031C23703B1C4F334E
:1007F0001B785BB2002B09D03B1C4F331B785BB2DC
:10080000B74A101CD2211A1C01F048FD3B1C48338A
:1008100010221A703C1C4F343B1C4833D0201B2143
:100820001A1C0123FFF7C2FE031C23703B1C4F332D
:100830001B785BB2002B09D03B1C4F331B785BB29B
:10084000A74A101CD0211A1C01F028FD3C1C4F3473
:100850003B1C4833D2201B211A1C0123FFF7A6FEA4
:10086000031C23703B1C4F331B785BB2002B09D059
:100870003B1C4F331B785BB2994A101CD2211A1CC7
:1008800001F00CFD3B1C483300221A703C1C4F3415
:100890003B1C4833D0201C211A1C0123FFF786FE85
:1008A000031C23703B1C4F331B785BB2002B09D019
:1008B0003B1C4F331B785BB2894A101CD0211A1C99
:1008C00001F0ECFC3C1C4F343B1C4833D2201C2173
:1008D0001A1C0123FFF76AFE031C23703B1C4F33D5
:1008E0001B785BB2002B09D03B1C4F331B785BB2EB
:1008F0007B4A101CD2211A1C01F0D0FC3B1C48334F
:1009000000221A703C1C4F343B1C4833D02023215A
:100910001A1C0123FFF74AFE031C23703B1C4F33B4
:100920001B785BB2002B09D03B1C4F331B785BB2AA
:100930006B4A101CD0211A1C01F0B0FC3C1C4F3437
:100940003B1C4833D22023211A1C0123FFF72EFE23
:10095000031C23703B1C4F331B785BB2002B09D068
:100960003B1C4F331B785BB25D4A101CD2211A1C12
:1009700001F094FC3B1C483302221A703C1C4F349B
:100980003B1C4833D02037211A1C0123FFF70EFEF1
:10099000031C23703B1C4F331B785BB2002B09D028
:1009A0003B1C4F331B785BB24D4A101CD0211A1CE4
:1009B00001F074FC3C1C4F343B1C4833D2203721DF
:1009C0001A1C0123FFF7F2FD031C23703B1C4F335D
:1009D0001B785BB2002B09D03B1C4F331B785BB2FA
:1009E0003F4A101CD2211A1C01F058FC3B1C483312
:1009F00000221A703C1C4F343B1C4833D020382155
:100A00001A1C0123FFF7D2FD031C23703B1C4F333C
:100A10001B785BB2002B09D03B1C4F331B785BB2B9
:100A20002F4A101CD0211A1C01F038FC3C1C4F34FA
:100A30003B1C4833D22038211A1C0123FFF7B6FD96
:100A4000031C23703B1C4F331B785BB2002B09D077
:100A50003B1C4F331B785BB2214A101CD2211A1C5D
:100A600001F01CFC3B1C483300221A703C1C4F3424
:100A70003B1C4833D0206A211A1C0123FFF796FD46
:100A8000031C23703B1C4F331B785BB2002B09D037
:100A90003B1C4F331B785BB2114A101CD0211A1C2F
:100AA00001F0FCFB3C1C4F343B1C4833D2206A2134
:100AB0001A1C0123FFF77AFD031C23703B1C4F33E4
:100AC0001B785BB2002B0DD03B1C4F331B785BB205
:100AD000034A101CD2211A1C01F0E0FB02E0C046C0
:100AE000343100003B1C483300221A703C1C4F3448
:100AF0003B1C4833D0206B211A1C0123FFF756FD05
:100B0000031C23703B1C4F331B785BB2002B09D0B6
:100B10003B1C4F331B785BB2904A101CD0211A1C2F
:100B200001F0BCFB3B1C483300221A703C1C4F34C4
:100B30003B1C4833D2206B211A1C0123FFF736FDE2
:100B4000031C23703B1C4F331B785BB2002B09D076
:100B50003B1C4F331B785BB2804A101CD2211A1CFD
:100B600001F09CFBFA239B00181CFFF7DFFC00231D
:100B70003B653B1DFE221A703B1DDC225A703A1D5C
:100B80004023AB21D1543A1D4123CD21D1543C1CEB
:100B90004F343B1C4833D0203B211A1C0623FFF75F
:100BA00053FD031C23703B6D5B0004333A1DD218C8
:100BB0003B1C4833101C191C022201F05DFB3B6DED
:100BC0005B0009333A1DD2183B1C48330233101C1A
:100BD000191C022201F050FB3B6D5B000E333A1DE5
:100BE000D2183B1C48330433101C191C022201F09C
:100BF00043FB3C1C4F343B1C4833D02043211A1C80
:100C00000623FFF721FD031C23703B6D5B001333AC
:100C10003A1DD2183B1C4833101C191C022201F04B
:100C20002BFB3B6D5B0018333A1DD2183B1C48333D
:100C30000233101C191C022201F01EFB3B6D5B00ED
:100C40001D333A1DD2183B1C48330433101C191CA9
:100C5000022201F011FB3C1C4F343B1C4833D220D4
:100C60003B211A1C0623FFF7EFFC031C23703B6D8E
:100C70005B0022333A1DD2183B1C4833101C191C50
:100C8000022201F0F9FA3B6D5B0027333A1DD218BE
:100C90003B1C48330233101C191C022201F0ECFAF1
:100CA0003B6D5B002C333A1DD2183B1C4833043398
:100CB000101C191C022201F0DFFA3C1C4F343B1CB3
:100CC0004833D22043211A1C0623FFF7BDFC031C26
:100CD00023703B6D5B0031333A1DD2183B1C483307
:100CE000101C191C022201F0C7FA3B6D5B00363361
:100CF0003A1DD2183B1C48330233101C191C022227
:100D000001F0BAFA3B6D5B003B333A1DD2183B1C35
:100D100048330433101C191C022201F0ADFA3B6D5C
:100D200001333B653B6D052B13D100233B6500234D
:100D30007B650BE07B6D3A1DD3181B78084A101CAD
:100D4000191C01F031F97B6D01337B657B6D412B03
:100D5000F0D9C820FFF7EAFB19E7C046343100009C
:100D600000C0004080B586B000AFF860B9607A601E
:100D7000FB681B687B617A68012313407B60BB685A
:100D80000122101C9840031CDB437A691A40BB689F
:100D90007968081C9840031C1A43FB681A60BD461A
:100DA00006B080BD80B584B000AF7860184BDA6BB8
:100DB0003B1C0B33511E8A411A70154B154ADA63DE
:100DC000134B5A6807231340FB607A68124B9A4210
:100DD00006D87A68114B9A4202D90123FB6001E0E0
:100DE0000023FB600A4B0A4A52680721101C884303
:100DF000011CFA680A435A603B1C0B331B78002B1A
:100E000002D0034B0022DA63BD4604B080BDC04669
:100E100000000C40711B00000048E8010024F400B1
:100E200080B582B000AF044B7B607B68181CFFF775
:100E3000B9FFBD4602B080BD40787D0190B583B05A
:100E400000AFFC1C124B181C00F00AFA031C2370A4
:100E5000FB1C1B78032B08D0082B0BD0022B0ED1C8
:100E600001F074F9031C7B600CE001F05FF9031CD6
:100E70007B6007E001F0E2F8031C7B6002E00023E6
:100E80007B60C0467B68181CBD4603B090BDC04661
:100E900005331C0080B582B000AF1A4B5A69E023BD
:100EA000DB00134080229200934216D080229200F1
:100EB000934206D8002B16D08022520093420FD0C6
:100EC00017E0C0229200934204D0E022D200934265
:100ED0000CD00EE00C4B7B600EE00C4B7B600BE00B
:100EE0000B4B7B6008E00B4B7B6005E00A4B7B60A3
:100EF00002E000237B60C0467B68181CBD4602B040
:100F000080BDC04600800C4040420F00C0CF6A0048
:100F1000C0D8A700809FD500406F400190B583B036
:100F200000AFFC1C154B181C00F09AF9031C237031
:100F3000FB1C1B78072B13D0082B16D101F07EF871
:100F4000031C7B600E4B1A68E0235B0213409B0B73
:100F500001337868191C01F003F9031C7B6007E07A
:100F6000FFF798FF031C7B6002E000237B60C04614
:100F70007B68181CBD4603B090BDC0460400180035
:100F800000800C4080B584B000AF78607B68002B97
:100F900002D07B68012B00D1C0461C4B9A6A7B684B
:100FA0005B00DA4003231340012B05D014D3022B3E
:100FB00007D0032B0AD021E001F0B8F8031CFB6036
:100FC0001FE001F0C3F8031CFB601AE001F018F801
:100FD000031C5B08FB6014E00C4B9A6A7B680433CB
:100FE0009B00111CD9400B1C002B04D001F0A6F86B
:100FF000031CFB6005E00023FB6002E00023FB60B4
:10100000C046FB68181CBD4604B080BD00800C4083
:1010100080B582B000AF7860074B5A6D0123134052
:1010200000D005E0C046044B1B6D7A681340FAD12E
:10103000BD4602B080BDC04600800C4080B586B081
:1010400000AF78600A1CFB1C1A7000233B617B68B0
:101050001A0A0F231340072B36D89A001C4BD318BB
:101060001B689F461B4B7B6118E01B4B7B6115E0A7
:101070001A4B7B6112E01A4B7B6101233B610DE04F
:10108000184B7B6110233B6108E0174B7B6105E047
:10109000164B7B6180235B003B61C0467B681A0B6B
:1010A0001F231340FB603B69002B03D03B69181CD6
:1010B000FFF7AEFFFB1C1B787969FA68081C111C4E
:1010C0001A1CFFF74FFE00E0C046BD4606B080BDCB
:1010D0005431000008800C4044800C4040800C409B
:1010E00058800C4060800C4078800C4064800C403C
:1010F00080B584B000AF78607A68F8239B03134012
:1011000080221203934200D16BE0802212039342AB
:1011100013D88022920293423CD0802292029342C2
:1011200002D8002B24D091E08022D20293424DD0ED
:10113000C022D20293424ED088E0C0225203934292
:1011400000D174E0C0225203934208D89022520387
:10115000934256D0A0225203934258D076E0D02238
:101160005203934268D0E0225203934269D06DE06B
:1011700000F064FF031CFB60384B1A68E0235B023D
:1011800013409B0B0133F868191C00F0E9FF031CA6
:10119000FB605EE000F052FF031CFB602F4B1A68FF
:1011A000E0235B0213409B0B0133F868191C00F02D
:1011B000D7FF031CFB60294B9B681A1C0F231340AD
:1011C000FA68111CD9400B1CFB6042E000F018FFCC
:1011D000031CFB603DE00020FFF7D4FE031CFB6016
:1011E00037E00020FFF7CEFE031CFB601B4B9B6E1D
:1011F0001A1C0F231340FA68111CD9400B1CFB600A
:1012000027E00120FFF7BEFE031CFB6021E0012068
:10121000FFF7B8FE031CFB60104B1B6F1A1C032367
:101220001340FA68111CD9400B1CFB6011E0FFF75A
:1012300075FE031CFB600CE0FFF72CFE031CFB603B
:1012400007E0FFF7FBFD031CFB6002E00023FB60EF
:10125000C046FB68181CBD4604B080BD00800C4031
:1012600080B586B000AF78603B1C173301221A703E
:10127000714B3B617A680F231340FB60FB68062BC0
:1012800000D9CDE0FB689A006C4BD3181B689F46D1
:101290006B4BDB6A3A69134080225201934216D0AD
:1012A00080225201934204D880221201934213D02B
:1012B0001CE080229201934204D08022D204934207
:1012C0000FD013E03B1C173302221A7013E03B1CB3
:1012D000173303221A700EE03B1C173304221A70D6
:1012E00009E03B1C17330A221A7004E03B1C173339
:1012F00005221A70C04698E0514B9A6A03231340A6
:10130000022B08D0032B0BD0012B0ED13B1C173323
:1013100003221A7015E03B1C173302221A7010E0EA
:101320003B1C173306221A700BE0454B9A6A802348
:101330005B02134004D03B1C17330B221A7000E0F1
:10134000C04672E03E4B9A6A0C231340082B08D02B
:101350000C2B0BD0042B0ED13B1C173303221A701D
:1013600015E03B1C173302221A7010E03B1C1733A8
:1013700006221A700BE0324B9A6A80235B031340FB
:1013800004D03B1C17330B221A7000E0C0464CE01F
:101390002B4B9A6A30231340102B02D0202B05D000
:1013A00009E03B1C173303221A7009E03B1C17337A
:1013B00002221A7004E03B1C173301221A70C04647
:1013C00033E03B1C173307221A703B1C17330722EC
:1013D0001A702AE01A4BDA6AE023DB0213408022FB
:1013E000920293420CD08022D20293420DD08022EE
:1013F000520293420ED13B1C173302221A700EE0A8
:101400003B1C173303221A7009E03B1C17330922D7
:101410001A7004E03B1C173301221A70C04604E026
:101420003B1C173300221A70C0463B1C17331B7835
:10143000181CBD4606B080BD003C0004743100009D
:1014400000800C4080B588B000AF78600A1CFB1C9F
:101450001A700323FB613B1C1B3303221A70002309
:101460007B617A680F231340FB60FB68062B00D971
:10147000F4E0FB689A007D4BD3181B689F46FB1C69
:101480001B780B2B00D9EBE09A00794BD3181B6823
:101490009F460423FB613B1C1B3300221A701CE097
:1014A0000323FB613B1C1B3301221A7015E002234E
:1014B000FB613B1C1B3302221A700EE00123FB610F
:1014C0003B1C1B3303221A7007E00523FB613B1C06
:1014D0001B3305221A7000E0C0463B1C1B331B78EF
:1014E000181C0121012200F0CFF8FFF799FC614B95
:1014F000FA695A6200F02CF900F082FD031CBB600F
:10150000BB68181CFFF74EFCADE0FB1C1B780B2BD7
:1015100000D9A7E09A00584BD3181B689F460023B8
:101520003B611DE000200121012200F0ADF8022303
:101530003B6115E001200121012200F0A5F8012303
:101540003B610DE04D4B181C02210122FFF70AFC04
:1015500003233B6104E000233B6101237B61C04620
:10156000FB68022B0BD1434B424A916A444A11401B
:101570003A6911437A6912040A439A6273E03D4B57
:101580003C4A916A3F4A11403A69920011437A6994
:1015900012050A439A6266E0FB1C1B78022B07D0F7
:1015A000032B0DD0012B00D05DE000233B610FE049
:1015B00000200121012200F067F802233B6107E0CF
:1015C00001200121012200F05FF801233B61C046A8
:1015D000284B284A926A3021101C8843011C3A6922
:1015E00012010A439A623EE0FB1C1B78032B14D0C5
:1015F000092B22D0022B00D035E00020012101224E
:1016000000F042F81B4B40225A62C046194BDA6A7E
:1016100080235B021340F9D01FE001200121012249
:1016200000F032F8134B60225A62C046114BDA6A5E
:1016300080239B021340F9D00FE0052001210122F5
:1016400000F022F80B4B80225A62C046094BDA6A3E
:101650008023DB021340F9D0C04604E0C04602E01C
:10166000C04600E0C046BD4608B080BD90310000D5
:10167000AC31000000800C40DC31000040800C40A8
:10168000FCFFFEFFF3FFEFFF80B586B000AFFB1D50
:101690001870BB1D19707B1D1A70FB1D1B78062B63
:1016A0004CD89A00284BD3181B689F4601233B61F6
:1016B0000223FB6002237B6128E004233B610823B3
:1016C000FB6008237B6121E010233B612023FB604A
:1016D00020237B611AE040233B618023FB60802351
:1016E0007B6113E080235B003B6180239B00FB60F8
:1016F00080239B007B6109E08023DB003B6180232A
:101700001B01FB608023DB037B61C046BB1D1B7894
:10171000002B0DD00D4B3A691A627B1D1B78002BF4
:1017200009D0C046094BDB6A7A691340FAD002E05F
:10173000064BFA681A6200F00BF802E0C04600E0BF
:10174000C046BD4606B080BD0C32000000800C4093
:1017500080B500AF024BDA6A024B1A60BD4680BD0D
:1017600000800C409800002080B586B000AFF86083
:10177000B9607A60FB681B687B617A68012313405B
:101780007B60BB680122101C9840031CDB437A6914
:101790001A40BB687968081C9840031C1A43FB6810
:1017A0001A60BD4606B080BD80B586B000AFF86057
:1017B000B9607A601A1CFB1C1A707B68002B00D180
:1017C00035E0FB681A681B4B1A40FB681A60FB681F
:1017D0001A68FB1C1B781B021A43FB681A60BB6863
:1017E000002B05D1144B181CFFF782FC031CBB60B7
:1017F000FB1C1B78114AD35C3B617B689B00BA6879
:10180000D21A3B6979684B43101C191C00F0A8FCE4
:10181000031C7B61FB681A680223134004D07B69B8
:10182000002B01D101237B61FB687A691A61BD46F7
:1018300006B080BDFFFCFFFF1081020028320000CF
:1018400080B582B000AF786039607B6800225A634F
:101850007B68114A1A637A683B685B78002B01D079
:10186000002300E00123101C01211A1CFFF77CFF5C
:101870003B6859683B689A683B681B7B7868FFF750
:1018800093FF7A683B681B78101C00211A1CFFF735
:101890006BFFBD4602B080BDCFFF010080B588B0B0
:1018A00000AF78607A68BD4B9A4205D1BC4BBB61F2
:1018B000BB699B687B6101E0FC23ECE17B689B6A70
:1018C0003B613A69C023DB00134014D03A6980239E
:1018D0009B00134003D0BB69FD225A7007E03A69B0
:1018E0008023DB00134002D0BB69FE225A70BB6923
:1018F00009221A70BBE1BB691B78082B00D9AEE145
:101900009A00A84BD3181B689F467B695B881A1CFA
:10191000102313400AD07B691B881B0A9BB21A1C38
:1019200006231340F0221343FB610FE07B691B8801
:101930001A1CFE231340FB617B695B881A1C02237F
:10194000134003D0FB6901221343FB61BB690122F1
:101950001A707B68FA695A627B6801225A6086E1D4
:101960003A69802313400CD07B6880221A63BB69DC
:10197000FF225A70BB6908221A707B6802225A60E3
:1019800030E03A69402313402CD07B6840221A6330
:101990007B695B881A1C102313400AD0BB690222A2
:1019A0001A707B691B881A1CFF231A407B685A62D5
:1019B00018E07B695B881A1C022313400ED0BB69B8
:1019C00007221A70BB691B797A69DB00D3181B895F
:1019D000012B07D17B6808225A6048E1BB690522C8
:1019E0001A7043E143E13A69802313400CD07B68CD
:1019F00080221A63BB69FF225A70BB6908221A70E1
:101A00007B6802225A6014E03A694023134010D0E8
:101A10007B6840221A637B695B881A1C022313408F
:101A200003D0BB6903221A7020E1BB6905221A703A
:101A30001CE11CE17B695B881A1C102313400AD04F
:101A40007B691B881B0A9BB21A1C06231340F022D9
:101A50001343FB6105E07B691B881A1CFE231340BE
:101A6000FB617B695B881A1C0423134003D0FB696C
:101A700001221343FB61BB6904221A707B680122B7
:101A80005A607B68FA695A62F1E03A698023134030
:101A90000CD07B6880221A63BB69FF225A70BB6935
:101AA00008221A707B6802225A6014E03A694023C7
:101AB000134010D07B6840221A637B695B881A1C34
:101AC0000423134003D0BB6907221A7003E0BB69EB
:101AD00005221A70CAE0CAE0BB695A88BB691B7943
:101AE0007969DB00CB181B899A4224D3BB69002299
:101AF0005A80BB691B790133DAB2BB691A717B6901
:101B00005B881A1C0423134003D0BB6903221A709C
:101B1000ACE07B695B881A1C0123134003D1BB69CD
:101B20001B79012B06D9BB6908221A707B68022237
:101B30005A609CE09AE0BB691B797A69DB00D31894
:101B400004331A68BB695B88591C88B2B96948803C
:101B5000D3181B781A1C7B685A62BB6906221A705C
:101B600085E03A69802313400CD07B6880221A6399
:101B7000BB69FF225A70BB6908221A707B68022277
:101B80005A600AE03A694023134006D07B6840223D
:101B90001A63BB6905221A7068E068E000A0004083
:101BA0009C0000202C3200003A692023134047D0CB
:101BB000BB691B797A69DB00D3181B89FB607B68E2
:101BC000DA693B1C0B331A70BB695B881A1CFB6813
:101BD0009A4211D2BB691B797A69DB00D3180433AE
:101BE0001A68BB695B88591C88B2B9694880D318E8
:101BF0003A1C0B3212781A70BB695B881A1CFB689E
:101C00009A420CD3FB68012B02D17B6808225A60F0
:101C1000BB6908221A707B6802225A6010E07B6858
:101C200004225A60FB68012B0AD9BB695B881A1C25
:101C3000FB68013B9A4203D17B6808225A6016E098
:101C400015E03A6980235B00134007D07B6880224F
:101C500052001A63BB6909221A7008E007E0BB69E9
:101C6000FB225A70BB6909221A7000E026E6BB69A4
:101C70001B78092B0BD17B6800225A63BB695B7808
:101C80005BB2012B05D1BB6900225A7001E0012330
:101C900001E0BB695B785BB2181CBD4608B080BD33
:101CA00080B584B000AF786039607A68274B9A427B
:101CB00007D1274BFB607B689A680123134005D04E
:101CC00001E0FC233DE07B6820225A603B685B8892
:101CD0001A1C0223134003D03B681B89002B09D038
:101CE0003B685B881A1C0423134005D03B681B8AA1
:101CF000002B01D1FC2324E0FB6800221A70FB6852
:101D000001225A70FB6800225A80FB6800221A7177
:101D1000FB683A689A607B68C0225A607B689A6A5E
:101D20002023134001D07B68DB697B68094A1A6372
:101D30007B68FC22D2005A637B68181CFFF7AEFD5B
:101D4000031C5BB2181CBD4604B080BD00A000405F
:101D50009C000020CFFF010080B586B000AFF86086
:101D6000B9607A601A1CFB1C1A70BB68002B05D185
:101D7000294B181CFFF7BCF9031CBB60FB1C1B782C
:101D8000202B0BD002DC002B05D042E0402B08D0EA
:101D9000602B0ED03DE010237B610DE008237B61BA
:101DA0000AE0BB68181C062100F0DAF906237B6103
:101DB00002E004237B61C046BB689A007B697968B6
:101DC0004B435B08D3183B617B697A68534338699E
:101DD000191C00F0C5F9031C3B613B69043B3B61E6
:101DE0003B699B013B613A690C4B13403B61FB68CB
:101DF0001B686022191C91430A1CFB681A60FB686F
:101E00001A68FB1C1B781A43FB681A60FB683A6966
:101E10005A61BD4606B080BD10810200F8FF1F0068
:101E200080B582B000AF786039607A681F4B9A4203
:101E300003D07A681E4B9A4200D1C0467B68181CBA
:101E400000F066F83B689B7C002B06D07B681B6823
:101E50008022D2051A437B681A603B68DB7C002B2A
:101E600007D03B681B7D10221343DBB21A1C7B6832
:101E70009A653B685B7B1A1C3B681B8A1A433B686C
:101E8000DB891A437B685A603B6859683B689A68EB
:101E90003B681B7B7868FFF75FFF3B681B781A1C69
:101EA0007B68DA60BD4602B080BDC04600C000401D
:101EB00000C4004080B584B000AF786039607B68B2
:101EC0009B6877229343FB603B681B78002B03D011
:101ED000FB6840221343FB603B689B78002B03D0D8
:101EE000FB6820221343FB603B685B78002B03D028
:101EF000FB6810221343FB603B68DB78FA681343EE
:101F0000FB607B68FA689A60BD4604B080BDC0463D
:101F100080B582B000AF78607A681E4B9A4203D0D9
:101F20007A681D4B9A4200D1C0467B681B4ADA6032
:101F30007B6800221A607B68194A5A607B6800221D
:101F40009A607B6800225A617B680022DA647B68B1
:101F5000144A9A647B6800225A657A680D4B9A424B
:101F600003D07A680C4B9A4202D17B6800221A6532
:101F70007B6800229A657A68064B9A4203D07A6899
:101F8000054B9A4202D17B680022DA65BD4602B059
:101F900080BDC04600C0004000C40040AA0E000042
:101FA00005100000F91F000080B582B000AF786016
:101FB0000A1CFB1C1A70C0467B681A694023134038
:101FC000FAD0FB1C1A787B685A63BD4602B080BD0C
:101FD000064880470649074A074B9B1A03DD043B26
:101FE000C858D050FBDCFEF785F800002521000022
:101FF000F83200000000002078000020FEE7C04614
:1020000080B582B000AF00F019F8031C7B60094B6B
:102010005B681A1C0F2313407A68111CD9400B1CF3
:102020007B60054B7A681A607B68181CBD4602B05D
:1020300080BDC04600800C40B400002080B582B056
:1020400000AF2E4BDA6A2E4B13408022520193428E
:1020500015D080225201934204D88022120193426B
:1020600011D017E080229201934204D08022D20442
:1020700093420CD00EE0234B1B687B6039E0802339
:102080001B027B6035E0204B1B687B6031E01F4BFF
:102090007B602EE0194BDA68E023DB0013408022DE
:1020A0009200934218D080229200934206D8002BCF
:1020B00018D080225200934211D016E0C022920024
:1020C000934206D08022D20093420ED1104B7B6007
:1020D0000EE0104B7B600BE00F4B7B6008E00F4B7A
:1020E0007B6005E00E4B7B6002E000237B60C04616
:1020F000C0467B68181CBD4602B080BD00800C4005
:10210000003C0004040000200000002000366E01A6
:10211000406F4001809FD500C0D8A70040B5640043
:10212000804F120080B500AFBD4680BD80B500AFC6
:1021300080231B02181CBD4680BDC04680B500AF81
:10214000FA239B00181CBD4680BDC04680B500AF79
:10215000024B1B68181CBD4680BDC0460400002011
:10216000002934D00123002210B488422CD301244A
:102170002407A14204D2814202D209011B01F8E7DF
:10218000E400A14204D2814202D249005B00F8E798
:10219000884201D3401A1A434C08A04202D3001BC4
:1021A0005C0822438C08A04202D3001B9C082243F7
:1021B000CC08A04202D3001BDC082243002803D035
:1021C0001B0901D00909E3E7101C10BC7047002867
:1021D00001D00020C04307B4024802A14018029079
:1021E00003BDC046190000000029F0D003B5FFF779
:1021F000B9FF0EBC4243891A1847C0467047C04613
:10220000084B10B5041C002B02D0002100E000BFD9
:10221000054B1868836A002B00D09847201C00F0FB
:1022200067FFC046000000005432000070B50E4B3E
:102230000E4D0024ED1AAD101E1CAC4204D0A300BC
:10224000F35898470134F8E700F054FF084B094D64
:102250000024ED1AAD101E1CAC4204D0A300F358AC
:1022600098470134F8E770BD6C0000206C00002036
:102270006C0000207000002010B50023934203D0B2
:10228000CC5CC4540133F9E710BD031C821893429F
:1022900002D019700133FAE7704700000FB40B4BFE
:1022A00013B51C68002C05D0A369002B02D1201C9B
:1022B00000F09CFC05ABA168201C049A019300F07F
:1022C0002FF816BC08BC04B01847C04668000020B0
:1022D000936810B5013B9360002B05DA9469A34223
:1022E00008DBCBB20A2B05D01368581C106019709C
:1022F000C8B201E000F0A6FA10BDF8B5061C0F1C2C
:10230000141CD518AC4208D02178301C3A1CFFF7B9
:10231000DFFF0134431CF5D100E00020F8BD0000D0
:10232000F0B59FB0061C0F1C03920593002804D043
:102330008169002901D100F059FC754B9F4201D100
:10234000776808E0734B9F4201D1B76803E0724B96
:102350009F4200D1F768BB891A070AD53B69002B59
:1023600007D006AD00236B6120236B763023AB765C
:102370003BE0301C391C00F0BDFA0028F1D00120F0
:102380004042C2E0059A111D12680591002A76DBD1
:102390000992013423782E2B00D181E021785F4807
:1023A000032200F0E3FC002807D05C492A68431AA6
:1023B000402098401043286001342178631C58481D
:1023C00006220393297600F0D1FC002800D18AE090
:1023D000544B002B7ED1059B0722073393430833D0
:1023E00005936A69049953186B61039C2378002B49
:1023F00004D10399611A029110D003E0252BF8D083
:102400000134F3E7301C391C039A029BFFF775FF78
:10241000013075D06A69029953186B612378002BDB
:102420006ED0012252426A606A4600235B32013458
:102430002B60EB60AB601370AB6521783A480522E6
:1024400000F094FC002808D0374A0134831A012098
:1024500098402B6818432860EFE72B68D90603D50E
:102460006A4620215B3211701A0703D56A462B2178
:102470005B32117022782A2A84D0099B05E05242EF
:10248000EA60022213432B6083E72278303A092A5C
:1024900004D80A214B4301349B18F6E7099379E7E6
:1024A00063782A2B09D1059B02341A1D1B680592FB
:1024B000002B0DDA01235B420AE00134002322786D
:1024C000303A092A04D80A214B4301349B18F6E715
:1024D000079363E705AB0093301C291C3A1C134B90
:1024E00000E000BF07E005AB0093301C291C3A1C3C
:1024F0000E4B00F091F804900499013100D070E780
:10250000BB895A0600D53AE70B981FB0F0BDC0460C
:102510008C320000AC320000CC3200005E32000091
:10252000623200000000000058320000FB22000070
:10253000F7B5151C01930A698B68061C0C1C9342A5
:1025400000DA131C221C2B6043321278002A01D0BF
:1025500001332B602068800602D52B6802332B6084
:10256000216806270F401FD0231C43331B785A1EB7
:102570009341226892061FD5E11840313020C8707F
:10258000211C5A1C45310978A21840320233D170FF
:1025900012E0221C301C019919320123089FB84710
:1025A000013011D0009F01370097E0682968009F33
:1025B000431A9F42EDDBD7E7221C301C01994332BE
:1025C000089FB847013002D10120404223E0206833
:1025D00006212B68E26801400025042903D1D51AA1
:1025E000EB43DB171D40A26823699A4201DDD31A31
:1025F000ED1800270097009FAF420BDA221C301C19
:1026000001991A320123089FB8470130DCD0009F9E
:102610000137EFE70020FEBDF0B58BB007930D1C2E
:102620000B7E4335069205900C1C109A04956E2B78
:1026300000D1A7E011D8632B22D009D8002B00D1FC
:10264000B0E0582B00D0C0E045310B707B4D4EE020
:10265000642B1CD0692B1AD0B7E0732B00D1A5E0F6
:1026600009D86F2B29D0702B00D0AEE00E68202344
:1026700033430B6036E0752B1FD0782B32D0A4E0AB
:1026800013680D1C191D423511601B689FE02168FD
:1026900013680E0603D5191D11601E6805E0480673
:1026A000F9D5191D116000215E5E644B002E3BDAE6
:1026B000049D2D2276422A7036E0216813680E06AA
:1026C00003D5191D11601E6804E04806F9D5191DCF
:1026D0001E881160594B227E039308276F2A1ED053
:1026E0000A271CE0231C78214533554D19701168C9
:1026F0002368081D039510601E0601D50E6802E0D0
:102700005806FBD50E88D90702D520221343236033
:102710001027002E03D1226820239A432260231C15
:10272000002243331A7001E003930A276368A36011
:10273000002B03DB2568042295432560002E02D17F
:10274000049D002B0ED0049D301C391CFFF74CFD5E
:102750000398013D435C301C2B70391CFFF700FDD2
:10276000061EF1D1082F09D12168C90706D5626874
:1027700023699A4202DC013D30232B70049E731BB7
:1027800023612AE0086813684969050604D5181D05
:1027900010601B68196005E04606F8D5181D10602A
:1027A0001B68198000232361049D16E01368191D1E
:1027B00011601D68281C00F0DFFB636820619842EF
:1027C00000D923612069606004E0251C42352B702C
:1027D00001232361049E00233370079E0598009611
:1027E000211C09AA069BFFF7A3FE013002D101209C
:1027F000404221E02A1C059806992369079DA847B5
:102800000130F4D02668B60705D4099BE0689842E9
:1028100012DA181C10E00025E0680999431A9D425D
:10282000F3DA221C0598069919320123079EB04756
:102830000130DCD00135EFE70BB0F0BD69320000AC
:102840007A32000070B5051C0E1C141C002804D040
:102850008269002A01D100F0C9F9234B9C4201D1C1
:102860006C6808E0214B9C4201D1AC6803E0204B2E
:102870009C4200D1EC68A369A360A3891A070AD51A
:102880002369002B07D022682369F6B2D01A626947
:1028900090420FDB08E0281C211C00F02BF80028D8
:1028A000F1D0012040421DE0281C211C00F01EF93F
:1028B0000028F6D1A3680130013BA36023685A1CAD
:1028C00022601E706369984205D0A389301CDA0724
:1028D00008D50A2E06D1281C211C00F007F9002873
:1028E000DFD1301C70BDC0468C320000AC3200001D
:1028F000CC320000344B70B51D68061C0C1C002D3A
:1029000005D0A969002902D1281C00F06FF92F4BCE
:102910009C4201D16C6808E02D4B9C4201D1AC680F
:1029200003E02C4B9C4200D1EC68A28993B21907BA
:1029300021D4D90605D40923336040231A43A28148
:102940003FE05A0713D5616B002908D0231C44339C
:10295000994202D0301C00F015FA00236363A3896A
:1029600024229343A3810023636023692360A38906
:1029700008221343A381216900290BD1A389A02236
:1029800092001A4080239B009A4203D0301C211CE5
:1029900000F09CF9A38901221A4005D06169002248
:1029A000A2604A42A26103E0990700D46269A26072
:1029B00022690020824206D1190604D54022134321
:1029C000A3810120404270BD680000208C320000CD
:1029D000AC320000CC320000F7B58B89051C0C1C12
:1029E00019075ED46268002A02DC276C002F1ADD0A
:1029F000E76A002F17D000222E682A608022520139
:102A00001A4001D0626D15E0281C216A0123B847E5
:102A1000021C411C0ED12B68002B0BD01D2B01D0AA
:102A2000162B02D12E6000205EE0A38940210B43CB
:102A3000A38159E0A3895F0706D56168636B521AC9
:102A4000002B01D0276CD21B281C216A0023E76AC7
:102A5000B847A289411C06D12B68002B03D01D2B3F
:102A600001D0162B19D10023636023692360D7049A
:102A700005D5411C02D12A68002A00D16065616B2E
:102A80002E600029CFD0231C4433994202D0281C49
:102A900000F078F90020606326E040231A43A28109
:102AA00022E02669002EBED027680022BF1B0197B6
:102AB0002660990700D16269A260019F002FB2DDF4
:102AC000281C216A321C019BA76AB847002806DC33
:102AD000A389402213430120A381404204E0019FC7
:102AE00036183F1A0197E8E7FEBD00000A6938B5BD
:102AF000051C0C1C002A01D100201CE0002804D079
:102B00008369002B01D100F071F80B4B9C4201D17D
:102B10006C6808E0094B9C4201D1AC6803E0084BAB
:102B20009C4200D1EC680C22A35E002BE4D0281C50
:102B3000211CFFF751FF38BD8C320000AC32000081
:102B4000CC320000F8B5041C071C4834002C12D00D
:102B5000A5686668013E0CD4AB89012B07D90E220B
:102B6000AB5E013303D0381C291CFFF7BFFF68356B
:102B7000F0E72468EAE7F8BD002310B5041C036001
:102B80004360836081814366C281036143618361E5
:102B9000191C08225C30FFF778FB054B2462636246
:102BA000044BA362044BE362044B236310BDC04695
:102BB000E12E0000092F0000412F00006D2F0000C2
:102BC00070B54B1E68255D430E1C291C743100F046
:102BD00021F9041E08D00021016046602A1C0C3037
:102BE000A0606832FFF751FB201C70BD836913B5EC
:102BF000041C002B27D18364C3640365124B134A62
:102C00001B688262984201D101238361201C00F07D
:102C10001FF86060201C00F01BF8A060201C00F072
:102C200017F80421E06000226068FFF7A5FFA068A4
:102C300009210122FFF7A0FFE06812210222FFF71D
:102C40009BFF0123A36113BD54320000452B0000FC
:102C5000F8B51D4B071C1E68B269002A02D1301C52
:102C6000FFF7C4FF4836B4687368013B05D40C22F3
:102C7000A55E002D10D06834F7E73368002B06D12D
:102C8000381C0421FFF79CFF3060002801D0366813
:102C9000E9E70C233B6016E001235B42E381201C43
:102CA0000123A38165662560A56065602561656176
:102CB000A5615C30291C0822FFF7E7FA6563A5636C
:102CC000A564E564201CF8BD54320000F0B58B8982
:102CD00091B0051C0C1C9A0725D40E23C95E00294F
:102CE00006DAA78980231F400FD0002740260EE078
:102CF00001AA00F06FF90028F3DB029BF0273F02E6
:102D0000184A1F40BF187B425F418026F600281CEE
:102D1000311C00F07FF800280CD1A3899A051FD43C
:102D200002221343A381231C473323602361012321
:102D3000636115E00C4B8022AB62A38920601343D2
:102D4000A38120616661002F0AD00E23E15E281C5A
:102D500000F052F9002803D0A38901221343A38174
:102D600011B0F0BD00E0FFFF452B0000C9B2821892
:102D7000904204D003788B4202D00130F8E7002063
:102D80007047000030B5002940D004390B68002B93
:102D900000DAC9181E4A1368141C002B02D14B60BC
:102DA000116033E099420FD208680A189A4205D19F
:102DB00013685268C01808604A6000E04B602160E8
:102DC00024E08A4203D8131C5A68002AF9D11D68EE
:102DD0005C198C420BD10968691858181960904227
:102DE00014D114685268091919605A600EE08C42B7
:102DF00002D90C23036009E008680C18944203D13F
:102E000014685268001908604A60596030BDC046B5
:102E1000AC00002070B50323CD1C9D430835061C73
:102E20000C2D01D20C2501E0002D3FDB8D423DD35E
:102E3000204B1C681A1C211C002913D00868431B56
:102E40000DD40B2B02D90B60CC181EE08C4202D1A2
:102E5000636813601AE0486860600C1C16E00C1C84
:102E60004968E9E7144C2068002803D1301C00F0C1
:102E700025F82060301C291C00F020F8431C15D0D8
:102E8000C41C03239C4384420AD12560201C0B30C0
:102E90000722231D9043C31A0BD05A42E25008E088
:102EA000211A301C00F00AF80130EED10C233360F7
:102EB000002070BDAC000020A800002038B5074CF1
:102EC0000023051C081C236000F0F8F8431C03D104
:102ED0002368002B00D02B6038BDC046B80000200E
:102EE00038B50C1C0E25495F00F0ACF8002803DB58
:102EF000626D1318636503E0A289024B1340A3813E
:102F000038BDC046FFEFFFFFF8B51E1C8B89051CBE
:102F10000C1C171CDA0505D50E23C95E00220223FE
:102F200000F07CF8A289054B281C1340A3810E22D7
:102F3000A15E331C3A1C00F027F8F8BDFFEFFFFF3D
:102F400038B50C1C0E25495F00F068F8A389421CB7
:102F500003D1054A1340A38104E0802252011343A8
:102F6000A381606538BDC046FFEFFFFF08B50E23A3
:102F7000C95E00F01DF808BD0023C25C0133002AC1
:102F8000FBD1581E7047000038B5084C051C0020C6
:102F90002060081C111C1A1CFDF7DCFA431C03D12D
:102FA0002368002B00D02B6038BDC046B80000203D
:102FB00038B5074C0023051C081C236000F056F8A8
:102FC000431C03D12368002B00D02B6038BDC046C2
:102FD000B800002038B5074C0023051C081C111C44
:102FE000236000F04BF8431C03D12368002B00D072
:102FF0002B6038BDB800002038B5074C0023051CF5
:10300000081C236000F042F8431C03D12368002B06
:1030100000D02B6038BDC046B800002038B5084C41
:10302000051C00202060081C111C1A1C00F036F83A
:10303000431C03D12368002B00D02B6038BDC04651
:10304000B800002038B5084C051C00202060081C82
:10305000111C1A1C00F02AF8431C03D12368002B12
:1030600000D02B6038BDC046B8000020024B58226B
:10307000012040421A607047B8000020024B5822DD
:10308000012040421A607047B8000020024B5822CD
:1030900000201A607047C046B8000020024B58223A
:1030A000012040421A607047B8000020024B5822AD
:1030B000012040421A607047B8000020094A136896
:1030C000002B0CD018186946884202D81060181CD2
:1030D0007047054B0C2201201A604042F8E7034B71
:1030E0001360EFE7B0000020B8000020C00000200F
:1030F000FEE7C046F8B5C046F8BC08BC9E4670471F
:10310000F8B5C046F8BC08BC9E46704705000000F4
:103110000000000000C201000005000000100000D7
:10312000000000000101000000000000486B0100E9
:10313000000000006932635472616E736665724606
:1031400061696C5B25785D2C20726574203D256477
:103150000A000000C8100000641000006A1000009F
:103160007010000076100000801000008A1000002F
:10317000901000002014000090120000F8120000CF
:1031800044130000C2130000D41300009013000089
:103190005C1600007E1400000A1500000A150000ED
:1031A0005C160000E815000098150000601600008D
:1031B0006016000092140000A0140000AE1400007D
:1031C000BC140000601600006016000060160000CD
:1031D00060160000CA140000D81400006416000035
:1031E0001E150000241500003415000064160000B0
:1031F0006416000044150000641600006416000008
:10320000641600006416000056150000E416000065
:10321000D6160000BA160000AC160000C816000052
:10322000F816000040170000080911080A190000EC
:1032300060190000E6190000341A00008A1A000024
:10324000D81A0000621B0000A81B0000421C0000EE
:103250004300000008000020232D302B2000686C64
:103260004C006566674546470030313233343536A9
:1032700037383941424344454600303132333435E2
:10328000363738396162636465660000000000000B
:10329000000000000000000000000000000000002E
:1032A000000000000000000000000000000000001E
:1032B000000000000000000000000000000000000E
:1032C00000000000000000000000000000000000FE
:1032D00000000000000000000000000000000000EE
:1032E00000000000000000000000000000000000DE
:0832F00004CEFF7F0100000085
:1032F80000366E0100800000000000008C320000E3
:10330800AC320000CC3200000000000000000000D9
:103318000000000000000000503200000000000023
:103328000000000000000000000000000000000095
:103338000000000000000000000000000000000085
:103348000000000000000000000000000000000075
:10335800000000000000000008000020BD00000080
:083368009500000000000000C8
:0400000300001FD109
:00000001FF
