:1000000000200020A5650000D1650000D16500003A
:10001000D1650000D1650000D1650000D165000008
:10002000D1650000D1650000D1650000D1650000F8
:10003000D1650000D1650000D1650000993B00004A
:10004000D1650000D1650000D1650000D1650000D8
:10005000D1650000D1650000D1650000D1650000C8
:10006000D1650000D165000059470000D16500004E
:10007000D1650000D1650000D1650000D1650000A8
:10008000D1650000F5460000D1650000D165000093
:10009000D165000010B5064C2378002B07D1054B25
:1000A000002B02D0044800E000BF0123237010BDE4
:1000B0008400002000000000ACF0000008B5084BF0
:1000C000002B03D00748084900E000BF0748036839
:1000D000002B03D0064B002B00D0984708BDC0462C
:1000E00000000000ACF0000088000020800000202C
:1000F00000000000164B002B00D1144B9D464022FF
:1001000092029A1A924600218B460F461348144ACF
:10011000121A09F098FB0F4B002B00D098470E4B9A
:10012000002B00D098470020002104000D000D484E
:10013000002802D00C4800E000BF09F055FB200069
:10014000290003F005FE09F039FBC0460000080055
:1001500000200020000000000000000084000020BB
:10016000300E0020000000000000000080B500AF4D
:1001700000F00AF800F02CF800F080F800F0A2F887
:1001800000F07AFABD4680BD80B500AF1120052190
:1001900004F0BEFE0A4B181C012104F0B5FC094B0B
:1001A000181C012104F0B0FC074B181C012104F0BD
:1001B000ABFC064B181C012104F0A6FCBD4680BD1B
:1001C00000B20400000204000032040000820400B7
:1001D00090B589B000AF3B1C0833264A13CA13C33D
:1001E00013CA13C33B1C0833E12252029A603B1C22
:1001F000083305225A733B1C08330022DA813B1C6A
:100200000833802252011A823B1C083300221A73E1
:100210003B1C083300229A743B1C08330022DA741A
:100220003B1C083300221A75134A3B1C0833101C70
:10023000191C05F0C5FD3B1D00221A703B1D002254
:100240005A703B1D00229A703B1D0022DA703B1D44
:1002500000225A703B1D00229A703B1D0022DA706A
:10026000054A3B1D101C191C05F0F4FDBD4609B0E4
:1002700090BDC046D4A6000000C0004090B585B037
:1002800000AF3B1C0C4A13CA13C312681A603B1C14
:1002900001221A703B1C01225A703B1C074A9A60CB
:1002A0003B1C00221A73064A3B1C101C191C05F04B
:1002B000FFF8BD4605B090BDECA60000486B0100FC
:1002C00000A0004090B595B000AF3B1C4033012228
:1002D0001A703B1C403300225A703B1C40330022F2
:1002E0009A703B1C40330022DA703B1C40330022E2
:1002F0001A713B1C403300225A713B1C40330022D0
:100300009A713B1C40330022DA713B1C40330022BF
:100310001A723B1C403300225A723B1C40330022AD
:100320009A723B1C40330022DA723B1C403300229D
:100330001A733B1C403301221A703B1C40330022CD
:100340005A703B1C403300225A723B1C403300223F
:100350001A733B1C40330022DA703B1C40330022EE
:100360009A703B1C403300229A713B1C40330022A0
:10037000DA713B1C403300221A723B1C40330022CE
:100380009A723B1C40330022DA723B1C403300223D
:100390001A713B1C403300225A71B54A3B1C403352
:1003A000101C191C05F046FB3B1C343300221A704C
:1003B0003B1C343300225A703B1C343300229A70A9
:1003C0003B1C34330022DA703B1C343300221A7198
:1003D0003B1C343300225A713B1C343300229A7187
:1003E0003B1C34330022DA713B1C343300221A7276
:1003F0003B1C343300225A723B1C343300229A7265
:100400003B1C343300221A723B1C343300229A7096
:100410003B1C343300225A703B1C343300229A7147
:100420003B1C343300221A703B1C34330022DA7137
:100430003B1C343300221A713B1C34330022DA7027
:100440003B1C343300225A713B1C343300225A7255
:100450003B1C343300229A72854A3B1C3433101CF7
:1004600000211A1C05F064FB3B1C283300221A7083
:100470003B1C283300225A703B1C283300229A7000
:100480003B1C28330022DA703B1C283300221A71EF
:100490003B1C283300225A713B1C283300229A71DE
:1004A0003B1C28330022DA713B1C283300221A72CD
:1004B0003B1C283300225A723B1C283300229A72BC
:1004C0003B1C283300221A723B1C283300229A70EE
:1004D0003B1C283300225A703B1C283300229A719F
:1004E0003B1C283300221A703B1C28330022DA718F
:1004F0003B1C283300221A713B1C28330022DA707F
:100500003B1C283300225A713B1C283300225A72AC
:100510003B1C283300229A72554A3B1C2833101C7E
:1005200001211A1C05F004FB3B1C1C3300221A702D
:100530003B1C1C3300225A703B1C1C3300229A7057
:100540003B1C1C330022DA703B1C1C3300221A7146
:100550003B1C1C3300225A713B1C1C3300229A7135
:100560003B1C1C330022DA713B1C1C3300221A7224
:100570003B1C1C3300225A723B1C1C3300229A7213
:100580003B1C1C3300221A723B1C1C3300229A7045
:100590003B1C1C3300225A703B1C1C3300229A71F6
:1005A0003B1C1C3300221A703B1C1C330022DA71E6
:1005B0003B1C1C3300221A713B1C1C330022DA70D6
:1005C0003B1C1C3300225A713B1C1C3300225A7204
:1005D0003B1C1C3300229A72254A3B1C1C33101C06
:1005E00002211A1C05F0A4FA3B1C224A13CA13C3A9
:1005F00013CA13C312681A603B1C00221A703B1CFA
:1006000000225A703B1C00229A703B1C0022DA70B8
:100610003B1C00221A713B1C00225A713B1C002219
:100620009A713B1C01229A603B1C0122DA603B1C40
:1006300001221A753B1C01225A753B1C0022DA75F7
:100640003B1C0022DA753B1C00225A763B1C002220
:100650005A763B1C01229A763B1C00221A61044AFE
:100660003B1C101C191C05F0C1FABD4615B090BD0D
:1006700000000140FCA6000080B500AF324B324ABA
:10068000D26C0F218A4304210A43DA642E4B2E4A8E
:10069000D26CF0218A4310210A43DA642A4B2A4A99
:1006A000116F2A4A0A40B02109050A431A67264BEE
:1006B000254A126F12011209B02109060A431A676E
:1006C000214A21499823C958214B0B408021C90058
:1006D00019439823D1501C4A1B499823C9581D4BD4
:1006E0000B408021490119439823D150164A1649DD
:1006F0009823C958184B0B408021C90219439823ED
:10070000D150114A10499823C958144B0B408021ED
:10071000C90319439823D150114B114A916B114AC7
:100720000A40802149000A439A630D4B0C4A926BA0
:1007300003210A439A630C4B0B4A526D03210A436F
:100740005A65BD4680BDC04600600040FFFFFFF017
:10075000FFF0FFFFFF0FFFFFFFFFF0FFFFFF0FFFA7
:1007600000A00040FFF8FFFF00C00040F0B5D3B08C
:1007700000AFEF4BA4204000C019C31800221A603C
:10078000EB4BA4214900C919CB1800225A60E84B51
:10079000A4225200D219D31800229A60E44BA42458
:1007A0006400E419E3180022DA60E14BA420400061
:1007B000C019C31800221A61DD4BA4214900C919D0
:1007C000CB1800225A610023A2225200D2191360D2
:1007D0006AE00023A0246400E419236039E0D44BCC
:1007E000A4204000C019C318A2214900C9190A68F1
:1007F0009200D458CF49A2235B00DB191A68131C5E
:100800009B009B189B00A0204000C01902689B1809
:100810005B005B5A1BB2181C07F012F9031C201C6A
:10082000191C06F001FB031C191CC14BA422520029
:10083000D219D318A2246400E41922689200D1507E
:10084000A0204000C01903680133A0214900C91944
:100850000B60A0225200D2191368132BBFDDB44BDA
:10086000A4246400E419E318A2204000C01902681F
:100870009200D358181CB04906F042FC031C191C06
:10088000AB4BA4225200D219D318A2246400E4195D
:1008900022689200D150A2204000C01903680133A1
:1008A000A2214900C9190B60A2225200D219136873
:1008B000052B8EDD0023A2246400E41923601FE1D0
:1008C0000023A0204000C019036009E19B49A22336
:1008D0005B00DB191A68131C5B009B185B00A024EB
:1008E0006400E41922689B189B0000225A50944B24
:1008F000A4204000C019C118A2235B00DB191A68AC
:10090000131C5B009B185B00A0246400E4192268A0
:100910009B189B0000225A50894BA4204000C0190C
:10092000C118A2235B00DB191A68131C5B009B181B
:100930005B00A0246400E41922689B189B005858AF
:10094000391CAC31A2235B00DB191A68131C5B0055
:100950009B185B00A0246400E41922689B189B008C
:10096000585000239E204000C019036080E0391CCD
:10097000AC31A2235B00DB191A68131C5B009B18C7
:100980005B00A0246400E41922689B189B005C585B
:100990006849A2204000C0190268131C9B009B18E4
:1009A0009B009E204000C01902689B185B005B5AA8
:1009B0001BB2181C07F044F8021C5D4BA42149002F
:1009C000C919CB18A2204000C01901688900CB5872
:1009D000101C191C06F09EFE031C1D1C5549A0236B
:1009E0005B00DB191A68131C9B009B189B009E2060
:1009F0004000C01902689B185B005B5A1BB2181CB0
:100A000007F01EF8021C4A4BA4214900C919CB1853
:100A1000A0204000C01901688900CB58101C191C87
:100A200006F078FE031C281C191C06F047FD031C69
:100A3000201C191C06F0F8F9031C181C391CAC31D9
:100A4000A2235B00DB191A68131C5B009B185B0078
:100A5000A0246400E41922689B189B0058509E2033
:100A60004000C019036801339E214900C9190B6079
:100A70009E225200D2191368132B00DC77E7391C31
:100A8000AC31A2235B00DB191A68131C5B009B18B6
:100A90005B00A0246400E41922689B189B005B584B
:100AA000181C254906F02CFB031C181C391CAC3102
:100AB000A2235B00DB191A68131C5B009B185B0008
:100AC000A0246400E41922689B189B005850A020C1
:100AD0004000C01903680133A0214900C9190B6007
:100AE000A0225200D2191368052B00DCEEE6A224E6
:100AF0006400E41923680133A2204000C019036098
:100B0000A2214900C9190B68052B00DCD8E6002397
:100B1000A2225200D21913603BE1A2246400E4191E
:100B200023680133A0204000C019036021E1C046C2
:100B3000BCFEFFFFD00800200000A041B80B002041
:100B4000D4FEFFFF391CAC31A2235B00DB191A680D
:100B5000131CDB009B1A9B005958381CAC30A02496
:100B60006400E4192268131CDB009B1A9B001B58CD
:100B7000081C191C06F0A2FC031C181C002106F01E
:100B800025F9031C002B5CD1391CAC31A22040009C
:100B9000C0190268131C5B009B185B00A024640052
:100BA000E41922689B189B005B58181C08F000FD94
:100BB000051C0E1C391CAC31A2204000C019026873
:100BC000131CDB009B1A9B005958381CAC30A02327
:100BD0005B00DB191A68131CDB009B1A9B001B5877
:100BE000081C191C06F06AFC031C181C08F0E0FC29
:100BF000031C0C1C181C211C05F076FE031C0C1C8D
:100C0000281C311C1A1C231C07F09AFA031C0C1C0C
:100C1000181C211C08F01EFD634BA4246400E41979
:100C2000E118A2235B00DB191A68131C5B009B18F8
:100C30005B00A0246400E41922689B189B005850B4
:100C400014E0594BA4204000C019C118A2235B0036
:100C5000DB191A68131C5B009B185B00A02464005E
:100C6000E41922689B189B0000225A504E4BA42086
:100C70004000C019C118A2235B00DB191A68131CBD
:100C80005B009B185B00A0246400E41922689B1899
:100C90009B005B58181CFC21890506F09DF8031C7D
:100CA000002B31D0404BA4204000C019C118A22312
:100CB0005B00DB191A68131C5B009B185B00A02407
:100CC0006400E41922689B189B005B58181CBF2124
:100CD000090606F095F8031C002B15D0324BA42012
:100CE0004000C019C118A2235B00DB191A68131C4D
:100CF0005B009B185B00A0246400E41922689B1829
:100D00009B0000225A502BE0274BA4204000C01922
:100D1000C118A2235B00DB191A68131C5B009B1827
:100D20005B00A0246400E41922689B189B005B58B8
:100D3000181C1E4906F0C2FB031C181C06F060FEBE
:100D40001B49A2235B00DB191A68131C5B009B186C
:100D50005B00A0246400E41922689B189B00585093
:100D6000A0204000C01903680133A0214900C9191F
:100D70000B60A0225200D2191368052B00DCE1E6BB
:100D8000A2246400E41923680133A2204000C019A2
:100D90000360A2214900C9190B68052B00DCBCE6E1
:100DA000BD4653B0F0BDC046D4FEFFFF0000C842B0
:100DB000B80B0020B0B5CF4CA54400AF78609420AC
:100DC00080003B1800221A60942189007B180022C1
:100DD0005A6000239B229200D219136000239720AF
:100DE0008000C0190360C44B96218900C9190B60AB
:100DF00092229200BB18C14A03CA03C3C04B9C2075
:100E00008000C019C218BF4B111C1A1C90235B0034
:100E1000081C111C1A1C08F00DFDBB4B9C218900FD
:100E2000C919CA18B94B111C1A1C90235B00081C65
:100E3000111C1A1C08F0FEFC00239A229200D21901
:100E4000136015E1002399208000C01903609DE024
:100E500099218900C9190B68013398229200D2198F
:100E6000136083E0A84B9C218900C919C8189922F6
:100E70009200D21913689A229200D21911681A1C92
:100E80005200D21853001A1C0B1CDB005B189B008D
:100E9000D21898218900C9190B68D3189B001A58D9
:100EA000131C9B009A18922080003B189A20800007
:100EB000C01901688900CB589A424EDD94218900FF
:100EC0007B189A208000C01902689200D45890497B
:100ED00099239B00DB191A68131C5B009B185B00AD
:100EE00098208000C01902689B189B005858844BBA
:100EF0009C218900C919CD1899229200D219136832
:100F00009A229200D21911681A1C5200D21853006A
:100F10001A1C0B1CDB005B189B00D218982189005F
:100F2000C9190B68D3189B005B59C31A181C08F029
:100F30003BFC031CE11894229200BB189A2080000D
:100F4000C01902689200D15097218900C9190B6815
:100F5000013397229200D219136098208000C019A3
:100F60000368013398218900C9190B609822920007
:100F7000D2191368052B00DC74E799208000C01992
:100F80000368013399218900C9190B6099229200E5
:100F9000D2191368052B00DC5AE797208000C0198E
:100FA0000368002B08D197218900C9190B68013308
:100FB00097229200D2191360942080003B189A2146
:100FC0008900C9190A689200D358181C9722920008
:100FD000D219116805F04EFE031C191C94208000E4
:100FE0003B189A208000C01902689200D15000235B
:100FF00097218900C9190B6094229200BB189A208E
:101000008000C01902689200D358002B27D0942189
:1010100089007B189A208000C01902689200D3587A
:10102000181C06F00DFD031C181C96229200D21904
:10103000116805F0D1FE031C002B10D09420800015
:101040003B189A218900C9190A689200D358181CC4
:1010500006F0F6FC031C96229200D21913609A2027
:101060008000C019036801339A218900C9190B60F7
:101070009A229200D2191368012B00DCE2E6942038
:1010800080003B181A68942189007B185B689A429B
:1010900013DA7A681F4B134004D5013B02225242F7
:1010A00013430133012B02D17B68013B00E07B68D5
:1010B0009B229200D219136012E07A68154B1340FC
:1010C00004D5013B0222524213430133012B02D0CB
:1010D0007B68013300E07B689B208000C0190360BF
:1010E0009B218900C9190B68181CBD469C239B00D5
:1010F0009D44B0BD90FDFFFF00401C4618A70000B6
:10110000B8FEFFFF20A7000098FDFFFF40A80000E9
:10111000B80B00200100008080B586B000AF786079
:10112000284B181C0021D82208F08DFB00237B617E
:1011300042E000233B6139E03B1C0A3300221A8065
:101140000023FB6017E03A69FB68D0181E497A69F2
:10115000131C9B009B189B001B185B005B5A9AB2E8
:101160003B1C0A331B88D3189AB23B1C0A331A80E3
:10117000FB680133FB60FB68022BE4DD3B1C0A3398
:1011800000229B5E181C032105F074FD031C98B21D
:101190000C497A69131CDB009B185B003A699B18A9
:1011A0005B00021C5A523B6901333B613B69112BC6
:1011B000C2DD7B6901337B617B69052BB9DDBD46EF
:1011C00006B080BDE00A0020D0080020F0B5E04C59
:1011D000A54400AFF860B9607A603B600023DD4849
:1011E000C01903600023A121C900C9190B60F522B1
:1011F0009200BB18181C0021302208F024FBD64CAA
:101200003B19181C0021182208F01DFBEF25AD002A
:101210007B19181C0021182208F015FBE320800020
:101220003B18181C0021302208F00DFBD721890043
:101230007B18181C0021302208F005FBC74ABB1898
:10124000181C0021D82208F0FEFABB68002B11DC24
:10125000FB68C04CE41923600023A125ED00ED19C3
:101260002B60BE483A18BE4B101C191CD82208F03F
:10127000E1FA10E01223B749C9190B60BB68A1223B
:10128000D200D2191360B54BFA18B64B101C191CBA
:10129000D82208F0CFFA0023B34CE41923606DE0A4
:1012A0000023A025ED00ED192B6037E0AF4BA22005
:1012B000C000C019C318AC49C9190A689200D458B3
:1012C000A64AB918A84BDB191A68131CDB009B1837
:1012D0005B00A025ED00ED192A689B185B005B5AA6
:1012E0001BB2181C06F0ACFB031C201C191C05F0DB
:1012F0009BFD031C191C9D4BA220C000C019C318E4
:10130000994CE41922689200D150A025ED00ED1906
:101310002B680133A020C000C0190360A021C900C0
:10132000C9190A688B4CE41923689A42BEDB8F4BBB
:10133000A225ED00ED19EB188B48C0190268920048
:10134000D4588449C919086806F07AFB031C201C8C
:10135000191C05F0D5FE031C191C844BA222D200D7
:10136000D219D318804CE41922689200D1507E4DD6
:10137000ED192B6801337C48C01903607A49C919FB
:101380000B68052B8CDD0023774AD219136066E1C8
:101390000023774CE4192360A125ED00ED192B689B
:1013A000A020C000C0190360C2E0A021C900C91973
:1013B0000A68A124E400E4192368D01A674D79195A
:1013C000694BDB191A68131CDB009B185B001B18A8
:1013D0005B005B5A1BB2181C06F032FB021C634B0D
:1013E000A224E400E419E3185F4DED19296889008F
:1013F000CB58101C191C06F08DF9031C5C48C01951
:10140000036000235B49C9190B6060E05A4BA222BC
:10141000D200D219D118574BDB191A68131C5B0084
:101420009B185B00504CE41922689B189B005C5889
:10143000504DED192B68D822520053437A68D118C9
:101440004948C0190268131CDB009B185B00A025EB
:10145000ED00ED192A689B189B0059584548C019A2
:101460000268131C5B009B18DB003A68D3183E4DE2
:10147000ED192A689200D358081C191C06F04AF985
:10148000031C181C3A4AD219116806F017F8031CFD
:10149000201C191C05F0C8FC031C181C364BA22488
:1014A000E400E419E118334DED192A68131C5B00C0
:1014B0009B185B002C4CE41922689B189B00585029
:1014C0002C4DED192B6801332A48C01903602949B6
:1014D000C9190B68012B99DD284BA222D200D21921
:1014E000D318214CE41922689200D458204DED19EC
:1014F00028681F4AD219116805F0E0FF031C201C60
:10150000191C05F091FC031C191C1C4BA224E400BF
:10151000E419E318144DED192A689200D150A02067
:10152000C000C01903680133A021C900C9190B60AC
:10153000A023DB00DB191A68064CE41923689A42E1
:1015400000DA32E700230B4DED192B6055E0C04661
:10155000ECFAFFFF0C050000040400001C0400006E
:10156000C8090020E00A002004050000F4FEFFFF87
:10157000F4040000FC040000C4FEFFFFACFEFFFF0B
:10158000E24BA220C000C019C118E14BDB191A6858
:10159000131C5B009B185B00DE4CE41922689B184F
:1015A0009B005C58DC4DED192A68A120C000C019D1
:1015B0000368D31A181C06F043FA031C201C191CDC
:1015C00005F09EFD031C181CD04BA222D200D2199C
:1015D000D118CF4BDB191A68131C5B009B185B00FA
:1015E000CC4CE41922689B189B005850C84DED194B
:1015F0002B680133C648C0190360C549C9190B6877
:10160000012BBDDDC54BA222D200D219D318C14C8B
:10161000E41922689200D458BF4DED192A68A12020
:10162000C000C0190368D31A181C06F009FA031C7D
:10163000201C191C05F064FD031C191CB74BA222C9
:10164000D200D219D318B34CE41922689200D150B9
:10165000B04DED192B680133AE48C0190360AD4998
:10166000C9190B68052B00DC92E6D5229200BB1845
:10167000181C0021082208F0E6F80023A54CE41904
:1016800023607EE10023A025ED00ED192B601EE113
:10169000A24BA220C000C019C318A021C900C919BB
:1016A0000A689200D1589B4BDB191A68131C5B0027
:1016B0009B18DB00A524E400E4192268D318A025B8
:1016C000ED00ED192A689200D358081C191C05F08A
:1016D000F5FE031C181C002105F078FB031C002BF1
:1016E00064D18A4BA220C000C019C118894BDB19F4
:1016F0001A68131C5B009B185B00A024E400E4192B
:1017000022689B189B005B58181C07F051FF051CB2
:101710000E1C824BA220C000C019C318A021C90012
:10172000C9190A689200D1587A4BDB191A68131C40
:101730005B009B18DB00A524E400E4192268D318A1
:10174000A020C000C01902689200D358081C191CC0
:1017500005F0B4FE031C181C07F02AFF031C0C1C28
:10176000181C211C05F0C0F8031C0C1C281C311C83
:101770001A1C231C06F0E4FC031C0C1C181C211C66
:1017800007F068FF664BA222D200D219D118614B34
:10179000DB191A68131C5B009B185B00A024E40093
:1017A000E41922689B189B00585013E05C4BA2255B
:1017B000ED00ED19E9185748C0190268131C5B00C9
:1017C0009B185B00A024E400E41922689B189B008E
:1017D00000225A50524BA225ED00ED19E9184D4850
:1017E000C0190268131C5B009B185B00A024E40076
:1017F000E41922689B189B005B58181C494905F0A6
:101800005DFE031C181C06F0FBF8031C181C06F0F8
:1018100017F9454BA225ED00ED19E9183D4BDB19F1
:101820001A68131C5B009B185B00A024E400E419F9
:1018300022689B189B0058503C4BA225ED00ED19E7
:10184000EB183448C01902689200D458364BA222D3
:10185000D200D219D1182F4BDB191A68131C5B0068
:101860009B185B00A025ED00ED192A689B189B00D2
:101870005D582F4AA020C000C0190368D3181B78F8
:101880005BB2181C06F0DCF8031C281C191C05F0C0
:1018900015FE031C181C06F0B3F8031C181C642169
:1018A00005F0E8F9031CE118204BA222D200D2195E
:1018B000D318184CE41922689200D150A025ED00ED
:1018C000ED192B680133A020C000C0190360A021CE
:1018D000C900C9190B68052B00DCD9E6134BA222FD
:1018E000D200D219D3180B4CE41922689200D358B5
:1018F000132B1FDC0D4BA225ED00ED19EB1805484D
:10190000C019026892000021D15033E0C4FEFFFFED
:10191000FC040000040500000C050000ACFEFFFF05
:101920007CFEFFFF0000C8424CFEFFFF44FEFFFFAD
:10193000C00900207D4BA221C900C919CB187C4CDD
:10194000E41922689200D358784AA225ED00ED19D7
:10195000AA187748C019016889008A58111C594390
:10196000724BA222D200D219D318714CE41922680A
:101970009200D1506E4DED192B6801336C48C0199F
:1019800003606B49C9190B68012B00DC7AE6EA2376
:101990005B00FA18C0235B00101C00211A1C07F022
:1019A00052FF3A1C5432C0235B00101C00211A1C49
:1019B00007F049FF3B1C1433181C0021402207F09C
:1019C00042FF00235A4CE4192360AAE10023A0251A
:1019D000ED00ED192B6096E1A120C000C01903684D
:1019E0005449C9190B6062E0534BA222D200D219AC
:1019F000D1184F4BDB191A68131C5B009B185B0056
:101A0000A024E400E41922689B189B005C58484D10
:101A1000ED192B68D822520053437A68D118A020C0
:101A2000C000C0190268131CDB009B185B00414D0D
:101A3000ED192A689B189B005B58181C3F4905F05C
:101A40003DFD031C181C05F0DBFF011C3C4AB818C7
:101A5000A023DB00DB191A68131CDB009B185B005A
:101A6000344DED192A689B185B001B5A1BB2CB1A28
:101A7000181C07F099FE031CE0182F4BA222D2007D
:101A8000D219D1182A4BDB191A68131C5B009B185A
:101A90005B00A024E400E41922689B189B005850C6
:101AA000244DED192B6801332248C01903602149E8
:101AB000C9190A68234CE41923689A4294DB1E4B27
:101AC000A225ED00ED19E9181948C0190268131C88
:101AD0005B009B185B00A024E400E41922689B18BB
:101AE0009B005B58181C174DED19296805F0C2F8CA
:101AF000031C181C104BA222D200D219D1180C4B77
:101B0000DB191A68131C5B009B185B00A024E4001F
:101B1000E41922689B189B005850A125ED00ED198F
:101B20002B680448C019036085E0C04644FEFFFFEF
:101B300004050000FC040000C4FCFFFF00007A4420
:101B40001C0400000C050000A74BA222D200D219F1
:101B5000D118A64BDB191A68131C5B009B185B009D
:101B6000A024E400E41922689B189B005C589F4D58
:101B7000ED192B68D822520053437A68D118A0205F
:101B8000C000C0190268131CDB009B185B00984D55
:101B9000ED192A689B189B005B58181C954905F0A5
:101BA0008DFC031C181C05F02BFF011C924AB81871
:101BB000A023DB00DB191A68131CDB009B185B00F9
:101BC0008B4DED192A689B185B001B5A1BB2C91A72
:101BD0008A4BA222D200D219D018844BDB191A6882
:101BE000131C5B009B185B00A025ED00ED192A6813
:101BF0009B189B001B58CB1A181C07F0D5FD031C23
:101C0000E018794BA222D200D219D118774BDB19F8
:101C10001A68131C5B009B185B00A024E400E41905
:101C200022689B189B005850714DED192B680133A9
:101C30006F48C01903606E49C9190A68704CE419ED
:101C400023689A4200DA7FE7674BA225ED00ED1981
:101C5000E9186648C0190268131C5B009B185B00FA
:101C6000A024E400E41922689B189B005B58181C10
:101C7000634DED19296804F0FDFF031C181C5A4B35
:101C8000A222D200D219D118584BDB191A68131CA2
:101C90005B009B185B00A024E400E41922689B18F9
:101CA0009B005850574BA225ED00ED19EB184F48FB
:101CB000C01902689200D1584B4BA222D200D2190F
:101CC000D0184A4BDB191A68131C5B009B185B0089
:101CD000A024E400E41922689B189B001B58C91833
:101CE000484BA225ED00ED19EB184048C0190268D9
:101CF0009200D150A021C900C9190B680133A0225C
:101D0000D200D2191360A024E400E4192368052B43
:101D100000DC61E6354DED192B6801333348C019FD
:101D200003603249C9190B68012B00DC4EE6002321
:101D30002E4AD21913604EE0334BA224E400E4197A
:101D4000E3182A4DED192A689200D358002B20DDA4
:101D50002D4BA220C000C019C3182449C9190A6814
:101D60009200D358FA2292005A43264BA224E40050
:101D7000E419E3181D4DED1929688900CB58101C92
:101D8000191C04F077FF031C9F20C000C0190360DA
:101D900004E000239F21C900C9190B601B4B134CA1
:101DA000E41922689200D2589F25ED00ED192B68A6
:101DB0009A4209DA154B0D48C019026892009F2417
:101DC000E400E4192168D150084DED192B68013366
:101DD0000648C01903600549C9190B68012BABDD22
:101DE000BD460B4B9D44F0BD44FBFFFF04050000C6
:101DF000FC04000000007A441C040000C4FCFFFF47
:101E00000C05000004FBFFFF44FEFFFFA00A0020BA
:101E10001405000080B584B000AF78600023FB603B
:101E200034E00023BB602BE0FA68131C9B009B1876
:101E3000DB007A68D318BA685200D35A1BB2181C58
:101E400005F0FEFD031C181C134905F059F9031C8D
:101E5000181C124905F032FB031C181C05F0D0FDBC
:101E6000031C98B20E49FA68131C9B009B189B0038
:101E7000BA689B185B00021C5A52BB680133BB60F6
:101E8000BB68132BD0DDFB680133FB60FB68052BBF
:101E9000C7DDBD4604B080BD00FEFF4600007A44A9
:101EA000D008002090B58DB002AFF860B9607A60BC
:101EB0000023FB610023BB6100237B61554B181C91
:101EC0000021042207F0BFFC534B00225A60524B02
:101ED0005A68514B1A6002235B427B625EE000232A
:101EE0003B6248E03A6A7B6AD21A4C4B5200D15AA4
:101EF000484B3A6A5200D1523A6A7B6AD21A474B2F
:101F000012325200D15A434B3A6A12325200D15225
:101F10003A6A7B6AD21A414B24325200D15A3D4B65
:101F20003A6A24325200D1523A6A7B6AD21A3B4B47
:101F300036325200D15A374B3A6A36325200D152B9
:101F40003A6A7B6AD21A354B48325200D15A314B29
:101F50003A6A48325200D1523A6A7B6AD21A2F4BFF
:101F60005A325200D15A2B4B3A6A5A325200D1524D
:101F70003B6A01333B627B6A1A1C12323B6A9A420B
:101F8000B0DC7B6A181C1230796AFA68BB687C681E
:101F90000094FFF71BF97B6A01337B627B6A002B9D
:101FA0009DDD01237B620AE0796AFA68BB68786884
:101FB00000901220FFF70AF97B6A01337B627B6A8B
:101FC000012BF1DD00237B6210E0134B7A6A920053
:101FD000D258FB699A4206DD0F4B7A6A9200D358B9
:101FE000FB617B6ABB617B6A01337B627B6A012B8D
:101FF000EBDD094B1B68084A5268D80FD117041C47
:102000009A424C41231CDBB27B617B69181CBD46A4
:102010000BB090BDC8090020A00A0020E00A0020F3
:1020200090B52C4CA54400AF2B4BF2208000C0197A
:10203000C2182A4B111C1A1CD8239B00081C111C07
:102040001A1C07F0F7FB264BF2218900C919CB189F
:10205000244A13CA13C313CA13C313CA13C313CA1C
:1020600013C3214BF2229200D219D3181F4A13CA6C
:1020700013C313CA13C313CA13C313CA13C3391C1C
:1020800064313A1C34323B1D081C111C1A1CFFF72A
:1020900009FF031CF1229200D2191360F124A4005D
:1020A000E4192368002B05D00423F1208000C01917
:1020B000036004E00323F1218900C9190B60F122B8
:1020C0009200D2191368181CBD46F3239B009D444F
:1020D00090BDC04634FCFFFF9CFCFFFF60A90000E0
:1020E0006CFCFFFFC0AC00003CFCFFFFF0AC00004C
:1020F00090B52C4CA54400AF2B4BF2208000C019AA
:10210000C2182A4B111C1A1CD8239B00081C111C36
:102110001A1C07F08FFB264BF2218900C919CB1836
:10212000244A13CA13C313CA13C313CA13C313CA4B
:1021300013C3214BF2229200D219D3181F4A13CA9B
:1021400013C313CA13C313CA13C313CA13C3391C4B
:1021500064313A1C34323B1D081C111C1A1CFFF759
:10216000A1FE031CF1229200D2191360F124A400F5
:10217000E4192368002B05D00223F1208000C01948
:10218000036004E00123F1218900C9190B60F122E9
:102190009200D2191368181CBD46F3239B009D447E
:1021A00090BDC04634FCFFFF9CFCFFFF20AD00004B
:1021B0006CFCFFFF80B000003CFCFFFFB0B00000F3
:1021C00090B52C4CA54400AF2B4BF2208000C019D9
:1021D000C2182A4B111C1A1CD8239B00081C111C66
:1021E0001A1C07F027FB264BF2218900C919CB18CE
:1021F000244A13CA13C313CA13C313CA13C313CA7B
:1022000013C3214BF2229200D219D3181F4A13CACA
:1022100013C313CA13C313CA13C313CA13C3391C7A
:1022200064313A1C34323B1D081C111C1A1CFFF788
:1022300039FE031CF1229200D2191360F124A4008C
:10224000E4192368002B05D00623F1208000C01973
:10225000036004E00523F1218900C9190B60F12214
:102260009200D2191368181CBD46F3239B009D44AD
:1022700090BDC04634FCFFFF9CFCFFFFE0B00000B7
:102280006CFCFFFF40B400003CFCFFFF70B400009A
:1022900090B52C4CA54400AF2B4BF2208000C01908
:1022A000C2182A4B111C1A1CD8239B00081C111C95
:1022B0001A1C07F0BFFA264BF2218900C919CB1866
:1022C000244A13CA13C313CA13C313CA13C313CAAA
:1022D00013C3214BF2229200D219D3181F4A13CAFA
:1022E00013C313CA13C313CA13C313CA13C3391CAA
:1022F00064313A1C34323B1D081C111C1A1CFFF7B8
:10230000D1FD031CF1229200D2191360F124A40024
:10231000E4192368002B05D00823F1208000C019A0
:10232000036004E00723F1218900C9190B60F12241
:102330009200D2191368181CBD46F3239B009D44DC
:1023400090BDC04634FCFFFF9CFCFFFFA0B4000022
:102350006CFCFFFF00B800003CFCFFFF30B8000041
:1023600090B52C4CA54400AF2B4BF2208000C01937
:10237000C2182A4B111C1A1CD8239B00081C111CC4
:102380001A1C07F057FA264BF2218900C919CB18FD
:10239000244A13CA13C313CA13C313CA13C313CAD9
:1023A00013C3214BF2229200D219D3181F4A13CA29
:1023B00013C313CA13C313CA13C313CA13C3391CD9
:1023C00064313A1C34323B1D081C111C1A1CFFF7E7
:1023D00069FD031CF1229200D2191360F124A400BC
:1023E000E4192368002B05D00A23F1208000C019CE
:1023F000036004E00923F1218900C9190B60F1226F
:102400009200D2191368181CBD46F3239B009D440B
:1024100090BDC04634FCFFFF9CFCFFFF60B800008D
:102420006CFCFFFFC0BB00003CFCFFFFF0BB0000EA
:1024300090B52C4CA54400AF2B4BF2208000C01966
:10244000C2182A4B111C1A1CD8239B00081C111CF3
:102450001A1C07F0EFF9264BF2218900C919CB1895
:10246000244A13CA13C313CA13C313CA13C313CA08
:1024700013C3214BF2229200D219D3181F4A13CA58
:1024800013C313CA13C313CA13C313CA13C3391C08
:1024900064313A1C34323B1D081C111C1A1CFFF716
:1024A00001FD031CF1229200D2191360F124A40053
:1024B000E4192368002B05D01623F1208000C019F1
:1024C000036004E01523F1218900C9190B60F12292
:1024D0009200D2191368181CBD46F3239B009D443B
:1024E00090BDC04634FCFFFF9CFCFFFFE0BF000036
:1024F0006CFCFFFF40C300003CFCFFFF70C300000A
:1025000090B52C4CA54400AF2B4BF2208000C01995
:10251000C2182A4B111C1A1CD8239B00081C111C22
:102520001A1C07F087F9264BF2218900C919CB182C
:10253000244A13CA13C313CA13C313CA13C313CA37
:1025400013C3214BF2229200D219D3181F4A13CA87
:1025500013C313CA13C313CA13C313CA13C3391C37
:1025600064313A1C34323B1D081C111C1A1CFFF745
:1025700099FC031CF1229200D2191360F124A400EB
:10258000E4192368002B05D01823F1208000C0191E
:10259000036004E01723F1218900C9190B60F122BF
:1025A0009200D2191368181CBD46F3239B009D446A
:1025B00090BDC04634FCFFFF9CFCFFFFA0C30000A1
:1025C0006CFCFFFF00C700003CFCFFFF30C70000B1
:1025D00090B52C4CA54400AF2B4BF2208000C019C5
:1025E000C2182A4B111C1A1CD8239B00081C111C52
:1025F0001A1C07F01FF9264BF2218900C919CB18C4
:10260000244A13CA13C313CA13C313CA13C313CA66
:1026100013C3214BF2229200D219D3181F4A13CAB6
:1026200013C313CA13C313CA13C313CA13C3391C66
:1026300064313A1C34323B1D081C111C1A1CFFF774
:1026400031FC031CF1229200D2191360F124A40082
:10265000E4192368002B05D01923F1208000C0194C
:10266000036004E01A23F1218900C9190B60F122EB
:102670009200D2191368181CBD46F3239B009D4499
:1026800090BDC04634FCFFFF9CFCFFFF60C700000C
:102690006CFCFFFFC0CA00003CFCFFFFF0CA00005A
:1026A00090B52C4CA54400AF2B4BF2208000C019F4
:1026B000C2182A4B111C1A1CD8239B00081C111C81
:1026C0001A1C07F0B7F8264BF2218900C919CB185C
:1026D000244A13CA13C313CA13C313CA13C313CA96
:1026E00013C3214BF2229200D219D3181F4A13CAE6
:1026F00013C313CA13C313CA13C313CA13C3391C96
:1027000064313A1C34323B1D081C111C1A1CFFF7A3
:10271000C9FB031CF1229200D2191360F124A4001A
:10272000E4192368002B05D01B23F1208000C01979
:10273000036004E01C23F1218900C9190B60F12218
:102740009200D2191368181CBD46F3239B009D44C8
:1027500090BDC04634FCFFFF9CFCFFFF20CB000077
:102760006CFCFFFF80CE00003CFCFFFFB0CE000001
:1027700090B52C4CA54400AF2B4BF2208000C01923
:10278000C2182A4B111C1A1CD8239B00081C111CB0
:102790001A1C07F04FF8264BF2218900C919CB18F3
:1027A000244A13CA13C313CA13C313CA13C313CAC5
:1027B00013C3214BF2229200D219D3181F4A13CA15
:1027C00013C313CA13C313CA13C313CA13C3391CC5
:1027D00064313A1C34323B1D081C111C1A1CFFF7D3
:1027E00061FB031CF1229200D2191360F124A400B2
:1027F000E4192368002B05D00D23F1208000C019B7
:10280000036004E00E23F1218900C9190B60F12255
:102810009200D2191368181CBD46F3239B009D44F7
:1028200090BDC04634FCFFFF9CFCFFFFE0CE0000E3
:102830006CFCFFFF40D200003CFCFFFF70D20000A8
:1028400090B52C4CA54400AF2B4BF2208000C01952
:10285000C2182A4B111C1A1CD8239B00081C111CDF
:102860001A1C06F0E7FF264BF2218900C919CB1884
:10287000244A13CA13C313CA13C313CA13C313CAF4
:1028800013C3214BF2229200D219D3181F4A13CA44
:1028900013C313CA13C313CA13C313CA13C3391CF4
:1028A00064313A1C34323B1D081C111C1A1CFFF702
:1028B000F9FA031CF1229200D2191360F124A4004A
:1028C000E4192368002B05D00F23F1208000C019E4
:1028D000036004E01023F1218900C9190B60F12283
:1028E0009200D2191368181CBD46F3239B009D4427
:1028F00090BDC04634FCFFFF9CFCFFFFA0D200004F
:102900006CFCFFFF00D600003CFCFFFF30D600004F
:1029100090B52C4CA54400AF2B4BF2208000C01981
:10292000C2182A4B111C1A1CD8239B00081C111C0E
:102930001A1C06F07FFF264BF2218900C919CB181B
:10294000244A13CA13C313CA13C313CA13C313CA23
:1029500013C3214BF2229200D219D3181F4A13CA73
:1029600013C313CA13C313CA13C313CA13C3391C23
:1029700064313A1C34323B1D081C111C1A1CFFF731
:1029800091FA031CF1229200D2191360F124A400E1
:10299000E4192368002B05D01123F1208000C01911
:1029A000036004E01223F1218900C9190B60F122B0
:1029B0009200D2191368181CBD46F3239B009D4456
:1029C00090BDC04634FCFFFF9CFCFFFF60D60000BA
:1029D0006CFCFFFFC0D900003CFCFFFFF0D90000F9
:1029E00090B52C4CA54400AF2B4BF2208000C019B1
:1029F000C2182A4B111C1A1CD8239B00081C111C3E
:102A00001A1C06F017FF264BF2218900C919CB18B2
:102A1000244A13CA13C313CA13C313CA13C313CA52
:102A200013C3214BF2229200D219D3181F4A13CAA2
:102A300013C313CA13C313CA13C313CA13C3391C52
:102A400064313A1C34323B1D081C111C1A1CFFF760
:102A500029FA031CF1229200D2191360F124A40078
:102A6000E4192368002B05D01323F1208000C0193E
:102A7000036004E01423F1218900C9190B60F122DD
:102A80009200D2191368181CBD46F3239B009D4485
:102A900090BDC04634FCFFFF9CFCFFFF20DA000025
:102AA0006CFCFFFF80DD00003CFCFFFFB0DD0000A0
:102AB00090B52C4CA54400AF2B4BF2208000C019E0
:102AC000C2182A4B111C1A1CD8239B00081C111C6D
:102AD0001A1C06F0AFFE264BF2218900C919CB184B
:102AE000244A13CA13C313CA13C313CA13C313CA82
:102AF00013C3214BF2229200D219D3181F4A13CAD2
:102B000013C313CA13C313CA13C313CA13C3391C81
:102B100064313A1C34323B1D081C111C1A1CFFF78F
:102B2000C1F9031CF1229200D2191360F124A40010
:102B3000E4192368002B05D01E23F1208000C01962
:102B4000036004E01D23F1218900C9190B60F12203
:102B50009200D2191368181CBD46F3239B009D44B4
:102B600090BDC04634FCFFFF9CFCFFFFE0DD000091
:102B70006CFCFFFF40E100003CFCFFFF70E1000047
:102B800090B52C4CA54400AF2B4BF2208000C0190F
:102B9000C2182A4B111C1A1CD8239B00081C111C9C
:102BA0001A1C06F047FE264BF2218900C919CB18E2
:102BB000244A13CA13C313CA13C313CA13C313CAB1
:102BC00013C3214BF2229200D219D3181F4A13CA01
:102BD00013C313CA13C313CA13C313CA13C3391CB1
:102BE00064313A1C34323B1D081C111C1A1CFFF7BF
:102BF00059F9031CF1229200D2191360F124A400A8
:102C0000E4192368002B05D02023F1208000C0198F
:102C1000036004E01F23F1218900C9190B60F12230
:102C20009200D2191368181CBD46F3239B009D44E3
:102C300090BDC04634FCFFFF9CFCFFFFA0E10000FC
:102C40006CFCFFFF00E500003CFCFFFF30E50000EE
:102C500090B52C4CA54400AF2B4BF2208000C0193E
:102C6000C2182A4B111C1A1CD8239B00081C111CCB
:102C70001A1C06F0DFFD264BF2218900C919CB187A
:102C8000244A13CA13C313CA13C313CA13C313CAE0
:102C900013C3214BF2229200D219D3181F4A13CA30
:102CA00013C313CA13C313CA13C313CA13C3391CE0
:102CB00064313A1C34323B1D081C111C1A1CFFF7EE
:102CC000F1F8031CF1229200D2191360F124A40040
:102CD000E4192368002B05D02223F1208000C019BD
:102CE000036004E02123F1218900C9190B60F1225E
:102CF0009200D2191368181CBD46F3239B009D4413
:102D000090BDC04634FCFFFF9CFCFFFF60E5000067
:102D10006CFCFFFFC0E800003CFCFFFFF0E8000097
:102D200090B52C4CA54400AF2B4BF2208000C0196D
:102D3000C2182A4B111C1A1CD8239B00081C111CFA
:102D40001A1C06F077FD264BF2218900C919CB1811
:102D5000244A13CA13C313CA13C313CA13C313CA0F
:102D600013C3214BF2229200D219D3181F4A13CA5F
:102D700013C313CA13C313CA13C313CA13C3391C0F
:102D800064313A1C34323B1D081C111C1A1CFFF71D
:102D900089F8031CF1229200D2191360F124A400D7
:102DA000E4192368002B05D02423F1208000C019EA
:102DB000036004E02323F1218900C9190B60F1228B
:102DC0009200D2191368181CBD46F3239B009D4442
:102DD00090BDC04634FCFFFF9CFCFFFF20E90000D3
:102DE0006CFCFFFF80EC00003CFCFFFFB0EC00003F
:102DF00090B5C7B000AF78603B1CDC33964A13CA6D
:102E000013C313CA13C33B1CC433944A13CA13C35A
:102E100013CA13C33B1CAC33914A13CA13C313CA5E
:102E200013C33B1C94338E4A13CA13C313CA13C370
:102E30003B1C7C3300221A603B1C7C3300225A600E
:102E40003B1C7C3300229A603B1C7C330022DA60FE
:102E50003B1C7C3300221A613B1C7C3300225A61EC
:102E60003B1C643300221A603B1C643300225A600E
:102E70003B1C643300229A603B1C64330022DA60FE
:102E80003B1C643300221A613B1C643300225A61EC
:102E90003B1C4C3300221A603B1C4C3300225A600E
:102EA0003B1C4C3300229A603B1C4C330022DA60FE
:102EB0003B1C4C3300221A613B1C4C3300225A61EC
:102EC0001820FF303B1800221A700023842149008B
:102ED000C9190B60634B181C0021402206F0B3FC9B
:102EE000614B181C0221062206F0ADFC7B68181C01
:102EF000FEF790FF002388225200D219136037E0BA
:102F0000002386246400E41923601EE0882040002A
:102F1000C0190268131C9B009B18DB007A68D31849
:102F200086214900C9190A685200D35A1BB24F4A78
:102F3000101C191C06F090FC86225200D21913684E
:102F4000013386246400E419236086204000C01900
:102F50000368052BDADD464B181C06F07DFC882142
:102F60004900C9190B68013388225200D219136035
:102F700088246400E4192368132BC1DD3C4B181C22
:102F800006F06AFC7B68181CFEF7C6F80820FF30C4
:102F90003B1800221A70002388214900C9190B60D0
:102FA00079E1002386225200D2191360E2E03B1C33
:102FB000DC3388246400E41922689200D1582D483B
:102FC00088235B00DB191A68131CDB009B185B006D
:102FD00086246400E41922689B185B001B5A1BB20C
:102FE000994249DD234988204000C0190268131C1A
:102FF000DB009B185B0086246400E41922689B18A0
:103000005B005B5A19B23B1CDC3388204000C019BE
:1030100002689200D1503B1C4C3388214900C919E9
:103020000A689200D3580122111C19433B1C4C33EF
:1030300088246400E41922689200D1503B1CAC3310
:1030400088204000C0190268920086246400E419B8
:103050002168D15063E0C046E8EC000000ED0000BC
:1030600018ED0000A00A0020C0090020E0EC0000DC
:10307000E4EC0000E00A00203B1CC4338820400040
:10308000C01902689200D158E64888235B00DB191A
:103090001A68131CDB009B185B0086246400E4198B
:1030A00022689B185B001B5A1BB2994237DADD4934
:1030B00088204000C0190268131CDB009B185B00CD
:1030C00086246400E41922689B185B005B5A19B2DD
:1030D0003B1CC43388204000C01902689200D150C4
:1030E0003B1C643388214900C9190A689200D358EF
:1030F0000122111C19433B1C643388246400E41929
:1031000022689200D1503B1C943388204000C019A3
:103110000268920086246400E4192168D1503B1CA7
:103120004C3388204000C01902689200D3585900DF
:103130003B1C4C3388246400E41922689200D1506F
:103140003B1C643388204000C01902689200D358A9
:1031500059003B1C643388246400E41922689200FF
:10316000D15086204000C0190368013386214900F0
:10317000C9190B6086225200D2191368112B00DC8A
:1031800015E73B1CAC3388246400E41922689200E4
:10319000D2583B1C943388204000C0190168890034
:1031A000CB589A4225DD3B1CAC3388214900C91914
:1031B0000A689200D358FC22D21913603B1C943346
:1031C00088246400E41922689200D1583B1CAC3377
:1031D00088204000C01902689200D1503B1C9433F3
:1031E00088214900C9190A689200FC24E419216861
:1031F000D1503B1CC43388204000C01902689200A3
:10320000D2583B1CDC3388246400E419216889000F
:10321000CB58D11A3B1C7C3388204000C01902686F
:103220009200D1503B1C7C3388214900C9190A689F
:103230009200D258C8235B009A421ADD1822FF324E
:10324000BB181824FF343A19127801210A431A7066
:103250000820FF303B181A780821FF317B18013213
:103260001A70714A88246400E4192368D3185A221A
:103270001A701820FF303A181821FF317B181B787C
:10328000DB18137088225200D21913680133882486
:103290006400E419236088204000C0190368052BEE
:1032A00000DC7EE6002388214900C9190B6021E07B
:1032B0005D4A88246400E4192368D3181B785AB245
:1032C0000820FF303B181B78101C191C03F0D2FC9F
:1032D000031CDAB2544988246400E4192368CB182B
:1032E0001A7088204000C019036801338821490002
:1032F000C9190B6088225200D2191368052BD7DD3B
:103300001824FF343B191B78002B05D1002384209F
:103310004000C01903607EE30023791CFF310B607D
:103320000023F822D21913603B1C0C33181C002117
:10333000402206F088FA1824FF343B191A787023CB
:103340001340702B3ED13B1C7C3319683B1C7C33F3
:103350005A680123914200DC0023DBB2F420C0193B
:1033600003603B1C7C33F421C9190A689200D258CF
:103370003B1C7C339B689A420ADD1822FF32BB1843
:103380001824FF343A1911786F220A401A7019E094
:10339000F420C0190368002B0AD01821FF317B18D4
:1033A0001824FF343A1911785F220A401A7009E094
:1033B0001820FF303B181821FF317A1811783F226E
:1033C0000A401A701822FF32BB181A787023134073
:1033D000302B00D1F6E104DC102B1AD0202B08D0C2
:1033E000AEE2502B22D0602B00D105E1402B08D05B
:1033F000A6E2FEF715FE031C84246400E419236092
:1034000009E3FEF775FE031C84204000C019036029
:1034100001E3FEF7D5FE031C84214900C9190B60A6
:10342000F9E2C046E00A0020C00900203B1C9433AA
:103430001A683B1CAC339B68D31A012B07DD3B1C7D
:10344000AC331A683B1CAC339B689A4210DD3B1CC2
:1034500094339A683B1CAC331B68D31A012B17DDDD
:103460003B1CAC339A683B1CAC331B689A420FDCA4
:10347000072384225200D2191360FDF777F9072041
:10348000FDF798FC031C84246400E4192360B2E077
:103490003B1CAC331A683B1CAC339B689A4255DB2F
:1034A000FFF766F9021CE04B8C204000C019C318DE
:1034B0005A60DE4B1A68DD4B5A63DC4B5A68DB4BB3
:1034C0009A63FFF7BDF9021CD74B8C214900C9193B
:1034D000CB189A60D54B1A68D44BDA63D34B5A6831
:1034E000D24B1A640D2388225200D219136026E0B1
:1034F000CE4B88246400E41922689200D258781CCC
:10350000FF3003689A4211DDC84B88214900C91970
:103510000A689200D3587A1CFF3213608824640032
:10352000E419236884204000C01903608821490001
:10353000C9190B68013388225200D21913608824FC
:103540006400E4192368102BD2DD64E2FFF7E0F990
:10355000021CB54B8C204000C019C318DA60B34B75
:103560001A68B24B5A64B14B5A68B04B9A64FFF771
:1035700037FA021CAC4B8C214900C919CB181A61CF
:10358000AA4B1A68A94BDA64A84B5A68A74B1A656C
:10359000112388225200D219136026E0A34B8824FD
:1035A0006400E41922689200D258781CFF30036846
:1035B0009A4211DD9D4B88214900C9190A68920081
:1035C000D3587A1CFF32136088246400E4192368FE
:1035D00084204000C019036088214900C9190B6884
:1035E000013388225200D219136088246400E41940
:1035F0002368142BD2DD0EE23B1C94331A683B1C6B
:10360000AC335B68D31A012B07DD3B1CAC331A6863
:103610003B1CAC335B689A4210DD3B1C94335A6808
:103620003B1CAC331B68D31A012B17DD3B1CAC339E
:103630005A683B1CAC331B689A420FDC0923842078
:103640004000C0190360FDF791F80920FDF7B2FBB7
:10365000031C84214900C9190B60B2E03B1CAC3348
:103660001A683B1CAC335B689A4255DBFEF7E0FE00
:10367000021C6D4B8C246400E419E3185A606B4BF8
:103680001A686A4B5A65694B5A68684B9A65FEF727
:1036900037FF021C644B8C204000C019C3189A608D
:1036A000624B1A68614BDA65604B5A685F4B1A6669
:1036B000152388214900C9190B6026E05B4B88243B
:1036C0006400E41922689200D258781CFF30036825
:1036D0009A4211DD554B88214900C9190A689200A8
:1036E000D3587A1CFF32136088246400E4192368DD
:1036F00084204000C019036088214900C9190B6863
:10370000013388225200D219136088246400E4191E
:103710002368182BD2DD7EE1FEF75AFF021C424BD4
:103720008C204000C019C318DA60404B1A683F4B28
:103730005A663E4B5A683D4B9A66FEF7B1FF021C33
:10374000394B8C214900C919CB181A61374B1A68BB
:10375000364BDA66354B5A68344B1A671923882280
:103760005200D219136026E0304B88246400E4191B
:1037700022689200D258781CFF3003689A4211DD0B
:103780002A4B88214900C9190A689200D3587A1C2B
:10379000FF32136088246400E41923688420400009
:1037A000C019036088214900C9190B6801338822B8
:1037B0005200D219136088246400E41923681A2B7C
:1037C000D2DD28E13B1CAC335A683B1CAC339B6810
:1037D0009A425BDBFFF76CF9021C134B8C20400014
:1037E000C019C3185A60114B1A68104B5A670F4B17
:1037F0005A680E4B9A67FFF7C3F9021C0A4B8C21DB
:103800004900C919CB189A60084B1A68074BDA6748
:10381000064B5968054A8023D1501D238822520047
:10382000D21913602BE0C046F4FEFFFFA00A00206F
:103830007D4B88246400E41922689200D258781CD9
:10384000FF3003689A4211DD774B88214900C9197E
:103850000A689200D3587A1CFF32136088246400EF
:10386000E419236884204000C019036088214900BE
:10387000C9190B68013388225200D21913608824B9
:103880006400E4192368202BD2DDC4E0FFF7E0F9DF
:10389000021C664B8C204000C019C318DA60624BD2
:1038A0001968614A8423D1505F4B59685E4A882366
:1038B000D150FFF735FA021C5C4B8C214900C91925
:1038C000CB181A61584B1968574A8C23D150564B64
:1038D0005968554A9023D150212388225200D21989
:1038E000136026E0504B88246400E419226892009B
:1038F000D258781CFF3003689A4211DD4A4B882168
:103900004900C9190A689200D3587A1CFF32136023
:1039100088246400E419236884204000C0190360EF
:1039200088214900C9190B68013388225200D21935
:10393000136088246400E4192368242BD2DD6AE034
:10394000FEF7A6FC021C394B8C204000C019C3189E
:103950001A60354B1A68344BDA61334B5A68324B74
:103960001A62FEF7FDFC021C304B8C214900C9197C
:10397000CB185A602C4B1A682B4B5A622A4B5A6848
:10398000294B9A62002388225200D21913603BE02F
:10399000264B8C246400E419E31888204000C019E9
:1039A00002689200D258204B9200D258791CFF3105
:1039B0000B689A421FDD1D4B8C225200D219D3187E
:1039C00088246400E41922689200D258164B9200B1
:1039D000D358781CFF300360144B8C214900C9195F
:1039E000CB1888246400E41922689200D3588420FC
:1039F0004000C019036088214900C9190B680133D0
:103A000088225200D219136088246400E4192368C4
:103A1000012BBDDDC04684204000C0190368DBB225
:103A2000181CBD4647B090BDA00A0020F4FEFFFF61
:103A3000B0B582B000AF021C3960FB1D1A70FB1DCF
:103A40001B787F2B32D93049FB1D1B781A1C0F23A2
:103A50001340083B98082C4AFB1D1B781C1C0F23A5
:103A60002340083B9B0806339B00D3185B68FA1D74
:103A70001278141C03222240D200FF24251C9540FA
:103A80002A1CD2431A403B689C01FF231C40FB1DAB
:103A90001B781D1C03232B40DB00251C9D402B1C89
:103AA0001A43831D9B00CB185A6029E0174BFA1D5F
:103AB000127852B292081549F81D007840B2800879
:103AC000C03080004158F81D0078041C03202040BD
:103AD000C000FF24251C8540281CC04308403968CD
:103AE0008C01FF210C40F91D09780D1C0321294090
:103AF000C900251C8D40291C0143C0329200D150C1
:103B0000BD4602B0B0BDC04600ED00E000E100E0FF
:103B100080B582B000AF78607B685A1E0C4B9A4229
:103B200001D9012310E00B4B7A68013A5A60012356
:103B30005B42181C0321FFF77BFF064B00229A60B3
:103B4000044B07221A600023181CBD4602B080BD3A
:103B5000FFFFFF0010E000E080B582B000AF094B2E
:103B60001B687B607B681B0E812B08D8064B074ABD
:103B70001A60074B064A1168064A0A401A60BD4699
:103B800002B080BDFC81E00F18600C40050000040D
:103B9000E4800C40FFFFFFFE80B500AF034B1B68C5
:103BA0005A1C024B1A60BD4680BDC046A0000020D2
:103BB00080B584B000AF7860064B1B68FB60C046E0
:103BC000044B1A68FB68D21A7B689A42F8D3BD4648
:103BD00004B080BDA000002090B58BB000AFBA60EB
:103BE0007B603B1C0F33021C1A703B1C0E330A1CFB
:103BF0001A703B1C0F331B789AB23B1C10331A808F
:103C00003B1C103308225A803B1C10333A1C0E32E6
:103C10005A603B1C103301221A813B1C1033BA68D6
:103C2000DA607B689AB23B1C10331A823C1C273442
:103C30000F4A3B1C1033101C191C01F069FE031CB9
:103C4000237007E03C1C2734094B181C01F05EFC74
:103C5000031C23703B1C27331B785BB2012BF1D074
:103C60003B1C27331B785BB2181CBD460BB090BDC4
:103C700000A0004090B58BB000AFBA607B603B1CE9
:103C80000F33021C1A703B1C0E330A1C1A703B1CAB
:103C90000F331B789AB23B1C10331A803B1C103335
:103CA00004225A803B1C10333A1C0E325A603B1CD3
:103CB000103301221A813B1C1033BA68DA607B682A
:103CC0009AB23B1C10331A823C1C27340F4A3B1C0F
:103CD0001033101C191C01F01BFE031C237007E09D
:103CE0003C1C2734094B181C01F010FC031C2370EA
:103CF0003B1C27331B785BB2012BF1D03B1C2733D5
:103D00001B785BB2181CBD460BB090BD00A00040F4
:103D100080B584B000AF786039600023FB600FE0AD
:103D20007B68181C02F0A4FDC820FFF741FF0020AB
:103D300002F09EFDC820FFF73BFFFB680133FB60EC
:103D4000FA683B689A42EBDBBD4604B080BDC046D2
:103D500090B583B000AFFFF7FFFEFCF707FA8B4B7F
:103D6000181C00F02BFF031C181CFA23990002F00A
:103D700033FF031C181CFFF7CBFE031C002B00D0E5
:103D8000FEE702F043FD00F03DFD814B814A1A60E1
:103D9000814B00221A70FC1D7F4BD02019211A1C68
:103DA0000123FFF719FF031C2370FB1D1B785BB277
:103DB000002B08D0FB1D1B785BB2784A101CD02169
:103DC0001A1C05F049FD744B01221A70FC1D724B40
:103DD000D0201A211A1C0123FFF7FEFE031C2370BA
:103DE000FB1D1B785BB2002B08D0FB1D1B785BB260
:103DF0006A4A101CD0211A1C05F02EFD664B1022B9
:103E00001A70FC1D644BD0201B211A1C0123FFF7E4
:103E1000E3FE031C2370FB1D1B785BB2002B08D054
:103E2000FB1D1B785BB25D4A101CD0211A1C05F0EB
:103E300013FD594B00221A70FC1D574BD0201C213A
:103E40001A1C0123FFF7C8FE031C2370FB1D1B78FF
:103E50005BB2002B08D0FB1D1B785BB24F4A101CD5
:103E6000D0211A1C05F0F8FC4B4B00221A70FC1DE7
:103E7000494BD02023211A1C0123FFF7ADFE031C60
:103E80002370FB1D1B785BB2002B08D0FB1D1B7839
:103E90005BB2424A101CD0211A1C05F0DDFC3E4BDF
:103EA00002221A70FC1D3C4BD02037211A1C012322
:103EB000FFF792FE031C2370FB1D1B785BB2002BE7
:103EC00008D0FB1D1B785BB2344A101CD0211A1C91
:103ED00005F0C2FC304B00221A70FC1D2E4BD02086
:103EE00038211A1C0123FFF777FE031C2370FB1DEA
:103EF0001B785BB2002B08D0FB1D1B785BB2274AF6
:103F0000101CD0211A1C05F0A7FC234B00221A70AC
:103F1000FC1D214BD0206A211A1C0123FFF75CFEF7
:103F2000031C2370FB1D1B785BB2002B08D0FB1D0C
:103F30001B785BB2194A101CD0211A1C05F08CFCAE
:103F4000154B00221A70FC1D134BD0206B211A1C3C
:103F50000123FFF741FE031C2370FB1D1B785BB29E
:103F6000002B08D0FB1D1B785BB20C4A101CD02123
:103F70001A1C05F071FCFA239B00181CFFF718FEB1
:103F8000074B00221A7002F039F8FCE750000200DB
:103F90008C0C0020955F0000940C002030ED000098
:103FA000480C0020B0B582B000AFD74B00221A7089
:103FB000D54B1A78D54B5A71D54B00221A80D44B69
:103FC0001A88D44B1A80D34B1A88D34B1A80D24B01
:103FD0001A88D24B1A80D14B1A88D14B1A80D04BF9
:103FE0001A88D04B1A80D04BD0203B211A1C0123B9
:103FF000FFF740FE031C1A1CCC4B1A70CA4B1B78EF
:104000001B029AB2C74B1A80C74BD0203C211A1C06
:104010000123FFF72FFE031C1A1CC44B1A70C24B5E
:104020001B781A1CBF4B1B8813439AB2BD4B1A80D6
:10403000BD4BD0203D211A1C0123FFF71BFE031CA2
:104040001A1CBA4B1A70B84B1B781B029AB2B44BAD
:104050001A80B54BD0203E211A1C0123FFF70AFE1F
:10406000031C1A1CB14B1A70AF4B1B781A1CAC4BBB
:104070001B8813439AB2AA4B1A80AB4BD0203F2126
:104080001A1C0123FFF7F6FD031C1A1CA74B1A701C
:10409000A54B1B781B029AB2A04B1A80A24BD020D2
:1040A00040211A1C0123FFF7E5FD031C1A1C9F4B3E
:1040B0001A709D4B1B781A1C984B1B8813439AB29D
:1040C000964B1A80984BD02043211A1C0123FFF7EE
:1040D000D1FD031C1A1C954B1A70934B1B781B02C5
:1040E0009AB28D4B1A80904BD02044211A1C012388
:1040F000FFF7C0FD031C1A1C8C4B1A708A4B1B78EF
:104100001A1C854B1B8813439AB2834B1A80864B2B
:10411000D02045211A1C0123FFF7ACFD031C1A1CFB
:10412000824B1A70804B1B781B029AB2794B1A8013
:104130007D4BD02046211A1C0123FFF79BFD031C59
:104140001A1C7A4B1A70784B1B781A1C714B1B88FF
:1041500013439AB26F4B1A80734BD02047211A1C1D
:104160000123FFF787FD031C1A1C704B1A706E4B5E
:104170001B781B029AB2664B1A806B4BD0204821E9
:104180001A1C0123FFF776FD031C1A1C674B1A70DB
:10419000654B1B781A1C5E4B1B8813439AB25C4B11
:1041A0001A80634B1B78002B00D05FE05D4B1B88AF
:1041B0001AB2604B9A4205DC5A4B1B881AB25E4B0E
:1041C0009A4203DA5A4B01221A704FE0544B1B8873
:1041D0001AB2FA23DB009A4205DC514B1B881AB253
:1041E000564B9A4203DA524B01221A703EE04B4B77
:1041F0001B881AB2524B9A4205DC484B1B881AB2F4
:10420000504B9A4203DC4A4B01221A702EE0424B7B
:104210001B881AB24C4B9A4205DC3F4B1B881AB2E2
:104220004A4B9A4203DA424B01221A701EE0394B84
:104230001B881AB2464B9A4205DC364B1B881AB2D1
:104240003D4B9A4203DA3A4B01221A700EE0304B92
:104250001B881AB23E4B9A4205DC2D4B1B881AB2C2
:10426000354B9A4202DA324B01221A70304B1B78DE
:10427000012B00D0E0E0374B1B68052B37DD364BB8
:1042800000221A602EE0354B00221A6021E0324BEA
:104290001A68324B1C68304B19682E4B1B68581F2C
:1042A0002E4B1B68C5182E480B1C9B005B189B00EF
:1042B0005B195B00185A2A49131C9B009B189B0032
:1042C0001B195B00021C5A52244B1B685A1C234BBF
:1042D0001A60224B1B68042BD9DD1F4B1B685A1C2C
:1042E0001D4B1A601C4B1B68052BCCDD9EE0194B47
:1042F0001B68042B00DD99E0174B00221A6090E048
:10430000164B01221A6050E0540C0020800C002053
:10431000900C0020500C00209C0C0020520C00201F
:104320009E0C00207C0C0020940C00209A0C002095
:10433000480C00201C0C000048F4FFFF60F0FFFF59
:10434000204E0000AF360000860B000016F4FFFF81
:10435000B80B0000A4000020580C00205C0C0020CA
:10436000A00C0020884B1A68884B1B680521CC1ACA
:10437000854B1968864B1868844B1B68C51A85489D
:104380000B1C9B005B189B005B195B00185A814952
:10439000131C9B009B189B001B195B00021C5A52AC
:1043A0007A4B1B685A1C794B1A60784B1A68784B09
:1043B0001B689A42D6DD764B1B680522D31A7B60B8
:1043C000724B00221A6022E06F4B1A686F4B1B6819
:1043D0007968CB1A5C1E6C4B19686C4B1B681320F8
:1043E000C51A6C480B1C9B005B189B005B195B009B
:1043F000185A6849131C9B009B189B001B195B00F3
:10440000021C5A52614B1B685A1C604B1A605F4B6E
:104410001A687B689A42D7DB5B4B1B685A1C5A4B65
:104420001A60594B1B68052B00DC69E7584B0522C5
:104430001A60594B02221A70554B1A68574B19884B
:10444000544B5200D152524B1A68554B1988514B5C
:1044500014325200D1524E4B1A68524B19884D4BB0
:1044600028325200D1524A4B1A684F4B1988494B97
:104470003C325200D152464B1A684C4B1988454B7E
:1044800050325200D152424B1B68591C404A1160B5
:10449000474A11883F4A64335B0099523C4B1B6882
:1044A000142B00D06AE03A4B00221A603A4B1B787A
:1044B000002B63D0384B00221A70364B181CFEF7C5
:1044C00097FC031C1A1C3B4B1A703A4B1B78222B8F
:1044D00008D89A00384BD3181B689F46354B0022EA
:1044E0001A704BE0334B00221A7047E0314B282200
:1044F0001A7043E02F4B2A221A703FE02D4B4F22B7
:104500001A703BE02B4B50221A7037E0294B522295
:104510001A7033E0274B51221A702FE0254B4A22A4
:104520001A702BE0234B4D221A7027E0214B2722D3
:104530001A7023E01F4B1E221A701FE01D4B1F2212
:104540001A701BE01B4B20221A7017E0194B212216
:104550001A7013E0174B22221A700FE0154B23221A
:104560001A700BE0134B24221A7007E0114B25221E
:104570001A7003E00F4B26221A70C0460D4B1B78B1
:10458000181CBD4602B0B0BD580C00205C0C0020C9
:10459000A4000020A00C0020480C00207C0C00206F
:1045A0009E0C0020520C00209C0C0020500C00207F
:1045B000900C0020540C002050ED000080B582B01B
:1045C00000AF021CFB1D1A70064BFA1D1278111C5D
:1045D0001F220A400121081C9040021C1A60BD469F
:1045E00002B080BD00E100E080B582B000AF021CE7
:1045F000FB1D1A70084AFB1D1B78191C1F230B405A
:104600000121081C9840031C191CC0235B00D150D9
:10461000BD4602B080BDC04600E100E080B582B07A
:1046200000AF786039607B683A689A64BD4602B032
:1046300080BDC04680B582B000AF786039607B68CD
:10464000DA6C3B681A437B68DA64BD4602B080BD11
:1046500080B500AF72B6074B1B68013304D0054B21
:104660001B685A1C034B1A60024B1B68181CBD4682
:1046700080BDC0464C0C002080B582B000AF0B4B13
:104680001B68002B0DD0094B1B685A1E074B1A6084
:10469000064B1B687B607B68002B00D162B67B6891
:1046A00000E00023181CBD4602B080BD4C0C002069
:1046B00080B584B000AF786039600023FB600023D0
:1046C000FB600BE0FB687A68D3181B78084A101C63
:1046D000191C01F04BFCFB680133FB60FA683B6876
:1046E0009A42EFDB3B68181CBD4604B080BDC04653
:1046F00000C0004090B583B000AF154B7B60FC1C40
:10470000144B181C01F020FC031C23707B689B8851
:104710007F2B19D87B681B887968FA1CCB18127814
:104720009A717B681B8801339AB27B681A807B6818
:104730009B8801339AB27B689A807B681B887F2BA9
:1047400002D97B6800221A80BD4603B090BDC046E6
:10475000900D002000C0004080B500AFBD4680BD78
:1047600080B500AF054B00229A80044B00225A808E
:10477000024B00221A80BD4680BDC046900D00202D
:1047800080B584B000AF7860396002E00A20FFF79E
:104790000FFA1B4B9B881A1C3B689A42F6DBFFF70B
:1047A00057FF3B68BB600023FB601EE0FB687A6834
:1047B000D318134A528812498A1892791A70104BEA
:1047C0009B88013B9AB20E4B9A800D4B5B8801335C
:1047D0009AB20B4B5A800A4B5B887F2B02D9084B4D
:1047E00000225A80FB680133FB60FA68BB689A427A
:1047F000DCDBFFF741FFBB68181CBD4604B080BD81
:10480000900D002080B500AF094B181C0421FFF764
:1048100005FF1120FFF7E8FE054B181C0421FFF7E8
:1048200009FF1120FFF7CAFEFFF79AFFBD4680BDC2
:1048300000C0004080B586B000AFF860B9607A6013
:10484000FB681B687B61BB680122101C9840031C3D
:10485000DB437A691A40796801231940BB68081C58
:104860009840031C1A43FB681A60BD4606B080BD21
:1048700080B584B000AF7860184BDA6B3B1C0B330B
:10488000511E8A411A70154B154ADA63134B5A6848
:1048900007231340FB607A68124B9A4206D87A6865
:1048A000114B9A4202D90123FB6001E00023FB6017
:1048B0000A4B0A4A52680721101C8843011CFA68F7
:1048C0000A435A603B1C0B331B78002B02D0034B6E
:1048D0000022DA63BD4604B080BDC04600000C4033
:1048E000711B00000048E8010024F40080B582B08C
:1048F00000AF044B7B607B68181CFFF7B9FFBD4617
:1049000002B080BD40787D0190B583B000AFFC1C43
:10491000124B181C00F00AFA031C2370FB1C1B78B6
:10492000032B08D0082B0BD0022B0ED101F0F8FE80
:10493000031C7B600CE001F0E3FE031C7B6007E0DE
:1049400001F066FE031C7B6002E000237B60C04632
:104950007B68181CBD4603B090BDC04607332000DD
:1049600080B582B000AF1A4B5A69E023DB001340D8
:1049700080229200934216D080229200934206D861
:10498000002B16D08022520093420FD017E0C02295
:104990009200934204D0E022D20093420CD00EE069
:1049A0000C4B7B600EE00C4B7B600BE00B4B7B6099
:1049B00008E00B4B7B6005E00A4B7B6002E00023C4
:1049C0007B60C0467B68181CBD4602B080BDC046F7
:1049D00000800C4040420F00C0CF6A00C0D8A70042
:1049E000809FD500406F400190B583B000AFFC1CA4
:1049F000154B181C00F09AF9031C2370FB1C1B7844
:104A0000072B13D0082B16D101F002FE031C7B608C
:104A10000E4B1A68E0235B0213409B0B013378684E
:104A2000191C02F0D9F8031C7B6007E0FFF798FF20
:104A3000031C7B6002E000237B60C0467B68181C7F
:104A4000BD4603B090BDC04606000C0000800C407F
:104A500080B584B000AF78607B68002B02D07B68A3
:104A6000012B00D1C0461C4B9A6A7B685B00DA4080
:104A700003231340012B05D014D3022B07D0032BA3
:104A80000AD021E001F03CFE031CFB601FE001F0B6
:104A900047FE031CFB601AE001F09CFD031C5B0851
:104AA000FB6014E00C4B9A6A7B6804339B00111C7A
:104AB000D9400B1C002B04D001F02AFE031CFB6024
:104AC00005E00023FB6002E00023FB60C046FB68BA
:104AD000181CBD4604B080BD00800C4080B582B07B
:104AE00000AF7860074B5A6D0123134000D005E0FA
:104AF000C046044B1B6D7A681340FAD1BD4602B024
:104B000080BDC04600800C4080B586B000AF7860A4
:104B10000A1CFB1C1A7000233B617B681A0A0F23D6
:104B200013400A2B36D89A001C4BD3181B689F469B
:104B30001B4B7B6118E01B4B7B6115E01A4B7B61C3
:104B400012E01A4B7B6101233B610DE0184B7B6146
:104B500010233B6108E0174B7B6105E0164B7B613E
:104B600080235B003B61C0467B681A0B1F23134008
:104B7000FB603B69002B03D03B69181CFFF7AEFFBD
:104B8000FB1C1B787969FA68081C111C1A1CFFF7BA
:104B900051FE00E0C046BD4606B080BDDCED000021
:104BA00008800C4044800C4040800C4058800C40F1
:104BB00060800C4078800C4064800C4080B584B0EC
:104BC00000AF78607A68F8239B031340E022120359
:104BD000934200D196E0E0221203934214D880223F
:104BE0009202934258D080229202934202D8002B24
:104BF00024D091E08022D202934231D0C02212030D
:104C0000934200D179E087E0C0225203934248D01A
:104C1000C0225203934208D880225203934246D0C6
:104C2000A0225203934258D076E0D02252039342FE
:104C30004DD080229203934269D06DE001F0E8FCF0
:104C4000031CFB60384B1A68E0235B0213409B0B8C
:104C50000133F868191C01F0BFFF031CFB605EE024
:104C600001F0D6FC031CFB602F4B1A68E0235B02AB
:104C700013409B0B0133F868191C01F0ADFF031CB6
:104C8000FB60294B9B681A1C0F231340FA68111C08
:104C9000D9400B1CFB6042E001F09CFC031CFB6054
:104CA0003DE00020FFF7D4FE031CFB6037E000204E
:104CB000FFF7CEFE031CFB601B4B9B6E1A1C0F23E1
:104CC0001340FA68111CD9400B1CFB6027E001203F
:104CD000FFF7BEFE031CFB6021E00120FFF7B8FEDA
:104CE000031CFB60104B1B6F1A1C03231340FA6854
:104CF000111CD9400B1CFB6011E0FFF775FE031C73
:104D0000FB600CE0FFF72CFE031CFB6007E0FFF7E5
:104D1000FBFD031CFB6002E00023FB60C046FB6858
:104D2000181CBD4604B080BD00800C4080B586B024
:104D300000AF78603B1C173301221A70714B3B6146
:104D40007A680F231340FB60FB68072B00D9CDE086
:104D5000FB689A006C4BD3181B689F466B4BDB6A51
:104D60003A69134080225201934216D080225201A8
:104D7000934204D880221201934213D01CE0802277
:104D80009201934204D08022D20493420FD013E0C8
:104D90003B1C173302221A7013E03B1C173303220B
:104DA0001A700EE03B1C173304221A7009E03B1CFA
:104DB00017330A221A7004E03B1C173305221A70BD
:104DC000C04698E0514B9A6A03231340022B08D047
:104DD000032B0BD0012B0ED13B1C173303221A706F
:104DE00015E03B1C173302221A7010E03B1C1733EE
:104DF00006221A700BE0454B9A6A80235B0213402F
:104E000004D03B1C17330B221A7000E0C04672E03E
:104E10003E4B9A6A0C231340082B08D00C2B0BD066
:104E2000042B0ED13B1C173303221A7015E03B1CD8
:104E3000173302221A7010E03B1C173306221A7037
:104E40000BE0324B9A6A80235B03134004D03B1C77
:104E500017330B221A7000E0C0464CE02B4B9A6AC5
:104E600030231340102B02D0202B05D009E03B1C2F
:104E7000173303221A7009E03B1C173302221A7001
:104E800004E03B1C173301221A70C04633E03B1C80
:104E9000173307221A703B1C173307221A702AE0B7
:104EA0001A4BDA6AE023DB0213408022920293421B
:104EB0000CD08022D20293420DD080225202934223
:104EC0000ED13B1C173302221A700EE03B1C173325
:104ED00003221A7009E03B1C173309221A7004E000
:104EE0003B1C173301221A70C04604E03B1C1733E9
:104EF00000221A70C0463B1C17331B78181CBD4695
:104F000006B080BD003C000408EE000000800C40AC
:104F100080B588B000AF78600A1CFB1C1A700323B0
:104F2000FB613B1C1B3303221A7000237B617A68F0
:104F30000F231340FB60FB68072B00D9F4E0FB68EC
:104F40009A007D4BD3181B689F46FB1C1B780B2BCC
:104F500000D9EBE09A00794BD3181B689F460423D5
:104F6000FB613B1C1B3300221A701CE00323FB6116
:104F70003B1C1B3301221A7015E00223FB613B1C12
:104F80001B3302221A700EE00123FB613B1C1B3312
:104F900003221A7007E00523FB613B1C1B3305222B
:104FA0001A7000E0C0463B1C1B331B78181C012103
:104FB000012200F0CFF8FFF799FC614BFA695A62C1
:104FC00000F02CF901F006FB031CBB60BB68181C49
:104FD000FFF74EFCADE0FB1C1B780B2B00D9A7E0C4
:104FE0009A00584BD3181B689F4600233B611DE075
:104FF00000200121012200F0ADF802233B6115E001
:1050000001200121012200F0A5F801233B610DE000
:105010004D4B181C02210122FFF70CFC03233B61BE
:1050200004E000233B6101237B61C046FB68022B47
:105030000BD1434B424A916A444A11403A691143A9
:105040007A6912040A439A6273E03D4B3C4A916AC2
:105050003F4A11403A69920011437A6912050A43A6
:105060009A6266E0FB1C1B78022B07D0032B0DD045
:10507000012B00D05DE000233B610FE00020012107
:10508000012200F067F802233B6107E001200121C3
:10509000012200F05FF801233B61C046284B284AFB
:1050A000926A3021101C8843011C3A6912010A439C
:1050B0009A623EE0FB1C1B78032B14D0092B22D0F4
:1050C000022B00D035E000200121012200F042F83F
:1050D0001B4B40225A62C046194BDA6A80235B029E
:1050E0001340F9D01FE001200121012200F032F825
:1050F000134B60225A62C046114BDA6A80239B022E
:105100001340F9D00FE005200121012200F022F820
:105110000B4B80225A62C046094BDA6A8023DB02BD
:105120001340F9D0C04604E0C04602E0C04600E0AB
:10513000C046BD4608B080BD28EE000048EE000025
:1051400000800C4078EE000040800C40FCFFFEFF29
:10515000F3FFEFFF80B586B000AFFB1D1870BB1DDD
:1051600019707B1D1A70FB1D1B78062B4CD89A00FA
:10517000284BD3181B689F4601233B610223FB6029
:1051800002237B6128E004233B610823FB600823A2
:105190007B6121E010233B612023FB6020237B61A6
:1051A0001AE040233B618023FB6080237B6113E096
:1051B00080235B003B6180239B00FB6080239B007E
:1051C0007B6109E08023DB003B6180231B01FB60E6
:1051D0008023DB037B61C046BB1D1B78002B0DD0F9
:1051E0000D4B3A691A627B1D1B78002B09D0C04613
:1051F000094BDB6A7A691340FAD002E0064BFA6881
:105200001A6200F00BF802E0C04600E0C046BD465E
:1052100006B080BDA8EE000000800C4080B500AF55
:10522000024BDA6A024B1A60BD4680BD00800C401A
:10523000A8000020B0B586B000AF3961FB603B1C10
:105240001733011C19703B1C16331A703B1C1733A3
:105250001B78002B11D03B1C17331B78012B0CD073
:105260003B1C17331B78022B07D03B1C17331B78D2
:10527000032B02D03B1C17331B783B1C16331B78C7
:10528000002B25D0FB68002B11D052483B1C173354
:105290001A783B6901210C1C9C40231C191C131C0F
:1052A000DB009B189B00C3181033196010E04948BD
:1052B0003B1C17331A783B6901210D1C9D402B1CA8
:1052C000191C131CDB009B189B00C318103359607A
:1052D0003B69072B25D83F483B1C17331A783D4CB8
:1052E0003B1C173319780B1CDB005B189B00E31881
:1052F0005B68396989000F24251C8D40291CC9432E
:1053000019403B1C16331C783B699B00251C9D40B3
:105310002B1C1943131CDB009B189B00C3185960FE
:105320002AE02C483B1C17331A782A4C3B1C1733B5
:1053300019780B1CDB005B189B00E31808331B6813
:105340003969254C091989000F24251C8D40291C19
:10535000C94319403B1C16331C783B691E4D5B1931
:105360009B00251C9D402B1C1943131CDB009B1824
:105370009B00C318083319603B1C16331B78002BA5
:1053800025D1FB68002B11D012483B1C17331A782B
:105390003B6901210C1C9C40231C191C131CDB00C5
:1053A0009B189B00C3181033196010E009483B1C80
:1053B00017331A783B6901210D1C9D402B1C191CC9
:1053C000131CDB009B189B00C31810335960BD46AB
:1053D00006B0B0BD00600040F8FFFF3F80B586B06A
:1053E00000AFF860B9607A60FB681B687B61BB68DE
:1053F0000122101C9840031CDB437A691A4079682B
:1054000001231940BB68081C9840031C1A43FB6821
:105410001A60BD4606B080BD80B586B000AFF860AA
:10542000B9607A601A1CFB1C1A707B68002B00D1D3
:1054300035E0FB681A681B4B1A40FB681A60FB6872
:105440001A68FB1C1B781B021A43FB681A60BB68B6
:10545000002B05D1144B181CFFF7B0FB031CBB60DD
:10546000FB1C1B78114AD35C3B617B689B00BA68CC
:10547000D21A3B6979684B43101C191C01F0ACFB34
:10548000031C7B61FB681A680223134004D07B690C
:10549000002B01D101237B61FB687A691A61BD464B
:1054A00006B080BDFFFCFFFF40810400C4EE000099
:1054B00080B582B000AF786039607B6800225A63A3
:1054C0007B68114A1A637A683B685B78002B01D0CD
:1054D000002300E00123101C01211A1CFFF77EFFAE
:1054E0003B6859683B689A683B681B7B7868FFF7A4
:1054F00093FF7A683B681B78101C00211A1CFFF789
:105500006DFFBD4602B080BDCFFF010080B588B001
:1055100000AF78607A68BD4B9A4205D1BC4BBB6145
:10552000BB699B687B6101E0FC23ECE17B689B6AC3
:105530003B613A69C023DB00134014D03A698023F1
:105540009B00134003D0BB69FD225A7007E03A6903
:105550008023DB00134002D0BB69FE225A70BB6976
:1055600009221A70BBE1BB691B78082B00D9AEE198
:105570009A00A84BD3181B689F467B695B881A1C4E
:10558000102313400AD07B691B881B0A9BB21A1C8C
:1055900006231340F0221343FB610FE07B691B8855
:1055A0001A1CFE231340FB617B695B881A1C0223D3
:1055B000134003D0FB6901221343FB61BB69012245
:1055C0001A707B68FA695A627B6801225A6086E128
:1055D0003A69802313400CD07B6880221A63BB6930
:1055E000FF225A70BB6908221A707B6802225A6037
:1055F00030E03A69402313402CD07B6840221A6384
:105600007B695B881A1C102313400AD0BB690222F5
:105610001A707B691B881A1CFF231A407B685A6228
:1056200018E07B695B881A1C022313400ED0BB690B
:1056300007221A70BB691B797A69DB00D3181B89B2
:10564000012B07D17B6808225A6048E1BB6905221B
:105650001A7043E143E13A69802313400CD07B6820
:1056600080221A63BB69FF225A70BB6908221A7034
:105670007B6802225A6014E03A694023134010D03C
:105680007B6840221A637B695B881A1C02231340E3
:1056900003D0BB6903221A7020E1BB6905221A708E
:1056A0001CE11CE17B695B881A1C102313400AD0A3
:1056B0007B691B881B0A9BB21A1C06231340F0222D
:1056C0001343FB6105E07B691B881A1CFE23134012
:1056D000FB617B695B881A1C0423134003D0FB69C0
:1056E00001221343FB61BB6904221A707B6801220B
:1056F0005A607B68FA695A62F1E03A698023134084
:105700000CD07B6880221A63BB69FF225A70BB6988
:1057100008221A707B6802225A6014E03A6940231A
:10572000134010D07B6840221A637B695B881A1C87
:105730000423134003D0BB6907221A7003E0BB693E
:1057400005221A70CAE0CAE0BB695A88BB691B7996
:105750007969DB00CB181B899A4224D3BB690022EC
:105760005A80BB691B790133DAB2BB691A717B6954
:105770005B881A1C0423134003D0BB6903221A70F0
:10578000ACE07B695B881A1C0123134003D1BB6921
:105790001B79012B06D9BB6908221A707B6802228B
:1057A0005A609CE09AE0BB691B797A69DB00D318E8
:1057B00004331A68BB695B88591C88B2B969488090
:1057C000D3181B781A1C7B685A62BB6906221A70B0
:1057D00085E03A69802313400CD07B6880221A63ED
:1057E000BB69FF225A70BB6908221A707B680222CB
:1057F0005A600AE03A694023134006D07B68402291
:105800001A63BB6905221A7068E068E000A00040D6
:10581000AC000020C8EE00003A692023134047D0B6
:10582000BB691B797A69DB00D3181B89FB607B6835
:10583000DA693B1C0B331A70BB695B881A1CFB6866
:105840009A4211D2BB691B797A69DB00D318043301
:105850001A68BB695B88591C88B2B9694880D3183B
:105860003A1C0B3212781A70BB695B881A1CFB68F1
:105870009A420CD3FB68012B02D17B6808225A6044
:10588000BB6908221A707B6802225A6010E07B68AC
:1058900004225A60FB68012B0AD9BB695B881A1C79
:1058A000FB68013B9A4203D17B6808225A6016E0EC
:1058B00015E03A6980235B00134007D07B688022A3
:1058C00052001A63BB6909221A7008E007E0BB693D
:1058D000FB225A70BB6909221A7000E026E6BB69F8
:1058E0001B78092B0BD17B6800225A63BB695B785C
:1058F0005BB2012B05D1BB6900225A7001E0012384
:1059000001E0BB695B785BB2181CBD4608B080BD86
:1059100080B584B000AF786039607A68274B9A42CE
:1059200007D1274BFB607B689A680123134005D0A1
:1059300001E0FC233DE07B6820225A603B685B88E5
:105940001A1C0223134003D03B681B89002B09D08B
:105950003B685B881A1C0423134005D03B681B8AF4
:10596000002B01D1FC2324E0FB6800221A70FB68A5
:1059700001225A70FB6800225A80FB6800221A71CB
:10598000FB683A689A607B68C0225A607B689A6AB2
:105990002023134001D07B68DB697B68094A1A63C6
:1059A0007B68FC22D2005A637B68181CFFF7AEFDAF
:1059B000031C5BB2181CBD4604B080BD00A00040B3
:1059C000AC000020CFFF010080B582B000AF78604E
:1059D0000A1CFB1C1A70FB1C1B78002B06D07B6872
:1059E0001B6F01221A437B681A6707E07B681B6FF5
:1059F0000122191C91430A1C7B681A67BD4602B03C
:105A000080BDC04680B582B000AF78607A688023E0
:105A1000D358181CBD4602B080BDC04680B582B0C8
:105A200000AF786039607A6884233968D150BD4608
:105A300002B080BD80B582B000AF786039607A680E
:105A4000384B9A4207D07A68374B9A4203D07A682B
:105A5000364B9A4200D1C0463B681B780122534026
:105A6000DBB2002B02D07B6802225A607B680022E6
:105A70005A623B689B781A063B68DB781B041A4322
:105A80003B689B799B021A433B68DB791B021A43F4
:105A90003B681B7A1A433B685B78002B01D040239C
:105AA00000E000231A433B685B7A002B01D080237F
:105AB00000E000231A433B689B7A002B01D020238F
:105AC00000E000231A433B68DB7A002B01D010234F
:105AD00000E000231A433B681B79002B02D080238F
