S01A0000676573747572655F62743132315F666F7244422E733337E6
S1130000002000206D01000099010000990100000A
S11300109901000099010000990100009901000074
S11300209901000099010000990100009901000064
S1130030990100009901000099010000454A00005F
S11300409901000099010000990100009901000044
S11300509901000099010000990100009901000034
S1130060294C000099010000954C00009901000002
S11300709901000099010000990100009901000014
S113008099010000214C0000990100009901000031
S11300909901000010B5064C2378002B07D1054BBD
S11300A0002B02D0044800E000BF0123237010BDE0
S11300B084000020000000005C99000008B5084B93
S11300C0002B03D00748084900E000BF0748036835
S11300D0002B03D0064B002B00D0984708BDC04628
S11300E0000000005C9900008800002080000020CF
S11300F000000000164B002B00D1144B9D464022FB
S113010092029A1A924600218B460F461348144ACB
S1130110121A07F032F90F4B002B00D098470E4B00
S1130120002B00D098470020002104000D000D484A
S1130130002802D00C4800E000BF07F0EFF82000D0
S1130140290003F0FFFD07F0D3F8C04600000800C3
S113015000200020000000000000000084000020B7
S113016098030020000000000000000006488047BB
S11301700649074A074B9B1A03DD043BC858D05075
S1130180FBDCFFF7B7FF0000E902000068990000FC
S11301900000002084000020FEE7C04680B582B045
S11301A000AF00F021F8031C7B60094B5B681A1C4C
S11301B00F2313407A68111CD9400B1C7B60054B3C
S11301C07A681A607B68181CBD4602B080BDC046C0
S11301D000800C404C01002080B500AF014B181C7E
S11301E0BD4680BD00366E0180B582B000AF344B91
S11301F0DA6A344B134080225201934215D0802294
S11302005201934204D880221201934211D017E084
S113021080229201934204D08022D20493420CD0D3
S11302200EE0294B1B687B6039E080231B027B6056
S113023035E0264B1B687B6031E0254B7B602EE06C
S11302401F4BDA68E023DB001340802292009342C4
S113025018D080229200934206D8002B18D0802216
S11302605200934211D016E0C0229200934206D06D
S11302708022D20093420ED1164B7B600EE0164BC7
S11302807B600BE0154B7B6008E0154B7B6005E061
S1130290144B7B6002E000237B60C046C046084BE1
S11302A01A68E0235B0213409B0B01337868191C26
S11302B004F01CFD031C181CBD4602B080BDC046E2
S11302C000800C40003C00040400002000000020DA
S11302D000366E01406F4001809FD500C0D8A70052
S11302E040B56400804F120080B500AFBD4680BDAC
S11302F080B500AF80231B02181CBD4680BDC046DC
S113030080B500AFFA239B00181CBD4680BDC046D3
S113031080B500AF024B1B68181CBD4680BDC046AB
S11303200400002080B586B000AFB9607B603B1C40
S11303300F33011C19703B1C0C331A80154B181C0D
S113034007F024F83B1C0F331B78BA68101C191CE7
S113035004F044FC031C7B617B69002B00DA15E08C
S11303603B1C0C331B88002B10D07B68002B0DD05A
S11303703B1C0C331B887A68101C191C04F02EFCDF
S1130380031C7B617B69002B00DAC046BD4606B0C6
S113039080BDC0467085000080B586B000AFF860AF
S11303A0B9607A60FB681B687B61BB680122101C22
S11303B09840031CDB437A691A4079680123194089
S11303C0BB68081C9840031C1A43FB681A60BD46AE
S11303D006B080BD80B582B000AF786039607B68BC
S11303E01A683B68DA4001231340181CBD4602B06A
S11303F080BDC04680B500AF034BDB6C1B0EDBB287
S1130400181CBD4680BDC046B081E00F80B582B0E7
S113041000AF224B5A69E023DB0013408022920094
S113042093421ED080229200934206D8002B26D0FD
S11304308022520093421FD027E0C02292009342B0
S113044004D0E022D20093421CD01EE0FFF7D2FF7A
S1130450031C122B02D9124B7B6019E0114B7B60F9
S113046016E0FFF7C7FF031C122B02D90E4B7B606B
S11304700EE00E4B7B600BE00D4B7B6008E00D4BF8
S11304807B6005E00C4B7B6002E000237B60C04690
S11304907B68181CBD4602B080BDC04600800C407D
S11304A0804F120040420F0040B56400C0CF6A0084
S11304B0C0D8A700809FD500406F400190B583B09D
S11304C000AFFC1C0E4B181C00F024FA031C237014
S11304D0FB1C1B78072B06D0082B09D1FFF784FEE1
S11304E0031C7B6007E0FFF791FF031C7B6002E0C5
S11304F000237B60C0467B68181CBD4603B090BDDA
S113050006000C0080B584B000AF7860184BDA6B3D
S11305103B1C0B33511E8A411A70154B154ADA6382
S1130520134B5A6807231340FB607A68124B9A42B4
S113053006D87A68114B9A4202D90123FB6001E084
S11305400023FB600A4B0A4A52680721101C8843A7
S1130550011CFA680A435A603B1C0B331B78002BBE
S113056002D0034B0022DA63BD4604B080BDC0460E
S113057000000C40711B00000048E8010024F40056
S113058080B500AFFFF728FE031C181CFFF7BAFF65
S1130590BD4680BD80B584B000AF78600023BB60E9
S11305A07B68374A934206D0364A934203D0364A90
S11305B0934200D000E0C0467B68181C00F0AAF902
S11305C0031CFB607B682E4A93420CD02D4A934255
S11305D010D02D4A934200D013E02C4B9A6A032387
S11305E01340FB600DE0294B9A6A0C2313409B08CF
S11305F0FB6006E0254B9A6A302313401B09FB601D
S1130600C046FB68012B05D014D3022B07D0032B63
S11306100AD02DE0FFF76CFE031CBB602BE0FFF754
S113062077FE031CBB6026E0FFF7B8FD031C5B08E4
S1130630BB6020E00023BB607A68134B9A4203D06E
S11306407A680F4B9A4212D1104B9A6A79680E4B12
S1130650994201D1102300E01423111CD9400B1C32
S1130660002B04D0FFF74CFE031CBB6003E002E048
S11306700023BB60C046BB68181CBD4604B080BDE7
S113068003001A0004001C000200180000800C4043
S113069080B582B000AF7860074B5A6D01231340D8
S11306A000D005E0C046044B1B6D7A681340FAD1B4
S11306B0BD4602B080BDC04600800C4090B583B0FA
S11306C000AFFC1C124B181C00F024F9031C23700F
S11306D0FB1C1B78032B08D0082B0BD0022B0ED14C
S11306E0FFF716FE031C7B600CE0FFF701FE031C02
S11306F07B6007E0FFF778FD031C7B6002E00023CA
S11307007B60C0467B68181CBD4603B090BDC046E4
S11307100733200080B586B000AF78600A1CFB1C4C
S11307201A7000233B617B681A0A0F2313400A2BBB
S113073036D89A001C4BD3181B689F461B4B7B6111
S113074018E01B4B7B6115E01A4B7B6112E01A4BDE
S11307507B6101233B610DE0184B7B6110233B61FE
S113076008E0174B7B6180235B003B6102E0154B83
S11307707B61C0467B681A0B1F231340FB603B69F7
S1130780002B03D03B69181CFFF782FFFB1C1B786E
S11307907969FA68081C111C1A1CFFF7FDFD00E0BA
S11307A0C046BD4606B080BDEC89000040800C40C8
S11307B008800C4044800C4058800C4060800C4001
S11307C064800C4078800C4080B584B000AF7860C1
S11307D07A68F8239B031340E0221203934200D16A
S11307E07FE0E0221203934213D8802292029342C4
S11307F03DD080229202934202D8002B23D07AE08B
S11308008022D202934223D0C0221203934263D0A7
S113081071E0C022520393422ED0C022520393426D
S113082008D88022520393422DD0A022520393422F
S113083041D060E0D0225203934235D0802292030B
S1130840934253D057E0FFF7CFFC031CFB6055E005
S1130850FFF7CAFC031CFB602B4B9B681A1C0F237D
S11308601340FA68111CD9400B1CFB6046E0FFF7EB
S113087095FC031CFB6041E0244B181CFFF78AFE27
S1130880031CFB603AE0214B181CFFF783FE031C9A
S1130890FB601D4B9B6E1A1C0F231340FA68111C3E
S11308A0D9400B1CFB6029E0194B181CFFF772FEA2
S11308B0031CFB6022E0164B181CFFF76BFE031CA5
S11308C0FB60114B1B6F1A1C03231340FA68111CA5
S11308D0D9400B1CFB6011E0FFF7F0FD031CFB602B
S11308E00CE0FFF793FD031CFB6007E0FFF7E6FE57
S11308F0031CFB6002E00023FB60C046FB68181C7D
S1130900BD4604B080BDC04600800C400200180003
S113091003001A0080B584B000AF78603B1C0F332D
S113092001221A707A680F231340BB60BB68072B3F
S113093000D9CAE0BB689A006A4BD3181B689F466B
S1130940694BDA6A694B134080225201934216D0F4
S113095080225201934204D880221201934213D080
S11309601CE080229201934204D08022D20493425C
S11309700FD013E03B1C0F3302221A7013E03B1C10
S11309800F3303221A700EE03B1C0F3304221A703B
S113099009E03B1C0F330A221A7004E03B1C0F339E
S11309A005221A70C04695E04F4B9A6A0323134000
S11309B0022B08D0032B0BD0012B0ED13B1C0F3381
S11309C003221A7015E03B1C0F3302221A7010E048
S11309D03B1C0F3306221A700BE0434B9A6A8023A8
S11309E05B02134004D03B1C0F330B221A7000E04F
S11309F0C0466FE03C4B9A6A0C231340082B08D086
S1130A000C2B0BD0042B0ED13B1C0F3303221A707A
S1130A1015E03B1C0F3302221A7010E03B1C0F330D
S1130A2006221A700BE0304B9A6A80235B03134052
S1130A3004D03B1C0F330B221A7000E0C04649E07F
S1130A40294B9A6A30231340102B02D0202B05D057
S1130A5009E03B1C0F3303221A7009E03B1C0F33DF
S1130A6002221A7004E03B1C0F3301221A70C046A4
S1130A7030E03B1C0F3307221A702BE01A4BDA6A62
S1130A80E023DB02134080229202934212D08022A0
S1130A90D202934204D080225202934205D00EE047
S1130AA03B1C0F3309221A700EE03B1C0F33022249
S1130AB01A7009E03B1C0F3303221A7004E03B1C3C
S1130AC00F3301221A70C04604E03B1C0F3300228E
S1130AD01A70C0463B1C0F331B78181CBD4604B06B
S1130AE080BDC046188A000000800C40003C000411
S1130AF080B588B000AF78600A1CFB1C1A70032311
S1130B00FB613B1C1B3303221A7000233B617A6890
S1130B100F231340FB60FB68072B00D9F3E0FB684D
S1130B209A007D4BD3181B689F46FB1C1B780B2B2C
S1130B3000D9EAE09A00794BD3181B689F46042336
S1130B40FB613B1C1B3300221A701BE00323FB6177
S1130B503B1C1B3301221A7014E00223FB613B1C73
S1130B601B3302221A700DE00123FB613B1C1B3373
S1130B7003221A7006E00523FB613B1C1B3305228C
S1130B801A70C0463B1C1B331B78181C0121012220
S1130B9000F0D0F8FFF7F4FC614BFA695A6200F0F8
S1130BA02FF9FFF7FBFA031CBB60BB68181CFFF7A7
S1130BB0A9FCADE0FB1C1B780B2B00D9A7E09A0025
S1130BC0584BD3181B689F4600237B611DE000200F
S1130BD00121012200F0AEF802237B6115E001201F
S1130BE00121012200F0A6F801237B610DE04E4BA8
S1130BF0181C02210122FFF7CFFB03237B6104E0D1
S1130C0000237B6101233B61C046FB68022B0BD1AF
S1130C10434B434A916A454A11407A6911433A6900
S1130C2012040A439A6273E03D4B3D4A916A404A7A
S1130C3011407A69920011433A6912050A439A6293
S1130C4066E0FB1C1B78022B07D0032B0DD0012B75
S1130C5000D05DE000237B610FE000200121012230
S1130C6000F068F802237B6107E0012001210122E2
S1130C7000F060F801237B61C046294B284A926A40
S1130C803021101C8843011C7A6912010A439A62BC
S1130C903EE0FB1C1B78032B14D0092B22D0022B23
S1130CA000D035E000200121012200F043F81C4B64
S1130CB040225A62C0461A4BDA6A80235B02134010
S1130CC0F9D01FE001200121012200F033F8144B78
S1130CD060225A62C046124BDA6A80239B02134098
S1130CE0F9D00FE005200121012200F023F80C4B7C
S1130CF080225A62C0460A4BDA6A8023DB02134020
S1130D00F9D0C04604E0C04602E0C04600E0C04658
S1130D10BD4608B080BDC046388A0000588A00002D
S1130D2000800C40888A000040800C40FCFFFEFFDD
S1130D30F3FFEFFF80B586B000AFFB1D1870BB1D3D
S1130D4019707B1D1A70FB1D1B78052B4ED89A0059
S1130D50284BD3181B689F4601233B610223FB6089
S1130D6001237B6126E004233B610823FB6003230A
S1130D707B611FE010233B612023FB6005237B6123
S1130D8018E040233B618023FB6007237B6111E073
S1130D9080235B003B6180239B00FB6009237B6114
S1130DA008E08023DB003B6180231B01FB601623EA
S1130DB07B61C046BB1D1B78002B11D00E4B3A69DA
S1130DC01A627B1D1B78002B0DD0C0460B4A7B6931
S1130DD0101C191CFFF7FEFA031C002BF6D002E0CE
S1130DE0054BFA681A6200F00BF800E0C046BD46F5
S1130DF006B080BDB88A000000800C402C800C40F6
S1130E0080B500AF024BDA6A024B1A60BD4680BD62
S1130E1000800C40A000002080B586B000AFF860D0
S1130E20B9607A60FB681B687B61BB680122101C97
S1130E309840031CDB437A691A40796801231940FE
S1130E40BB68081C9840031C1A43FB681A60BD4623
S1130E5006B080BD80B584B000AFF860B9607A6038
S1130E60FB681B68BA68D2431A407B681A43FB6864
S1130E701A60BD4604B080BD80B588B000AFF8608C
S1130E80B9607A601A1CFB1C1A707B68002B00D1B5
S1130E9065E0FB681A68334B1A40FB681A60F9680E
S1130EA0FB1C1B781B02C0229200081C111C1A1C7C
S1130EB0FFF7D0FFBB68002B05D12B4B181CFFF7A5
S1130EC083FC031CBB6001235B42BB61FB681A68A3
S1130ED00223134012D0FB1C1B78012B07D0022BDA
S1130EE008D0002B00D01AE0204BBB6105E0204B5A
S1130EF0BB6102E01F4BBB61C04610E0FB1C1B78CA
S1130F00012B06D0022B07D0002B08D11A4BBB6152
S1130F1005E01A4BBB6102E0194BBB61C046FB1CE8
S1130F201B78184AD35C7B617B689B00BA68D21A31
S1130F307B6979684B43101C191C03F0D7FE031C12
S1130F40013BFB61FB681A680223134004D0FB6970
S1130F50002B01D10123FB61FA69FB681A61BD46CC
S1130F6008B080BDFFFCFFFF408104004016400034
S1130F70C0D8A7008050740180841E0040548900AA
S1130F80002D3101D08A000080B582B000AF7860B6
S1130F9039607B6800225A637B68114A1A637A6855
S1130FA03B685B78002B01D0002300E00123101C78
S1130FB001211A1CFFF730FF3B6859683B689A68A7
S1130FC03B681B7B7868FFF757FF7A683B681B78A0
S1130FD0101C00211A1CFFF71FFFBD4602B080BD84
S1130FE0CFFF010080B588B000AF78607A68BD4B50
S1130FF09A4205D1BC4BBB61BB699B687B6101E034
S1131000FC23ECE17B689B6A3B613A69C023DB000B
S1131010134014D03A6980239B00134003D0BB696A
S1131020FD225A7007E03A698023DB00134002D0A6
S1131030BB69FE225A70BB6909221A70BBE1BB6905
S11310401B78082B00D9AEE19A00A84BD3181B6873
S11310509F467B695B881A1C102313400AD07B6966
S11310601B881B0A9BB21A1C06231340F02213434D
S1131070FB610FE07B691B881A1CFE231340FB6194
S11310807B695B881A1C0223134003D0FB6901228D
S11310901343FB61BB6901221A707B68FA695A62C7
S11310A07B6801225A6086E13A69802313400CD0A0
S11310B07B6880221A63BB69FF225A70BB690822CD
S11310C01A707B6802225A6030E03A694023134068
S11310D02CD07B6840221A637B695B881A1C10231E
S11310E013400AD0BB6902221A707B691B881A1C40
S11310F0FF231A407B685A6218E07B695B881A1CDC
S1131100022313400ED0BB6907221A70BB691B79F6
S11311107A69DB00D3181B89012B07D17B6808226D
S11311205A6048E1BB6905221A7043E143E13A6918
S1131130802313400CD07B6880221A63BB69FF2292
S11311405A70BB6908221A707B6802225A6014E044
S11311503A694023134010D07B6840221A637B69AC
S11311605B881A1C0223134003D0BB6903221A7044
S113117020E1BB6905221A701CE11CE17B695B88D4
S11311801A1C102313400AD07B691B881B0A9BB2CC
S11311901A1C06231340F0221343FB6105E07B690C
S11311A01B881A1CFE231340FB617B695B881A1C95
S11311B00423134003D0FB6901221343FB61BB6981
S11311C004221A707B6801225A607B68FA695A62A9
S11311D0F1E03A69802313400CD07B6880221A63C3
S11311E0BB69FF225A70BB6908221A707B6802220D
S11311F05A6014E03A694023134010D07B684022BF
S11312001A637B695B881A1C0423134003D0BB69EF
S113121007221A7003E0BB6905221A70CAE0CAE00B
S1131220BB695A88BB691B797969DB00CB181B89B8
S11312309A4224D3BB6900225A80BB691B790133CB
S1131240DAB2BB691A717B695B881A1C04231340E8
S113125003D0BB6903221A70ACE07B695B881A1C5B
S11312600123134003D1BB691B79012B06D9BB6948
S113127008221A707B6802225A609CE09AE0BB69DB
S11312801B797A69DB00D31804331A68BB695B885D
S1131290591C88B2B9694880D3181B781A1C7B681A
S11312A05A62BB6906221A7085E03A6980231340AA
S11312B00CD07B6880221A63BB69FF225A70BB6919
S11312C008221A707B6802225A600AE03A694023B5
S11312D0134006D07B6840221A63BB6905221A704A
S11312E068E068E000A00040A4000020D48A000068
S11312F03A692023134047D0BB691B797A69DB0024
S1131300D3181B89FB607B68DA693B1C0B331A70AA
S1131310BB695B881A1CFB689A4211D2BB691B79B2
S11313207A69DB00D31804331A68BB695B88591CDB
S113133088B2B9694880D3183A1C0B3212781A70F3
S1131340BB695B881A1CFB689A420CD3FB68012BAF
S113135002D17B6808225A60BB6908221A707B6834
S113136002225A6010E07B6804225A60FB68012B59
S11313700AD9BB695B881A1CFB68013B9A4203D1FA
S11313807B6808225A6016E015E03A6980235B0006
S1131390134007D07B68802252001A63BB6909227C
S11313A01A7008E007E0BB69FB225A70BB69092286
S11313B01A7000E026E6BB691B78092B0BD17B6809
S11313C000225A63BB695B785BB2012B05D1BB6910
S11313D000225A7001E0012301E0BB695B785BB233
S11313E0181CBD4608B080BD80B584B000AF7860DD
S11313F039607A68274B9A4207D1274BFB607B6898
S11314009A680123134005D001E0FC233DE07B688A
S113141020225A603B685B881A1C0223134003D0C5
S11314203B681B89002B09D03B685B881A1C04238A
S1131430134005D03B681B8A002B01D1FC2324E018
S1131440FB6800221A70FB6801225A70FB680022B4
S11314505A80FB6800221A71FB683A689A607B68BC
S1131460C0225A607B689A6A2023134001D07B68AB
S1131470DB697B68094A1A637B68FC22D2005A63E1
S11314807B68181CFFF7AEFD031C5BB2181CBD463D
S113149004B080BD00A00040A4000020CFFF0100E4
S11314A080B582B000AF78600A1CFB1C1A70FB1C6C
S11314B01B78002B06D07B681B6F01221A437B68C4
S11314C01A6707E07B681B6F0122191C91430A1CF1
S11314D07B681A67BD4602B080BDC04680B582B045
S11314E000AF78607A688023D358181CBD4602B0D8
S11314F080BDC04680B582B000AF786039607A683C
S113150084233968D150BD4602B080BD80B582B015
S113151000AF786039607A68384B9A4207D07A68AD
S1131520374B9A4203D07A68364B9A4200D1C04670
S11315303B681B7801225340DBB2002B02D07B684E
S113154002225A607B6800225A623B689B781A0622
S11315503B68DB781B041A433B689B799B021A4364
S11315603B68DB791B021A433B681B7A1A433B68CE
S11315705B78002B01D0402300E000231A433B6832
S11315805B7A002B01D0802300E000231A433B68E0
S11315909B7A002B01D0202300E000231A433B68F0
S11315A0DB7A002B01D0102300E000231A433B68B0
S11315B01B79002B02D080239B0100E000231A43F7
S11315C03B685B79002B02D080235B0500E000239D
S11315D01A433B681B7B002B01D0082300E0002347
S11315E01A437B681A603B681B78002B02D07B6827
S11315F001225A60BD4602B080BDC04600000140D1
S1131600000401400008014080B584B000AFF860D8
S1131610B9607A60FA68284B9A4207D0FA68274B77
S11316209A4203D0FA68264B9A4200D1C0467B689E
S11316301B789A067B685B781B061A437B689B7849
S11316401B041A437B68DB781B031A437B681B79F2
S11316509B021A437B685B791B021A437B689B7964
S11316601A437B68DB79002B02D080239B0300E0C4
S113167000231A437B681B7A002B02D080235B0370
S113168000E000231A437B685B7A002B01D010230F
S113169000E000231A437B689B7A002B01D00423CB
S11316A000E00023111C1943FB68BA6803321201DD
S11316B0D150BD4604B080BD00000140000401408B
S11316C00008014080B582B000AF786039607B6863
S11316D0181C0021FFF7E4FE3B68DB78002B01D0E7
S11316E0022200E000223B685B78002B01D0042337
S11316F000E000231A433B689B78002B01D00823A9
S113170000E000231A433B681B79002B02D080239E
S11317105B0400E000231A433B685B791B011A4316
S11317207B681A673B689B791A1C3B689B681B02A1
S11317301A433B68DB681B041A437B685A673B689F
S11317401B7D002B02D080231A0500E000223B6899
S11317505B7D002B02D08023DB0400E000231A43CE
S11317603B689B7D002B02D080235B0400E00023B8
S11317701A433B681B7E002B02D080239B0400E0AD
S113178000231A433B689B7E1B041A433B68DB7DA2
S11317901A433B685B7E1B021A437B689A673B686B
S11317A01A697B68DA677B68181CFFF797FE031CCD
S11317B07A68101C191CFFF79DFE3B681B787A6839
S11317C0101C191CFFF76CFEBD4602B080BDC0465C
S11317D080B586B000AFF860B9607A601A1CFB1C53
S11317E01A70BB68002B05D1294B181CFEF7ECFFBF
S11317F0031CBB60FB1C1B78202B0BD002DC002BD2
S113180005D042E0402B08D0602B0ED03DE01023E1
S11318107B610DE008237B610AE0BB68181C06218C
S113182003F064FA06237B6102E004237B61C04673
S1131830BB689A007B6979684B435B08D3183B61AA
S11318407B697A6853433869191C03F04FFA031C07
S11318503B613B69043B3B613B699B013B613A69EA
S11318600C4B13403B61FB681B686022191C9143BD
S11318700A1CFB681A60FB681A68FB1C1B781A4375
S1131880FB681A60FB683A695A61BD4606B080BDC0
S113189040810400C0FF1F0080B582B000AF7860B3
S11318A039607A681F4B9A4203D07A681E4B9A4279
S11318B000D1C0467B68181C00F066F83B689B7C2E
S11318C0002B06D07B681B688022D2051A437B68F4
S11318D01A603B68DB7C002B07D03B681B7D102221
S11318E01343DBB21A1C7B689A653B685B7B1A1C4A
S11318F03B681B8A1A433B68DB891A437B685A603E
S11319003B6859683B689A683B681B7B7868FFF7BB
S11319105FFF3B681B781A1C7B68DA60BD4602B027
S113192080BDC04600C0004000C4004080B584B003
S113193000AF786039607B689B6877229343FB60D3
S11319403B681B78002B03D0FB6840221343FB60E9
S11319503B689B78002B03D0FB6820221343FB6079
S11319603B685B78002B03D0FB6810221343FB60B9
S11319703B68DB78FA681343FB607B68FA689A601B
S1131980BD4604B080BDC04680B582B000AF78606B
S11319907A681E4B9A4203D07A681D4B9A4200D152
S11319A0C0467B681B4ADA607B6800221A607B6849
S11319B0194A5A607B6800229A607B6800225A6147
S11319C07B680022DA647B68144A9A647B6800228C
S11319D05A657A680D4B9A4203D07A680C4B9A4246
S11319E002D17B6800221A657B6800229A657A68B6
S11319F0064B9A4203D07A68054B9A4202D17B681F
S1131A000022DA65BD4602B080BDC04600C0004079
S1131A1000C40040AA0E000005100000F91F0000D9
S1131A2080B582B000AF7860C0467B681A698023B5
S1131A301340FAD07B68DB69DBB2181CBD4602B0E8
S1131A4080BDC04680B582B000AF78600A1CFB1C24
S1131A501A70C0467B681A6940231340FAD0FB1CF5
S1131A601A787B685A63BD4602B080BD80B500AF6A
S1131A7000F00CF800F03CF800F090F800F0E4F806
S1131A8000F006F900F0DEFABD4680BD80B500AF77
S1131A9011200521FFF72CF80F4B181C0121FEF72C
S1131AA039FE0E4B181C0121FEF734FE0C4B181C9A
S1131AB00121FEF72FFE0B4B181C0121FEF72AFE15
S1131AC0094B181C0121FEF725FE084B181C0121A7
S1131AD0FEF720FEBD4680BD4081040000B2040034
S1131AE000020400003204000042040000820400EA
S1131AF090B589B000AF3B1C0833264A13CA13C300
S1131B0013CA13C33B1C0833E12252029A603B1CE4
S1131B10083305225A733B1C08330022DA813B1C2C
S1131B200833802252011A823B1C083300221A73A4
S1131B303B1C083300229A743B1C08330022DA74DD
S1131B403B1C083300221A75134A3B1C0833101C33
S1131B50191CFFF7A1FE3B1D00221A703B1D002239
S1131B605A703B1D00229A703B1D0022DA703B1D07
S1131B7000225A703B1D00229A703B1D0022DA702D
S1131B80054A3B1D101C191CFFF7D0FEBD4609B0C9
S1131B9090BDC046F88A000000C0004090B589B0EE
S1131BA000AF3B1C0833264A13CA13C313CA13C31A
S1131BB03B1C0833E12252029A603B1C0833052285
S1131BC05A733B1C08330022DA813B1C0833802201
S1131BD052011A823B1C083300221A733B1C08333F
S1131BE000229A743B1C08330022DA743B1C08332D
S1131BF000221A75134A3B1C0833101C191CFFF7EA
S1131C004BFE3B1D00221A703B1D00225A703B1DE7
S1131C1000229A703B1D0022DA703B1D00225A708C
S1131C203B1D00229A703B1D0022DA70054A3B1DC1
S1131C30101C191CFFF77AFEBD4609B090BDC046C2
S1131C40F88A000000C4004090B585B000AF3B1C8A
S1131C500C4A13CA13C312681A603B1C01221A707F
S1131C603B1C01225A703B1C074A9A603B1C002211
S1131C701A73064A3B1C101C191CFFF785F9BD4654
S1131C8005B090BD108B0000486B010000A000401F
S1131C9090B595B000AF3B1C403301221A703B1C39
S1131CA0403300225A703B1C403300229A703B1C84
S1131CB040330022DA703B1C403300221A713B1C73
S1131CC0403300225A713B1C403300229A713B1C62
S1131CD040330022DA713B1C403300221A723B1C51
S1131CE0403300225A723B1C403300229A723B1C40
S1131CF040330022DA723B1C403300221A733B1C2F
S1131D00403301221A703B1C403300225A703B1CA2
S1131D10403300225A723B1C403300221A733B1C8E
S1131D2040330022DA703B1C403300229A703B1C83
S1131D30403300229A713B1C40330022DA713B1C71
S1131D40403300221A723B1C403300229A723B1C1F
S1131D5040330022DA723B1C403300221A713B1CD0
S1131D60403300225A71B54A3B1C4033101C191CE5
S1131D70FFF7CCFB3B1C343300221A703B1C34337A
S1131D8000225A703B1C343300229A703B1C3433BB
S1131D900022DA703B1C343300221A713B1C3433AA
S1131DA000225A713B1C343300229A713B1C343399
S1131DB00022DA713B1C343300221A723B1C343388
S1131DC000225A723B1C343300229A723B1C343377
S1131DD000221A723B1C343300229A703B1C3433A9
S1131DE000225A703B1C343300229A713B1C34335A
S1131DF000221A703B1C34330022DA713B1C34334A
S1131E0000221A713B1C34330022DA703B1C343339
S1131E1000225A713B1C343300225A723B1C343367
S1131E2000229A72854A3B1C3433101C00211A1C70
S1131E30FFF7EAFB3B1C283300221A703B1C2833B3
S1131E4000225A703B1C283300229A703B1C283312
S1131E500022DA703B1C283300221A713B1C283301
S1131E6000225A713B1C283300229A713B1C2833F0
S1131E700022DA713B1C283300221A723B1C2833DF
S1131E8000225A723B1C283300229A723B1C2833CE
S1131E9000221A723B1C283300229A703B1C283300
S1131EA000225A703B1C283300229A713B1C2833B1
S1131EB000221A703B1C28330022DA713B1C2833A1
S1131EC000221A713B1C28330022DA703B1C283391
S1131ED000225A713B1C283300225A723B1C2833BF
S1131EE000229A72554A3B1C2833101C01211A1CEB
S1131EF0FFF78AFB3B1C1C3300221A703B1C1C336B
S1131F0000225A703B1C1C3300229A703B1C1C3369
S1131F100022DA703B1C1C3300221A713B1C1C3358
S1131F2000225A713B1C1C3300229A713B1C1C3347
S1131F300022DA713B1C1C3300221A723B1C1C3336
S1131F4000225A723B1C1C3300229A723B1C1C3325
S1131F5000221A723B1C1C3300229A703B1C1C3357
S1131F6000225A703B1C1C3300229A713B1C1C3308
S1131F7000221A703B1C1C330022DA713B1C1C33F8
S1131F8000221A713B1C1C330022DA703B1C1C33E8
S1131F9000225A713B1C1C3300225A723B1C1C3316
S1131FA000229A72254A3B1C1C33101C02211A1C65
S1131FB0FFF72AFB3B1C224A13CA13C313CA13C3D9
S1131FC012681A603B1C00221A703B1C00225A70D3
S1131FD03B1C00229A703B1C0022DA703B1C00223E
S1131FE01A713B1C00225A713B1C00229A713B1C43
S1131FF001229A603B1C0122DA603B1C01221A7503
S11320003B1C01225A753B1C0022DA753B1C002242
S1132010DA753B1C00225A763B1C00225A763B1C84
S113202001229A763B1C00221A61044A3B1C101CB4
S1132030191CFFF747FBBD4615B090BD00000140D9
S1132040208B000080B500AF354B354AD26C0F2190
S11320508A4304210A43DA64314B314AD26CF021B9
S11320608A4310210A43DA642D4B2D4A116F2D4AFD
S11320700A40B02109050A431A67294B284A126FFE
S113208012011209B02109060A431A67244A244995
S11320909823C958244B0B408021C9001943982325
S11320A0D1501F4A1E499823C958204B0B40802108
S11320B0490119439823D150194A19499823C958F9
S11320C01B4B0B408021C90219439823D150144A59
S11320D013499823C958174B0B408021C90319434E
S11320E09823D150144B144A916B144A0A4080210E
S11320F049000A439A63104B0F4A926B03210A4327
S11321009A630F4B0E4A526D03210A435A650D4BD5
S11321100C4A526D03210A435A65BD4680BDC04630
S113212000600040FFFFFFF0FFF0FFFFFF0FFFFF25
S1132130FFFFF0FFFFFF0FFF00A00040FFF8FFFFCD
S113214000C0004000C4004080B586B000AF786095
S1132150284B181C00216C2205F00FF900237B6129
S113216042E000233B6139E03B1C0A3300221A8021
S11321700023FB6017E03A69FB68D0181E497A69AE
S1132180131C9B009B189B001B185B005B5A9AB2A4
S11321903B1C0A331B88D3189AB23B1C0A331A809F
S11321A0FB680133FB60FB68022BE4DD3B1C0A3354
S11321B000229B5E181C032102F0E6FD031C98B26A
S11321C00C497A69131CDB009B185B003A699B1865
S11321D05B00021C5A523B6901333B613B69112B82
S11321E0C2DD7B6901337B617B69022BB9DDBD46AE
S11321F006B080BD7C020020940100200000000095
S1132200F0B5F9B000AFF860B9607A603B600023C4
S1132210EE204000C01903600023EC214900C919D5
S11322200B609A225200BB18181C0021182205F0DA
S1132230A4F8A62464003B19181C00210C2205F004
S11322409CF894256D007B19181C00210C2205F0C4
S113225094F8882040003B18181C0021182205F02F
S11322608CF83B1CF833181C0021182205F085F863
S1132270AC2149007B18181C00216C2205F07DF864
S1132280BB68002B13DCFB68EE225200D2191360EA
S11322900023EC246400E4192360AC256D007A1952
S11322A0C24B101C191C6C2205F05EF812E01223BC
S11322B0EE204000C0190360BB68EC214900C91935
S11322C00B60AC235B00FA18B94B101C191C6C2270
S11322D005F04AF80023EA246400E41923606FE05F
S11322E00023E8256D00ED192B6037E0A62040009F
S11322F03B18EA214900C9190A689200D458AC2253
S11323005200B918EA235B00DB191A68131CDB00BE
S11323109B185B00E8256D00ED192A689B185B008B
S11323205B5A1BB2181C03F04BFC031C201C191C29
S113233002F03AFE031C191CA62040003B18EA24B4
S11323406400E41922689200D150E8256D00ED196B
S11323502B680133E8204000C0190360E8214900DC
S1132360C9190A68EE246400E41923689A42BDDBA3
S1132370A6256D007B19EA204000C019026892006E
S1132380D458EE214900C919086803F019FC031C4C
S1132390201C191C02F074FF031C191CA6225200F5
S11323A0BB18EA246400E41922689200D150EA259B
S11323B06D00ED192B680133EA204000C019036059
S11323C0EA214900C9190B68022B89DD0023EA229E
S11323D05200D21913605FE10023E2246400E4197F
S11323E02360EC256D00ED192B68E8204000C0192E
S11323F00360CAE0E8214900C9190A68EC246400B2
S1132400E4192368D01AAC256D007919EA235B001E
S1132410DB191A68131CDB009B185B001B185B009C
S11324205B5A1BB2181C03F0CBFB021CA6246400ED
S11324303B19EA256D00ED1929688900CB58101C59
S1132440191C03F027FA031CE2204000C0190360A2
S11324500023E6214900C9190B6064E09A22520066
S1132460B918E6235B00DB191A68131C5B009B1880
S1132470EA246400E41922689B189B005C58E62552
S11324806D00ED192B68D82253437A68D118EA20DD
S11324904000C0190268131CDB009B185B00E82590
S11324A06D00ED192A689B189B005958E6204000DE
S11324B0C0190268131C5B009B189B003A68D31870
S11324C0EA256D00ED192A689200D358081C191CDE
S11324D003F0E0F9031C181CE2225200D21911681F
S11324E003F0ACF8031C201C191C02F05DFD031C56
S11324F0181C9A235B00F918E6246400E419226886
S1132500131C5B009B18EA256D00ED192A689B18C3
S11325109B005850E6204000C01903680133E621AF
S11325204900C9190B60E6225200D2191368012B25
S113253094DD942464003B19EA256D00ED192A68A2
S11325409200D458E2214900C9190868E2225200D5
S1132550D219116803F072F8031C201C191C02F034
S113256023FD031C191C942464003B19EA256D0007
S1132570ED192A689200D150E8204000C019036880
S11325800133E8214900C9190B60E8235B00DB191A
S11325901A68EE246400E41923689A4200DA29E7F1
S11325A00023E6256D00ED192B6041E010020020A8
S11325B07C0200209A2040003918E6235B00DB19D6
S11325C01A68131C5B009B18EA246400E41922684F
S11325D09B189B005C58EE256D00ED192A68EC20D1
S11325E04000C0190368D31A181C03F0E9FA031C4D
S11325F0201C191C02F044FE031C181C9A225200D1
S1132600B918E6235B00DB191A68131C5B009B18DE
S1132610EA246400E41922689B189B005850E625BC
S11326206D00ED192B680133E6204000C0190360EA
S1132630E6214900C9190B68012BBBDD9422520025
S1132640BB18EA246400E41922689200D458EE25E9
S11326506D00ED192A68EC204000C0190368D31AF4
S1132660181C03F0ADFA031C201C191C02F008FE10
S1132670031C191C94225200BB18EA246400E419B8
S113268022689200D150EA256D00ED192B680133C0
S1132690EA204000C0190360EA214900C9190B6807
S11326A0022B00DC98E63B1CF033181C00210822A6
S11326B004F063FE0023EA225200D21913607AE187
S11326C00023E8246400E419236036E194256D00B6
S11326D07B19E8204000C01902689200D1589A2260
S11326E05200B818EA235B00DB191A68131C5B005C
S11326F09B18E8246400E41922689B189B001B586B
S1132700081C191C02F09AFF031C181C002102F07B
S1132710E7FB031C002B7CD188256D007919EA2086
S11327204000C0190268131C5B009B18E824640075
S1132730E41922689B189B0000225A509A256D00C8
S11327407919EA204000C0190268131C5B009B1829
S1132750E8246400E41922689B189B005B58181C49
S113276004F0E4FC051C0E1C942040003B18E821F6
S11327704900C9190A689200D158EA235B00DB19A1
S11327801A68131C5B009B189B00FC246400E4196A
S11327902268D318E8204000C01902689200D35878
S11327A0081C191C02F04AFF031C181CF24902F011
S11327B045FF031C181C02F0DFFB031C181C01F06E
S11327C013FA031C0C1C181C211CEA4BE84A03F0E6
S11327D077FD031C0C1C281C311C1A1C231C03F041
S11327E06FFD031C0C1C181C211C04F0F1FC882236
S11327F05200B918EA235B00DB191A68131C5B004A
S11328009B18E8246400E41922689B189B00585024
S113281011E088256D007919EA204000C01902688A
S1132820131C5B009B18E8246400E41922689B18BD
S11328309B0000225A50391CF831EA256D00ED192D
S11328402A68131C5B009B18E8204000C01902682A
S11328509B189B0000225A5088225200B918EA2380
S11328605B00DB191A68131C5B009B18E8246400E6
S1132870E41922689B189B005B58181CBF4902F09E
S1132880DDFE031C181C03F07BF9031C181C03F069
S113289097F9391CF831EA256D00ED192A68131CE3
S11328A05B009B18E8246400E41922689B189B00D1
S11328B058503B1CF033EA256D00ED192A6892004C
S11328C0D458391CF831EA204000C0190268131C9E
S11328D05B009B18E8256D00ED192A689B189B0086
S11328E05D58A74AE8204000C0190368D3181B7834
S11328F05BB2181C03F064F9031C281C191C02F0B9
S11329009DFE031C181C03F03BF9031C181C6421D6
S113291002F03AFA031CE1183B1CF033EA24640089
S1132920E41922689200D150E8256D00ED192B6856
S11329300133E8204000C0190360E8214900C919A7
S11329400B68022B00DCC1E63B1CF033EA24640074
S1132950E41922689200D358132B09DC3B1CF03392
S1132960EA256D00ED192A6892000021D15019E082
S11329703B1CF033EA204000C01902689200D3588F
S11329803A1CF032EA246400E419216889008A5868
S1132990111C59433B1CF033EA256D00ED192A68DC
S11329A09200D150EA204000C01903680133EA21A3
S11329B04900C9190B60EA225200D2191368012B8D
S11329C000DC7DE63B1C9033181C0021602204F0DF
S11329D0D4FC3B1C3033181C0021602204F0CDFCD5
S11329E03B1C1033181C0021202204F0C6FC0023D9
S11329F0EA246400E4192360C1E10023E8256D00A2
S1132A00ED192B60ABE1EC204000C0190368E6210E
S1132A104900C9190B6067E05A4BF0225200D219E1
S1132A20D118EA235B00DB191A68131C5B009B189E
S1132A30E8246400E41922689B189B005C58EA258A
S1132A406D00ED192B68D82253437A68D118E82019
S1132A504000C0190268131CDB009B185B00E625CC
S1132A606D00ED192A689B189B005B58181C464999
S1132A7002F0E4FD031C181C03F082F8011CAC22D4
S1132A805200B818E8235B00DB191A68131CDB003A
S1132A909B185B00E6256D00ED192A689B185B0006
S1132AA01B5A1BB2CB1A181C04F01EFC031CE018A2
S1132AB0344BF0225200D219D118EA235B00DB19FF
S1132AC01A68131C5B009B18E8246400E41922684C
S1132AD09B189B005850E6256D00ED192B680133B7
S1132AE0E6204000C0190360E6214900C9190A68BC
S1132AF0EE246400E41923689A428DDB214BF0250F
S1132B006D00ED19E918EA204000C0190268131C91
S1132B105B009B18E8246400E41922689B189B005E
S1132B205B58181CEE256D00ED19296802F02CF98C
S1132B30031C181C134BF0225200D219D118EA239B
S1132B405B00DB191A68131C5B009B18E824640003
S1132B50E41922689B189B005850EC256D00ED1970
S1132B602B68E6204000C01903608BE0C046C046D5
S1132B70000000000000594000401C460000C8420C
S1132B800C020020B0FEFFFF00007A44AF4BF0229D
S1132B905200D219D118EA235B00DB191A68131CFE
S1132BA05B009B18E8246400E41922689B189B00CE
S1132BB05C58EA256D00ED192B68D82253437A68D6
S1132BC0D118E8204000C0190268131CDB009B18D0
S1132BD05B00E6256D00ED192A689B189B005B5885
S1132BE0181C9B4902F02AFD031C181C02F0C8FFA4
S1132BF0011CAC225200B818E8235B00DB191A68E8
S1132C00131CDB009B185B00E6256D00ED192A6898
S1132C109B185B001B5A1BB2C91A8E4BF022520040
S1132C20D219D018EA235B00DB191A68131C5B0065
S1132C309B18E8256D00ED192A689B189B001B580A
S1132C40CB1A181C04F050FB031CE0187F4BF02235
S1132C505200D219D118EA235B00DB191A68131C3D
S1132C605B009B18E8246400E41922689B189B000D
S1132C705850E6256D00ED192B680133E62040001D
S1132C80C0190360E6214900C9190A68EE246400EA
S1132C90E41923689A4200DA78E76C4BF0256D005A
S1132CA0ED19E918EA204000C0190268131C5B0002
S1132CB09B18E8246400E41922689B189B005B5865
S1132CC0181CEE256D00ED19296802F05DF8031C4F
S1132CD0181C5E4BF0225200D219D118EA235B0073
S1132CE0DB191A68131C5B009B18E8246400E419C0
S1132CF022689B189B005850574BF0256D00ED1926
S1132D00EB18EA204000C01902689200D1584F4BDA
S1132D10F0225200D219D018EA235B00DB191A689A
S1132D20131C5B009B18E8246400E41922689B18B8
S1132D309B001B58C918484BF0256D00ED19EB1882
S1132D40EA204000C01902689200D150E8214900ED
S1132D50C9190B680133E8225200D2191360E82420
S1132D606400E4192368022B00DC4CE6EA256D00BC
S1132D70ED192B680133EA204000C0190360EA21F1
S1132D804900C9190B68012B00DC36E60023EA224E
S1132D905200D21913604FE03B1CF033EA24640064
S1132DA0E41922689200D358002B1FDD3B1CF0333A
S1132DB0EA256D00ED192A689200D358FA22920090
S1132DC05A43254BF0204000C019C318EA2464007C
S1132DD0E41921688900CB58101C191C01F0D4FF98
S1132DE0031CE4256D00ED192B6004E00023E420AE
S1132DF04000C0190360194BEA214900C9190A6847
S1132E009200D258E4246400E41923689A420ADA4E
S1132E10124BEA256D00ED192A689200E420400067
S1132E20C0190168D150EA214900C9190B6801335E
S1132E30EA225200D2191360EA246400E4192368D8
S1132E40012BA9DDBD4679B0F0BDC04650FEFFFFA1
S1132E5000007A44B0FEFFFF30FEFFFF5001002067
S1132E6080B584B000AF78600023FB6034E00023B9
S1132E70BB602BE0FA68131C9B009B18DB007A688C
S1132E80D318BA685200D35A1BB2181C02F098FE29
S1132E90031C181C134902F0F3F9031C181C1249F3
S1132EA002F0CCFB031C181C02F06AFE031C98B24F
S1132EB00E49FA68131C9B009B189B00BA689B1868
S1132EC05B00021C5A52BB680133BB60BB68132B06
S1132ED0D0DDFB680133FB60FB68022BC7DDBD4618
S1132EE004B080BD00FEFF4600007A449401002037
S1132EF090B58FB002AFF860B9607A6000237B624E
S1132F00484B181C00216C2204F037FA464B00226F
S1132F105A60454B5A68444B1A6003235B42FB6278
S1132F2040E00023BB6224E0BA6AFB6AD21A3F4B3A
S1132F305200D15A3B4BBA6A5200D152BA6AFB6A68
S1132F40D21A3A4B12325200D15A364BBA6A123262
S1132F505200D152BA6AFB6AD21A344B243252005C
S1132F60D15A304BBA6A24325200D152BB6A01336F
S1132F70BB62FB6A1A1C1232BB6A9A42D4DCFB6A3B
S1132F80181C1230F96AFA68BB687C680094FFF771
S1132F9037F9244B181C00216C2204F0EEF9FB6A6B
S1132FA00133FB62FB6A002BBBDD0123FB620AE0F9
S1132FB0F96AFA68BB68786800901220FFF720F974
S1132FC0FB6A0133FB62FB6A022BF1DD3B1C10330D
S1132FD000221A6000225A6000229A600022DA60FD
S1132FE000221A82104B1A680F4B5B68381C103091
S1132FF00F4904F0E5F93B1C1033181C112101F0B2
S1133000EDFD094B1B68084A5268D80FD117041C00
S11330109A424C41231CDBB27B627B6A181CBD467E
S11330200DB090BD10020020500100207C02002051
S1133030F48B000090B5FBB000AF274B181C04F0D4
S1133040A5F9264BF4204000C019C218244B111CCA
S11330501A1CD8235B00081C111C1A1C04F084F9E8
S1133060204BF4214900C919CB181F4A13CA13C3B2
S113307013CA13C31D4BF4225200D219D3181C4A8D
S113308013CA13C313CA13C3391C34313A1C1C3278
S11330903B1D081C111C1A1CFFF72AFF031CF222FB
S11330A05200D2191360F2246400E4192368002B3F
S11330B005D00323F2204000C019036004E002237A
S11330C0F2214900C9190B60F2225200D219136887
S11330D0181CBD467BB090BD048C00004CFEFFFF65
S11330E0188C000034FEFFFFC88D00001CFEFFFF9B
S11330F0E08D000090B5FBB000AF274B181C04F026
S113310045F9264BF4204000C019C218244B111C69
S11331101A1CD8235B00081C111C1A1C04F024F987
S1133120204BF4214900C919CB181F4A13CA13C3F1
S113313013CA13C31D4BF4225200D219D3181C4ACC
S113314013CA13C313CA13C3391C34313A1C1C32B7
S11331503B1D081C111C1A1CFFF7CAFE031CF2229B
S11331605200D2191360F2246400E4192368002B7E
S113317005D00123F2204000C019036004E00023BD
S1133180F2214900C9190B60F2225200D2191368C6
S1133190181CBD467BB090BDF88D00004CFEFFFFAF
S11331A00C8E000034FEFFFFBC8F00001CFEFFFFEE
S11331B0D48F000090B5FBB000AF274B181C04F06F
S11331C0E5F8264BF4204000C019C218244B111C0A
S11331D01A1CD8235B00081C111C1A1C04F0C4F828
S11331E0204BF4214900C919CB181F4A13CA13C331
S11331F013CA13C31D4BF4225200D219D3181C4A0C
S113320013CA13C313CA13C3391C34313A1C1C32F6
S11332103B1D081C111C1A1CFFF76AFE031CF2223A
S11332205200D2191360F2246400E4192368002BBD
S113323005D00523F2204000C019036004E00423F4
S1133240F2214900C9190B60F2225200D219136805
S1133250181CBD467BB090BDEC8F00004CFEFFFFF8
S1133260FC8F000034FEFFFFAC9100001CFEFFFF4A
S1133270C491000090B5FBB000AF274B181C04F0BC
S113328085F8264BF4204000C019C218244B111CA9
S11332901A1CD8235B00081C111C1A1C04F064F8C7
S11332A0204BF4214900C919CB181F4A13CA13C370
S11332B013CA13C31D4BF4225200D219D3181C4A4B
S11332C013CA13C313CA13C3391C34313A1C1C3236
S11332D03B1D081C111C1A1CFFF70AFE031CF222DA
S11332E05200D2191360F2246400E4192368002BFD
S11332F005D00723F2204000C019036004E0062330
S1133300F2214900C9190B60F2225200D219136844
S1133310181CBD467BB090BDDC9100004CFEFFFF45
S1133320EC91000034FEFFFF9C9300001CFEFFFFA5
S1133330B493000090B5FBB000AF274B181C04F009
S113334025F8264BF4204000C019C218244B111C48
S11333501A1CD8235B00081C111C1A1C04F004F866
S1133360204BF4214900C919CB181F4A13CA13C3AF
S113337013CA13C31D4BF4225200D219D3181C4A8A
S113338013CA13C313CA13C3391C34313A1C1C3275
S11333903B1D081C111C1A1CFFF7AAFD031CF2227A
S11333A05200D2191360F2246400E4192368002B3C
S11333B005D00923F2204000C019036004E008236B
S11333C0F2214900C9190B60F2225200D219136884
S11333D0181CBD467BB090BDCC9300004CFEFFFF93
S11333E0DC93000034FEFFFF8C9500001CFEFFFF01
S11333F0A495000090B5A7B000AF78603B1C64337F
S1133400D64A13CA13C33B1C5833D54A13CA13C331
S11334103B1C4C3300221A603B1C4C3300225A6084
S11334203B1C4C3300229A603B1C403300221A6040
S11334303B1C403300225A603B1C403300229A60FC
S11334403B1C343300221A603B1C343300225A6084
S11334503B1C343300229A603B1C973300221A70C1
S113346000238820C0190360BE4B181C02210322CC
S113347003F083FF7B68181CFFF7F2FC7B68181CC1
S1133480FEF762FE3B1C723300221A803B1C283379
S113349000221A6000225A6000229A6000239021C0
S11334A0C9190B6039E000238C22D219136023E080
S11334B0AD499023DB191A68131CDB009B185B00D1
S11334C08C24E41922689B185B005B5A1BB2391CDC
S11334D02831A64A081C111C1A1C03F071FF3B1C5E
S11334E02833181C052101F079FB8C20C0190368CE
S11334F001338C21C9190B608C22D2191368112B4A
S1133500D6DD9B4B181C032101F068FB9024E419C1
S1133510236801339020C01903609021C9190B68F6
S1133520022BC0DD924B181C032101F057FB3B1CFE
S1133530873300221A7000239022D2191360F3E01B
S113354000238C24E4192360A3E03B1C6433902003
S1133550C01902689200D15883489023DB191A6875
S1133560131CDB009B185B008C24E41922689B1855
S11335705B001B5A1BB2994227DD7B499020C0197E
S11335800268131CDB009B185B008C24E41922687E
S11335909B185B005B5A19B23B1C64339020C01922
S11335A002689200D1503B1C34339021C9190A6837
S11335B09200D3580122111C19433B1C343390242C
S11335C0E41922689200D1503EE03B1C583390200D
S11335D0C01902689200D15863489023DB191A6815
S11335E0131CDB009B185B008C24E41922689B18D5
S11335F05B001B5A1BB2994226DA5B499020C01922
S11336000268131CDB009B185B008C24E4192268FD
S11336109B185B005B5A19B23B1C58339020C019AD
S113362002689200D1503B1C40339021C9190A68AA
S11336309200D3580122111C19433B1C403390249F
S1133640E41922689200D1503B1C34339020C019F5
S113365002689200D35859003B1C34339024E41977
S113366022689200D1503B1C40339020C01902685C
S11336709200D35859003B1C40339024E41922682B
S11336809200D1508C20C019036801338C21C919D0
S11336900B608C22D2191368112B00DC55E73B1CFC
S11336A058339024E41922689200D2583B1C6433A6
S11336B09020C01901688900CB58D11A3B1C4C33A7
S11336C09024E41922689200D1503B1C4C33902082
S11336D0C01902689200D258AF235B009A4215DDEC
S11336E03B1C97333A1C9732127801210A431A7013
S11336F03B1C87331A783B1C873301321A70194AF2
S11337009021C9190B68D3185A221A703A1C97329F
S11337103B1C97331B78DB1813709022D219136863
S113372001339024E41923609020C0190368022B0C
S113373000DC05E73B1C87331B78032B00D078E0C3
S113374000238021C9190B60FA23DB00FB670023E7
S1133750BB6700238022D219136028E0D0950000B3
S1133760DC9500000C0200207C020020BC950000C7
S1133770C09500003B1C4C338024E419226892005D
S1133780D258FB6F9A420BDA8020C0190368BB67DA
S11337903B1C4C338021C9190A689200D358FB673B
S11337A08022D219136801338024E4192360802015
S11337B0C0190368022BDDDDBB6F012B08D0022B7F
S11337C017D0002B26D13B1C973306221A7021E018
S11337D03B1C97330A221A70E14ABB6FD3180A22A2
S11337E01A703B1C87331A783B1C8733013A1A70D2
S11337F010E03B1C97330C221A70D94ABB6FD318C4
S11338000A221A703B1C87331A783B1C8733013A0F
S11338101A70C0463B1C87331A78381C2830D149AB
S1133820BB6F03F0CDFD3B1C2833181C062101F0AF
S1133830D5F900239021C9190B601CE0C84A9024D3
S1133840E4192368D3181B785AB23B1C87331B78BE
S1133850101C191C01F098FA031CDAB2C04990201C
S1133860C0190368CB181A709021C9190B68013369
S11338709022D21913609024E4192368022BDDDD11
S11338803B1C97331B78002B04D114238820C019C8
S113389003609EE100237B673B1C0833181C002156
S11338A0202203F06AFD3B1C97331A780E23134041
S11338B00C2B00D908E19A00AB4BD3181B689F4628
S11338C014238821C9190B6083E102238822D219A9
S11338D01360FFF7AFFB031C8824E419236078E12D
S11338E000238820C0190360FFF704FC031C88210F
S11338F0C9190B606DE104238822D2191360FFF704
S113390059FC031C8824E419236062E13B1C4C33FA
S11339101A683B1C4C339B68D218944B9A425DDC6A
S1133920FFF7A8FC021C3B1C08331A60904B1A6872
S11339308F4B9A618E4B5A688D4BDA61FFF73AFCD4
S1133940021C3B1C08335A60894B1A68884B1A6165
S1133950874B5A68864B5A61FFF7CCFB021C3B1C11
S113396008339A60824B1A68814B1A60804B5A68FC
S11339707F4B5A6000239020C019036028E03B1C51
S113398008339021C9190A689200D258784B9200E2
S1133990D2587B6F9A4214DD3B1C08339024E419FF
S11339A022689200D258724B9200D3587B673B1C1A
S11339B008339020C01902689200D3588821C9198D
S11339C00B609022D219136801339024E419236008
S11339D09020C0190368022BD1DDFAE0FFF74AFCFE
S11339E0031C8821C9190B60F3E03B1C4C331A6893
S11339F03B1C4C335B68D2185C4B9A425DDCFFF78E
S1133A0099FC021C3B1C08331A60594B1A68584B2A
S1133A101A62574B5A68564B5A62FFF70BFB021C4B
S1133A203B1C08335A60524B1A68514B9A60504BF6
S1133A305A684F4BDA60FFF75DFB021C3B1C0833EE
S1133A409A604B4B1A684A4B1A60494B5A68484B68
S1133A505A6000239022D219136028E03B1C0833DB
S1133A609024E41922689200D258414B9200D25813
S1133A707B6F9A4214DD3B1C08339020C019026806
S1133A809200D2583A4B9200D3587B673B1C0833C0
S1133A909021C9190A689200D3588822D219136058
S1133AA09024E419236801339020C0190360902105
S1133AB0C9190B68022BD1DD8BE0FFF73BFC031C1B
S1133AC08822D219136084E0FFF7D4FB021C3B1C4C
S1133AD008331A60264B1A68254B9A61244B5A689E
S1133AE0234BDA61FFF766FB021C3B1C08335A6068
S1133AF01F4B1A681E4B1A611D4B5A681C4B5A61A6
S1133B00FFF7F8FA021C3B1C08339A60184B1A683A
S1133B10174B1A60164B5A68154B5A60FFF70AFC8C
S1133B20021C3B1C0833DA60114B1A68104B1A62F2
S1133B300F4B5A680E4B5A62FFF77CFA021C3B1C6F
S1133B4008331A610A4B1A68094B9A60084B5A6881
S1133B50074BDA6000239024E419236033E0C04665
S1133B600C020020C4950000E8950000A3060000A4
S1133B70500100203B1C08339020C01902689200B9
S1133B80D258184B9200D2587B6F9A4214DD3B1CDA
S1133B9008339021C9190A689200D258114B920037
S1133BA0D3587B673B1C08339024E41922689200A5
S1133BB0D3588820C01903609021C9190B680133B8
S1133BC09022D21913609024E4192368042BD1DDC8
S1133BD0C0468820C0190368DBB2181CBD4627B054
S1133BE090BDC04650010020F0B58BB000AF7860A6
S1133BF010237B61786803F065FA031C0C1CBB601E
S1133C00FC6000237B62BB68FC68BB61FC6132E042
S1133C10B869F9691F4B1E4A01F02EF9031C002BE9
S1133C2000D02CE0B869F969BA69FB6902F0B8FF01
S1133C30031C0C1C181C211CBA68FB6802F01CF83D
S1133C40031C0C1C1D1C261CBB69FC69181C211CB4
S1133C501A1C231C02F010F8031C0C1C281C311C19
S1133C601A1C231C02F02CFB031C0C1CBB61FC6102
S1133C707B6A01337B627A6A7B699A42C8D3BB69E7
S1133C80FC69181C211CBD460BB0F0BDC046C046E3
S1133C90000000000000F03F90B585B000AF021CAA
S1133CA0B9603B1C0F331A703B1C0F331B78002B7D
S1133CB011D03B1C0F331B78012B0CD03B1C0F3352
S1133CC01B78022B07D03B1C0F331B78032B02D02D
S1133CD03B1C0F331B780A483B1C0F331A78BB6814
S1133CE001210C1C9C40231C191C131CDB009B1879
S1133CF09B00C31818331960BD4605B090BDC0467B
S1133D000060004080B582B000AF094B1B687B6047
S1133D107B681B0E812B08D8064B074A1A60074B99
S1133D20064A1168064A0A401A60BD4602B080BDC0
S1133D30FC81E00F18600C4005000004E4800C4096
S1133D40FFFFFFFE90B587B002AFFFF7DBFFFDF783
S1133D508DFE00F083FE214B181C00F05FFE204B0B
S1133D60204A1A6000F0A0FB00F0A8FF1E4B1F4A77
S1133D701A801F4BC822D2001A801E4B1E4A1A807A
S1133D803B1C0E3300221A803B1C0C3300221A8089
S1133D903B1C0A3300221A803B1C083300221A8081
S1133DA0BB1D00221A803B1D00221A8004200C2116
S1133DB0FFF772FF381C0E30391C0C313A1C0A32E2
S1133DC03B1C0833BC1D00943C1D019400F046FCD0
S1133DD000F014F8322000F021FED1E7B80B000007
S1133DE00403002025030000820100200CFEFFFFD5
S1133DF0800100205801002068C5FFFFB0B586B0DF
S1133E0002AF3B1C0F3300221A70B24B1B685A1CC2
S1133E10B04B1A60AF4B1B68012B00D0F1E2AE4BE4
S1133E201A88AE4B1A80AE4B1A88AE4B1A80AE4B32
S1133E301A88AE4B1A80A74B00221A60A648A849DC
S1133E40A94AAB4BAB4C0094AB4C019400F006FC7C
S1133E50AA4B1B68002B06D0A84B1B685A1EA74B05
S1133E601A600023D0E2A64B1B68002B00D09AE016
S1133E70994B1B881AB2A34B1B881BB2A2495B182F
S1133E809A4209DC944B1B881AB29E4B1B881BB2C6
S1133E909E495B189A421FDA8F4B1B881BB2181C71
S1133EA003F022FA041C8D4B1B881BB2181C03F070
S1133EB01BFA031CE31A181C03F016FA021CFA235B
S1133EC0DB009A4208DD8E4B01221A60904B181CCD
S1133ED0072100F083FE66E0814B1B881AB28D4BEC
S1133EE01B881BB288495B189A4209DC7C4B1B88EF
S1133EF01AB2884B1B881BB284495B189A421FDA9A
S1133F00774B1B881BB2181C03F0EEF9041C754B8D
S1133F101B881BB2181C03F0E7F9031CE31A181CD6
S1133F2003F0E2F9021CFA23DB009A4208DD744B29
S1133F3001221A60784B181C072100F04FFE32E072
S1133F40694B1B881AB2754B1B881BB26E495B18F0
S1133F509A4209DC644B1B881AB2704B1B881BB253
S1133F606A495B189A421EDA5F4B1B881BB2181C05
S1133F7003F0BAF9041C5D4B1B881BB2181C03F038
S1133F80B3F9031CE31A181C03F0AEF9021CFA235C
S1133F90DB009A4207DD5A4B01221A60604B181C61
S1133FA0072100F01BFE564B1B68012B00D0FFE0DD
S1133FB05C4B1B68042B43DD3B1C0C3300221A8032
S1133FC038E03B1C0A3300221A8027E03B1C0C33E8
S1133FD01A883B1C0A331C883B1C0C331988514B30
S1133FE01B68181F3B1C0A331B88C5184E480B1C42
S1133FF09B005B189B005B195B00185A4A49131C11
S11340009B009B189B001B195B00021C5A523B1C13
S11340100A331A883B1C0A3301321A803B1C0A33C8
S11340201B88032BD2D93B1C0C331A883B1C0C3342
S113403001321A803B1C0C331B88022BC1D9B1E01E
S1134040384B1B68032B00DDACE03B1C0C33002217
S11340501A80A1E03B1C0A3301221A8028E03B1C91
S11340600C331A883B1C0A331B880421CC1A3B1CD2
S11340700C3319882B4B18683B1C0A331B88C51A50
S113408029480B1C9B005B189B005B195B00185AAA
S11340902549131C9B009B189B001B195B00021CE9
S11340A05A523B1C0A331A883B1C0A3301321A80C9
S11340B03B1C0A331A881B4B1B689A42CFDD194BF1
S11340C01B680422D31A7B603B1C0A3300221A802B
S11340D055E0C046B0000020080000200A0000207F
S11340E00C0000200E000020100000201200002010
S11340F0B4000020B6000020B8000020BC0000205E
S1134100C000002082010020B80B000048F4FFFF2B
S11341101C96000080010020249600005801002015
S11341202C960000C4000020C80000203B1C0C3367
S11341301A883B1C0A331B887968CB1A5C1E3B1C0B
S11341400C3319883B1C0A331B881320C51AB0484A
S11341500B1C9B005B189B005B195B00185AAC4955
S1134160131C9B009B189B001B195B00021C5A52DA
S11341703B1C0A331A883B1C0A3301321A803B1C4D
S11341800A331A887B689A42D0DB3B1C0C331A88AA
S11341903B1C0C3301321A803B1C0C331B88022B52
S11341A000D857E79B4B04221A609B4B02221A60EB
S11341B0984B1A68994B1988954B5200D152954BDC
S11341C01A68974B1988924B14325200D152914B72
S11341D01B68591C8F4A1160924A11888C4A2833F3
S11341E05B0099528B4B1B68142B00D009E1894B5F
S11341F000221A60884B1B68002B00D1F5E0864B27
S113420000221A603C1C0F34814B181CFFF7F2F893
S1134210031C2370844B181C03F0B8F83B1C0F33A9
S11342201B78142B00D9CCE09A00804BD3181B6860
S11342309F467F4B181C092100F0D0FC3B1C0F3318
S113424000221A70CAE07B4B181C072100F0C6FC40
S11342503B1C0F334F221A70C0E0774B181C062109
S113426000F0BCFC3B1C0F3350221A70B6E0734BB9
S1134270181C072100F0B2FC3B1C0F3328221A70D3
S1134280ACE06F4B181C062100F0A8FC3B1C0F335C
S11342902A221A70A2E06B4B181C042100F09EFC29
S11342A03B1C0F3352221A7098E0674B181C0621EE
S11342B000F094FC3B1C0F3351221A708EE0634BC8
S11342C0181C072100F08AFC3B1C0F334A221A7089
S11342D084E05F4B181C0C2100F080FC3B1C0F3366
S11342E04D221A707AE05B4B181C0B2100F076FC0F
S11342F03B1C0F3329221A7070E0574B181C0A21FB
S113430000F06CFC3B1C0F332B221A7066E0534BFD
S1134310181C03F03BF83B1C0F3300221A705DE0BD
S11343204F4B181C03F032F83B1C0F3300221A7059
S113433054E04C4B181C03F029F83B1C0F330022AB
S11343401A704BE0484B181C03F020F83B1C0F3349
S113435000221A7042E0454B181C03F017F83B1C6E
S11343600F3300221A7039E0414B181C03F00EF889
S11343703B1C0F3300221A7030E03E4B181C03F034
S113438005F83B1C0F3300221A7027E03A4B181C27
S113439002F0FCFF3B1C0F3300221A701EE0374B67
S11343A0181C02F0F3FF3B1C0F3300221A7015E0B7
S11343B0334B181C02F0EAFF3B1C0F3300221A7027
S11343C00CE03B1C0F331B782E4A101C191C02F006
S11343D0DDFF3B1C0F3300221A70C0462A4B181C09
S11343E002F0D4FF294B0A221A60294B1A88294B60
S11343F01A80294B1A88294B1A80294B1A88294B71
S11344001A803B1C0F331B78181CBD4604B0B0BD8A
S1134410C8000020C4000020C000002008000020C4
S11344200C00002010000020349600006C9700005F
S1134430409600004C960000549600005C960000E4
S1134440649600006C960000749600007C96000050
S11344508496000094960000A0960000AC9600009C
S1134460BC960000C8960000D4960000E0960000B8
S1134470EC960000F89600000497000010970000E6
S11344801C970000289700003C970000BC00002007
S1134490820100200A000020800100200E0000207C
S11344A0580100201200002080B582B000AF00F057
S11344B093F8031C7A6813437B60FB1C41221A7037
S11344C0FB1CD0201A211A1C012300F077F9031CCD
S11344D07A6813437B60FB1C31221A70FB1CD020CA
S11344E019211A1C012300F069F9031C7A6813438B
S11344F07B60FB1C00221A70FB1CD0201B211A1CA1
S1134500012300F05BF9031C7A6813437B60FB1CF6
S113451000221A70FB1CD0201C211A1C012300F05D
S11345204DF9031C7A6813437B60FB1C08221A7044
S1134530FB1CD0201D211A1C012300F03FF9031C91
S11345407A6813437B60FB1C00221A70FB1CD0208A
S113455023211A1C012300F031F9031C7A68134348
S11345607B60FB1C00221A70FB1CD0206A211A1CE1
S1134570012300F023F9031C7A6813437B60FB1CBE
S113458080221A70FB1CD0201E211A1C012300F06B
S113459015F9031C7A6813437B60FB1C00221A7014
S11345A0FB1CD0206C211A1C012300F007F9031C0A
S11345B07A6813437B60FB1C01221A70FB1CD02019
S11345C06B211A1C012300F0F9F8031C7A681343C9
S11345D07B60BD4602B080BD80B584B000AF0023CF
S11345E0BB60FA239B00FB60FB1D80221A70FB1D3D
S11345F0D0206B211A1C012300F0E0F8031CBA68D8
S11346001343BB60BB68002B01D0BB6821E03220A0
S113461000F004FAFB1DD0206B211A1C012300F0CA
S11346201BF9031CBB60BB68002B01D0BB6810E006
S1134630012000F0F3F9FB68013BFB60FB68002BF1
S113464002DA04235B4204E0FB1D1B78412BE1D119
S11346500023181CBD4604B080BDC04680B58AB096
S113466000AFF860B9607A603B6000237B623B1C5A
S1134670233300221A703B1C1C3300221A600022D0
S11346809A803B1C143300221A6000229A803B1C3F
S11346901C33D0203B211A1C022300F0DDF8031C3C
S11346A07A6A13437B623B1C1C330233D0203D21C6
S11346B01A1C022300F0D0F8031C7A6A13437B62AD
S11346C03B1C1C330433D0203F211A1C022300F06E
S11346D0C3F8031C7A6A13437B623B1C1433D02057
S11346E043211A1C022300F0B7F8031C7A6A13430F
S11346F07B623B1C14330233D02045211A1C022355
S113470000F0AAF8031C7A6A13437B623B1C14333F
S11347100433D02047211A1C022300F09DF8031C07
S11347207A6A13437B623B1C1C331B781B029AB2CC
S11347303B1C1C335B7813439AB2FB681A803B1C06
S11347401C339B781B029AB23B1C1C33DB7813434B
S11347509AB2BB681A803B1C1C331B791B029AB2A9
S11347603B1C1C335B7913439AB27B681A803B1C55
S113477014331B781B029AB23B1C14335B7813432B
S11347809AB23B681A803B1C14339B781B029AB282
S11347903B1C1433DB7813439AB23B6B1A803B1CEB
S11347A014331B791B029AB23B1C14335B791343F9
S11347B09AB27B6B1A80BD460AB080BD90B58BB0AF
S11347C000AFBA607B603B1C0F33021C1A703B1CA9
S11347D00E330A1C1A703B1C0F331B789AB23B1C15
S11347E010331A803B1C103308225A803B1C1033B0
S11347F03A1C0E325A603B1C103301221A813B1CB6
S11348001033BA68DA607B689AB23B1C10331A82A0
S11348103C1C27340F4A3B1C1033101C191CFCF79A
S1134820E3FD031C237007E03C1C2734094B181CD0
S1134830FCF7D8FB031C23703B1C27331B785BB2AB
S1134840012BF1D03B1C27331B785BB2181CBD46EF
S11348500BB090BD00A0004090B58BB000AFBA6023
S11348607B603B1C0F33021C1A703B1C0E330A1C6A
S11348701A703B1C0F331B789AB23B1C10331A80FE
S11348803B1C103304225A803B1C10333A1C0E325A
S11348905A603B1C103301221A813B1C1033BA6846
S11348A0DA607B689AB23B1C10331A823C1C2734B2
S11348B00F4A3B1C1033101C191CFCF795FD031CFC
S11348C0237007E03C1C2734094B181CFCF78AFBB7
S11348D0031C23703B1C27331B785BB2012BF1D0E4
S11348E03B1C27331B785BB2181CBD460BB090BD34
S11348F000A00040B0B582B000AF021C3960FB1DBF
S11349001A70FB1D1B787F2B32D93049FB1D1B7895
S11349101A1C0F231340083B98082C4AFB1D1B78D4
S11349201C1C0F232340083B9B0806339B00D31811
S11349305B68FA1D1278141C03222240D200FF2463
S1134940251C95402A1CD2431A403B689C01FF2336
S11349501C40FB1D1B781D1C03232B40DB00251C66
S11349609D402B1C1A43831D9B00CB185A6029E0E1
S1134970174BFA1D127852B292081549F81D0078A7
S113498040B28008C03080004158F81D0078041CF3
S113499003202040C000FF24251C8540281CC04360
S11349A0084039688C01FF210C40F91D09780D1C61
S11349B003212940C900251C8D40291C0143C03214
S11349C09200D150BD4602B0B0BDC04600ED00E03B
S11349D000E100E080B582B000AF78607B685A1EC9
S11349E00C4B9A4201D9012310E00B4B7A68013A2F
S11349F05A6001235B42181C0321FFF77BFF064B1F
S1134A0000229A60044B07221A600023181CBD463A
S1134A1002B080BDFFFFFF0010E000E080B584B06D
S1134A2000AF7860064B1B68FB60C046044B1A68F5
S1134A30FB68D21A7B689A42F8D3BD4604B080BDA5
S1134A400803002080B500AF034B1B685A1C024BBF
S1134A501A60BD4680BDC0460803002080B500AF83
S1134A60094B181CFBF7B0FE031C181CFA23990011
S1134A7000F03CF9031C181CFFF7ACFF031C002BCF
S1134A8000D0FEE7BD4680BD5000020080B582B074
S1134A9000AF021CFB1D1A70064BFA1D1278111C84
S1134AA01F220A400121081C9040021C1A60BD46C6
S1134AB002B080BD00E100E080B582B000AF021C0E
S1134AC0FB1D1A70064AFB1D1B78191C1F230B4083
S1134AD001219940C0235B00D150BD4602B080BD86
S1134AE000E100E080B582B000AF786039607B6897
S1134AF03A689A64BD4602B080BDC04680B582B0B3
S1134B0000AF786039607B68DA6C3B681A437B6875
S1134B10DA64BD4602B080BD90B585B000AF021C1A
S1134B20B9603B1C0F331A703B1C0F331B78002BEE
S1134B3011D03B1C0F331B78012B0CD03B1C0F33C3
S1134B401B78022B07D03B1C0F331B78032B02D09E
S1134B503B1C0F331B780A483B1C0F331A78BB6885
S1134B6001210C1C9C40231C191C131CDB009B18EA
S1134B709B00C31818331960BD4605B090BDC046EC
S1134B800060004080B586B000AFF860B9607A601C
S1134B9000237B6100237B6114E0BB681B780A2B34
S1134BA004D10D4B181C0D21FCF74CFFBB685A1C9B
S1134BB0BA601B78084A101C191CFCF743FF7B6978
S1134BC001337B617A697B689A42E6DB7B68181C57
S1134BD0BD4606B080BDC04600C0004080B584B06C
S1134BE000AF786039600023FB600023FB600BE0BA
S1134BF0FB687A68D3181B78084A101C191CFCF748
S1134C0021FFFB680133FB60FA683B689A42EFDBE3
S1134C103B68181CBD4604B080BDC04600C40040BB
S1134C2080B500AFBD4680BD90B583B000AF174BD3
S1134C307B6004200C21FFF76FFFFC1C144B181C35
S1134C40FCF7EEFE031C23707B689B887F2B19D82E
S1134C507B681B887968FA1CCB1812789A717B6878
S1134C601B8801339AB27B681A807B689B88013366
S1134C709AB27B689A807B681B887F2B02D97B68F9
S1134C8000221A80BD4603B090BDC0460C0300202C
S1134C9000C4004080B500AFBD4680BD80B500AF04
S1134CA0054B00229A80044B00225A80024B0022BA
S1134CB01A80BD4680BDC0460C03002080B500AFFD
S1134CC0094B181C0421FFF70DFF0820FFF7F4FE21
S1134CD0054B181C0421FFF711FF0820FFF7D6FE2F
S1134CE0FFF7DCFFBD4680BD00C40040002934D07E
S1134CF00123002210B488422CD301242407A142AA
S1134D0004D2814202D209011B01F8E7E400A14266
S1134D1004D2814202D249005B00F8E7884201D301
S1134D20401A1A434C08A04202D3001B5C082243D9
S1134D308C08A04202D3001B9C082243CC08A0424A
S1134D4002D3001BDC082243002803D01B0901D036
S1134D500909E3E7101C10BC7047002801D00020AB
S1134D60C04307B4024802A14018029003BDC046E4
S1134D70D90000000029F0D003B5FFF7B9FF0EBC3D
S1134D804243891A1847C046002941D010B4041C74
S1134D904C40A44601230022002900D549420028A2
S1134DA000D5404288422CD301242407A14204D2D6
S1134DB0814202D209011B01F8E7E400A14204D2B6
S1134DC0814202D249005B00F8E7884201D3401ACD
S1134DD01A434C08A04202D3001B5C0822438C08EF
S1134DE0A04202D3001B9C082243CC08A04202D359
S1134DF0001BDC082243002803D01B0901D0090949
S1134E00E3E7101C6446002C00D5404210BC7047F8
S1134E10002806D003DB0020C043400801E08020C6
S1134E20000607B4024802A14018029003BDC04620
S1134E30190000000029EBD003B5FFF7A7FF0EBC53
S1134E404243891A1847C0467047C0468446101C1E
S1134E5062468C46191C634600E0C0461FB501F04B
S1134E601BFE002801D40021C8421FBD10B501F06B
S1134E704FFD4042013010BD10B501F00DFE002879
S1134E8001DB002010BD012010BDC04610B501F0AB
S1134E9003FE002801DD002010BD012010BDC04626
S1134EA010B501F07FFD002801DC002010BD0120B9
S1134EB010BDC04610B501F075FD002801DA0020D0
S1134EC010BD012010BDC0468446081C6146FFE7A2
S1134ED01FB500F06BFB002801D40021C8421FBDA0
S1134EE010B500F0F3FA4042013010BD10B500F0E7
S1134EF05DFB002801DB002010BD012010BDC04671
S1134F0010B500F053FB002801DD002010BD012086
S1134F1010BDC04610B500F001FB002801DC0020E4
S1134F2010BD012010BDC04610B500F0F7FA0028EE
S1134F3001DA002010BD012010BDC0461C21012350
S1134F401B04984201D3000C10391B0A984201D368
S1134F50000A08391B09984201D30009043902A246
S1134F60105C40187047C0460403020201010101AD
S1134F7000000000000000009E2110B5C905041CBB
S1134F80FFF7D2FF002803D1201C00F0F9FD10BD6B
S1134F909E21C905201C00F07DFC00F0F1FD80235A
S1134FA01B06C018F3E7C046F8B543024400C50F1A
S1134FB04E024800240E2A1C9B09000EC90FB60994
S1134FC08D425BD0221A002A00DC89E000281DD122
S1134FD0002E00D075E0580704D00F221A40042A8E
S1134FE000D004338021C90419402A1C00293AD076
S1134FF00134FF2C00D17FE09B015B0A5B02E4B229
S1135000E405580AD20720431043F8BDFF2CE2D030
S11350108021C9040E431B2A00DD2BE1311C202012
S1135020D140821A9640721E96410E439B1B580132
S1135030D1D59B019F09381CFFF780FF421F974081
S113504094425BDC141B1F231B1B3A1C9F40611CF6
S11350503B1CCA405F1EBB4113430024BBE7131E25
S1135060B9D100230022DB08FF2C04D1002B43D04C
S11350708020C00303435B025B0ABFE7211A0029B7
S113508040DD002823D0FF2CA5D08020C004064397
S11350901B2900DDECE0301C2027C840791A8E4023
S11350A0711E8E4106439B19590100D493E70134C4
S11350B0FF2C55D0704901221A400B405B08134362
S11350C089E7013A002AB1D0FF2CA4D183E7002E4E
S11350D000D180E701390029E5D0FF2CD8D17AE747
S11350E0002A1BD1621CD2B2012A4ADD9F1B7A011D
S11350F023D5F71A0D1C9EE700237FE75E4BA41A05
S11351003B4068E7002945D1611CC8B2012829DD6C
S1135110FF2924D0F3185B080C1C5CE7002C13D087
S1135120FF2818D08024E404524223431B2A4CDD78
S11351300123F31A041C0D1C79E7002F00D07AE731
S11351400023002200248EE7002B3AD0D243002A09
S1135150EFD0FF28EAD1331CFF240D1C3BE7FF24CA
S1135160002380E7002C5BD1002B7FD0002E00D1E0
S113517031E79B19580100D42DE73F4A012413401D
S113518029E7002C15D1002B40D1002E62D0331C0E
S11351900D1C20E7002C21D1002B54D0C943002939
S11351A004D0FF284CD01B2957DD01239B19041C74
S11351B07AE7002B19D1002E48D0331C0D1CFF2494
S11351C009E7331C041C0D1C05E71C1C2025D440D6
S11351D0AA1A93405A1E93412343AAE7FF282FD0CB
S11351E08024E40449422343DDE7FF24002E00D158
S11351F0F1E68022DB08D203134204D0F6081642FB
S113520001D1331C0D1CDB00FF24E4E6002E00D189
S1135210E1E69A1B500100D421E7F31A0D1CDAE6EB
S1135220002B0DD0FF24002E00D1D4E68022DB0811
S1135230D2031342E7D0F6081642E4D1331CE2E766
S1135240331CFF24C7E6331C041CC4E600220B4BAA
S1135250FF2408E7231C002205E71C1C2027CC4060
S1135260791A8B40591E8B4123439FE7331CB2E6C6
S1135270012618E70126D9E6FFFFFFFBF8FFFF032D
S1135280F0B55F4656464D464446F0B446024500E6
S1135290C00F85B00F1C760A2D0E804641D0FF2D1D
S11352A026D08024240400212643F6007F3D89462D
S11352B08B46F90F7C027800640A000E00918A463E
S11352C03CD0FF2834D080231B041C430023E4007B
S11352D07F380193009F4346019A7B4049469C4690
S11352E011430F2900D970E0754F89007F58BF46DC
S11352F0002E3ED10822022391469B46D9E75A4606
S1135300341CC24601920199022937D0032900D1E5
S1135310CEE0012900D0AAE053460B40002200262B
S113532032E0002E19D10421012289469346C0E7B8
S1135330221C531E9A4102320192CBE701270197A6
S1135340002CC7D0201CFFF7F9FD431F9C40762397
S11353505B420021181A0191BCE7301CFFF7EEFDF7
S11353607625431F9E406D4200232D1A99469B4685
S11353709FE70C23032199468B469AE7D4460123E1
S113538067463B40FF2200267602D205700ADB07FF
S11353901043184305B03CBC90469946A246AB4620
S11353A0F0BD0023474EFF22EEE700220026EBE784
S11353B08020C00306423BD0044239D1061C264358
S11353C07602760A009BFF22DEE7281A0390760114
S11353D06401A64239D3361B1A2201230120311C51
S11353E05B007600002901DBB44201D8361B03437D
S11353F0013A002AF3DC741EA641341C1C43039AB0
S11354007F32002A27DD630704D00F232340042BB7
S113541000D00434270103D52B4B039A1C4080325F
S1135420FE2A0BDD012361460B40FF220026ABE779
S113543006437602760A4346FF22A5E7A401012328
S11354406746660AD2B23B409EE7039F1B22013F98
S113545003970023C2E77E23039F5B42DB1B1B2BC6
S113546007DD012361460B40002200268CE7D44669
S1135470C5E7221CDA40039B9E339C40231C5C1E20
S1135480A34113435A0704D00F221A40042A00D020
S113549004335F0105D5012361460B400122002638
S11354A072E79E01624601231340760A00226BE7ED
S11354B08026F60326437602760A5346FF2263E7E4
S11354C0C0970000FFFF7F00FFFFFFF74A0243027F
S11354D070B55C0A550A43004A001B0EC60F120E33
S11354E0C90FFF2B05D0FF2A08D0012093420BD00F
S11354F070BD0120002CFBD1FF2AF6D10120002D24
S1135500F6D101209342F3D1AC42F1D18E4203D0C3
S1135510002BEDD1002CEBD10020E9E74A02430235
S1135520F0B55C0A550A43004A001B0EC60F120E62
S1135530C90FFF2B26D0FF2A29D0002B0CD16042A3
S113554060418446002A0AD0002816D18E4221D018
S1135550002E14D1012014E0002AF7D194466F42A2
S11355606F416046002805D1002FEFD00120002EA6
S113557007D004E00020002F03D10029EAD1012044
S11355804042F0BD002CD6D002204042F9E7002D65
S1135590D3D0F9E79342DBDC04DBAC42D8D800205B
S11355A0AC42EED2002EEAD00120EAE74A024302DE
S11355B0F0B55C0A550A43004A001B0EC60F120ED2
S11355C0C90FFF2B26D0FF2A28D0002B0FD0002A8A
S11355D014D194466F426F416046002814D00020D5
S11355E0002F03D100290DD101204042F0BD6042BB
S11355F060418446002AEDD00028F3D18E4211D0B8
S1135600002EF1D10120F1E7002FF7D00120002E68
S1135610ECD0E9E70220002CE8D1D4E70220002DE9
S1135620E4D1D2E79342EBDC04DBAC42E8D80020BF
S1135630AC42DBD2002ED7D00120D7E7F0B55F46CD
S113564056464D464446F0B44402460083B00F1C0F
S1135650640A360EC50F002E41D0FF2E22D08023BF
S11356601B0400201C43E4007F3E82468046391C14
S11356704B007F02C90F7F0A1B0E8B463BD0FF2BCA
S113568034D0802212041743FF007F3B00215A4686
S11356906A40019252460A430F2A62D87A4892001D
S11356A082589746002C3FD10822022392469846FE
S11356B0DDE70195404602282AD1019A01251540CB
S11356C0FF2300246402DB05600AED071843284326
S11356D003B03CBC90469946A246AB46F0BD002CB4
S11356E027D10420012282469046C0E7391C4A1E75
S11356F091410231CBE70121002FC8D0381CFFF7BC
S11357001DFC431F9F4076235B421B1A0021BEE70A
S1135710032800D1ADE001284ED101984246104043
S1135720C5B200230024CDE70C2303209A4680460B
S11357309DE7201CFFF702FC7626431F9C4076421F
S11357400023361A9A46984691E700254F4CFF23CA
S1135750B8E75B463C1C01938846ABE73C1C884693
S1135760A8E7250C24043A0C240C3F04F6183F0C3B
S1135770211C231C794353436F435543FB180A0CE4
S11357809B18B1469F4202D980225202AD180904E7
S11357901A04090C521894011B0C611E8C41920EC0
S11357A0ED181443AD012C43230105D501226308F0
S11357B00120144081441C434B467F33002B2DDDD4
S11357C0600704D00F222240042A00D004342201AE
S11357D003D52F4B1C404B468033FE2B17DD019B1A
S11357E001251D400024FF236CE78020C0030442F0
S11357F008D0074206D1041C3C436402640A5D4697
S1135800FF235FE704436402640AFF235AE7019815
S1135810A4010125640ADBB2054053E77E235B4201
S11358204A469B1A1B2B05DD019B01251D400024C4
S1135830002347E7221CDA404B469E339C40231C3E
S11358405C1EA3411343580704D00F221A40042AB4
S113585000D004335A0105D5019B01251D400024C5
S113586001232FE701989C010125640A05400023C8
S113587028E78027FF03019B3C43640201251D4068
S1135880640AFF231EE7C04600980000FFFF7F0064
S1135890FFFFFFF7F8B5C20F430244004D02480072
S11358A0240E161C9B09000EC90FAD09FF2800D158
S11358B083E0012779408A425CD0221A002A00DC66
S11358C08EE000281ED1002D00D07AE0580704D0C5
S11358D00F221A40042A00D004338021C904012273
S11358E01940324000293AD00134FF2C00D183E022
S11358F09B015B0A5B02E4B2E405580AD207204329
S11359001043F8BDFF2CE1D08021C9040D431B2AAC
S113591000DD2FE1291C2020D140821A95406A1E07
S113592095410D435B1B5801D0D59B019F09381C41
S1135930FFF704FB421F974094425FDC141B1F23B4
S11359401B1B3A1C9F40611C3B1CCA405F1EBB4191
S113595013430024BAE7131EB8D100230022DB0846
S1135960FF2C04D1002B47D08020C00303435B02EB
S11359705B0ABFE7211A002944DD002827D0FF2C49
S1135980A4D08020C00405431B2900DDF0E0281CBE
S11359902027C840791A8D40691E8D4105435B1943
S11359A0590100D492E70134FF2C59D072490122E5
S11359B01A400B405B08134388E7002D00D07AE7B8
S11359C077E7013A002AADD0FF2CA0D17EE7002D65
S11359D000D17BE701390029E1D0FF2CD4D175E750
S11359E0002A1BD1621CD2B2012A4ADD5F1B7A0154
S11359F023D5EF1A0E1C9AE700237BE75E4BA41A0B
S1135A003B4063E7002945D1611CC8B2012829DD68
S1135A10FF2924D0EB185B080C1C57E7002C13D08B
S1135A20FF2818D08024E404524223431B2A4CDD6F
S1135A300123EB1A041C0E1C75E7002F00D076E737
S1135A400023002200248AE7002B3AD0D243002A04
S1135A50EFD0FF28EAD12B1CFF240E1C36E7FF24CD
S1135A6000237CE7002C5BD1002B7FD0002D00D1DC
S1135A702CE75B19580100D428E73F4A012413405E
S1135A8024E7002C15D1002B40D1002D62D02B1C13
S1135A900E1C1BE7002C21D1002B54D0C943002934
S1135AA004D0FF284CD01B2957DD01235B19041CAB
S1135AB076E7002B19D1002D48D02B1C0E1CFF2497
S1135AC004E72B1C041C0E1C00E71C1C2026D440DD
S1135AD0B21A93405A1E93412343AAE7FF282FD0BA
S1135AE08024E40449422343DDE7FF24002D00D150
S1135AF0ECE68022DB08D203134204D0ED08154201
S1135B0001D12B1C0E1CDB00FF24DFE6002D00D18D
S1135B10DCE65A1B500100D41DE7EB1A0E1CD5E637
S1135B20002B0DD0FF24002D00D1CFE68022DB080E
S1135B30D2031342E7D0ED081542E4D12B1CE2E76F
S1135B402B1CFF24C2E62B1C041CBFE600220B4BBB
S1135B50FF2404E7231C002201E71C1C2027CC405F
S1135B60791A8B40591E8B4123439FE72B1CADE6CA
S1135B70012514E70125D5E6FFFFFFFBF8FFFF032E
S1135B804302590A4300C20F1B0E00207E2B0DDD79
S1135B909D2B0CDC802000040143952B0ADC96200D
S1135BA0C31AD9404842002A00D1081C7047034B4D
S1135BB0D018FBE7963B9940F4E7C046FFFFFF7F10
S1135BC070B5041E3CD0C60F00D04442201CFFF721
S1135BD0B5F99E23251C1B1A962B0CDC083884402F
S1135BE06402640ADBB2321C6402DB05600AD20779
S1135BF01843104370BD992B0ADD0522121A211C8B
S1135C00D1400A1C011C1B318D40691E8D41154376
S1135C10052801DD421F9540164C2C406A0704D02C
S1135C200F221540042D00D0043461010CD59F23AC
S1135C30181AFF281AD0A401640AC3B2321CD3E78D
S1135C40002200230024CFE7E408FF2B04D06402E1
S1135C50640ADBB2321CC7E7002C04D08020C003E6
S1135C6004436402640A321CFF23BDE7321CFF2391
S1135C700024B9E7FFFFFFFBF8B55F4656464446EC
S1135C804D46F0B40C034D00CE0F610A440F21437E
S1135C90C400180380465800400D8246D80F84463D
S1135CA04046400A530F0343D0006D0D371C834612
S1135CB05246664500D1A4E0AF1A002F00DC09E18A
S1135CC0002A3BD1184300D0EAE0630700D187E003
S1135CD00F232340042B00D182E0221DA242A441C1
S1135CE06442802309191B040B40371C141C002B2D
