S0180000676573747572655F6274313231202832292E73333771
S1130000002000206D01000099010000990100000A
S11300109901000099010000990100009901000074
S11300209901000099010000990100009901000064
S1130030990100009901000099010000114E00008F
S11300409901000099010000990100009901000044
S11300509901000099010000990100009901000034
S11300605550000099010000C150000099010000A2
S11300709901000099010000990100009901000014
S1130080990100004D500000990100009901000001
S11300909901000010B5064C2378002B07D1054BBD
S11300A0002B02D0044800E000BF0123237010BDE0
S11300B084000020000000006C9A000008B5084B82
S11300C0002B03D00748084900E000BF0748036835
S11300D0002B03D0064B002B00D0984708BDC04628
S11300E0000000006C9A00008800002080000020BE
S11300F000000000164B002B00D1144B9D464022FB
S113010092029A1A924600218B460F461348144ACB
S1130110121A07F08AFB0F4B002B00D098470E4BA6
S1130120002B00D098470020002104000D000D484A
S1130130002802D00C4800E000BF07F047FB200075
S1130140290004F019F807F02BFBC0460000080052
S113015000200020000000000000000084000020B7
S1130160A40B0020000000000000000006488047A7
S11301700649074A074B9B1A03DD043BC858D05075
S1130180FBDCFFF7B7FF0000E9020000789A0000EB
S11301900000002084000020FEE7C04680B582B045
S11301A000AF00F021F8031C7B60094B5B681A1C4C
S11301B00F2313407A68111CD9400B1C7B60054B3C
S11301C07A681A607B68181CBD4602B080BDC046C0
S11301D000800C405809002080B500AF014B181C6A
S11301E0BD4680BD00366E0180B582B000AF344B91
S11301F0DA6A344B134080225201934215D0802294
S11302005201934204D880221201934211D017E084
S113021080229201934204D08022D20493420CD0D3
S11302200EE0294B1B687B6039E080231B027B6056
S113023035E0264B1B687B6031E0254B7B602EE06C
S11302401F4BDA68E023DB001340802292009342C4
S113025018D080229200934206D8002B18D0802216
S11302605200934211D016E0C0229200934206D06D
S11302708022D20093420ED1164B7B600EE0164BC7
S11302807B600BE0154B7B6008E0154B7B6005E061
S1130290144B7B6002E000237B60C046C046084BE1
S11302A01A68E0235B0213409B0B01337868191C26
S11302B004F074FF031C181CBD4602B080BDC04688
S11302C000800C40003C00040400002000000020DA
S11302D000366E01406F4001809FD500C0D8A70052
S11302E040B56400804F120080B500AFBD4680BDAC
S11302F080B500AF80231B02181CBD4680BDC046DC
S113030080B500AFFA239B00181CBD4680BDC046D3
S113031080B500AF024B1B68181CBD4680BDC046AB
S11303200400002080B586B000AFB9607B603B1C40
S11303300F33011C19703B1C0C331A80154B181C0D
S113034007F07CFA3B1C0F331B78BA68101C191C8D
S113035004F05AFE031C7B617B69002B00DA15E074
S11303603B1C0C331B88002B10D07B68002B0DD05A
S11303703B1C0C331B887A68101C191C04F044FEC7
S1130380031C7B617B69002B00DAC046BD4606B0C6
S113039080BDC046A886000090B589B002AF3B1C62
S11303A0173300221A703B1C00221A6000225A6084
S11303B0C34B181C042104F097FE031C3B613B69EA
S11303C0002B03DA01235B4200F0EFFBBC4B1B68FC
S11303D09AB2072313409BB21B0299B2B84B1A6816
S11303E0FF231B0213401B0A9AB23B1C0E330A4321
S11303F01A803B1C0E331B88002B10D03B1C0E3381
S11304001B88B04A101C191C04F06EFE031C3B61CF
S11304103B69002B03DA01235B4200F0C6FBA84BC7
S1130420BB60A74B1A68A84B1340A84A934200D15B
S113043019E1A64A934236D8A54A934200D11BE358
S1130440A34A934217D8A34A934200D176E0A14A23
S1130450934207D8A02B00D1E5E29F4A93425AD099
S113046000F0A2FB9D4A934200D1BBE29C4A934216
S113047000D11CE198E39B4A934200D1BFE1994A21
S1130480934208D8984A934200D1D3E0974A9342C2
S113049000D197E288E3964A934260D0954A93420A
S11304A000D1B1E080E3944A934200D1AFE2924A92
S11304B0934218D8914A934200D159E28F4A934209
S11304C008D88F4A934200D105E28E4A934200D164
S11304D052E169E38C4A934200D1E0E08B4A9342B3
S11304E000D1C0E160E38A4A934200D173E0884AB4
S11304F0934208D8874A934200D14DE3864A9342F7
S113050000D1F4E150E3854A93424DD0844A9342AA
S113051000D14FE248E3834B181C07F08FF9824B5C
S113052000221A71804B814A1A60814B1C687E4BF1
S11305300520191C00220023A04735E37D4B181C1D
S113054007F07CF97C4BFF221A707B4B00225A7017
S11305507A4B181C0021082207F067F924E3784B32
S1130560181C07F06BF9774B181C07F081F9031C72
S1130570DAB26D4B1A716C4B1B7901331A0A6A4B50
S11305801B7901331B021B041B0C1343634A1A43DC
S1130590654B1A60664B1C68634B1B791A1C6249D5
S11305A0684B0520A047FFE2BB689B88664A101C85
S11305B0191C07F043F95C4BA822D2005A605A4B2D
S11305C0624A1A605A4B1C68574B0820191C0022B7
S11305D00023A047E8E2BB689B885D4A101C191CF5
S11305E007F02CF9504B00221A714F4B03225A7119
S11305F04D4B584A1A604E4B1C684B4B0620191C35
S113060000220023A047CFE2BB689B88524A101CFB
S1130610191C07F013F9444B01221A71424B4F4A3B
S11306201A60434B1C68404B0520191C0022002310
S1130630A047B9E2BB689B88494A101C191C07F003
S1130640FDF8394B05221A71374B00225A71364B8B
S1130650444A1A60364B1C68334B0620191C00228E
S11306600023A047A0E2BB689B883F4A101C191CCA
S113067007F0E4F82C4B01221A712B4B01225A711A
S1130680294B00229A71284B384A1A60284B1C685F
S1130690254B0720191C00220023A04784E2BB68D5
S11306A09B88334A101C191C07F0C8F87CE2BB680D
S11306B09B88304A101C191C07F0C0F874E2C0462D
S11306C0A4000020A8000020F800FFFF2000130170
S11306D0A0000C00A000010020000100A000070001
S11306E020000C00A000130020000F00A0000F0049
S11306F0A000010120000F01A0000F03A0000F02C1
S113070020000B02A0000B0220000203A0000B0338
S11307102000010620001303A00013032000010899
S113072020000F09BC860000F40A0020200101010A
S1130730100B0020D88600009009002092090020A8
S1130740F4860000188700002887000020040106B2
S11307505887000020020F019087000020010F003D
S1130760B887000020021301E88700002003020379
S11307701888000044880000BB681B79191CBB68FA
S11307805A68120A1B7A1B0613431A1CBB685B7A4D
S11307905BB2B868807A041CE748009407F04EF80E
S11307A0BB685A68120A1B7A1B0613431A1C80235F
S11307B01B019A4222D1BB689B7A1A1C0223134064
S11307C01CD0BB681B79DAB2DC4B1A70DB4B0122FC
S11307D05A70DB4B32225A60D94B00221A72D84B22
S11307E000225A72D64BD74A1A60D74B1C68D44B96
S11307F00A20191C00220023A047D5E1D4E1BB68DC
S11308001B79D24A101C191C07F018F8BA68052382
S1130810D15CD018407800020143D01880780004DD
S11308200143D018C078000608430021011CD318E6
S11308301A795B791B021A4300231204120C1B0C55
S11308401B041343081C191C00F0B6F9C04B181CF8
S113085006F0F4FFBB680533BE4A101C191C0622BF
S113086006F0DAFFA0E1BB689B791A1CBB689B8881
S1130870B949081C111C1A1C06F0E0FFBB689A79E0
S1130880AF4B1A71AE4BB54A1A60AF4B1C68AC4BF8
S11308900520191C00220023A047BB689B791A1C61
S11308A0A64B1B785BB29A4214D1A54B00225A6026
S11308B0A34B00221A72A24B01225A72A04BA14AE6
S11308C01A60A14B1C689E4B0A20191C00220023AD
S11308D0A04769E168E1BB689B791A1CBB689B88E7
S11308E09F49081C111C1A1C06F0A8FF5CE1BB6898
S11308F01B791A1CBB685B799A49081C111C1A1CC9
S113090006F09CFF8D4B1B785AB2BB681B799A4248
S11309102DD1BB685B79052B29D1BB689A79884BAB
S11309201A71874B8D4A1A60874B1C68844B0520CB
S1130930191C00220023A047814B00225A60804BDF
S113094000221A727E4B01225A727D4B7D4A1A6034
S11309507D4B1C687A4B0A20191C00220023A047F7
S1130960764BFF221A70754B00225A701CE11BE172
S1130970BB681B791A1CBB685968090A1B7A1B06D9
S11309800B437949081C111C1A1C06F057FFBB685D
S11309901A796B4B1A716A4B01225A71684B734A6C
S11309A01A60694B1C68664B0620191C0022002340
S11309B0A047F9E0BB689B886D4A101C191C06F01F
S11309C03DFFF1E0BB681B791A1CBB685968090A32
S11309D01B7A1B060B436749081C111C1A1C06F0E2
S11309E02DFFE1E0644B181C06F028FFBB68586833
S11309F0996800F0E1F8BB689B7A191CBB68DB7A44
S1130A001A1CBB681B7B5D4806F018FFCCE0BB6872
S1130A101B791A1CBB685B795949081C111C1A1CE8
S1130A2006F00CFFC0E0BB685B68564A101C191C3A
S1130A3006F004FF544B1B78002B0ED0404B0022D1
S1130A405A603F4B514A1A603F4B1C683C4B08208C
S1130A50191C00220023A047A6E0394B00221A717A
S1130A60374B4B4A1A60384B1C68354B0520191C10
S1130A7000220023A04797E0BB681B79002B00D01D
S1130A8092E03C1C173403F0B7FB031C23703B1C9F
S1130A9017331B78002B4DD03B1C3A1C17321278AD
S1130AA09A70264B1B78DAB2254B1A71244B01221B
S1130AB05A71234B08229A71214B9B7903331A0AEA
S1130AC01F4B9B7903331B021B041B0C1343314A3A
S1130AD01A431B4B1A601C4B1C68194B9B791A1C3C
S1130AE017493B1C0720A0473B1C00229A70134B5C
S1130AF01B78DAB2124B1A71114B01225A71104B46
S1130B0008229A710E4B9B7903331A0A0C4B9B797A
S1130B1003331B021B041B0C13431E4A1A43084BCA
S1130B201A60094B1C68064B9B791A1C04493B1C30
S1130B300720A047C04637E07888000090090020CD
S1130B40F40A002020060C00100B0020C0880000CE
S1130B50EC8800009A090020F088000020010B02B4
S1130B6024890000588900009089000020020F09A0
S1130B70D0890000008A0000408A0000688A0000D2
S1130B80988A0000D08A0000A00000202004000100
S1130B902001010120001303BB689B88054A101C37
S1130BA0191C06F04BFEC0460023181CBD4607B0B6
S1130BB090BDC046E48A000080B584B000AF3B1C01
S1130BC0186059600523FB6012E03A1CFB68D318D7
S1130BD01B780A4A101C191C06F030FEFB68002B17
S1130BE003DD074B181C06F029FEFB68013BFB6084
S1130BF0FB68002BE9DABD4604B080BD188B000009
S1130C00208B000080B586B000AFF860B9607A60D0
S1130C10FB681B687B61BB680122101C9840031CA5
S1130C20DB437A691A40796801231940BB68081CC0
S1130C309840031C1A43FB681A60BD4606B080BD89
S1130C4080B582B000AF786039607B681A683B6811
S1130C50DA4001231340181CBD4602B080BDC046D3
S1130C6080B500AF034BDB6C1B0EDBB2181CBD461A
S1130C7080BDC046B081E00F80B582B000AF224B8A
S1130C805A69E023DB0013408022920093421ED075
S1130C9080229200934206D8002B26D08022520054
S1130CA093421FD027E0C0229200934204D0E02256
S1130CB0D20093421CD01EE0FFF7D2FF031C122B7C
S1130CC002D9124B7B6019E0114B7B6016E0FFF7F1
S1130CD0C7FF031C122B02D90E4B7B600EE00E4B98
S1130CE07B600BE00D4B7B6008E00D4B7B6005E007
S1130CF00C4B7B6002E000237B60C0467B68181CC1
S1130D00BD4602B080BDC04600800C40804F12003A
S1130D1040420F0040B56400C0CF6A00C0D8A700AD
S1130D20809FD500406F400190B583B000AFFC1C9C
S1130D300E4B181C00F024FA031C2370FB1C1B78B8
S1130D40072B06D0082B09D1FFF74EFA031C7B6052
S1130D5007E0FFF791FF031C7B6002E000237B6048
S1130D60C0467B68181CBD4603B090BD06000C004D
S1130D7080B584B000AF7860184BDA6B3B1C0B3342
S1130D80511E8A411A70154B154ADA63134B5A687F
S1130D9007231340FB607A68124B9A4206D87A689C
S1130DA0114B9A4202D90123FB6001E00023FB604E
S1130DB00A4B0A4A52680721101C8843011CFA682E
S1130DC00A435A603B1C0B331B78002B02D0034BA5
S1130DD00022DA63BD4604B080BDC04600000C406A
S1130DE0711B00000048E8010024F40080B500AF46
S1130DF0FFF7F2F9031C181CFFF7BAFFBD4680BDCC
S1130E0080B584B000AF78600023BB607B68374A4C
S1130E10934206D0364A934203D0364A934200D0D6
S1130E2000E0C0467B68181C00F0AAF9031CFB60B4
S1130E307B682E4A93420CD02D4A934210D02D4AFF
S1130E40934200D013E02C4B9A6A03231340FB60B7
S1130E500DE0294B9A6A0C2313409B08FB6006E0C3
S1130E60254B9A6A302313401B09FB60C046FB687C
S1130E70012B05D014D3022B07D0032B0AD02DE06D
S1130E80FFF736FA031CBB602BE0FFF741FA031CA3
S1130E90BB6026E0FFF782F9031C5B08BB6020E01F
S1130EA00023BB607A68134B9A4203D07A680F4BD5
S1130EB09A4212D1104B9A6A79680E4B994201D129
S1130EC0102300E01423111CD9400B1C002B04D068
S1130ED0FFF716FA031CBB6003E002E00023BB60CB
S1130EE0C046BB68181CBD4604B080BD03001A0090
S1130EF004001C000200180000800C4080B582B081
S1130F0000AF7860074B5A6D0123134000D005E011
S1130F10C046044B1B6D7A681340FAD1BD4602B03B
S1130F2080BDC04600800C4090B583B000AFFC1C6F
S1130F30124B181C00F024F9031C2370FB1C1B78B3
S1130F40032B08D0082B0BD0022B0ED1FFF7E0F9AE
S1130F50031C7B600CE0FFF7CBF9031C7B6007E00C
S1130F60FFF742F9031C7B6002E000237B60C0466C
S1130F707B68181CBD4603B090BDC04607332000F3
S1130F8080B586B000AF78600A1CFB1C1A70002381
S1130F903B617B681A0A0F2313400A2B36D89A0048
S1130FA01C4BD3181B689F461B4B7B6118E01B4BE3
S1130FB07B6115E01A4B7B6112E01A4B7B610123C4
S1130FC03B610DE0184B7B6110233B6108E0174B3C
S1130FD07B6180235B003B6102E0154B7B61C04673
S1130FE07B681A0B1F231340FB603B69002B03D063
S1130FF03B69181CFFF782FFFB1C1B787969FA68B0
S1131000081C111C1A1CFFF7FDFD00E0C046BD467C
S113101006B080BD248B000040800C4008800C404A
S113102044800C4058800C4060800C4064800C402C
S113103078800C4080B584B000AF78607A68F8237B
S11310409B031340E0221203934200D17FE0E0228D
S11310501203934213D88022920293423DD08022FD
S11310609202934202D8002B23D07AE08022D2024B
S1131070934223D0C0221203934263D071E0C02272
S1131080520393422ED0C0225203934208D88022A6
S1131090520393422DD0A0225203934241D060E0E8
S11310A0D0225203934235D080229203934253D0EC
S11310B057E0FFF799F8031CFB6055E0FFF794F83D
S11310C0031CFB602B4B9B681A1C0F231340FA680C
S11310D0111CD9400B1CFB6046E0FFF75FF8031CB2
S11310E0FB6041E0244B181CFFF78AFE031CFB60E5
S11310F03AE0214B181CFFF783FE031CFB601D4BD9
S11311009B6E1A1C0F231340FA68111CD9400B1C48
S1131110FB6029E0194B181CFFF772FE031CFB60EF
S113112022E0164B181CFFF76BFE031CFB60114BEF
S11311301B6F1A1C03231340FA68111CD9400B1CA3
S1131140FB6011E0FFF7F0FD031CFB600CE0FFF710
S113115093FD031CFB6007E0FFF7E6FE031CFB6046
S113116002E00023FB60C046FB68181CBD4604B0C7
S113117080BDC04600800C400200180003001A0025
S113118080B584B000AF78603B1C0F3301221A7025
S11311907A680F231340BB60BB68072B00D9CAE0F1
S11311A0BB689A006A4BD3181B689F46694BDA6A7E
S11311B0694B134080225201934216D0802252017F
S11311C0934204D880221201934213D01CE080225F
S11311D09201934204D08022D20493420FD013E0B0
S11311E03B1C0F3302221A7013E03B1C0F33032203
S11311F01A700EE03B1C0F3304221A7009E03B1CEA
S11312000F330A221A7004E03B1C0F3305221A70B4
S1131210C04695E04F4B9A6A03231340022B08D033
S1131220032B0BD0012B0ED13B1C0F3303221A705E
S113123015E03B1C0F3302221A7010E03B1C0F33E5
S113124006221A700BE0434B9A6A80235B02134018
S113125004D03B1C0F330B221A7000E0C0466FE031
S11312603C4B9A6A0C231340082B08D00C2B0BD050
S1131270042B0ED13B1C0F3303221A7015E03B1CC8
S11312800F3302221A7010E03B1C0F3306221A702F
S11312900BE0304B9A6A80235B03134004D03B1C61
S11312A00F330B221A7000E0C04649E0294B9A6ABA
S11312B030231340102B02D0202B05D009E03B1C17
S11312C00F3303221A7009E03B1C0F3302221A70F9
S11312D004E03B1C0F3301221A70C04630E03B1C73
S11312E00F3307221A702BE01A4BDA6AE023DB0271
S11312F0134080229202934212D08022D20293425F
S113130004D080225202934205D00EE03B1C0F33DE
S113131009221A700EE03B1C0F3302221A7009E0F6
S11313203B1C0F3303221A7004E03B1C0F330122D1
S11313301A70C04604E03B1C0F3300221A70C046EA
S11313403B1C0F331B78181CBD4604B080BDC0463F
S1131350508B000000800C40003C000480B588B035
S113136000AF78600A1CFB1C1A700323FB613B1C52
S11313701B3303221A7000233B617A680F23134046
S1131380FB60FB68072B00D9F3E0FB689A007D4BF8
S1131390D3181B689F46FB1C1B780B2B00D9EAE073
S11313A09A00794BD3181B689F460423FB613B1CAE
S11313B01B3300221A701BE00323FB613B1C1B330D
S11313C001221A7014E00223FB613B1C1B3302222E
S11313D01A700DE00123FB613B1C1B3303221A70BE
S11313E006E00523FB613B1C1B3305221A70C04633
S11313F03B1C1B331B78181C0121012200F0D0F880
S1131400FFF7F4FC614BFA695A6200F02FF9FEF71A
S1131410C5FE031CBB60BB68181CFFF7A9FCADE04C
S1131420FB1C1B780B2B00D9A7E09A00584BD31850
S11314301B689F4600237B611DE0002001210122DF
S113144000F0AEF802237B6115E0012001210122A6
S113145000F0A6F801237B610DE04E4B181C02211D
S11314600122FFF7CFFB03237B6104E000237B61B0
S113147001233B61C046FB68022B0BD1434B434A1B
S1131480916A454A11407A6911433A6912040A4340
S11314909A6273E03D4B3D4A916A404A11407A6931
S11314A0920011433A6912050A439A6266E0FB1CF2
S11314B01B78022B07D0032B0DD0012B00D05DE04D
S11314C000237B610FE000200121012200F068F875
S11314D002237B6107E001200121012200F060F872
S11314E001237B61C046294B284A926A3021101C93
S11314F08843011C7A6912010A439A623EE0FB1C8C
S11315001B78032B14D0092B22D0022B00D035E0FA
S113151000200121012200F043F81C4B40225A62B2
S1131520C0461A4BDA6A80235B021340F9D01FE0ED
S113153001200121012200F033F8144B60225A6289
S1131540C046124BDA6A80239B021340F9D00FE0A5
S113155005200121012200F023F80C4B80225A625D
S1131560C0460A4BDA6A8023DB021340F9D0C04636
S113157004E0C04602E0C04600E0C046BD4608B0F4
S113158080BDC046708B0000908B000000800C4032
S1131590C08B000040800C40FCFFFEFFF3FFEFFF18
S11315A080B586B000AFFB1D1870BB1D19707B1D84
S11315B01A70FB1D1B78052B4ED89A00284BD318A4
S11315C01B689F4601233B610223FB6001237B616F
S11315D026E004233B610823FB6003237B611FE0B7
S11315E010233B612023FB6005237B6118E040232B
S11315F03B618023FB6007237B6111E080235B0058
S11316003B6180239B00FB6009237B6108E080230E
S1131610DB003B6180231B01FB6016237B61C0461A
S1131620BB1D1B78002B11D00E4B3A691A627B1D2F
S11316301B78002B0DD0C0460B4A7B69101C191C6B
S1131640FFF7FEFA031C002BF6D002E0054BFA6804
S11316501A6200F00BF800E0C046BD4606B080BD3B
S1131660F08B000000800C402C800C4080B500AF53
S1131670024BDA6A024B1A60BD4680BD00800C4002
S1131680A808002080B586B000AFF860B9607A6021
S1131690FB681B687B61BB680122101C9840031C1B
S11316A0DB437A691A40796801231940BB68081C36
S11316B09840031C1A43FB681A60BD4606B080BDFF
S11316C080B584B000AFF860B9607A60FB681B68CD
S11316D0BA68D2431A407B681A43FB681A60BD4655
S11316E004B080BD80B588B000AFF860B9607A609E
S11316F01A1CFB1C1A707B68002B00D165E0FB6888
S11317001A68334B1A40FB681A60F968FB1C1B7893
S11317101B02C0229200081C111C1A1CFFF7D0FFE8
S1131720BB68002B05D12B4B181CFFF783FC031C53
S1131730BB6001235B42BB61FB681A680223134050
S113174012D0FB1C1B78012B07D0022B08D0002BD6
S113175000D01AE0204BBB6105E0204BBB6102E0E6
S11317601F4BBB61C04610E0FB1C1B78012B06D04D
S1131770022B07D0002B08D11A4BBB6105E01A4B92
S1131780BB6102E0194BBB61C046FB1C1B78184AC5
S1131790D35C7B617B689B00BA68D21A7B697968E9
S11317A04B43101C191C03F0F9FC031C013BFB61A7
S11317B0FB681A680223134004D0FB69002B01D193
S11317C00123FB61FA69FB681A61BD4608B080BD5C
S11317D0FFFCFFFF4081040040164000C0D8A70072
S11317E08050740180841E0040548900002D310112
S11317F0088C000080B582B000AF786039607B68E7
S113180000225A637B68114A1A637A683B685B78E2
S1131810002B01D0002300E00123101C01211A1C1D
S1131820FFF730FF3B6859683B689A683B681B7B4D
S11318307868FFF757FF7A683B681B78101C002113
S11318401A1CFFF71FFFBD4602B080BDCFFF010089
S113185080B588B000AF78607A68BD4B9A4205D1F4
S1131860BC4BBB61BB699B687B6101E0FC23ECE181
S11318707B689B6A3B613A69C023DB00134014D048
S11318803A6980239B00134003D0BB69FD225A7040
S113189007E03A698023DB00134002D0BB69FE22D3
S11318A05A70BB6909221A70BBE1BB691B78082B0B
S11318B000D9AEE19A00A84BD3181B689F467B69F8
S11318C05B881A1C102313400AD07B691B881B0AEF
S11318D09BB21A1C06231340F0221343FB610FE052
S11318E07B691B881A1CFE231340FB617B695B88A0
S11318F01A1C0223134003D0FB6901221343FB612A
S1131900BB6901221A707B68FA695A627B680122FA
S11319105A6086E13A69802313400CD07B688022A8
S11319201A63BB69FF225A70BB6908221A707B686C
S113193002225A6030E03A69402313402CD07B687D
S113194040221A637B695B881A1C102313400AD057
S1131950BB6902221A707B691B881A1CFF231A4078
S11319607B685A6218E07B695B881A1C0223134067
S11319700ED0BB6907221A70BB691B797A69DB0038
S1131980D3181B89012B07D17B6808225A6048E1D0
S1131990BB6905221A7043E143E13A69802313408D
S11319A00CD07B6880221A63BB69FF225A70BB6922
S11319B008221A707B6802225A6014E03A694023B4
S11319C0134010D07B6840221A637B695B881A1C21
S11319D00223134003D0BB6903221A7020E1BB69C0
S11319E005221A701CE11CE17B695B881A1C102318
S11319F013400AD07B691B881B0A9BB21A1C06235E
S1131A001340F0221343FB6105E07B691B881A1C19
S1131A10FE231340FB617B695B881A1C042313407B
S1131A2003D0FB6901221343FB61BB6904221A70D2
S1131A307B6801225A607B68FA695A62F1E03A696C
S1131A40802313400CD07B6880221A63BB69FF2279
S1131A505A70BB6908221A707B6802225A6014E02B
S1131A603A694023134010D07B6840221A637B6993
S1131A705B881A1C0423134003D0BB6907221A7025
S1131A8003E0BB6905221A70CAE0CAE0BB695A8840
S1131A90BB691B797969DB00CB181B899A4224D373
S1131AA0BB6900225A80BB691B790133DAB2BB6976
S1131AB01A717B695B881A1C0423134003D0BB6929
S1131AC003221A70ACE07B695B881A1C0123134063
S1131AD003D1BB691B79012B06D9BB6908221A7093
S1131AE07B6802225A609CE09AE0BB691B797A69A0
S1131AF0DB00D31804331A68BB695B88591C88B2AD
S1131B00B9694880D3181B781A1C7B685A62BB6970
S1131B1006221A7085E03A69802313400CD07B6852
S1131B2080221A63BB69FF225A70BB6908221A70AB
S1131B307B6802225A600AE03A694023134006D0C7
S1131B407B6840221A63BB6905221A7068E068E06A
S1131B5000A00040AC0800200C8C00003A6920234F
S1131B60134047D0BB691B797A69DB00D3181B8902
S1131B70FB607B68DA693B1C0B331A70BB695B88BA
S1131B801A1CFB689A4211D2BB691B797A69DB0083
S1131B90D31804331A68BB695B88591C88B2B969C5
S1131BA04880D3183A1C0B3212781A70BB695B88D0
S1131BB01A1CFB689A420CD3FB68012B02D17B6888
S1131BC008225A60BB6908221A707B6802225A6094
S1131BD010E07B6804225A60FB68012B0AD9BB69B8
S1131BE05B881A1CFB68013B9A4203D17B6808227C
S1131BF05A6016E015E03A6980235B00134007D071
S1131C007B68802252001A63BB6909221A7008E0BB
S1131C1007E0BB69FB225A70BB6909221A7000E015
S1131C2026E6BB691B78092B0BD17B6800225A631B
S1131C30BB695B785BB2012B05D1BB6900225A708A
S1131C4001E0012301E0BB695B785BB2181CBD466F
S1131C5008B080BD80B584B000AF786039607A6820
S1131C60274B9A4207D1274BFB607B689A68012374
S1131C70134005D001E0FC233DE07B6820225A603C
S1131C803B685B881A1C0223134003D03B681B8902
S1131C90002B09D03B685B881A1C0423134005D031
S1131CA03B681B8A002B01D1FC2324E0FB68002243
S1131CB01A70FB6801225A70FB6800225A80FB6884
S1131CC000221A71FB683A689A607B68C0225A60E5
S1131CD07B689A6A2023134001D07B68DB697B68A8
S1131CE0094A1A637B68FC22D2005A637B68181C79
S1131CF0FFF7AEFD031C5BB2181CBD4604B080BDEB
S1131D0000A00040AC080020CFFF010080B582B0E5
S1131D1000AF78600A1CFB1C1A70FB1C1B78002B9C
S1131D2006D07B681B6F01221A437B681A6707E0A1
S1131D307B681B6F0122191C91430A1C7B681A677C
S1131D40BD4602B080BDC04680B582B000AF7860A9
S1131D507A688023D358181CBD4602B080BDC046A3
S1131D6080B582B000AF786039607A6884233968BE
S1131D70D150BD4602B080BD80B582B000AF78605E
S1131D8039607A68384B9A4207D07A68374B9A425E
S1131D9003D07A68364B9A4200D1C0463B681B7820
S1131DA001225340DBB2002B02D07B6802225A602E
S1131DB07B6800225A623B689B781A063B68DB7892
S1131DC01B041A433B689B799B021A433B68DB79EB
S1131DD01B021A433B681B7A1A433B685B78002B4F
S1131DE001D0402300E000231A433B685B7A002BB8
S1131DF001D0802300E000231A433B689B7A002B28
S1131E0001D0202300E000231A433B68DB7A002B37
S1131E1001D0102300E000231A433B681B79002BF8
S1131E2002D080239B0100E000231A433B685B79C6
S1131E30002B02D080235B0500E000231A433B689B
S1131E401B7B002B01D0082300E000231A437B688E
S1131E501A603B681B78002B02D07B6801225A6011
S1131E60BD4602B080BDC0460000014000040140F0
S1131E700008014080B584B000AFF860B9607A60B2
S1131E80FA68284B9A4207D0FA68274B9A4203D043
S1131E90FA68264B9A4200D1C0467B681B789A06A2
S1131EA07B685B781B061A437B689B781B041A4388
S1131EB07B68DB781B031A437B681B799B021A43FC
S1131EC07B685B791B021A437B689B791A437B68A6
S1131ED0DB79002B02D080239B0300E000231A430C
S1131EE07B681B7A002B02D080235B0300E0002375
S1131EF01A437B685B7A002B01D0102300E0002397
S1131F001A437B689B7A002B01D0042300E0002352
S1131F10111C1943FB68BA6803321201D150BD4643
S1131F2004B080BD000001400004014000080140ED
S1131F3080B582B000AF786039607B68181C0021DE
S1131F40FFF7E4FE3B68DB78002B01D0022200E0BF
S1131F5000223B685B78002B01D0042300E00023BF
S1131F601A433B689B78002B01D0082300E0002330
S1131F701A433B681B79002B02D080235B0400E0EA
S1131F8000231A433B685B791B011A437B681A6779
S1131F903B689B791A1C3B689B681B021A433B688D
S1131FA0DB681B041A437B685A673B681B7D002B64
S1131FB002D080231A0500E000223B685B7D002BE1
S1131FC002D08023DB0400E000231A433B689B7D9E
S1131FD0002B02D080235B0400E000231A433B68FB
S1131FE01B7E002B02D080239B0400E000231A43B5
S1131FF03B689B7E1B041A433B68DB7D1A433B68AA
S11320005B7E1B021A437B689A673B681A697B688C
S1132010DA677B68181CFFF797FE031C7A68101CAC
S1132020191CFFF79DFE3B681B787A68101C191C6D
S1132030FFF76CFEBD4602B080BDC04680B586B0D9
S113204000AFF860B9607A601A1CFB1C1A70BB6898
S1132050002B05D1294B181CFEF7ECFF031CBB60B9
S1132060FB1C1B78202B0BD002DC002B05D042E09C
S1132070402B08D0602B0ED03DE010237B610DE097
S113208008237B610AE0BB68181C062103F086F86C
S113209006237B6102E004237B61C046BB689A008F
S11320A07B6979684B435B08D3183B617B697A6829
S11320B053433869191C03F071F8031C3B613B69F5
S11320C0043B3B613B699B013B613A690C4B134008
S11320D03B61FB681B686022191C91430A1CFB6866
S11320E01A60FB681A68FB1C1B781A43FB681A60A9
S11320F0FB683A695A61BD4606B080BD4081040060
S1132100C0FF1F0080B582B000AF786039607A6884
S11321101F4B9A4203D07A681E4B9A4200D1C046A4
S11321207B68181C00F066F83B689B7C002B06D08B
S11321307B681B688022D2051A437B681A603B685F
S1132140DB7C002B07D03B681B7D10221343DBB2E2
S11321501A1C7B689A653B685B7B1A1C3B681B8A6C
S11321601A433B68DB891A437B685A603B685968A9
S11321703B689A683B681B7B7868FFF75FFF3B68A6
S11321801B781A1C7B68DA60BD4602B080BDC0466D
S113219000C0004000C4004080B584B000AF786047
S11321A039607B689B6877229343FB603B681B78AC
S11321B0002B03D0FB6840221343FB603B689B78F1
S11321C0002B03D0FB6820221343FB603B685B7841
S11321D0002B03D0FB6810221343FB603B68DB78C1
S11321E0FA681343FB607B68FA689A60BD4604B0E2
S11321F080BDC04680B582B000AF78607A681E4B5F
S11322009A4203D07A681D4B9A4200D1C0467B683B
S11322101B4ADA607B6800221A607B68194A5A609C
S11322207B6800229A607B6800225A617B680022E6
S1132230DA647B68144A9A647B6800225A657A6877
S11322400D4B9A4203D07A680C4B9A4202D17B68B8
S113225000221A657B6800229A657A68064B9A42C6
S113226003D07A68054B9A4202D17B680022DA6572
S1132270BD4602B080BDC04600C0004000C400405E
S1132280AA0E000005100000F91F000080B582B0FE
S113229000AF7860C0467B681A6980231340FAD087
S11322A07B68DB69DBB2181CBD4602B080BDC0464A
S11322B080B582B000AF78600A1CFB1C1A70C0465F
S11322C07B681A6940231340FAD0FB1C1A787B6898
S11322D05A63BD4602B080BD80B500AF00F00CF873
S11322E000F03CF800F090F800F0E4F800F006F993
S11322F000F0DEFABD4680BD80B500AF1120052197
S1132300FFF72CF80F4B181C0121FEF739FE0E4B7A
S1132310181C0121FEF734FE0C4B181C0121FEF79A
S11323202FFE0B4B181C0121FEF72AFE094B181C2B
S11323300121FEF725FE084B181C0121FEF720FEA3
S1132340BD4680BD4081040000B2040000020400C8
S113235000320400004204000082040090B589B0F9
S113236000AF3B1C0833264A13CA13C313CA13C352
S11323703B1C0833E12252029A603B1C08330522BD
S11323805A733B1C08330022DA813B1C0833802239
S113239052011A823B1C083300221A733B1C083377
S11323A000229A743B1C08330022DA743B1C083365
S11323B000221A75134A3B1C0833101C191CFFF722
S11323C0A1FE3B1D00221A703B1D00225A703B1DCA
S11323D000229A703B1D0022DA703B1D00225A70C5
S11323E03B1D00229A703B1D0022DA70054A3B1DFA
S11323F0101C191CFFF7D0FEBD4609B090BDC046A5
S1132400308C000000C0004090B589B000AF3B1C88
S11324100833264A13CA13C313CA13C33B1C083315
S1132420E12252029A603B1C083305225A733B1C7A
S113243008330022DA813B1C0833802252011A82BD
S11324403B1C083300221A733B1C083300229A7485
S11324503B1C08330022DA743B1C083300221A7533
S1132460134A3B1C0833101C191CFFF74BFE3B1D81
S113247000221A703B1D00225A703B1D00229A70E4
S11324803B1D0022DA703B1D00225A703B1D0022C6
S11324909A703B1D0022DA70054A3B1D101C191C62
S11324A0FFF77AFEBD4609B090BDC046308C0000EF
S11324B000C4004090B585B000AF3B1C0C4A13CA61
S11324C013C312681A603B1C01221A703B1C0122C0
S11324D05A703B1C074A9A603B1C00221A73064A36
S11324E03B1C101C191CFFF785F9BD4605B090BDB7
S11324F0488C0000486B010000A0004090B595B0E6
S113250000AF3B1C403301221A703B1C40330022B5
S11325105A703B1C403300229A703B1C403300220B
S1132520DA703B1C403300221A713B1C40330022FA
S11325305A713B1C403300229A713B1C40330022E9
S1132540DA713B1C403300221A723B1C40330022D8
S11325505A723B1C403300229A723B1C40330022C7
S1132560DA723B1C403300221A733B1C40330122B5
S11325701A703B1C403300225A703B1C403300222B
S11325805A723B1C403300221A733B1C4033002216
S1132590DA703B1C403300229A703B1C403300220B
S11325A09A713B1C40330022DA713B1C40330022F9
S11325B01A723B1C403300229A723B1C40330022A7
S11325C0DA723B1C403300221A713B1C4033002258
S11325D05A71B54A3B1C4033101C191CFFF7CCFB45
S11325E03B1C343300221A703B1C343300225A70D3
S11325F03B1C343300229A703B1C34330022DA70C3
S11326003B1C343300221A713B1C343300225A71B0
S11326103B1C343300229A713B1C34330022DA71A0
S11326203B1C343300221A723B1C343300225A728E
S11326303B1C343300229A723B1C343300221A723E
S11326403B1C343300229A703B1C343300225A70F2
S11326503B1C343300229A713B1C343300221A7021
S11326603B1C34330022DA713B1C343300221A71D0
S11326703B1C34330022DA703B1C343300225A7181
S11326803B1C343300225A723B1C343300229A72AE
S1132690854A3B1C3433101C00211A1CFFF7EAFB4B
S11326A03B1C283300221A703B1C283300225A702A
S11326B03B1C283300229A703B1C28330022DA701A
S11326C03B1C283300221A713B1C283300225A7108
S11326D03B1C283300229A713B1C28330022DA71F8
S11326E03B1C283300221A723B1C283300225A72E6
S11326F03B1C283300229A723B1C283300221A7296
S11327003B1C283300229A703B1C283300225A7049
S11327103B1C283300229A713B1C283300221A7078
S11327203B1C28330022DA713B1C283300221A7127
S11327303B1C28330022DA703B1C283300225A71D8
S11327403B1C283300225A723B1C283300229A7205
S1132750554A3B1C2833101C01211A1CFFF78AFB25
S11327603B1C1C3300221A703B1C1C3300225A7081
S11327703B1C1C3300229A703B1C1C330022DA7071
S11327803B1C1C3300221A713B1C1C3300225A715F
S11327903B1C1C3300229A713B1C1C330022DA714F
S11327A03B1C1C3300221A723B1C1C3300225A723D
S11327B03B1C1C3300229A723B1C1C3300221A72ED
S11327C03B1C1C3300229A703B1C1C3300225A70A1
S11327D03B1C1C3300229A713B1C1C3300221A70D0
S11327E03B1C1C330022DA713B1C1C3300221A717F
S11327F03B1C1C330022DA703B1C1C3300225A7130
S11328003B1C1C3300225A723B1C1C3300229A725C
S1132810254A3B1C1C33101C02211A1CFFF72AFBFF
S11328203B1C224A13CA13C313CA13C312681A6087
S11328303B1C00221A703B1C00225A703B1C0022D5
S11328409A703B1C0022DA703B1C00221A713B1C5C
S113285000225A713B1C00229A713B1C01229A608F
S11328603B1C0122DA603B1C01221A753B1C01222D
S11328705A753B1C0022DA753B1C0022DA753B1C9E
S113288000225A763B1C00225A763B1C01229A767F
S11328903B1C00221A61044A3B1C101C191CFFF744
S11328A047FBBD4615B090BD00000140588C0000A8
S11328B080B500AF354B354AD26C0F218A430421D1
S11328C00A43DA64314B314AD26CF0218A43102135
S11328D00A43DA642D4B2D4A116F2D4A0A40B02168
S11328E009050A431A67294B284A126F1201120973
S11328F0B02109060A431A67244A24499823C9586F
S1132900244B0B408021C90019439823D1501F4AFE
S11329101E499823C958204B0B4080214901194373
S11329209823D150194A19499823C9581B4B0B4075
S11329308021C90219439823D150144A134998237A
S1132940C958174B0B408021C90319439823D15010
S1132950144B144A916B144A0A40802149000A43DB
S11329609A63104B0F4A926B03210A439A630F4BED
S11329700E4A526D03210A435A650D4B0C4A526D9F
S113298003210A435A65BD4680BDC046006000402D
S1132990FFFFFFF0FFF0FFFFFF0FFFFFFFFFF0FF60
S11329A0FFFF0FFF00A00040FFF8FFFF00C0004042
S11329B000C4004080B586B000AF7860284B181C76
S11329C000216C2204F031FF00237B6142E00023EC
S11329D03B6139E03B1C0A3300221A800023FB6070
S11329E017E03A69FB68D0181E497A69131C9B00EA
S11329F09B189B001B185B005B5A9AB23B1C0A3362
S1132A001B88D3189AB23B1C0A331A80FB68013323
S1132A10FB60FB68022BE4DD3B1C0A3300229B5E57
S1132A20181C032102F008FC031C98B20C497A69B3
S1132A30131CDB009B185B003A699B185B00021CAB
S1132A405A523B6901333B613B69112BC2DD7B69FF
S1132A5001337B617B69022BB9DDBD4606B080BDC5
S1132A60880A0020A0090020F0B5F9B000AFF86092
S1132A70B9607A603B600023EE204000C019036017
S1132A800023EC214900C9190B609A225200BB189B
S1132A90181C0021182204F0C8FEA62464003B1967
S1132AA0181C00210C2204F0C0FE94256D007B1933
S1132AB0181C00210C2204F0B8FE882040003B18AA
S1132AC0181C0021182204F0B0FE3B1CF833181C1B
S1132AD00021182204F0A9FEAC2149007B18181C1F
S1132AE000216C2204F0A1FEBB68002B13DCFB6800
S1132AF0EE225200D21913600023EC246400E4197E
S1132B002360AC256D007A19C24B101C191C6C2271
S1132B1004F082FE12E01223EE204000C01903608C
S1132B20BB68EC214900C9190B60AC235B00FA189F
S1132B30B94B101C191C6C2204F06EFE0023EA240D
S1132B406400E41923606FE00023E8256D00ED19AB
S1132B502B6037E0A62040003B18EA214900C91940
S1132B600A689200D458AC225200B918EA235B00D8
S1132B70DB191A68131CDB009B185B00E8256D0049
S1132B80ED192A689B185B005B5A1BB2181C03F0F2
S1132B906FFA031C201C191C02F05EFC031C191C98
S1132BA0A62040003B18EA246400E419226892003D
S1132BB0D150E8256D00ED192B680133E820400061
S1132BC0C0190360E8214900C9190A68EE246400A9
S1132BD0E41923689A42BDDBA6256D007B19EA201F
S1132BE04000C01902689200D458EE214900C91966
S1132BF0086803F03DFA031C201C191C02F098FD20
S1132C00031C191CA6225200BB18EA246400E41910
S1132C1022689200D150EA256D00ED192B6801332A
S1132C20EA204000C0190360EA214900C9190B6871
S1132C30022B89DD0023EA225200D21913605FE1DE
S1132C400023E2246400E4192360EC256D00ED19EF
S1132C502B68E8204000C0190360CAE0E82149005D
S1132C60C9190A68EC246400E4192368D01AAC2555
S1132C706D007919EA235B00DB191A68131CDB0069
S1132C809B185B001B185B005B5A1BB2181C03F0FB
S1132C90EFF9021CA62464003B19EA256D00ED1926
S1132CA029688900CB58101C191C03F04BF8031C2D
S1132CB0E2204000C01903600023E6214900C9193D
S1132CC00B6064E09A225200B918E6235B00DB191A
S1132CD01A68131C5B009B18EA246400E419226838
S1132CE09B189B005C58E6256D00ED192B68D822D3
S1132CF053437A68D118EA204000C0190268131CB3
S1132D00DB009B185B00E8256D00ED192A689B1811
S1132D109B005958E6204000C0190268131C5B0050
S1132D209B189B003A68D318EA256D00ED192A68B0
S1132D309200D358081C191C03F004F8031C181C37
S1132D40E2225200D219116802F0D0FE031C201CAA
S1132D50191C02F081FB031C181C9A235B00F91850
S1132D60E6246400E4192268131C5B009B18EA251E
S1132D706D00ED192A689B189B005850E62040000E
S1132D80C01903680133E6214900C9190B60E62222
S1132D905200D2191368012B94DD942464003B196A
S1132DA0EA256D00ED192A689200D458E221490001
S1132DB0C9190868E2225200D219116802F096FE7D
S1132DC0031C201C191C02F047FB031C191C94242F
S1132DD064003B19EA256D00ED192A689200D15070
S1132DE0E8204000C01903680133E8214900C919EB
S1132DF00B60E8235B00DB191A68EE246400E41915
S1132E0023689A4200DA29E70023E6256D00ED19CC
S1132E102B6041E01C0A0020880A00209A20400010
S1132E203918E6235B00DB191A68131C5B009B1836
S1132E30EA246400E41922689B189B005C58EE2580
S1132E406D00ED192A68EC204000C0190368D31AFC
S1132E50181C03F00DF9031C201C191C02F068FC5B
S1132E60031C181C9A225200B918E6235B00DB19D4
S1132E701A68131C5B009B18EA246400E419226896
S1132E809B189B005850E6256D00ED192B68013303
S1132E90E6204000C0190360E6214900C9190B6807
S1132EA0012BBBDD94225200BB18EA246400E41910
S1132EB022689200D458EE256D00ED192A68EC20A2
S1132EC04000C0190368D31A181C03F0D1F8031C7E
S1132ED0201C191C02F02CFC031C191C9422520007
S1132EE0BB18EA246400E41922689200D150EA2550
S1132EF06D00ED192B680133EA204000C01903600E
S1132F00EA214900C9190B68022B00DC98E63B1C36
S1132F10F033181C0021082204F087FC0023EA2265
S1132F205200D21913607AE10023E8246400E41902
S1132F30236036E194256D007B19E8204000C01918
S1132F4002689200D1589A225200B818EA235B0012
S1132F50DB191A68131C5B009B18E8246400E4194D
S1132F6022689B189B001B58081C191C02F0BEFD0C
S1132F70031C181C002102F00BFA031C002B7CD14B
S1132F8088256D007919EA204000C0190268131CD5
S1132F905B009B18E8246400E41922689B189B00DA
S1132FA000225A509A256D007919EA204000C01970
S1132FB00268131C5B009B18E8246400E41922686F
S1132FC09B189B005B58181C04F008FB051C0E1C86
S1132FD0942040003B18E8214900C9190A6892006E
S1132FE0D158EA235B00DB191A68131C5B009B1899
S1132FF09B00FC246400E4192268D318E8204000F4
S1133000C01902689200D358081C191C02F06EFD06
S1133010031C181CF24902F069FD031C181C02F081
S113302003FA031C181C01F02FF8031C0C1C181CB9
S1133030211CEA4BE84A03F09BFB031C0C1C281CD4
S1133040311C1A1C231C03F093FB031C0C1C181CBE
S1133050211C04F015FB88225200B918EA235B00F6
S1133060DB191A68131C5B009B18E8246400E4193C
S113307022689B189B00585011E088256D0079192F
S1133080EA204000C0190268131C5B009B18E82466
S11330906400E41922689B189B0000225A50391CD2
S11330A0F831EA256D00ED192A68131C5B009B18A2
S11330B0E8204000C01902689B189B0000225A5067
S11330C088225200B918EA235B00DB191A68131C22
S11330D05B009B18E8246400E41922689B189B0099
S11330E05B58181CBF4902F001FD031C181C02F0B8
S11330F09FFF031C181C02F0BBFF391CF831EA25A2
S11331006D00ED192A68131C5B009B18E824640009
S1133110E41922689B189B0058503B1CF033EA25A5
S11331206D00ED192A689200D458391CF831EA2050
S11331304000C0190268131C5B009B18E8256D0051
S1133140ED192A689B189B005D58A74AE8204000A7
S1133150C0190368D3181B785BB2181C02F088FFEF
S1133160031C281C191C02F0C1FC031C181C02F0CF
S11331705FFF031C181C642102F05EF8031CE118B5
S11331803B1CF033EA246400E41922689200D15015
S1133190E8256D00ED192B680133E8204000C019C3
S11331A00360E8214900C9190B68022B00DCC1E661
S11331B03B1CF033EA246400E41922689200D358DB
S11331C0132B09DC3B1CF033EA256D00ED192A684A
S11331D092000021D15019E03B1CF033EA2040005A
S11331E0C01902689200D3583A1CF032EA246400F1
S11331F0E419216889008A58111C59433B1CF03397
S1133200EA256D00ED192A689200D150EA204000A9
S1133210C01903680133EA214900C9190B60EA2285
S11332205200D2191368012B00DC7DE63B1C90335D
S1133230181C0021602204F0F8FA3B1C3033181CDF
S11332400021602204F0F1FA3B1C1033181C002109
S1133250202204F0EAFA0023EA246400E41923603B
S1133260C1E10023E8256D00ED192B60ABE1EC20F2
S11332704000C0190368E6214900C9190B6067E0E2
S11332805A4BF0225200D219D118EA235B00DB1901
S11332901A68131C5B009B18E8246400E419226874
S11332A09B189B005C58EA256D00ED192B68D82209
S11332B053437A68D118E8204000C0190268131CEF
S11332C0DB009B185B00E6256D00ED192A689B184E
S11332D09B005B58181C464902F008FC031C181C90
S11332E002F0A6FE011CAC225200B818E8235B00D1
S11332F0DB191A68131CDB009B185B00E6256D00C4
S1133300ED192A689B185B001B5A1BB2CB1A181CB8
S113331004F042FA031CE018344BF0225200D21994
S1133320D118EA235B00DB191A68131C5B009B1895
S1133330E8246400E41922689B189B005850E62591
S11333406D00ED192B680133E6204000C0190360BD
S1133350E6214900C9190A68EE246400E4192368C7
S11333609A428DDB214BF0256D00ED19E918EA2016
S11333704000C0190268131C5B009B18E824640019
S1133380E41922689B189B005B58181CEE256D00FD
S1133390ED19296801F050FF031C181C134BF0228F
S11333A05200D219D118EA235B00DB191A68131CE6
S11333B05B009B18E8246400E41922689B189B00B6
S11333C05850EC256D00ED192B68E6204000C0191B
S11333D003608BE0C046C046000000000000594076
S11333E000401C460000C842180A0020B0FEFFFF3F
S11333F000007A44AF4BF0225200D219D118EA23CC
S11334005B00DB191A68131C5B009B18E82464003A
S1133410E41922689B189B005C58EA256D00ED199D
S11334202B68D82253437A68D118E8204000C01989
S11334300268131CDB009B185B00E6256D00ED1988
S11334402A689B189B005B58181C9B4902F04EFB92
S1133450031C181C02F0ECFD011CAC225200B8182D
S1133460E8235B00DB191A68131CDB009B185B0064
S1133470E6256D00ED192A689B185B001B5A1BB2E8
S1133480C91A8E4BF0225200D219D018EA235B00DD
S1133490DB191A68131C5B009B18E8256D00ED19F5
S11334A02A689B189B001B58CB1A181C04F074F94B
S11334B0031CE0187F4BF0225200D219D118EA23E2
S11334C05B00DB191A68131C5B009B18E82464007A
S11334D0E41922689B189B005850E6256D00ED19ED
S11334E02B680133E6204000C0190360E62149003F
S11334F0C9190A68EE246400E41923689A4200DAC0
S113350078E76C4BF0256D00ED19E918EA204000CE
S1133510C0190268131C5B009B18E8246400E419BA
S113352022689B189B005B58181CEE256D00ED1952
S1133530296801F081FE031C181C5E4BF022520026
S1133540D219D118EA235B00DB191A68131C5B003B
S11335509B18E8246400E41922689B189B005850C7
S1133560574BF0256D00ED19EB18EA204000C01907
S113357002689200D1584F4BF0225200D219D01851
S1133580EA235B00DB191A68131C5B009B18E82410
S11335906400E41922689B189B001B58C918484B07
S11335A0F0256D00ED19EB18EA204000C0190268FF
S11335B09200D150E8214900C9190B680133E8226F
S11335C05200D2191360E8246400E4192368022B22
S11335D000DC4CE6EA256D00ED192B680133EA2086
S11335E04000C0190360EA214900C9190B68012B86
S11335F000DC36E60023EA225200D21913604FE0C1
S11336003B1CF033EA246400E41922689200D35886
S1133610002B1FDD3B1CF033EA256D00ED192A68F1
S11336209200D358FA2292005A43254BF0204000CE
S1133630C019C318EA246400E41921688900CB582E
S1133640101C191C01F0F8FD031CE4256D00ED1994
S11336502B6004E00023E4204000C0190360194BF0
S1133660EA214900C9190A689200D258E424640086
S1133670E41923689A420ADA124BEA256D00ED191F
S11336802A689200E4204000C0190168D150EA2160
S11336904900C9190B680133EA225200D219136098
S11336A0EA246400E4192368012BA9DDBD4679B03E
S11336B0F0BDC04650FEFFFF00007A44B0FEFFFF9D
S11336C030FEFFFF5C09002080B584B000AF786055
S11336D00023FB6034E00023BB602BE0FA68131C7A
S11336E09B009B18DB007A68D318BA685200D35A3F
S11336F01BB2181C02F0BCFC031C181C134902F07A
S113370017F8031C181C124902F0F0F9031C181CCA
S113371002F08EFC031C98B20E49FA68131C9B003D
S11337209B189B00BA689B185B00021C5A52BB682A
S11337300133BB60BB68132BD0DDFB680133FB6036
S1133740FB68022BC7DDBD4604B080BD00FEFF460A
S113375000007A44A009002090B58BB002AFF86055
S1133760B9607A6000237B61404B181C00216C22F5
S113377004F05BF83E4B00225A603D4B5A683C4BC8
S11337801A6004235B42FB6140E00023BB6124E038
S1133790BA69FB69D21A374B5200D15A334BBA6912
S11337A05200D152BA69FB69D21A324B123252001A
S11337B0D15A2E4BBA6912325200D152BA69FB69FE
S11337C0D21A2C4B24325200D15A284BBA692432D3
S11337D05200D152BB690133BB61FB691A1C12321E
S11337E0BB699A42D4DCFB69181C1230F969FA6887
S11337F0BB687C680094FFF737F91C4B181C002148
S11338006C2204F012F8FB690133FB61FB69002BA5
S1133810BBDD0123FB610AE0F969FA68BB687868DB
S113382000901220FFF720F9FB690133FB61FB696B
S1133830032BF1DD0E4B1A680D4B5B680E49081C17
S1133840111C1A1C03F0FAFF094B1B68084A526842
S1133850D80FD117041C9A424C41231CDBB27B6164
S11338607B69181CBD4609B090BDC0461C0A0020E7
S11338705C090020880A00202C8D000090B5FBB064
S113388000AF274B181C03F0D9FF264BF42040004F
S1133890C019C218244B111C1A1CD8235B00081C25
S11338A0111C1A1C03F0B8FF204BF4214900C9195C
S11338B0CB181F4A13CA13C313CA13C31D4BF422D4
S11338C05200D219D3181C4A13CA13C313CA13C300
S11338D0391C34313A1C1C323B1D081C111C1A1CA7
S11338E0FFF73AFF031CF2225200D2191360F224AC
S11338F06400E4192368002B05D00323F220400060
S1133900C019036004E00223F2214900C9190B60C5
S1133910F2225200D2191368181CBD467BB090BD28
S1133920388D00004CFEFFFF4C8D000034FEFFFF7D
S1133930FC8E00001CFEFFFF148F000090B5FBB04E
S113394000AF274B181C03F079FF264BF4204000EE
S1133950C019C218244B111C1A1CD8235B00081C64
S1133960111C1A1C03F058FF204BF4214900C919FB
S1133970CB181F4A13CA13C313CA13C31D4BF42213
S11339805200D219D3181C4A13CA13C313CA13C33F
S1133990391C34313A1C1C323B1D081C111C1A1CE6
S11339A0FFF7DAFE031CF2225200D2191360F2244C
S11339B06400E4192368002B05D00123F2204000A1
S11339C0C019036004E00023F2214900C9190B6007
S11339D0F2225200D2191368181CBD467BB090BD68
S11339E02C8F00004CFEFFFF408F000034FEFFFFD1
S11339F0F09000001CFEFFFF0891000090B5FBB0A2
S1133A0000AF274B181C03F019FF264BF42040008D
S1133A10C019C218244B111C1A1CD8235B00081CA3
S1133A20111C1A1C03F0F8FE204BF4214900C9199B
S1133A30CB181F4A13CA13C313CA13C31D4BF42252
S1133A405200D219D3181C4A13CA13C313CA13C37E
S1133A50391C34313A1C1C323B1D081C111C1A1C25
S1133A60FFF77AFE031CF2225200D2191360F224EB
S1133A706400E4192368002B05D00523F2204000DC
S1133A80C019036004E00423F2214900C9190B6042
S1133A90F2225200D2191368181CBD467BB090BDA7
S1133AA0209100004CFEFFFF3091000034FEFFFF28
S1133AB0E09200001CFEFFFFF892000090B5FBB0FE
S1133AC000AF274B181C03F0B9FE264BF42040002E
S1133AD0C019C218244B111C1A1CD8235B00081CE3
S1133AE0111C1A1C03F098FE204BF4214900C9193B
S1133AF0CB181F4A13CA13C313CA13C31D4BF42292
S1133B005200D219D3181C4A13CA13C313CA13C3BD
S1133B10391C34313A1C1C323B1D081C111C1A1C64
S1133B20FFF71AFE031CF2225200D2191360F2248A
S1133B306400E4192368002B05D00723F220400019
S1133B40C019036004E00623F2214900C9190B607F
S1133B50F2225200D2191368181CBD467BB090BDE6
S1133B60109300004CFEFFFF2093000034FEFFFF83
S1133B70D09400001CFEFFFFE894000090B5FBB059
S1133B8000AF274B181C03F059FE264BF4204000CD
S1133B90C019C218244B111C1A1CD8235B00081C22
S1133BA0111C1A1C03F038FE204BF4214900C919DA
S1133BB0CB181F4A13CA13C313CA13C31D4BF422D1
S1133BC05200D219D3181C4A13CA13C313CA13C3FD
S1133BD0391C34313A1C1C323B1D081C111C1A1CA4
S1133BE0FFF7BAFD031CF2225200D2191360F2242B
S1133BF06400E4192368002B05D00923F220400057
S1133C00C019036004E00823F2214900C9190B60BC
S1133C10F2225200D2191368181CBD467BB090BD25
S1133C20009500004CFEFFFF1095000034FEFFFFDE
S1133C30C09600001CFEFFFFD896000090B5A1B00E
S1133C4000AF78603B1C5C33E34A13CA13C33B1CCC
S1133C505033E24A13CA13C33B1C443300221A6094
S1133C603B1C443300225A603B1C443300229A60BC
S1133C703B1C383300221A603B1C383300225A6044
S1133C803B1C383300229A603B1C2C3300221A6000
S1133C903B1C2C3300225A603B1C2C3300229A60BC
S1133CA03B1C7F3300221A7000233B67CC4B181C4B
S1133CB00221032203F0B9FD7B68181CFFF704FD01
S1133CC07B68181CFEF776FE0023BB671FE0002309
S1133CD07B6712E0C349BA6F131CDB009B185B00BF
S1133CE07A6F9B185B005B5A1BB2BF4A101C191CED
S1133CF003F0A4FD7B6F01337B677B6F112BE9DD40
S1133D00BA4B181C03F09AFDBB6F0133BB67BB6F42
S1133D10022BDCDDB54B181C03F090FD3B1C6F330C
S1133D2000221A700023BB67B4E000237B6777E0AE
S1133D303B1C5C33BA6F9200D158AA48BA6F131C6B
S1133D40DB009B185B007A6F9B185B001B5A1BB24D
S1133D5099421DDDA349BA6F131CDB009B185B005D
S1133D607A6F9B185B005B5A19B23B1C5C33BA6FC9
S1133D709200D1503B1C2C33BA6F9200D3580122CD
S1133D80111C19433B1C2C33BA6F9200D1502EE006
S1133D903B1C5033BA6F9200D1589248BA6F131C2F
S1133DA0DB009B185B007A6F9B185B001B5A1BB2ED
S1133DB099421CDA8B49BA6F131CDB009B185B0019
S1133DC07A6F9B185B005B5A19B23B1C5033BA6F75
S1133DD09200D1503B1C3833BA6F9200D358012261
S1133DE0111C19433B1C3833BA6F9200D1503B1C51
S1133DF02C33BA6F9200D35859003B1C2C33BA6F42
S1133E009200D1503B1C3833BA6F9200D3585900FA
S1133E103B1C3833BA6F9200D1507B6F01337B6700
S1133E207B6F112B84DD3B1C5033BA6F9200D25848
S1133E303B1C5C33B96F8900CB58D11A3B1C44330B
S1133E40BA6F9200D1503B1C4433BA6F9200D258DF
S1133E50AF235B009A4213DD3B1C7F333A1C7F3255
S1133E60127801210A431A703B1C6F331A783B1CE9
S1133E706F3301321A705A4ABB6FD3185A221A7020
S1133E803A1C7F323B1C7F331B78DB181370BB6FEB
S1133E900133BB67BB6F022B00DC46E70023BB6723
S1133EA014E04F4ABB6FD3181B785AB23B1C6F33D4
S1133EB01B78101C191C01F0BFF9031CDAB2484925
S1133EC0BB6FCB181A70BB6F0133BB67BB6F022B80
S1133ED0E7DD3B1C7F331B78002B02D114233B67A7
S1133EE0CAE00023BB663B1C0C33181C00212022B3
S1133EF003F09BFC3B1C7F331A780E2313400C2BDE
S1133F0000D979E09A003A4BD3181B689F461423D2
S1133F103B67B1E002233B67FFF7B0FC031C3B6740
S1133F20AAE000233B67FFF709FD031C3B67A3E0FE
S1133F3004233B67FFF762FD031C3B679CE00623F9
S1133F403B67FFF7BBFD031C3B67FFF7B7FD021C94
S1133F503B1C0C331A60274B1A68264B9A61254B7D
S1133F605A68244BDA61FFF709FE021C3B1C0C3330
S1133F705A60204B1A681F4B1A611E4B5A681D4B1E
S1133F805A610023BB671CE03B1C0C33BA6F9200E0
S1133F90D258184B9200D258BB6E9A420EDD3B1C8D
S1133FA00C33BA6F9200D258124B9200D358BB66AE
S1133FB03B1C0C33BA6F9200D3583B67BB6F013381
S1133FC0BB67BB6F012BDFDD56E008233B67FFF7C0
S1133FD0D5FD031C3B674FE0F896000004970000F2
S1133FE0180A0020880A0020F0960000F4960000C9
S1133FF0109700005C090020FFF760FD021C3B1CC9
S11340000C331A601F4B1A681E4B9A611D4B5A6879
S11340101C4BDA61FFF7B2FD021C3B1C0C335A60E7
S1134020184B1A68174B1A62164B5A68154B5A628A
S11340300023BB671CE03B1C0C33BA6F9200D258C0
S1134040104B9200D258BB6E9A420EDD3B1C0C33CF
S1134050BA6F9200D2580B4B9200D358BB663B1CEC
S11340600C33BA6F9200D3583B67BB6F0133BB6705
S1134070BB6F012BDFDDC0463B6FDBB2181CBD46B6
S113408021B090BD5C090020F0B58BB000AF786022
S113409010237B61786803F06DFA031C0C1CBB6071
S11340A0FC6000237B62BB68FC68BB61FC6132E09E
S11340B0B869F9691F4B1E4A01F036F9031C002B3D
S11340C000D02CE0B869F969BA69FB6902F0C0FF55
S11340D0031C0C1C181C211CBA68FB6802F024F891
S11340E0031C0C1C1D1C261CBB69FC69181C211C10
S11340F01A1C231C02F018F8031C0C1C281C311C6D
S11341001A1C231C02F034FB031C0C1CBB61FC6155
S11341107B6A01337B627A6A7B699A42C8D3BB6942
S1134120FC69181C211CBD460BB0F0BDC046C0463E
S1134130000000000000F03F80B582B000AF094BE2
S11341401B687B607B681B0E812B08D8064B074AD3
S11341501A60074B064A1168064A0A401A60BD46AF
S113416002B080BDFC81E00F18600C400500000423
S1134170E4800C40FFFFFFFE98B500AFFFF7DCFFC3
S1134180FEF7AAF800F050FE114B181C00F02CFEAC
S1134190104B114A1A6000F06DFB00F0E7FF0F4B63
S11341A00F4A1A600B4B1C680C4B0420191C00228C
S11341B00023A0470B4B0C4A1A800C4BC822D20098
S11341C01A800B4B0B4A1A80FCF7E6F8FCE7C04652
S11341D0B80B0000100B002025030000F40A002097
S11341E0200001008E0900200CFEFFFF8C09002036
S11341F06409002068C5FFFF80B500AF00F004F833
S1134200031C181CBD4680BDB0B586B002AF3B1C74
S11342100F3300221A70AA4B1B685A1CA84B1A6051
S1134220A74B1B68012B00D0D0E2A64B1A88A64BE3
S11342301A80A64B1A88A64B1A80A64B1A88A64B3E
S11342401A809F4B00221A609E48A049A14AA34BA2
S1134250A34C0094A34C019400F0E6FBA24B1B6812
S1134260002B06D0A04B1B685A1E9F4B1A600023DC
S1134270AFE29E4B1B68002B00D08BE0914B1B8858
S11342801AB29B4B1B881BB29A495B189A4209DCF1
S11342908C4B1B881AB2964B1B881BB296495B1831
S11342A09A421ADA874B1B881BB2181C03F074FA63
S11342B0041C854B1B881BB2181C03F06DFA031CED
S11342C0E31A181C03F068FA021CFA23DB009A4272
S11342D003DD864B01221A605CE07C4B1B881AB21A
S11342E0864B1B881BB283495B189A4209DC774BC7
S11342F01B881AB2814B1B881BB27F495B189A42F8
S11343001ADA724B1B881BB2181C03F045FA041C02
S11343106F4B1B881BB2181C03F03EFA031CE31AF4
S1134320181C03F039FA021CFA23DB009A4203DD5D
S11343306E4B01221A602DE0664B1B881AB2704B3B
S11343401B881BB26B495B189A4209DC614B1B88C2
S11343501AB26B4B1B881BB267495B189A4219DA75
S11343605C4B1B881BB2181C03F016FA041C5A4B36
S11343701B881BB2181C03F00FFA031CE31A181C49
S113438003F00AFA021CFA23DB009A4202DD574BBF
S113439001221A60554B1B68012B00D0F8E0594BE1
S11343A01B68042B43DD3B1C0C3300221A8038E0CD
S11343B03B1C0A3300221A8027E03B1C0C331A886A
S11343C03B1C0A331C883B1C0C3319884D4B1B685F
S11343D0181F3B1C0A331B88C5184B480B1C9B0039
S11343E05B189B005B195B00185A4749131C9B0020
S11343F09B189B001B195B00021C5A523B1C0A337E
S11344001A883B1C0A3301321A803B1C0A331B886E
S1134410032BD2D93B1C0C331A883B1C0C330132BE
S11344201A803B1C0C331B88022BC1D9AAE0354BE4
S11344301B68032B00DDA5E03B1C0C3300221A8013
S11344409AE03B1C0A3301221A8028E03B1C0C33FF
S11344501A883B1C0A331B880421CC1A3B1C0C33DE
S11344601988284B18683B1C0A331B88C51A264830
S11344700B1C9B005B189B005B195B00185A2249BC
S1134480131C9B009B189B001B195B00021C5A52B7
S11344903B1C0A331A883B1C0A3301321A803B1C2A
S11344A00A331A88174B1B689A42CFDD154B1B68D9
S11344B00422D31A7B603B1C0A3300221A804EE08C
S11344C0BC080020080000200A0000200C00002086
S11344D00E0000201000002012000020C008002060
S11344E0C2080020C4080020C8080020CC0800200E
S11344F08E090020B80B000048F4FFFF8C0900204F
S113450064090020D0080020D40800203B1C0C3390
S11345101A883B1C0A331B887968CB1A5C1E3B1C27
S11345200C3319883B1C0A331B881320C51AAB486B
S11345300B1C9B005B189B005B195B00185AA74976
S1134540131C9B009B189B001B195B00021C5A52F6
S11345503B1C0A331A883B1C0A3301321A803B1C69
S11345600A331A887B689A42D0DB3B1C0C331A88C6
S11345703B1C0C3301321A803B1C0C331B88022B6E
S113458000D85EE7964B04221A60964B02221A600A
S1134590934B1A68944B1988904B5200D152904B0C
S11345A01A68924B19888D4B14325200D1528C4B9D
S11345B01B68591C8A4A11608D4A1188874A28331E
S11345C05B009952864B1B68142B00D0FEE0844B91
S11345D000221A60834B1B68002B00D1EAE0814B58
S11345E000221A603C1C0F347C4B181CFFF726FB7E
S11345F0031C23707F4B181C03F020F93B1C0F3362
S11346001B78142B00D9C1E09A007B4BD3181B688C
S11346109F467A4B181C03F011F93B1C0F33002200
S11346201A70C0E0764B181C03F008F93B1C0F33DA
S11346304F221A70B7E0734B181C03F0FFF83B1CB1
S11346400F3350221A70AEE03B1C0F3328221A702D
S11346506D4B181C03F0F2F8A5E06C4B181C03F02A
S1134660EDF83B1C0F332A221A709CE0684B181C8F
S113467003F0E4F83B1C0F3352221A7093E0654BAD
S1134680181C03F0DBF83B1C0F3351221A708AE02C
S1134690614B181C03F0D2F83B1C0F334A221A70EA
S11346A081E05E4B181C03F0C9F83B1C0F334D220C
S11346B01A7078E05A4B181C03F0C0F83B1C0F33F7
S11346C029221A706FE0574B181C03F0B7F83B1CF3
S11346D00F332B221A7066E0534B181C03F0AEF80C
S11346E03B1C0F3300221A705DE0504B181C03F082
S11346F0A5F83B1C0F3300221A7054E04C4B181CD5
S113470003F09CF83B1C0F3300221A704BE0494B1A
S1134710181C03F093F83B1C0F3300221A7042E07C
S1134720454B181C03F08AF83B1C0F3300221A7007
S113473039E0424B181C03F081F83B1C0F33002274
S11347401A7030E03E4B181C03F078F83B1C0F3312
S113475000221A7027E03B4B181C03F06FF83B1C37
S11347600F3300221A701EE0374B181C03F066F852
S11347703B1C0F3300221A7015E0344B181C03F055
S11347805DF83B1C0F3300221A700CE03B1C0F3306
S11347901B782F4A101C191C03F050F83B1C0F33D4
S11347A000221A70C0462B4B181C03F047F82A4B02
S11347B00A221A60294B1A88294B1A80294B1A8815
S11347C0294B1A80294B1A88294B1A803B1C0F331A
S11347D01B78181CBD4604B0B0BDC046D4080020E8
S11347E0D0080020CC080020080000200C00002085
S11347F010000020449700007C98000050970000AF
S11348005C970000649700006C97000074970000A8
S11348107C970000849700008C9700009497000018
S1134820A4970000B0970000BC970000CC9700004C
S1134830D8970000E4970000F0970000FC97000070
S11348400898000014980000209800002C9800009C
S1134850389800004C980000C80800208E090020F9
S11348600A0000208C0900200E00002064090020AA
S11348701200002080B582B000AF00F093F8031C52
S11348807A6813437B60FB1C41221A70FB1CD02006
S11348901A211A1C012300F077F9031C7A681343C8
S11348A07B60FB1C31221A70FB1CD02019211A1CBE
S11348B0012300F069F9031C7A6813437B60FB1C35
S11348C000221A70FB1CD0201B211A1C012300F0AB
S11348D05BF9031C7A6813437B60FB1C00221A708B
S11348E0FB1CD0201C211A1C012300F04DF9031CD1
S11348F07A6813437B60FB1C08221A70FB1CD020CF
S11349001D211A1C012300F03FF9031C7A6813438C
S11349107B60FB1C00221A70FB1CD02023211A1C74
S1134920012300F031F9031C7A6813437B60FB1CFC
S113493000221A70FB1CD0206A211A1C012300F0EB
S113494023F9031C7A6813437B60FB1C80221A70D2
S1134950FB1CD0201E211A1C012300F015F9031C96
S11349607A6813437B60FB1C00221A70FB1CD02066
S11349706C211A1C012300F007F9031C7A68134305
S11349807B60FB1C01221A70FB1CD0206B211A1CBB
S1134990012300F0F9F8031C7A6813437B60BD46D9
S11349A002B080BD80B584B000AF0023BB60FA23A1
S11349B09B00FB60FB1D80221A70FB1DD0206B2125
S11349C01A1C012300F0E0F8031CBA681343BB600F
S11349D0BB68002B01D0BB6821E0322000F004FA50
S11349E0FB1DD0206B211A1C012300F01BF9031CB2
S11349F0BB60BB68002B01D0BB6810E0012000F055
S1134A00F3F9FB68013BFB60FB68002B02DA04232B
S1134A105B4204E0FB1D1B78412BE1D10023181CF1
S1134A20BD4604B080BDC04680B58AB000AFF86012
S1134A30B9607A603B6000237B623B1C2333002215
S1134A401A703B1C1C3300221A6000229A803B1C03
S1134A50143300221A6000229A803B1C1C33D0209D
S1134A603B211A1C022300F0DDF8031C7A6A13436D
S1134A707B623B1C1C330233D0203D211A1C0223D1
S1134A8000F0D0F8031C7A6A13437B623B1C1C338E
S1134A900433D0203F211A1C022300F0C3F8031C66
S1134AA07A6A13437B623B1C1433D02043211A1CC3
S1134AB0022300F0B7F8031C7A6A13437B623B1CA1
S1134AC014330233D02045211A1C022300F0AAF823
S1134AD0031C7A6A13437B623B1C14330433D020D7
S1134AE047211A1C022300F09DF8031C7A6A134321
S1134AF07B623B1C1C331B781B029AB23B1C1C338D
S1134B005B7813439AB2FB681A803B1C1C339B7876
S1134B101B029AB23B1C1C33DB7813439AB2BB686A
S1134B201A803B1C1C331B791B029AB23B1C1C339E
S1134B305B7913439AB27B681A803B1C14331B784D
S1134B401B029AB23B1C14335B7813439AB23B6842
S1134B501A803B1C14339B781B029AB23B1C1433FF
S1134B60DB7813439AB23B6B1A803B1C14331B79DA
S1134B701B029AB23B1C14335B7913439AB27B6BCE
S1134B801A80BD460AB080BD90B58BB000AFBA6044
S1134B907B603B1C0F33021C1A703B1C0E330A1C37
S1134BA01A703B1C0F331B789AB23B1C10331A80CB
S1134BB03B1C103308225A803B1C10333A1C0E3223
S1134BC05A603B1C103301221A813B1C1033BA6813
S1134BD0DA607B689AB23B1C10331A823C1C27347F
S1134BE00F4A3B1C1033101C191CFDF733F8031C2F
S1134BF0237007E03C1C2734094B181CFCF728FEE3
S1134C00031C23703B1C27331B785BB2012BF1D0B0
S1134C103B1C27331B785BB2181CBD460BB090BD00
S1134C2000A0004090B58BB000AFBA607B603B1C25
S1134C300F33021C1A703B1C0E330A1C1A703B1CE7
S1134C400F331B789AB23B1C10331A803B1C103371
S1134C5004225A803B1C10333A1C0E325A603B1C0F
S1134C60103301221A813B1C1033BA68DA607B6866
S1134C709AB23B1C10331A823C1C27340F4A3B1C4B
S1134C801033101C191CFCF7E5FF031C237007E00C
S1134C903C1C2734094B181CFCF7DAFD031C237059
S1134CA03B1C27331B785BB2012BF1D03B1C273311
S1134CB01B785BB2181CBD460BB090BD00A0004031
S1134CC0B0B582B000AF021C3960FB1D1A70FB1D29
S1134CD01B787F2B32D93049FB1D1B781A1C0F23FC
S1134CE01340083B98082C4AFB1D1B781C1C0F23FF
S1134CF02340083B9B0806339B00D3185B68FA1DCE
S1134D001278141C03222240D200FF24251C954053
S1134D102A1CD2431A403B689C01FF231C40FB1D04
S1134D201B781D1C03232B40DB00251C9D402B1CE2
S1134D301A43831D9B00CB185A6029E0174BFA1DB8
S1134D40127852B292081549F81D007840B28008D2
S1134D50C03080004158F81D0078041C0320204016
S1134D60C000FF24251C8540281CC0430840396826
S1134D708C01FF210C40F91D09780D1C03212940E9
S1134D80C900251C8D40291C0143C0329200D1501A
S1134D90BD4602B0B0BDC04600ED00E000E100E059
S1134DA080B582B000AF78607B685A1E0C4B9A4283
S1134DB001D9012310E00B4B7A68013A5A600123B0
S1134DC05B42181C0321FFF77BFF064B00229A600D
S1134DD0044B07221A600023181CBD4602B080BD94
S1134DE0FFFFFF0010E000E080B584B000AF786002
S1134DF0064B1B68FB60C046044B1A68FB68D21A5A
S1134E007B689A42F8D3BD4604B080BD140B0020E1
S1134E1080B500AF034B1B685A1C024B1A60BD4699
S1134E2080BDC046140B002080B500AF094B181C90
S1134E30FCF700F9031C181CFA23990000F0AEF9E2
S1134E40031C181CFFF7ACFF031C002B00D0FEE76B
S1134E50BD4680BD5000020080B582B000AF021C88
S1134E60FB1D1A70064BFA1D1278111C1F220A40F2
S1134E700121081C9040021C1A60BD4602B080BD8E
S1134E8000E100E080B582B000AF021CFB1D1A7087
S1134E90064AFB1D1B78191C1F230B400121994056
S1134EA0C0235B00D150BD4602B080BD00E100E0EC
S1134EB080B582B000AF786039607B683A689A64E4
S1134EC0BD4602B080BDC04680B582B000AF7860F8
S1134ED039607B68DA6C3B681A437B68DA64BD46E8
S1134EE002B080BD90B585B000AF021CB9603B1C18
S1134EF00F331A703B1C0F331B78002B11D03B1C53
S1134F000F331B78012B0CD03B1C0F331B78022B67
S1134F1007D03B1C0F331B78032B02D03B1C0F33F1
S1134F201B780A483B1C0F331A78BB6801210C1C00
S1134F309C40231C191C131CDB009B189B00C318EA
S1134F4018331960BD4605B090BDC04600600040EE
S1134F5080B500AF72B6074B1B68013304D0054B14
S1134F601B685A1C034B1A60024B1B68181CBD4675
S1134F7080BDC046B808002080B582B000AF0B4B9E
S1134F801B68002B0DD0094B1B685A1E074B1A6077
S1134F90064B1B687B607B68002B00D162B67B6884
S1134FA000E00023181CBD4602B080BDB8080020F4
S1134FB080B586B000AFF860B9607A6000237B6189
S1134FC000237B6114E0BB681B780A2B04D10D4BD2
S1134FD0181C0D21FDF76CF9BB685A1CBA601B78CC
S1134FE0084A101C191CFDF763F97B6901337B61C6
S1134FF07A697B689A42E6DB7B68181CBD4606B07A
S113500080BDC04600C0004080B584B000AF786069
S113501039600023FB600023FB600BE0FB687A68C7
S1135020D3181B78084A101C191CFDF741F9FB68BA
S11350300133FB60FA683B689A42EFDB3B68181C5B
S1135040BD4604B080BDC04600C4004080B500AF7A
S1135050BD4680BD90B583B000AF174B7B60042084
S11350600C21FFF73FFFFC1C144B181CFDF70EF935
S1135070031C23707B689B887F2B19D87B681B8853
S11350807968FA1CCB1812789A717B681B880133F3
S11350909AB27B681A807B689B8801339AB27B68DA
S11350A09A807B681B887F2B02D97B6800221A8038
S11350B0BD4603B090BDC046180B002000C400409C
S11350C080B500AFBD4680BD80B500AF054B002262
S11350D09A80044B00225A80024B00221A80BD465B
S11350E080BDC046180B002080B584B000AF786046
S11350F0396002E00A20FFF777FE1B4B9B881A1CDD
S11351003B689A42F6DBFFF723FF3B68BB60002352
S1135110FB601EE0FB687A68D318134A5288124970
S11351208A1892791A70104B9B88013B9AB20E4BE5
S11351309A800D4B5B8801339AB20B4B5A800A4B11
S11351405B887F2B02D9084B00225A80FB6801330D
S1135150FB60FA68BB689A42DCDBFFF70DFFBB68B3
S1135160181CBD4604B080BD180B002080B500AFEC
S1135170094B181C0421FFF79BFE0820FFF782FE51
S1135180054B181C0421FFF79FFE0820FFF764FE5F
S1135190FFF79AFFBD4680BD00C40040002934D00B
S11351A00123002210B488422CD301242407A142F5
S11351B004D2814202D209011B01F8E7E400A142B2
S11351C004D2814202D249005B00F8E7884201D34D
S11351D0401A1A434C08A04202D3001B5C08224325
S11351E08C08A04202D3001B9C082243CC08A04296
S11351F002D3001BDC082243002803D01B0901D082
S11352000909E3E7101C10BC7047002801D00020F6
S1135210C04307B4024802A14018029003BDC0462F
S1135220D90000000029F0D003B5FFF7B9FF0EBC88
S11352304243891A1847C046002941D010B4041CBF
S11352404C40A44601230022002900D549420028ED
S113525000D5404288422CD301242407A14204D221
S1135260814202D209011B01F8E7E400A14204D201
S1135270814202D249005B00F8E7884201D3401A18
S11352801A434C08A04202D3001B5C0822438C083A
S1135290A04202D3001B9C082243CC08A04202D3A4
S11352A0001BDC082243002803D01B0901D0090994
S11352B0E3E7101C6446002C00D5404210BC704744
S11352C0002806D003DB0020C043400801E0802012
S11352D0000607B4024802A14018029003BDC0466C
S11352E0190000000029EBD003B5FFF7A7FF0EBC9F
S11352F04243891A1847C0467047C0468446101C6A
S113530062468C46191C634600E0C0461FB501F096
S11353101BFE002801D40021C8421FBD10B501F0B6
S11353204FFD4042013010BD10B501F00DFE0028C4
S113533001DB002010BD012010BDC04610B501F0F6
S113534003FE002801DD002010BD012010BDC04671
S113535010B501F07FFD002801DC002010BD012004
S113536010BDC04610B501F075FD002801DA00201B
S113537010BD012010BDC0468446081C6146FFE7ED
S11353801FB500F06BFB002801D40021C8421FBDEB
S113539010B500F0F3FA4042013010BD10B500F032
S11353A05DFB002801DB002010BD012010BDC046BC
S11353B010B500F053FB002801DD002010BD0120D2
S11353C010BDC04610B500F001FB002801DC002030
S11353D010BD012010BDC04610B500F0F7FA00283A
S11353E001DA002010BD012010BDC0461C2101239C
S11353F01B04984201D3000C10391B0A984201D3B4
S1135400000A08391B09984201D30009043902A291
S1135410105C40187047C0460403020201010101F8
S113542000000000000000009E2110B5C905041C06
S1135430FFF7D2FF002803D1201C00F0F9FD10BDB6
S11354409E21C905201C00F07DFC00F0F1FD8023A5
S11354501B06C018F3E7C046F8B543024400C50F65
S11354604E024800240E2A1C9B09000EC90FB609DF
S11354708D425BD0221A002A00DC89E000281DD16D
S1135480002E00D075E0580704D00F221A40042AD9
S113549000D004338021C90419402A1C00293AD0C1
S11354A00134FF2C00D17FE09B015B0A5B02E4B274
S11354B0E405580AD20720431043F8BDFF2CE2D07C
S11354C08021C9040E431B2A00DD2BE1311C20205E
S11354D0D140821A9640721E96410E439B1B58017E
S11354E0D1D59B019F09381CFFF780FF421F9740CD
S11354F094425BDC141B1F231B1B3A1C9F40611C42
S11355003B1CCA405F1EBB4113430024BBE7131E70
S1135510B9D100230022DB08FF2C04D1002B43D097
S11355208020C00303435B025B0ABFE7211A002902
S113553040DD002823D0FF2CA5D08020C0040643E2
S11355401B2900DDECE0301C2027C840791A8E406E
S1135550711E8E4106439B19590100D493E701340F
S1135560FF2C55D0704901221A400B405B081343AD
S113557089E7013A002AB1D0FF2CA4D183E7002E99
S113558000D180E701390029E5D0FF2CD8D17AE792
S1135590002A1BD1621CD2B2012A4ADD9F1B7A0168
S11355A023D5F71A0D1C9EE700237FE75E4BA41A50
S11355B03B4068E7002945D1611CC8B2012829DDB8
S11355C0FF2924D0F3185B080C1C5CE7002C13D0D3
S11355D0FF2818D08024E404524223431B2A4CDDC4
S11355E00123F31A041C0D1C79E7002F00D07AE77D
S11355F00023002200248EE7002B3AD0D243002A55
S1135600EFD0FF28EAD1331CFF240D1C3BE7FF2415
S1135610002380E7002C5BD1002B7FD0002E00D12B
S113562031E79B19580100D42DE73F4A0124134068
S113563029E7002C15D1002B40D1002E62D0331C59
S11356400D1C20E7002C21D1002B54D0C943002984
S113565004D0FF284CD01B2957DD01239B19041CBF
S11356607AE7002B19D1002E48D0331C0D1CFF24DF
S113567009E7331C041C0D1C05E71C1C2025D44021
S1135680AA1A93405A1E93412343AAE7FF282FD016
S11356908024E40449422343DDE7FF24002E00D1A3
S11356A0F1E68022DB08D203134204D0F608164246
S11356B001D1331C0D1CDB00FF24E4E6002E00D1D5
S11356C0E1E69A1B500100D421E7F31A0D1CDAE637
S11356D0002B0DD0FF24002E00D1D4E68022DB085D
S11356E0D2031342E7D0F6081642E4D1331CE2E7B2
S11356F0331CFF24C7E6331C041CC4E600220B4BF6
S1135700FF2408E7231C002205E71C1C2027CC40AB
S1135710791A8B40591E8B4123439FE7331CB2E611
S1135720012618E70126D9E6FFFFFFFBF8FFFF0378
S1135730F0B55F4656464D464446F0B44602450031
S1135740C00F85B00F1C760A2D0E804641D0FF2D68
S113575026D08024240400212643F6007F3D894678
S11357608B46F90F7C027800640A000E00918A4689
S11357703CD0FF2834D080231B041C430023E400C6
S11357807F380193009F4346019A7B4049469C46DB
S113579011430F2900D970E0754F89007F58BF4627
S11357A0002E3ED10822022391469B46D9E75A4651
S11357B0341CC24601920199022937D0032900D131
S11357C0CEE0012900D0AAE053460B400022002677
S11357D032E0002E19D10421012289469346C0E704
S11357E0221C531E9A4102320192CBE701270197F2
S11357F0002CC7D0201CFFF7F9FD431F9C407623E3
S11358005B420021181A0191BCE7301CFFF7EEFD42
S11358107625431F9E406D4200232D1A99469B46D0
S11358209FE70C23032199468B469AE7D44601232C
S113583067463B40FF2200267602D205700ADB074A
S11358401043184305B03CBC90469946A246AB466B
S1135850F0BD0023474EFF22EEE700220026EBE7CF
S11358608020C00306423BD0044239D1061C2643A3
S11358707602760A009BFF22DEE7281A039076015F
S11358806401A64239D3361B1A2201230120311C9C
S11358905B007600002901DBB44201D8361B0343C8
S11358A0013A002AF3DC741EA641341C1C43039AFB
S11358B07F32002A27DD630704D00F232340042B03
S11358C000D00434270103D52B4B039A1C408032AB
S11358D0FE2A0BDD012361460B40FF220026ABE7C5
S11358E006437602760A4346FF22A5E7A401012374
S11358F06746660AD2B23B409EE7039F1B22013FE4
S113590003970023C2E77E23039F5B42DB1B1B2B11
S113591007DD012361460B40002200268CE7D446B4
S1135920C5E7221CDA40039B9E339C40231C5C1E6B
S1135930A34113435A0704D00F221A40042A00D06B
S113594004335F0105D5012361460B400122002683
S113595072E79E01624601231340760A00226BE738
S11359608026F60326437602760A5346FF2263E72F
S1135970D0980000FFFF7F00FFFFFFF74A024302B9
S113598070B55C0A550A43004A001B0EC60F120E7E
S1135990C90FFF2B05D0FF2A08D0012093420BD05A
S11359A070BD0120002CFBD1FF2AF6D10120002D6F
S11359B0F6D101209342F3D1AC42F1D18E4203D00F
S11359C0002BEDD1002CEBD10020E9E74A02430281
S11359D0F0B55C0A550A43004A001B0EC60F120EAE
S11359E0C90FFF2B26D0FF2A29D0002B0CD16042EF
S11359F060418446002A0AD0002816D18E4221D064
S1135A00002E14D1012014E0002AF7D194466F42ED
S1135A106F416046002805D1002FEFD00120002EF1
S1135A2007D004E00020002F03D10029EAD101208F
S1135A304042F0BD002CD6D002204042F9E7002DB0
S1135A40D3D0F9E79342DBDC04DBAC42D8D80020A6
S1135A50AC42EED2002EEAD00120EAE74A02430229
S1135A60F0B55C0A550A43004A001B0EC60F120E1D
S1135A70C90FFF2B26D0FF2A28D0002B0FD0002AD5
S1135A8014D194466F426F416046002814D0002020
S1135A90002F03D100290DD101204042F0BD604206
S1135AA060418446002AEDD00028F3D18E4211D003
S1135AB0002EF1D10120F1E7002FF7D00120002EB4
S1135AC0ECD0E9E70220002CE8D1D4E70220002D35
S1135AD0E4D1D2E79342EBDC04DBAC42E8D800200B
S1135AE0AC42DBD2002ED7D00120D7E7F0B55F4619
S1135AF056464D464446F0B44402460083B00F1C5B
S1135B00640A360EC50F002E41D0FF2E22D080230A
S1135B101B0400201C43E4007F3E82468046391C5F
S1135B204B007F02C90F7F0A1B0E8B463BD0FF2B15
S1135B3034D0802212041743FF007F3B00215A46D1
S1135B406A40019252460A430F2A62D87A48920068
S1135B5082589746002C3FD1082202239246984649
S1135B60DDE70195404602282AD1019A0125154016
S1135B70FF2300246402DB05600AED071843284371
S1135B8003B03CBC90469946A246AB46F0BD002CFF
S1135B9027D10420012282469046C0E7391C4A1EC0
S1135BA091410231CBE70121002FC8D0381CFFF707
S1135BB01DFC431F9F4076235B421B1A0021BEE756
S1135BC0032800D1ADE001284ED10198424610408F
S1135BD0C5B200230024CDE70C2303209A46804657
S1135BE09DE7201CFFF702FC7626431F9C4076426B
S1135BF00023361A9A46984691E700254F4CFF2316
S1135C00B8E75B463C1C01938846ABE73C1C8846DE
S1135C10A8E7250C24043A0C240C3F04F6183F0C86
S1135C20211C231C794353436F435543FB180A0C2F
S1135C309B18B1469F4202D980225202AD18090432
S1135C401A04090C521894011B0C611E8C41920E0B
S1135C50ED181443AD012C43230105D5012263083B
S1135C600120144081441C434B467F33002B2DDD1F
S1135C70600704D00F222240042A00D004342201F9
S1135C8003D52F4B1C404B468033FE2B17DD019B65
S1135C9001251D400024FF236CE78020C00304423B
S1135CA008D0074206D1041C3C436402640A5D46E2
S1135CB0FF235FE704436402640AFF235AE7019861
S1135CC0A4010125640ADBB2054053E77E235B424D
S1135CD04A469B1A1B2B05DD019B01251D40002410
S1135CE0002347E7221CDA404B469E339C40231C8A
